{
  "contractName": "AirdropFactory",
  "abi": [
    {
      "inputs": [
        {
          "internalType": "address",
          "name": "rewardsToken_",
          "type": "address"
        }
      ],
      "stateMutability": "nonpayable",
      "type": "constructor"
    },
    {
      "anonymous": false,
      "inputs": [
        {
          "indexed": false,
          "internalType": "address",
          "name": "addr",
          "type": "address"
        }
      ],
      "name": "AirdropCreated",
      "type": "event"
    },
    {
      "anonymous": false,
      "inputs": [
        {
          "indexed": true,
          "internalType": "address",
          "name": "previousOwner",
          "type": "address"
        },
        {
          "indexed": true,
          "internalType": "address",
          "name": "newOwner",
          "type": "address"
        }
      ],
      "name": "OwnershipTransferred",
      "type": "event"
    },
    {
      "inputs": [],
      "name": "owner",
      "outputs": [
        {
          "internalType": "address",
          "name": "",
          "type": "address"
        }
      ],
      "stateMutability": "view",
      "type": "function"
    },
    {
      "inputs": [],
      "name": "renounceOwnership",
      "outputs": [],
      "stateMutability": "nonpayable",
      "type": "function"
    },
    {
      "inputs": [],
      "name": "rewardsToken",
      "outputs": [
        {
          "internalType": "contract IRewardsToken",
          "name": "",
          "type": "address"
        }
      ],
      "stateMutability": "view",
      "type": "function"
    },
    {
      "inputs": [
        {
          "internalType": "address",
          "name": "newOwner",
          "type": "address"
        }
      ],
      "name": "transferOwnership",
      "outputs": [],
      "stateMutability": "nonpayable",
      "type": "function"
    },
    {
      "inputs": [
        {
          "internalType": "bytes32",
          "name": "merkleRoot",
          "type": "bytes32"
        },
        {
          "internalType": "uint256",
          "name": "total",
          "type": "uint256"
        }
      ],
      "name": "createAirdrop",
      "outputs": [
        {
          "internalType": "address",
          "name": "",
          "type": "address"
        }
      ],
      "stateMutability": "nonpayable",
      "type": "function"
    }
  ],
  "bytecode": "0x60a060405234801561001057600080fd5b50604051610bfd380380610bfd8339818101604052602081101561003357600080fd5b5051600061003f61010b565b600080546001600160a01b0319166001600160a01b0383169081178255604051929350917f8be0079c531659141344cd1fd0a4f28419497f9722a3daafe3b4186f6b6457e0908290a3506100a5816001600160a01b031661010f60201b61048d1760201c565b6100f6576040805162461bcd60e51b815260206004820152601d60248201527f52657761726473546f6b656e206d75737420626520636f6e7472616374000000604482015290519081900360640190fd5b60601b6001600160601b031916608052610115565b3390565b3b151590565b60805160601c610ac161013c60003980610222528061028452806103575250610ac16000f3fe608060405234801561001057600080fd5b50600436106100575760003560e01c8063715018a61461005c5780638da5cb5b146100665780638fa97cfd1461008a578063d1af0c7d146100ad578063f2fde38b146100b5575b600080fd5b6100646100db565b005b61006e610199565b604080516001600160a01b039092168252519081900360200190f35b61006e600480360360408110156100a057600080fd5b50803590602001356101a8565b61006e610355565b610064600480360360208110156100cb57600080fd5b50356001600160a01b0316610379565b6100e3610493565b6001600160a01b03166100f4610199565b6001600160a01b03161461014f576040805162461bcd60e51b815260206004820181905260248201527f4f776e61626c653a2063616c6c6572206973206e6f7420746865206f776e6572604482015290519081900360640190fd5b600080546040516001600160a01b03909116907f8be0079c531659141344cd1fd0a4f28419497f9722a3daafe3b4186f6b6457e0908390a3600080546001600160a01b0319169055565b6000546001600160a01b031690565b60006101b2610493565b6001600160a01b03166101c3610199565b6001600160a01b03161461021e576040805162461bcd60e51b815260206004820181905260248201527f4f776e61626c653a2063616c6c6572206973206e6f7420746865206f776e6572604482015290519081900360640190fd5b60007f00000000000000000000000000000000000000000000000000000000000000008460405161024e90610497565b6001600160a01b0390921682526020820152604080519182900301906000f08015801561027f573d6000803e3d6000fd5b5090507f00000000000000000000000000000000000000000000000000000000000000006001600160a01b03166340c10f1982856040518363ffffffff1660e01b815260040180836001600160a01b0316815260200182815260200192505050600060405180830381600087803b1580156102f957600080fd5b505af115801561030d573d6000803e3d6000fd5b5050604080516001600160a01b038516815290517f6de9d4eaa10e18ecc95e73fd9c072390dc7373156d2b52477f38338eff8d1cb49350908190036020019150a19392505050565b7f000000000000000000000000000000000000000000000000000000000000000081565b610381610493565b6001600160a01b0316610392610199565b6001600160a01b0316146103ed576040805162461bcd60e51b815260206004820181905260248201527f4f776e61626c653a2063616c6c6572206973206e6f7420746865206f776e6572604482015290519081900360640190fd5b6001600160a01b0381166104325760405162461bcd60e51b8152600401808060200182810382526026815260200180610a666026913960400191505060405180910390fd5b600080546040516001600160a01b03808516939216917f8be0079c531659141344cd1fd0a4f28419497f9722a3daafe3b4186f6b6457e091a3600080546001600160a01b0319166001600160a01b0392909216919091179055565b3b151590565b3390565b6105c1806104a58339019056fe60c060405234801561001057600080fd5b506040516105c13803806105c18339818101604052604081101561003357600080fd5b508051602090910151606082901b6001600160601b03191660805260a08190526001600160a01b039091169061053b6100866000398061021c52806103c95250806102935280610413525061053b6000f3fe608060405234801561001057600080fd5b506004361061004c5760003560e01c80632e7ba6ef146100515780632eb4a7ab146100df5780639e34070f146100f9578063fc0c546a1461012a575b600080fd5b6100dd6004803603608081101561006757600080fd5b8135916001600160a01b03602082013516916040820135919081019060808101606082013564010000000081111561009e57600080fd5b8201836020820111156100b057600080fd5b803590602001918460208302840111640100000000831117156100d257600080fd5b50909250905061014e565b005b6100e76103c7565b60408051918252519081900360200190f35b6101166004803603602081101561010f57600080fd5b50356103eb565b604080519115158252519081900360200190f35b610132610411565b604080516001600160a01b039092168252519081900360200190f35b610157856103eb565b156101a0576040805162461bcd60e51b8152602060048201526014602482015273111c9bdc08185b1c9958591e4818db185a5b595960621b604482015290519081900360640190fd5b600085858560405160200180848152602001836001600160a01b031660601b815260140182815260200193505050506040516020818303038152906040528051906020012090506102478383808060200260200160405190810160405280939291908181526020018383602002808284376000920191909152507f000000000000000000000000000000000000000000000000000000000000000092508591506104359050565b610288576040805162461bcd60e51b815260206004820152600d60248201526c24b73b30b634b210383937b7b360991b604482015290519081900360640190fd5b610291866104de565b7f00000000000000000000000000000000000000000000000000000000000000006001600160a01b031663a9059cbb86866040518363ffffffff1660e01b815260040180836001600160a01b0316815260200182815260200192505050602060405180830381600087803b15801561030857600080fd5b505af115801561031c573d6000803e3d6000fd5b505050506040513d602081101561033257600080fd5b5051610377576040805162461bcd60e51b815260206004820152600f60248201526e151c985b9cd9995c8819985a5b1959608a1b604482015290519081900360640190fd5b604080518781526001600160a01b038716602082015280820186905290517f4ec90e965519d92681267467f775ada5bd214aa92c0dc93d90a5e880ce9ed0269181900360600190a1505050505050565b7f000000000000000000000000000000000000000000000000000000000000000090565b6101008104600090815260208190526040902054600160ff9092169190911b9081161490565b7f000000000000000000000000000000000000000000000000000000000000000090565b600081815b85518110156104d357600086828151811061045157fe5b6020026020010151905080831161049857828160405160200180838152602001828152602001925050506040516020818303038152906040528051906020012092506104ca565b808360405160200180838152602001828152602001925050506040516020818303038152906040528051906020012092505b5060010161043a565b509092149392505050565b610100810460009081526020819052604090208054600160ff9093169290921b909117905556fea2646970667358221220b93e6c40ac31ce358596d3df202da1a8fe1eb5dcb494949abee9c429df77246264736f6c634300070600334f776e61626c653a206e6577206f776e657220697320746865207a65726f2061646472657373a26469706673582212207033b02819ce151e56ac979dd38e21a7a981bc99f1bd5c42b4892f65a18b17cd64736f6c63430007060033",
  "immutableReferences": {
    "273": [
      {
        "length": 32,
        "start": 546
      },
      {
        "length": 32,
        "start": 644
      },
      {
        "length": 32,
        "start": 855
      }
    ]
  },
  "source": "// SPDX-License-Identifier: MIT\npragma solidity ^0.7.6;\n\nimport \"@openzeppelin/contracts/access/Ownable.sol\";\nimport \"@openzeppelin/contracts/utils/Address.sol\";\n\nimport \"./MerkleDistributor.sol\";\nimport \"../interfaces/IRewardsToken.sol\";\nimport \"../interfaces/IAirdropFactory.sol\";\n\ncontract AirdropFactory is IAirdropFactory, Ownable {\n    using Address for address;\n\n    IRewardsToken public immutable rewardsToken;\n\n    constructor(address rewardsToken_) {\n        require(rewardsToken_.isContract(), \"RewardsToken must be contract\");\n        rewardsToken = IRewardsToken(rewardsToken_);\n    }\n\n    function createAirdrop(bytes32 merkleRoot, uint256 total)\n        external\n        override\n        onlyOwner\n        returns (address)\n    {\n        MerkleDistributor airdrop =\n            new MerkleDistributor(address(rewardsToken), merkleRoot);\n        rewardsToken.mint(address(airdrop), total);\n        emit AirdropCreated(address(airdrop));\n        return address(airdrop);\n    }\n}\n",
  "sourcePath": "/home/nailkhaf/Projects/san-games/contracts/airdrop/AirdropFactory.sol",
  "compiler": {
    "name": "solc",
    "version": "0.7.6+commit.7338295f.Emscripten.clang"
  },
  "schemaVersion": "3.3.3",
  "updatedAt": "2021-02-22T12:24:27.771Z",
  "devdoc": {
    "kind": "dev",
    "methods": {
      "createAirdrop(bytes32,uint256)": {
        "details": "Mint `total` amount of rewards tokens and deploy airdrop contract {MerkleDistributor} with `merkleRoot`. Return address of deployed contract."
      },
      "owner()": {
        "details": "Returns the address of the current owner."
      },
      "renounceOwnership()": {
        "details": "Leaves the contract without owner. It will not be possible to call `onlyOwner` functions anymore. Can only be called by the current owner. NOTE: Renouncing ownership will leave the contract without an owner, thereby removing any functionality that is only available to the owner."
      },
      "transferOwnership(address)": {
        "details": "Transfers ownership of the contract to a new account (`newOwner`). Can only be called by the current owner."
      }
    },
    "version": 1
  },
  "userdoc": {
    "kind": "user",
    "methods": {},
    "version": 1
  }
}