{
  "contractName": "FarmingRewards",
  "abi": [
    {
      "inputs": [
        {
          "internalType": "string",
          "name": "_name",
          "type": "string"
        },
        {
          "internalType": "string",
          "name": "_symbol",
          "type": "string"
        },
        {
          "internalType": "uint256",
          "name": "_rewardsDuration",
          "type": "uint256"
        },
        {
          "internalType": "address",
          "name": "_rewardsToken",
          "type": "address"
        },
        {
          "internalType": "address",
          "name": "_stakingToken",
          "type": "address"
        },
        {
          "internalType": "uint256",
          "name": "_maximalStake",
          "type": "uint256"
        }
      ],
      "stateMutability": "nonpayable",
      "type": "constructor"
    },
    {
      "anonymous": false,
      "inputs": [
        {
          "indexed": true,
          "internalType": "address",
          "name": "owner",
          "type": "address"
        },
        {
          "indexed": true,
          "internalType": "address",
          "name": "spender",
          "type": "address"
        },
        {
          "indexed": false,
          "internalType": "uint256",
          "name": "value",
          "type": "uint256"
        }
      ],
      "name": "Approval",
      "type": "event"
    },
    {
      "anonymous": false,
      "inputs": [
        {
          "indexed": true,
          "internalType": "address",
          "name": "previousOwner",
          "type": "address"
        },
        {
          "indexed": true,
          "internalType": "address",
          "name": "newOwner",
          "type": "address"
        }
      ],
      "name": "OwnershipTransferred",
      "type": "event"
    },
    {
      "anonymous": false,
      "inputs": [
        {
          "indexed": false,
          "internalType": "uint256",
          "name": "reward",
          "type": "uint256"
        }
      ],
      "name": "RewardAdded",
      "type": "event"
    },
    {
      "anonymous": false,
      "inputs": [
        {
          "indexed": true,
          "internalType": "address",
          "name": "user",
          "type": "address"
        },
        {
          "indexed": false,
          "internalType": "uint256",
          "name": "reward",
          "type": "uint256"
        }
      ],
      "name": "RewardPaid",
      "type": "event"
    },
    {
      "anonymous": false,
      "inputs": [
        {
          "indexed": true,
          "internalType": "address",
          "name": "user",
          "type": "address"
        },
        {
          "indexed": false,
          "internalType": "uint256",
          "name": "amount",
          "type": "uint256"
        }
      ],
      "name": "Staked",
      "type": "event"
    },
    {
      "anonymous": false,
      "inputs": [
        {
          "indexed": true,
          "internalType": "address",
          "name": "from",
          "type": "address"
        },
        {
          "indexed": true,
          "internalType": "address",
          "name": "to",
          "type": "address"
        },
        {
          "indexed": false,
          "internalType": "uint256",
          "name": "value",
          "type": "uint256"
        }
      ],
      "name": "Transfer",
      "type": "event"
    },
    {
      "anonymous": false,
      "inputs": [
        {
          "indexed": false,
          "internalType": "address",
          "name": "previous",
          "type": "address"
        },
        {
          "indexed": false,
          "internalType": "address",
          "name": "current",
          "type": "address"
        }
      ],
      "name": "TrustedForwarderChanged",
      "type": "event"
    },
    {
      "anonymous": false,
      "inputs": [
        {
          "indexed": true,
          "internalType": "address",
          "name": "user",
          "type": "address"
        },
        {
          "indexed": false,
          "internalType": "uint256",
          "name": "amount",
          "type": "uint256"
        }
      ],
      "name": "Withdrawn",
      "type": "event"
    },
    {
      "inputs": [
        {
          "internalType": "address",
          "name": "owner",
          "type": "address"
        },
        {
          "internalType": "address",
          "name": "spender",
          "type": "address"
        }
      ],
      "name": "allowance",
      "outputs": [
        {
          "internalType": "uint256",
          "name": "",
          "type": "uint256"
        }
      ],
      "stateMutability": "view",
      "type": "function"
    },
    {
      "inputs": [
        {
          "internalType": "address",
          "name": "spender",
          "type": "address"
        },
        {
          "internalType": "uint256",
          "name": "amount",
          "type": "uint256"
        }
      ],
      "name": "approve",
      "outputs": [
        {
          "internalType": "bool",
          "name": "",
          "type": "bool"
        }
      ],
      "stateMutability": "nonpayable",
      "type": "function"
    },
    {
      "inputs": [
        {
          "internalType": "address",
          "name": "account",
          "type": "address"
        }
      ],
      "name": "balanceOf",
      "outputs": [
        {
          "internalType": "uint256",
          "name": "",
          "type": "uint256"
        }
      ],
      "stateMutability": "view",
      "type": "function"
    },
    {
      "inputs": [],
      "name": "decimals",
      "outputs": [
        {
          "internalType": "uint8",
          "name": "",
          "type": "uint8"
        }
      ],
      "stateMutability": "view",
      "type": "function"
    },
    {
      "inputs": [
        {
          "internalType": "address",
          "name": "spender",
          "type": "address"
        },
        {
          "internalType": "uint256",
          "name": "subtractedValue",
          "type": "uint256"
        }
      ],
      "name": "decreaseAllowance",
      "outputs": [
        {
          "internalType": "bool",
          "name": "",
          "type": "bool"
        }
      ],
      "stateMutability": "nonpayable",
      "type": "function"
    },
    {
      "inputs": [
        {
          "internalType": "address",
          "name": "account",
          "type": "address"
        }
      ],
      "name": "earned",
      "outputs": [
        {
          "internalType": "uint256",
          "name": "",
          "type": "uint256"
        }
      ],
      "stateMutability": "view",
      "type": "function"
    },
    {
      "inputs": [
        {
          "internalType": "address",
          "name": "account",
          "type": "address"
        }
      ],
      "name": "exit",
      "outputs": [],
      "stateMutability": "nonpayable",
      "type": "function"
    },
    {
      "inputs": [
        {
          "internalType": "address",
          "name": "spender",
          "type": "address"
        },
        {
          "internalType": "uint256",
          "name": "addedValue",
          "type": "uint256"
        }
      ],
      "name": "increaseAllowance",
      "outputs": [
        {
          "internalType": "bool",
          "name": "",
          "type": "bool"
        }
      ],
      "stateMutability": "nonpayable",
      "type": "function"
    },
    {
      "inputs": [
        {
          "internalType": "address",
          "name": "forwarder",
          "type": "address"
        }
      ],
      "name": "isTrustedForwarder",
      "outputs": [
        {
          "internalType": "bool",
          "name": "",
          "type": "bool"
        }
      ],
      "stateMutability": "view",
      "type": "function"
    },
    {
      "inputs": [],
      "name": "maximalStake",
      "outputs": [
        {
          "internalType": "uint256",
          "name": "",
          "type": "uint256"
        }
      ],
      "stateMutability": "view",
      "type": "function"
    },
    {
      "inputs": [],
      "name": "name",
      "outputs": [
        {
          "internalType": "string",
          "name": "",
          "type": "string"
        }
      ],
      "stateMutability": "view",
      "type": "function"
    },
    {
      "inputs": [],
      "name": "owner",
      "outputs": [
        {
          "internalType": "address",
          "name": "",
          "type": "address"
        }
      ],
      "stateMutability": "view",
      "type": "function"
    },
    {
      "inputs": [],
      "name": "periodFinish",
      "outputs": [
        {
          "internalType": "uint256",
          "name": "",
          "type": "uint256"
        }
      ],
      "stateMutability": "view",
      "type": "function"
    },
    {
      "inputs": [],
      "name": "renounceOwnership",
      "outputs": [],
      "stateMutability": "nonpayable",
      "type": "function"
    },
    {
      "inputs": [],
      "name": "rewardsDuration",
      "outputs": [
        {
          "internalType": "uint256",
          "name": "",
          "type": "uint256"
        }
      ],
      "stateMutability": "view",
      "type": "function"
    },
    {
      "inputs": [],
      "name": "rewardsToken",
      "outputs": [
        {
          "internalType": "contract IRewardsToken",
          "name": "",
          "type": "address"
        }
      ],
      "stateMutability": "view",
      "type": "function"
    },
    {
      "inputs": [
        {
          "internalType": "address",
          "name": "account",
          "type": "address"
        },
        {
          "internalType": "uint256",
          "name": "amount",
          "type": "uint256"
        }
      ],
      "name": "stake",
      "outputs": [],
      "stateMutability": "nonpayable",
      "type": "function"
    },
    {
      "inputs": [],
      "name": "stakingToken",
      "outputs": [
        {
          "internalType": "contract IERC20",
          "name": "",
          "type": "address"
        }
      ],
      "stateMutability": "view",
      "type": "function"
    },
    {
      "inputs": [],
      "name": "symbol",
      "outputs": [
        {
          "internalType": "string",
          "name": "",
          "type": "string"
        }
      ],
      "stateMutability": "view",
      "type": "function"
    },
    {
      "inputs": [],
      "name": "totalSupply",
      "outputs": [
        {
          "internalType": "uint256",
          "name": "",
          "type": "uint256"
        }
      ],
      "stateMutability": "view",
      "type": "function"
    },
    {
      "inputs": [
        {
          "internalType": "address",
          "name": "recipient",
          "type": "address"
        },
        {
          "internalType": "uint256",
          "name": "amount",
          "type": "uint256"
        }
      ],
      "name": "transfer",
      "outputs": [
        {
          "internalType": "bool",
          "name": "",
          "type": "bool"
        }
      ],
      "stateMutability": "nonpayable",
      "type": "function"
    },
    {
      "inputs": [
        {
          "internalType": "address",
          "name": "sender",
          "type": "address"
        },
        {
          "internalType": "address",
          "name": "recipient",
          "type": "address"
        },
        {
          "internalType": "uint256",
          "name": "amount",
          "type": "uint256"
        }
      ],
      "name": "transferFrom",
      "outputs": [
        {
          "internalType": "bool",
          "name": "",
          "type": "bool"
        }
      ],
      "stateMutability": "nonpayable",
      "type": "function"
    },
    {
      "inputs": [
        {
          "internalType": "address",
          "name": "newOwner",
          "type": "address"
        }
      ],
      "name": "transferOwnership",
      "outputs": [],
      "stateMutability": "nonpayable",
      "type": "function"
    },
    {
      "inputs": [],
      "name": "trustedForwarder",
      "outputs": [
        {
          "internalType": "address",
          "name": "",
          "type": "address"
        }
      ],
      "stateMutability": "view",
      "type": "function"
    },
    {
      "inputs": [
        {
          "internalType": "address",
          "name": "account",
          "type": "address"
        },
        {
          "internalType": "uint256",
          "name": "amount",
          "type": "uint256"
        }
      ],
      "name": "withdraw",
      "outputs": [],
      "stateMutability": "nonpayable",
      "type": "function"
    },
    {
      "inputs": [
        {
          "internalType": "address",
          "name": "account",
          "type": "address"
        }
      ],
      "name": "getReward",
      "outputs": [],
      "stateMutability": "nonpayable",
      "type": "function"
    },
    {
      "inputs": [
        {
          "internalType": "address",
          "name": "trustedForwarder",
          "type": "address"
        }
      ],
      "name": "setTrustedForwarder",
      "outputs": [],
      "stateMutability": "nonpayable",
      "type": "function"
    },
    {
      "inputs": [
        {
          "internalType": "uint256",
          "name": "reward",
          "type": "uint256"
        }
      ],
      "name": "notifyRewardAmount",
      "outputs": [],
      "stateMutability": "nonpayable",
      "type": "function"
    },
    {
      "inputs": [],
      "name": "versionRecipient",
      "outputs": [
        {
          "internalType": "string",
          "name": "",
          "type": "string"
        }
      ],
      "stateMutability": "pure",
      "type": "function"
    }
  ],
  "bytecode": "0x6101006040523480156200001257600080fd5b50604051620022ef380380620022ef833981810160405260c08110156200003857600080fd5b81019080805160405193929190846401000000008211156200005957600080fd5b9083019060208201858111156200006f57600080fd5b82516401000000008111828201881017156200008a57600080fd5b82525081516020918201929091019080838360005b83811015620000b95781810151838201526020016200009f565b50505050905090810190601f168015620000e75780820380516001836020036101000a031916815260200191505b50604052602001805160405193929190846401000000008211156200010b57600080fd5b9083019060208201858111156200012157600080fd5b82516401000000008111828201881017156200013c57600080fd5b82525081516020918201929091019080838360005b838110156200016b57818101518382015260200162000151565b50505050905090810190601f168015620001995780820380516001836020036101000a031916815260200191505b506040908152602082810151918301516060840151608090940151885193965090945091879187918691869186918691869183918391620001e09160039185019062000439565b508051620001f690600490602084019062000439565b50506005805460ff19166012179055505050806200025b576040805162461bcd60e51b815260206004820152601560248201527f4d6178696d616c207374616b65206973207a65726f0000000000000000000000604482015290519081900360640190fd5b6200027a836001600160a01b0316620003ca60201b6200139b1760201c565b620002cc576040805162461bcd60e51b815260206004820152601d60248201527f52657761726473546f6b656e206d75737420626520636f6e7472616374000000604482015290519081900360640190fd5b620002eb826001600160a01b0316620003ca60201b6200139b1760201c565b6200033d576040805162461bcd60e51b815260206004820152601d60248201527f52657761726473546f6b656e206d75737420626520636f6e7472616374000000604482015290519081900360640190fd5b6001600160601b0319606093841b81166080529190921b1660a05260c05250600090506200036a620003d0565b600c80546001600160a01b0319166001600160a01b038316908117909155604051919250906000907f8be0079c531659141344cd1fd0a4f28419497f9722a3daafe3b4186f6b6457e0908290a350505060e09190915250620004e5915050565b3b151590565b6000620003e7620003ed60201b620013a11760201c565b90505b90565b600060183610801590620004075750620004073362000425565b156200041d575060131936013560601c620003ea565b5033620003ea565b600b546001600160a01b0390811691161490565b828054600181600116156101000203166002900490600052602060002090601f016020900481019282620004715760008555620004bc565b82601f106200048c57805160ff1916838001178555620004bc565b82800160010185558215620004bc579182015b82811115620004bc5782518255916020019190600101906200049f565b50620004ca929150620004ce565b5090565b5b80821115620004ca5760008155600101620004cf565b60805160601c60a05160601c60c05160e051611da16200054e6000398061072c528061086952806108c552806109975280610a1d525080610d7b5280610eea525080610b795280610e0852806113305250806108f85280610ff0528061105e5250611da16000f3fe608060405234801561001057600080fd5b50600436106101ce5760003560e01c80637da0a87711610104578063b4509cb5116100a2578063dd62ed3e11610071578063dd62ed3e146104e9578063ebe2b12b14610517578063f2fde38b1461051f578063f3fef3a314610545576101ce565b8063b4509cb51461048d578063c00007b014610495578063d1af0c7d146104bb578063da742228146104c3576101ce565b8063a457c2d7116100de578063a457c2d71461040f578063a9059cbb14610288578063adc9772e1461043b578063b42652e914610467576101ce565b80637da0a877146103f75780638da5cb5b146103ff57806395d89b4114610407576101ce565b80633950935111610171578063572b6c051161014b578063572b6c051461037f57806370a08231146103a5578063715018a6146103cb57806372f702f3146103d3576101ce565b8063395093511461032c5780633c6b16ab14610358578063486ff0cd14610377576101ce565b806318160ddd116101ad57806318160ddd146102c857806323b872dd146102d0578063313ce56714610306578063386a952514610324576101ce565b80628cc262146101d357806306fdde031461020b578063095ea7b314610288575b600080fd5b6101f9600480360360208110156101e957600080fd5b50356001600160a01b0316610571565b60408051918252519081900360200190f35b6102136105df565b6040805160208082528351818301528351919283929083019185019080838360005b8381101561024d578181015183820152602001610235565b50505050905090810190601f16801561027a5780820380516001836020036101000a031916815260200191505b509250505060405180910390f35b6102b46004803603604081101561029e57600080fd5b506001600160a01b038135169060200135610676565b604080519115158252519081900360200190f35b6101f9610693565b6102b4600480360360608110156102e657600080fd5b506001600160a01b03813581169160208101359091169060400135610699565b61030e610721565b6040805160ff9092168252519081900360200190f35b6101f961072a565b6102b46004803603604081101561034257600080fd5b506001600160a01b03813516906020013561074e565b6103756004803603602081101561036e57600080fd5b503561079c565b005b610213610a7c565b6102b46004803603602081101561039557600080fd5b50356001600160a01b0316610a9c565b6101f9600480360360208110156103bb57600080fd5b50356001600160a01b0316610ab0565b610375610acb565b6103db610b77565b604080516001600160a01b039092168252519081900360200190f35b6103db610b9b565b6103db610baa565b610213610bb9565b6102b46004803603604081101561042557600080fd5b506001600160a01b038135169060200135610c1a565b6103756004803603604081101561045157600080fd5b506001600160a01b038135169060200135610c82565b6103756004803603602081101561047d57600080fd5b50356001600160a01b0316610e74565b6101f9610ee8565b610375600480360360208110156104ab57600080fd5b50356001600160a01b0316610f0c565b6103db61105c565b610375600480360360208110156104d957600080fd5b50356001600160a01b0316611080565b6101f9600480360360408110156104ff57600080fd5b506001600160a01b03813581169160200135166110eb565b6101f9611116565b6103756004803603602081101561053557600080fd5b50356001600160a01b031661111c565b6103756004803603604081101561055b57600080fd5b506001600160a01b03813516906020013561121f565b6001600160a01b0381166000908152600a602090815260408083205460099092528220546105d991906105d390670de0b6b3a7640000906105cd906105be906105b86113d3565b90611426565b6105c788610ab0565b90611483565b906114dc565b90611543565b92915050565b60038054604080516020601f600260001961010060018816150201909516949094049384018190048102820181019092528281526060939092909183018282801561066b5780601f106106405761010080835404028352916020019161066b565b820191906000526020600020905b81548152906001019060200180831161064e57829003601f168201915b505050505090505b90565b600061068a61068361159d565b84846115a7565b50600192915050565b60025490565b60006106a68484846115a7565b610716846106b261159d565b61071185604051806060016040528060288152602001611cb4602891396001600160a01b038a166000908152600160205260408120906106f061159d565b6001600160a01b0316815260208101919091526040016000205491906115e0565b6115a7565b5060015b9392505050565b60055460ff1690565b7f000000000000000000000000000000000000000000000000000000000000000081565b600061068a61075b61159d565b84610711856001600061076c61159d565b6001600160a01b03908116825260208083019390935260409182016000908120918c168152925290205490611543565b6107a461159d565b6001600160a01b03166107b5610baa565b6001600160a01b0316146107fe576040805162461bcd60e51b81526020600482018190526024820152600080516020611cdc833981519152604482015290519081900360640190fd5b60006108086113d3565b600855610813611677565b6007556001600160a01b0381161561085a5761082e81610571565b6001600160a01b0382166000908152600a60209081526040808320939093556008546009909152919020555b60065442106108955761088d827f00000000000000000000000000000000000000000000000000000000000000006114dc565b600d556108f4565b6006546000906108a59042611426565b905060006108be600d548361148390919063ffffffff16565b90506108ee7f00000000000000000000000000000000000000000000000000000000000000006105cd8684611543565b600d5550505b60007f00000000000000000000000000000000000000000000000000000000000000006001600160a01b03166370a08231306040518263ffffffff1660e01b815260040180826001600160a01b0316815260200191505060206040518083038186803b15801561096357600080fd5b505afa158015610977573d6000803e3d6000fd5b505050506040513d602081101561098d57600080fd5b505190506109bb817f00000000000000000000000000000000000000000000000000000000000000006114dc565b600d541115610a11576040805162461bcd60e51b815260206004820152601860248201527f50726f76696465642072657761726420746f6f20686967680000000000000000604482015290519081900360640190fd5b426007819055610a41907f0000000000000000000000000000000000000000000000000000000000000000611543565b6006556040805184815290517fde88a922e0d3b88b24e9623efeb464919c6bf9f66857a65e2bfcf2ce87a9433d9181900360200190a1505050565b604080518082019091526006815265322e302e302b60d01b602082015290565b600b546001600160a01b0390811691161490565b6001600160a01b031660009081526020819052604090205490565b610ad361159d565b6001600160a01b0316610ae4610baa565b6001600160a01b031614610b2d576040805162461bcd60e51b81526020600482018190526024820152600080516020611cdc833981519152604482015290519081900360640190fd5b600c546040516000916001600160a01b0316907f8be0079c531659141344cd1fd0a4f28419497f9722a3daafe3b4186f6b6457e0908390a3600c80546001600160a01b0319169055565b7f000000000000000000000000000000000000000000000000000000000000000081565b600b546001600160a01b031681565b600c546001600160a01b031690565b60048054604080516020601f600260001961010060018816150201909516949094049384018190048102820181019092528281526060939092909183018282801561066b5780601f106106405761010080835404028352916020019161066b565b600061068a610c2761159d565b8461071185604051806060016040528060258152602001611d476025913960016000610c5161159d565b6001600160a01b03908116825260208083019390935260409182016000908120918d168152925290205491906115e0565b81610c8b6113d3565b600855610c96611677565b6007556001600160a01b03811615610cdd57610cb181610571565b6001600160a01b0382166000908152600a60209081526040808320939093556008546009909152919020555b6001600160a01b0383163314610d33576040805162461bcd60e51b815260206004820152601660248201527514d95b99195c881b5d5cdd081899481858d8dbdd5b9d60521b604482015290519081900360640190fd5b60008211610d79576040805162461bcd60e51b815260206004820152600e60248201526d043616e6e6f74207374616b6520360941b604482015290519081900360640190fd5b7f0000000000000000000000000000000000000000000000000000000000000000610da7836105d386610ab0565b1115610df1576040805162461bcd60e51b815260206004820152601460248201527314dd185ad948195e18d95959081b585e1a5b585b60621b604482015290519081900360640190fd5b610dfb8383611685565b610e306001600160a01b037f000000000000000000000000000000000000000000000000000000000000000016843085611775565b6040805183815290516001600160a01b038516917f9e71bc8eea02a63969f509818f2dafb9254532904319f9dbda79b67bd34a5f3d919081900360200190a2505050565b6001600160a01b0381163314610eca576040805162461bcd60e51b815260206004820152601660248201527514d95b99195c881b5d5cdd081899481858d8dbdd5b9d60521b604482015290519081900360640190fd5b610edc81610ed783610ab0565b61121f565b610ee581610f0c565b50565b7f000000000000000000000000000000000000000000000000000000000000000090565b80610f156113d3565b600855610f20611677565b6007556001600160a01b03811615610f6757610f3b81610571565b6001600160a01b0382166000908152600a60209081526040808320939093556008546009909152919020555b6001600160a01b0382163314610fbd576040805162461bcd60e51b815260206004820152601660248201527514d95b99195c881b5d5cdd081899481858d8dbdd5b9d60521b604482015290519081900360640190fd5b6000610fc883610571565b90508015611057576001600160a01b038084166000908152600a6020526040812055611017907f00000000000000000000000000000000000000000000000000000000000000001684836117d5565b6040805182815290516001600160a01b038516917fe2403640ba68fed3a2f88b7557551d1993f84b99bb10ff833f0cf8db0c5e0486919081900360200190a25b505050565b7f000000000000000000000000000000000000000000000000000000000000000081565b61108861159d565b6001600160a01b0316611099610baa565b6001600160a01b0316146110e2576040805162461bcd60e51b81526020600482018190526024820152600080516020611cdc833981519152604482015290519081900360640190fd5b610ee581611827565b6001600160a01b03918216600090815260016020908152604080832093909416825291909152205490565b60065490565b61112461159d565b6001600160a01b0316611135610baa565b6001600160a01b03161461117e576040805162461bcd60e51b81526020600482018190526024820152600080516020611cdc833981519152604482015290519081900360640190fd5b6001600160a01b0381166111c35760405162461bcd60e51b8152600401808060200182810382526026815260200180611c476026913960400191505060405180910390fd5b600c546040516001600160a01b038084169216907f8be0079c531659141344cd1fd0a4f28419497f9722a3daafe3b4186f6b6457e090600090a3600c80546001600160a01b0319166001600160a01b0392909216919091179055565b816112286113d3565b600855611233611677565b6007556001600160a01b0381161561127a5761124e81610571565b6001600160a01b0382166000908152600a60209081526040808320939093556008546009909152919020555b6001600160a01b03831633146112d0576040805162461bcd60e51b815260206004820152601660248201527514d95b99195c881b5d5cdd081899481858d8dbdd5b9d60521b604482015290519081900360640190fd5b60008211611319576040805162461bcd60e51b8152602060048201526011602482015270043616e6e6f74207769746864726177203607c1b604482015290519081900360640190fd5b6113238383611889565b6113576001600160a01b037f00000000000000000000000000000000000000000000000000000000000000001684846117d5565b6040805183815290516001600160a01b038516917f7084f5476618d8e60b11ef0d7d3f06914655adb8793e28ff7f018d4c76d505d5919081900360200190a2505050565b3b151590565b6000601836108015906113b857506113b833610a9c565b156113cc575060131936013560601c610673565b5033610673565b60006113dd610693565b6113ea5750600854610673565b6114216114186113f8610693565b6105cd670de0b6b3a76400006105c7600d546105c76007546105b8611677565b60085490611543565b905090565b60008282111561147d576040805162461bcd60e51b815260206004820152601e60248201527f536166654d6174683a207375627472616374696f6e206f766572666c6f770000604482015290519081900360640190fd5b50900390565b600082611492575060006105d9565b8282028284828161149f57fe5b041461071a5760405162461bcd60e51b8152600401808060200182810382526021815260200180611c936021913960400191505060405180910390fd5b6000808211611532576040805162461bcd60e51b815260206004820152601a60248201527f536166654d6174683a206469766973696f6e206279207a65726f000000000000604482015290519081900360640190fd5b81838161153b57fe5b049392505050565b60008282018381101561071a576040805162461bcd60e51b815260206004820152601b60248201527f536166654d6174683a206164646974696f6e206f766572666c6f770000000000604482015290519081900360640190fd5b60006114216113a1565b6040805162461bcd60e51b81526020600482015260096024820152682337b93134b23232b760b91b604482015290519081900360640190fd5b6000818484111561166f5760405162461bcd60e51b81526004018080602001828103825283818151815260200191508051906020019080838360005b8381101561163457818101518382015260200161161c565b50505050905090810190601f1680156116615780820380516001836020036101000a031916815260200191505b509250505060405180910390fd5b505050900390565b600061142142600654611985565b6001600160a01b0382166116e0576040805162461bcd60e51b815260206004820152601f60248201527f45524332303a206d696e7420746f20746865207a65726f206164647265737300604482015290519081900360640190fd5b6116ec60008383611057565b6002546116f99082611543565b6002556001600160a01b03821660009081526020819052604090205461171f9082611543565b6001600160a01b0383166000818152602081815260408083209490945583518581529351929391927fddf252ad1be2c89b69c2b068fc378daa952ba7f163c4a11628f55a4df523b3ef9281900390910190a35050565b604080516001600160a01b0380861660248301528416604482015260648082018490528251808303909101815260849091019091526020810180516001600160e01b03166323b872dd60e01b1790526117cf90859061199b565b50505050565b604080516001600160a01b038416602482015260448082018490528251808303909101815260649091019091526020810180516001600160e01b031663a9059cbb60e01b17905261105790849061199b565b600b80546001600160a01b038381166001600160a01b0319831617928390556040805192821680845293909116602083015280517f06dff7401eb7fb04d241246ade7f817c7ad512b1bed61c18aedd9bc51eec04759281900390910190a15050565b6001600160a01b0382166118ce5760405162461bcd60e51b8152600401808060200182810382526021815260200180611cfc6021913960400191505060405180910390fd5b6118da82600083611057565b61191781604051806060016040528060228152602001611c25602291396001600160a01b03851660009081526020819052604090205491906115e0565b6001600160a01b03831660009081526020819052604090205560025461193d9082611426565b6002556040805182815290516000916001600160a01b038516917fddf252ad1be2c89b69c2b068fc378daa952ba7f163c4a11628f55a4df523b3ef9181900360200190a35050565b6000818310611994578161071a565b5090919050565b60006119f0826040518060400160405280602081526020017f5361666545524332303a206c6f772d6c6576656c2063616c6c206661696c6564815250856001600160a01b0316611a4c9092919063ffffffff16565b80519091501561105757808060200190516020811015611a0f57600080fd5b50516110575760405162461bcd60e51b815260040180806020018281038252602a815260200180611d1d602a913960400191505060405180910390fd5b6060611a5b8484600085611a63565b949350505050565b606082471015611aa45760405162461bcd60e51b8152600401808060200182810382526026815260200180611c6d6026913960400191505060405180910390fd5b611aad8561139b565b611afe576040805162461bcd60e51b815260206004820152601d60248201527f416464726573733a2063616c6c20746f206e6f6e2d636f6e7472616374000000604482015290519081900360640190fd5b600080866001600160a01b031685876040518082805190602001908083835b60208310611b3c5780518252601f199092019160209182019101611b1d565b6001836020036101000a03801982511681845116808217855250505050505090500191505060006040518083038185875af1925050503d8060008114611b9e576040519150601f19603f3d011682016040523d82523d6000602084013e611ba3565b606091505b5091509150611bb3828286611bbe565b979650505050505050565b60608315611bcd57508161071a565b825115611bdd5782518084602001fd5b60405162461bcd60e51b815260206004820181815284516024840152845185939192839260440191908501908083836000831561163457818101518382015260200161161c56fe45524332303a206275726e20616d6f756e7420657863656564732062616c616e63654f776e61626c653a206e6577206f776e657220697320746865207a65726f2061646472657373416464726573733a20696e73756666696369656e742062616c616e636520666f722063616c6c536166654d6174683a206d756c7469706c69636174696f6e206f766572666c6f7745524332303a207472616e7366657220616d6f756e74206578636565647320616c6c6f77616e63654f776e61626c653a2063616c6c6572206973206e6f7420746865206f776e657245524332303a206275726e2066726f6d20746865207a65726f20616464726573735361666545524332303a204552433230206f7065726174696f6e20646964206e6f74207375636365656445524332303a2064656372656173656420616c6c6f77616e63652062656c6f77207a65726fa26469706673582212209cf5f0cf2d0074b6b55922f34435a995b609dbefb8455d307b22916d945a43f464736f6c63430007060033",
  "immutableReferences": {
    "392": [
      {
        "length": 32,
        "start": 2296
      },
      {
        "length": 32,
        "start": 4080
      },
      {
        "length": 32,
        "start": 4190
      }
    ],
    "394": [
      {
        "length": 32,
        "start": 2937
      },
      {
        "length": 32,
        "start": 3592
      },
      {
        "length": 32,
        "start": 4912
      }
    ],
    "396": [
      {
        "length": 32,
        "start": 3451
      },
      {
        "length": 32,
        "start": 3818
      }
    ],
    "732": [
      {
        "length": 32,
        "start": 1836
      },
      {
        "length": 32,
        "start": 2153
      },
      {
        "length": 32,
        "start": 2245
      },
      {
        "length": 32,
        "start": 2455
      },
      {
        "length": 32,
        "start": 2589
      }
    ]
  },
  "source": "// SPDX-License-Identifier: MIT\npragma solidity >=0.6.0 <0.8.0;\n\nimport \"@openzeppelin/contracts/math/SafeMath.sol\";\nimport \"@openzeppelin/contracts/math/Math.sol\";\nimport \"@openzeppelin/contracts/utils/Context.sol\";\nimport \"@openzeppelin/contracts/token/ERC20/SafeERC20.sol\";\nimport \"@openzeppelin/contracts/access/Ownable.sol\";\n\nimport \"./BaseRewards.sol\";\nimport \"../interfaces/IRewardsDistributionRecipient.sol\";\nimport \"../gsn/RelayRecipient.sol\";\n\ncontract FarmingRewards is BaseRewards, IRewardsDistributionRecipient, RelayRecipient, Ownable {\n    using SafeERC20 for IRewardsToken;\n    using SafeMath for uint256;\n\n    uint256 public immutable rewardsDuration;\n    uint256 internal _rewardRate;\n\n    constructor(\n        string memory _name,\n        string memory _symbol,\n        uint256 _rewardsDuration,\n        address _rewardsToken,\n        address _stakingToken,\n        uint256 _maximalStake\n    ) BaseRewards(_name, _symbol, _rewardsToken, _stakingToken, _maximalStake) {\n        rewardsDuration = _rewardsDuration;\n    }\n\n    function getReward(address account) public override updateReward(account) {\n        require(account == msg.sender, \"Sender must be account\");\n        uint256 reward = earned(account);\n        if (reward > 0) {\n            _rewards[account] = 0;\n            rewardsToken.safeTransfer(account, reward);\n            emit RewardPaid(account, reward);\n        }\n    }\n\n    function _rewardPerToken() internal view override returns (uint256) {\n        if (totalSupply() == 0) {\n            return _rewardPerTokenStored;\n        }\n        return\n            _rewardPerTokenStored.add(\n                _lastTimeRewardApplicable()\n                    .sub(_lastUpdateTime)\n                    .mul(_rewardRate)\n                    .mul(1e18)\n                    .div(totalSupply())\n            );\n    }\n\n    function setTrustedForwarder(address trustedForwarder) external override onlyOwner {\n        super._setTrustedForwarder(trustedForwarder);\n    }\n\n    function notifyRewardAmount(uint256 reward)\n        external\n        override\n        onlyOwner\n        updateReward(address(0))\n    {\n        if (block.timestamp >= _periodFinish) {\n            _rewardRate = reward.div(rewardsDuration);\n        } else {\n            uint256 remaining = _periodFinish.sub(block.timestamp);\n            uint256 leftover = remaining.mul(_rewardRate);\n            _rewardRate = reward.add(leftover).div(rewardsDuration);\n        }\n\n        // Ensure the provided reward amount is not more than the balance in the contract.\n        // This keeps the reward rate in the right range, preventing overflows due to\n        // very high values of rewardRate in the earned and rewardsPerToken functions;\n        // Reward + leftover must be less than 2^256 / 10^18 to avoid overflow.\n        uint256 balance = rewardsToken.balanceOf(address(this));\n        require(\n            _rewardRate <= balance.div(rewardsDuration),\n            \"Provided reward too high\"\n        );\n\n        _lastUpdateTime = block.timestamp;\n        _periodFinish = block.timestamp.add(rewardsDuration);\n        emit RewardAdded(reward);\n    }\n\n    function _msgSender() internal view override(Context, BaseRelayRecipient) returns (address payable) {\n        return BaseRelayRecipient._msgSender();\n    }\n\n    function _msgData() internal view override(Context, BaseRelayRecipient) returns (bytes memory) {\n        return BaseRelayRecipient._msgData();\n    }\n\n    function versionRecipient() external override pure returns (string memory) {\n        return \"2.0.0+\";\n    }\n}\n",
  "sourcePath": "/home/nailkhaf/Projects/san-games/contracts/rewards/FarmingRewards.sol",
  "compiler": {
    "name": "solc",
    "version": "0.7.6+commit.7338295f.Emscripten.clang"
  },
  "schemaVersion": "3.3.3",
  "updatedAt": "2021-02-18T13:23:54.668Z",
  "devdoc": {
    "kind": "dev",
    "methods": {
      "allowance(address,address)": {
        "details": "See {IERC20-allowance}."
      },
      "approve(address,uint256)": {
        "details": "See {IERC20-approve}. Requirements: - `spender` cannot be the zero address."
      },
      "balanceOf(address)": {
        "details": "See {IERC20-balanceOf}."
      },
      "decimals()": {
        "details": "Returns the number of decimals used to get its user representation. For example, if `decimals` equals `2`, a balance of `505` tokens should be displayed to a user as `5,05` (`505 / 10 ** 2`). Tokens usually opt for a value of 18, imitating the relationship between Ether and Wei. This is the value {ERC20} uses, unless {_setupDecimals} is called. NOTE: This information is only used for _display_ purposes: it in no way affects any of the arithmetic of the contract, including {IERC20-balanceOf} and {IERC20-transfer}."
      },
      "decreaseAllowance(address,uint256)": {
        "details": "Atomically decreases the allowance granted to `spender` by the caller. This is an alternative to {approve} that can be used as a mitigation for problems described in {IERC20-approve}. Emits an {Approval} event indicating the updated allowance. Requirements: - `spender` cannot be the zero address. - `spender` must have allowance for the caller of at least `subtractedValue`."
      },
      "increaseAllowance(address,uint256)": {
        "details": "Atomically increases the allowance granted to `spender` by the caller. This is an alternative to {approve} that can be used as a mitigation for problems described in {IERC20-approve}. Emits an {Approval} event indicating the updated allowance. Requirements: - `spender` cannot be the zero address."
      },
      "name()": {
        "details": "Returns the name of the token."
      },
      "notifyRewardAmount(uint256)": {
        "details": "Notify about transferring `amount` reward tokens to farming contract and start or prolong farming."
      },
      "owner()": {
        "details": "Returns the address of the current owner."
      },
      "renounceOwnership()": {
        "details": "Leaves the contract without owner. It will not be possible to call `onlyOwner` functions anymore. Can only be called by the current owner. NOTE: Renouncing ownership will leave the contract without an owner, thereby removing any functionality that is only available to the owner."
      },
      "symbol()": {
        "details": "Returns the symbol of the token, usually a shorter version of the name."
      },
      "totalSupply()": {
        "details": "See {IERC20-totalSupply}."
      },
      "transfer(address,uint256)": {
        "details": "See {IERC20-transfer}. Requirements: - `recipient` cannot be the zero address. - the caller must have a balance of at least `amount`."
      },
      "transferFrom(address,address,uint256)": {
        "details": "See {IERC20-transferFrom}. Emits an {Approval} event indicating the updated allowance. This is not required by the EIP. See the note at the beginning of {ERC20}. Requirements: - `sender` and `recipient` cannot be the zero address. - `sender` must have a balance of at least `amount`. - the caller must have allowance for ``sender``'s tokens of at least `amount`."
      },
      "transferOwnership(address)": {
        "details": "Transfers ownership of the contract to a new account (`newOwner`). Can only be called by the current owner."
      }
    },
    "version": 1
  },
  "userdoc": {
    "kind": "user",
    "methods": {
      "isTrustedForwarder(address)": {
        "notice": "return if the forwarder is trusted to forward relayed transactions to us. the forwarder is required to verify the sender's signature, and verify the call is not a replay."
      }
    },
    "version": 1
  }
}