{
  "contractName": "FarmingRewardsFactory",
  "abi": [
    {
      "inputs": [
        {
          "internalType": "address",
          "name": "rewardsToken_",
          "type": "address"
        }
      ],
      "stateMutability": "nonpayable",
      "type": "constructor"
    },
    {
      "anonymous": false,
      "inputs": [
        {
          "indexed": false,
          "internalType": "address",
          "name": "addr",
          "type": "address"
        }
      ],
      "name": "FarmingCreated",
      "type": "event"
    },
    {
      "anonymous": false,
      "inputs": [
        {
          "indexed": false,
          "internalType": "address",
          "name": "addr",
          "type": "address"
        }
      ],
      "name": "FarmingDistributed",
      "type": "event"
    },
    {
      "anonymous": false,
      "inputs": [
        {
          "indexed": true,
          "internalType": "address",
          "name": "previousOwner",
          "type": "address"
        },
        {
          "indexed": true,
          "internalType": "address",
          "name": "newOwner",
          "type": "address"
        }
      ],
      "name": "OwnershipTransferred",
      "type": "event"
    },
    {
      "inputs": [],
      "name": "owner",
      "outputs": [
        {
          "internalType": "address",
          "name": "",
          "type": "address"
        }
      ],
      "stateMutability": "view",
      "type": "function"
    },
    {
      "inputs": [],
      "name": "renounceOwnership",
      "outputs": [],
      "stateMutability": "nonpayable",
      "type": "function"
    },
    {
      "inputs": [],
      "name": "rewardsToken",
      "outputs": [
        {
          "internalType": "contract IRewardsToken",
          "name": "",
          "type": "address"
        }
      ],
      "stateMutability": "view",
      "type": "function"
    },
    {
      "inputs": [
        {
          "internalType": "address",
          "name": "newOwner",
          "type": "address"
        }
      ],
      "name": "transferOwnership",
      "outputs": [],
      "stateMutability": "nonpayable",
      "type": "function"
    },
    {
      "inputs": [
        {
          "internalType": "string",
          "name": "_name",
          "type": "string"
        },
        {
          "internalType": "string",
          "name": "_symbol",
          "type": "string"
        },
        {
          "internalType": "address",
          "name": "_stakingToken",
          "type": "address"
        },
        {
          "internalType": "uint256",
          "name": "_rewardsDuration",
          "type": "uint256"
        },
        {
          "internalType": "uint256",
          "name": "_maximalStake",
          "type": "uint256"
        }
      ],
      "name": "createFarming",
      "outputs": [
        {
          "internalType": "address",
          "name": "",
          "type": "address"
        }
      ],
      "stateMutability": "nonpayable",
      "type": "function"
    },
    {
      "inputs": [
        {
          "internalType": "address",
          "name": "farming",
          "type": "address"
        },
        {
          "internalType": "uint256",
          "name": "total",
          "type": "uint256"
        }
      ],
      "name": "distributeRewards",
      "outputs": [],
      "stateMutability": "nonpayable",
      "type": "function"
    }
  ],
  "bytecode": "0x60a060405234801561001057600080fd5b50604051612ce3380380612ce38339818101604052602081101561003357600080fd5b5051600061003f61010b565b600080546001600160a01b0319166001600160a01b0383169081178255604051929350917f8be0079c531659141344cd1fd0a4f28419497f9722a3daafe3b4186f6b6457e0908290a3506100a5816001600160a01b031661010f60201b6107e41760201c565b6100f6576040805162461bcd60e51b815260206004820152601d60248201527f52657761726473546f6b656e206d75737420626520636f6e7472616374000000604482015290519081900360640190fd5b60601b6001600160601b031916608052610115565b3390565b3b151590565b60805160601c612ba761013c60003980610370528061058652806106b85250612ba76000f3fe60806040523480156200001157600080fd5b50600436106200006a5760003560e01c8063715018a6146200006f57806373b064e8146200007b5780638da5cb5b14620001e1578063a8031a1d14620001eb578063d1af0c7d146200021a578063f2fde38b1462000224575b600080fd5b620000796200024d565b005b620001c5600480360360a08110156200009357600080fd5b810190602081018135640100000000811115620000af57600080fd5b820183602082011115620000c257600080fd5b80359060200191846001830284011164010000000083111715620000e557600080fd5b91908080601f01602080910402602001604051908101604052809392919081815260200183838082843760009201919091525092959493602081019350359150506401000000008111156200013957600080fd5b8201836020820111156200014c57600080fd5b803590602001918460018302840111640100000000831117156200016f57600080fd5b91908080601f016020809104026020016040519081016040528093929190818152602001838380828437600092019190915250929550506001600160a01b038335169350505060208101359060400135620002ff565b604080516001600160a01b039092168252519081900360200190f35b620001c56200050d565b62000079600480360360408110156200020357600080fd5b506001600160a01b0381351690602001356200051c565b620001c5620006b6565b62000079600480360360208110156200023c57600080fd5b50356001600160a01b0316620006da565b62000257620007ea565b6001600160a01b03166200026a6200050d565b6001600160a01b031614620002b5576040805162461bcd60e51b8152602060048201819052602482015260008051602062002b52833981519152604482015290519081900360640190fd5b600080546040516001600160a01b03909116907f8be0079c531659141344cd1fd0a4f28419497f9722a3daafe3b4186f6b6457e0908390a3600080546001600160a01b0319169055565b60006200030b620007ea565b6001600160a01b03166200031e6200050d565b6001600160a01b03161462000369576040805162461bcd60e51b8152602060048201819052602482015260008051602062002b52833981519152604482015290519081900360640190fd5b60008686857f000000000000000000000000000000000000000000000000000000000000000088876040516200039f90620007ee565b808060200180602001878152602001866001600160a01b03168152602001856001600160a01b03168152602001848152602001838103835289818151815260200191508051906020019080838360005b8381101562000409578181015183820152602001620003ef565b50505050905090810190601f168015620004375780820380516001836020036101000a031916815260200191505b5083810382528851815288516020918201918a019080838360005b838110156200046c57818101518382015260200162000452565b50505050905090810190601f1680156200049a5780820380516001836020036101000a031916815260200191505b5098505050505050505050604051809103906000f080158015620004c2573d6000803e3d6000fd5b50604080516001600160a01b038316815290519192507f317ffb3adbb5480e2b100462c4a0b72b9cfb03eee33291b5c1e897148116fcd2919081900360200190a19695505050505050565b6000546001600160a01b031690565b62000526620007ea565b6001600160a01b0316620005396200050d565b6001600160a01b03161462000584576040805162461bcd60e51b8152602060048201819052602482015260008051602062002b52833981519152604482015290519081900360640190fd5b7f00000000000000000000000000000000000000000000000000000000000000006001600160a01b03166340c10f1983836040518363ffffffff1660e01b815260040180836001600160a01b0316815260200182815260200192505050600060405180830381600087803b158015620005fc57600080fd5b505af115801562000611573d6000803e3d6000fd5b50505050816001600160a01b0316633c6b16ab826040518263ffffffff1660e01b815260040180828152602001915050600060405180830381600087803b1580156200065c57600080fd5b505af115801562000671573d6000803e3d6000fd5b5050604080516001600160a01b038616815290517f4c6c4cc8a15c6ffd38bd208676ffe2b0597b9711d858d42c85eabda07aa8d0769350908190036020019150a15050565b7f000000000000000000000000000000000000000000000000000000000000000081565b620006e4620007ea565b6001600160a01b0316620006f76200050d565b6001600160a01b03161462000742576040805162461bcd60e51b8152602060048201819052602482015260008051602062002b52833981519152604482015290519081900360640190fd5b6001600160a01b038116620007895760405162461bcd60e51b815260040180806020018281038252602681526020018062002b2c6026913960400191505060405180910390fd5b600080546040516001600160a01b03808516939216917f8be0079c531659141344cd1fd0a4f28419497f9722a3daafe3b4186f6b6457e091a3600080546001600160a01b0319166001600160a01b0392909216919091179055565b3b151590565b3390565b61232f80620007fd8339019056fe6101006040523480156200001257600080fd5b506040516200232f3803806200232f833981810160405260c08110156200003857600080fd5b81019080805160405193929190846401000000008211156200005957600080fd5b9083019060208201858111156200006f57600080fd5b82516401000000008111828201881017156200008a57600080fd5b82525081516020918201929091019080838360005b83811015620000b95781810151838201526020016200009f565b50505050905090810190601f168015620000e75780820380516001836020036101000a031916815260200191505b50604052602001805160405193929190846401000000008211156200010b57600080fd5b9083019060208201858111156200012157600080fd5b82516401000000008111828201881017156200013c57600080fd5b82525081516020918201929091019080838360005b838110156200016b57818101518382015260200162000151565b50505050905090810190601f168015620001995780820380516001836020036101000a031916815260200191505b506040908152602082810151918301516060840151608090940151885193965090945091879187918691869186918691869183918391620001e09160039185019062000439565b508051620001f690600490602084019062000439565b50506005805460ff19166012179055505050806200025b576040805162461bcd60e51b815260206004820152601560248201527f4d6178696d616c207374616b65206973207a65726f0000000000000000000000604482015290519081900360640190fd5b6200027a836001600160a01b0316620003ca60201b620013db1760201c565b620002cc576040805162461bcd60e51b815260206004820152601d60248201527f52657761726473546f6b656e206d75737420626520636f6e7472616374000000604482015290519081900360640190fd5b620002eb826001600160a01b0316620003ca60201b620013db1760201c565b6200033d576040805162461bcd60e51b815260206004820152601d60248201527f52657761726473546f6b656e206d75737420626520636f6e7472616374000000604482015290519081900360640190fd5b6001600160601b0319606093841b81166080529190921b1660a05260c05250600090506200036a620003d0565b600c80546001600160a01b0319166001600160a01b038316908117909155604051919250906000907f8be0079c531659141344cd1fd0a4f28419497f9722a3daafe3b4186f6b6457e0908290a350505060e09190915250620004e5915050565b3b151590565b6000620003e7620003ed60201b620013e11760201c565b90505b90565b600060183610801590620004075750620004073362000425565b156200041d575060131936013560601c620003ea565b5033620003ea565b600b546001600160a01b0390811691161490565b828054600181600116156101000203166002900490600052602060002090601f016020900481019282620004715760008555620004bc565b82601f106200048c57805160ff1916838001178555620004bc565b82800160010185558215620004bc579182015b82811115620004bc5782518255916020019190600101906200049f565b50620004ca929150620004ce565b5090565b5b80821115620004ca5760008155600101620004cf565b60805160601c60a05160601c60c05160e051611de16200054e6000398061072c528061086952806108c552806109975280610a1d525080610d8b5280610f0a525080610b795280610e1852806113705250806108f85280611020528061108e5250611de16000f3fe608060405234801561001057600080fd5b50600436106101ce5760003560e01c80637da0a87711610104578063b4509cb5116100a2578063dd62ed3e11610071578063dd62ed3e146104e9578063ebe2b12b14610517578063f2fde38b1461051f578063f3fef3a314610545576101ce565b8063b4509cb51461048d578063c00007b014610495578063d1af0c7d146104bb578063da742228146104c3576101ce565b8063a457c2d7116100de578063a457c2d71461040f578063a9059cbb14610288578063adc9772e1461043b578063b42652e914610467576101ce565b80637da0a877146103f75780638da5cb5b146103ff57806395d89b4114610407576101ce565b80633950935111610171578063572b6c051161014b578063572b6c051461037f57806370a08231146103a5578063715018a6146103cb57806372f702f3146103d3576101ce565b8063395093511461032c5780633c6b16ab14610358578063486ff0cd14610377576101ce565b806318160ddd116101ad57806318160ddd146102c857806323b872dd146102d0578063313ce56714610306578063386a952514610324576101ce565b80628cc262146101d357806306fdde031461020b578063095ea7b314610288575b600080fd5b6101f9600480360360208110156101e957600080fd5b50356001600160a01b0316610571565b60408051918252519081900360200190f35b6102136105df565b6040805160208082528351818301528351919283929083019185019080838360005b8381101561024d578181015183820152602001610235565b50505050905090810190601f16801561027a5780820380516001836020036101000a031916815260200191505b509250505060405180910390f35b6102b46004803603604081101561029e57600080fd5b506001600160a01b038135169060200135610676565b604080519115158252519081900360200190f35b6101f9610693565b6102b4600480360360608110156102e657600080fd5b506001600160a01b03813581169160208101359091169060400135610699565b61030e610721565b6040805160ff9092168252519081900360200190f35b6101f961072a565b6102b46004803603604081101561034257600080fd5b506001600160a01b03813516906020013561074e565b6103756004803603602081101561036e57600080fd5b503561079c565b005b610213610a7c565b6102b46004803603602081101561039557600080fd5b50356001600160a01b0316610a9c565b6101f9600480360360208110156103bb57600080fd5b50356001600160a01b0316610ab0565b610375610acb565b6103db610b77565b604080516001600160a01b039092168252519081900360200190f35b6103db610b9b565b6103db610baa565b610213610bb9565b6102b46004803603604081101561042557600080fd5b506001600160a01b038135169060200135610c1a565b6103756004803603604081101561045157600080fd5b506001600160a01b038135169060200135610c82565b6103756004803603602081101561047d57600080fd5b50356001600160a01b0316610e84565b6101f9610f08565b610375600480360360208110156104ab57600080fd5b50356001600160a01b0316610f2c565b6103db61108c565b610375600480360360208110156104d957600080fd5b50356001600160a01b03166110b0565b6101f9600480360360408110156104ff57600080fd5b506001600160a01b038135811691602001351661111b565b6101f9611146565b6103756004803603602081101561053557600080fd5b50356001600160a01b031661114c565b6103756004803603604081101561055b57600080fd5b506001600160a01b03813516906020013561124f565b6001600160a01b0381166000908152600a602090815260408083205460099092528220546105d991906105d390670de0b6b3a7640000906105cd906105be906105b8611413565b90611466565b6105c788610ab0565b906114c3565b9061151c565b90611583565b92915050565b60038054604080516020601f600260001961010060018816150201909516949094049384018190048102820181019092528281526060939092909183018282801561066b5780601f106106405761010080835404028352916020019161066b565b820191906000526020600020905b81548152906001019060200180831161064e57829003601f168201915b505050505090505b90565b600061068a6106836115dd565b84846115e7565b50600192915050565b60025490565b60006106a68484846115e7565b610716846106b26115dd565b61071185604051806060016040528060288152602001611cf4602891396001600160a01b038a166000908152600160205260408120906106f06115dd565b6001600160a01b031681526020810191909152604001600020549190611620565b6115e7565b5060015b9392505050565b60055460ff1690565b7f000000000000000000000000000000000000000000000000000000000000000081565b600061068a61075b6115dd565b84610711856001600061076c6115dd565b6001600160a01b03908116825260208083019390935260409182016000908120918c168152925290205490611583565b6107a46115dd565b6001600160a01b03166107b5610baa565b6001600160a01b0316146107fe576040805162461bcd60e51b81526020600482018190526024820152600080516020611d1c833981519152604482015290519081900360640190fd5b6000610808611413565b6008556108136116b7565b6007556001600160a01b0381161561085a5761082e81610571565b6001600160a01b0382166000908152600a60209081526040808320939093556008546009909152919020555b60065442106108955761088d827f000000000000000000000000000000000000000000000000000000000000000061151c565b600d556108f4565b6006546000906108a59042611466565b905060006108be600d54836114c390919063ffffffff16565b90506108ee7f00000000000000000000000000000000000000000000000000000000000000006105cd8684611583565b600d5550505b60007f00000000000000000000000000000000000000000000000000000000000000006001600160a01b03166370a08231306040518263ffffffff1660e01b815260040180826001600160a01b0316815260200191505060206040518083038186803b15801561096357600080fd5b505afa158015610977573d6000803e3d6000fd5b505050506040513d602081101561098d57600080fd5b505190506109bb817f000000000000000000000000000000000000000000000000000000000000000061151c565b600d541115610a11576040805162461bcd60e51b815260206004820152601860248201527f50726f76696465642072657761726420746f6f20686967680000000000000000604482015290519081900360640190fd5b426007819055610a41907f0000000000000000000000000000000000000000000000000000000000000000611583565b6006556040805184815290517fde88a922e0d3b88b24e9623efeb464919c6bf9f66857a65e2bfcf2ce87a9433d9181900360200190a1505050565b604080518082019091526006815265322e302e302b60d01b602082015290565b600b546001600160a01b0390811691161490565b6001600160a01b031660009081526020819052604090205490565b610ad36115dd565b6001600160a01b0316610ae4610baa565b6001600160a01b031614610b2d576040805162461bcd60e51b81526020600482018190526024820152600080516020611d1c833981519152604482015290519081900360640190fd5b600c546040516000916001600160a01b0316907f8be0079c531659141344cd1fd0a4f28419497f9722a3daafe3b4186f6b6457e0908390a3600c80546001600160a01b0319169055565b7f000000000000000000000000000000000000000000000000000000000000000081565b600b546001600160a01b031681565b600c546001600160a01b031690565b60048054604080516020601f600260001961010060018816150201909516949094049384018190048102820181019092528281526060939092909183018282801561066b5780601f106106405761010080835404028352916020019161066b565b600061068a610c276115dd565b8461071185604051806060016040528060258152602001611d876025913960016000610c516115dd565b6001600160a01b03908116825260208083019390935260409182016000908120918d16815292529020549190611620565b81610c8b611413565b600855610c966116b7565b6007556001600160a01b03811615610cdd57610cb181610571565b6001600160a01b0382166000908152600a60209081526040808320939093556008546009909152919020555b610ce56115dd565b6001600160a01b0316836001600160a01b031614610d43576040805162461bcd60e51b815260206004820152601660248201527514d95b99195c881b5d5cdd081899481858d8dbdd5b9d60521b604482015290519081900360640190fd5b60008211610d89576040805162461bcd60e51b815260206004820152600e60248201526d043616e6e6f74207374616b6520360941b604482015290519081900360640190fd5b7f0000000000000000000000000000000000000000000000000000000000000000610db7836105d386610ab0565b1115610e01576040805162461bcd60e51b815260206004820152601460248201527314dd185ad948195e18d95959081b585e1a5b585b60621b604482015290519081900360640190fd5b610e0b83836116c5565b610e406001600160a01b037f0000000000000000000000000000000000000000000000000000000000000000168430856117b5565b6040805183815290516001600160a01b038516917f9e71bc8eea02a63969f509818f2dafb9254532904319f9dbda79b67bd34a5f3d919081900360200190a2505050565b610e8c6115dd565b6001600160a01b0316816001600160a01b031614610eea576040805162461bcd60e51b815260206004820152601660248201527514d95b99195c881b5d5cdd081899481858d8dbdd5b9d60521b604482015290519081900360640190fd5b610efc81610ef783610ab0565b61124f565b610f0581610f2c565b50565b7f000000000000000000000000000000000000000000000000000000000000000090565b80610f35611413565b600855610f406116b7565b6007556001600160a01b03811615610f8757610f5b81610571565b6001600160a01b0382166000908152600a60209081526040808320939093556008546009909152919020555b610f8f6115dd565b6001600160a01b0316826001600160a01b031614610fed576040805162461bcd60e51b815260206004820152601660248201527514d95b99195c881b5d5cdd081899481858d8dbdd5b9d60521b604482015290519081900360640190fd5b6000610ff883610571565b90508015611087576001600160a01b038084166000908152600a6020526040812055611047907f0000000000000000000000000000000000000000000000000000000000000000168483611815565b6040805182815290516001600160a01b038516917fe2403640ba68fed3a2f88b7557551d1993f84b99bb10ff833f0cf8db0c5e0486919081900360200190a25b505050565b7f000000000000000000000000000000000000000000000000000000000000000081565b6110b86115dd565b6001600160a01b03166110c9610baa565b6001600160a01b031614611112576040805162461bcd60e51b81526020600482018190526024820152600080516020611d1c833981519152604482015290519081900360640190fd5b610f0581611867565b6001600160a01b03918216600090815260016020908152604080832093909416825291909152205490565b60065490565b6111546115dd565b6001600160a01b0316611165610baa565b6001600160a01b0316146111ae576040805162461bcd60e51b81526020600482018190526024820152600080516020611d1c833981519152604482015290519081900360640190fd5b6001600160a01b0381166111f35760405162461bcd60e51b8152600401808060200182810382526026815260200180611c876026913960400191505060405180910390fd5b600c546040516001600160a01b038084169216907f8be0079c531659141344cd1fd0a4f28419497f9722a3daafe3b4186f6b6457e090600090a3600c80546001600160a01b0319166001600160a01b0392909216919091179055565b81611258611413565b6008556112636116b7565b6007556001600160a01b038116156112aa5761127e81610571565b6001600160a01b0382166000908152600a60209081526040808320939093556008546009909152919020555b6112b26115dd565b6001600160a01b0316836001600160a01b031614611310576040805162461bcd60e51b815260206004820152601660248201527514d95b99195c881b5d5cdd081899481858d8dbdd5b9d60521b604482015290519081900360640190fd5b60008211611359576040805162461bcd60e51b8152602060048201526011602482015270043616e6e6f74207769746864726177203607c1b604482015290519081900360640190fd5b61136383836118c9565b6113976001600160a01b037f0000000000000000000000000000000000000000000000000000000000000000168484611815565b6040805183815290516001600160a01b038516917f7084f5476618d8e60b11ef0d7d3f06914655adb8793e28ff7f018d4c76d505d5919081900360200190a2505050565b3b151590565b6000601836108015906113f857506113f833610a9c565b1561140c575060131936013560601c610673565b5033610673565b600061141d610693565b61142a5750600854610673565b611461611458611438610693565b6105cd670de0b6b3a76400006105c7600d546105c76007546105b86116b7565b60085490611583565b905090565b6000828211156114bd576040805162461bcd60e51b815260206004820152601e60248201527f536166654d6174683a207375627472616374696f6e206f766572666c6f770000604482015290519081900360640190fd5b50900390565b6000826114d2575060006105d9565b828202828482816114df57fe5b041461071a5760405162461bcd60e51b8152600401808060200182810382526021815260200180611cd36021913960400191505060405180910390fd5b6000808211611572576040805162461bcd60e51b815260206004820152601a60248201527f536166654d6174683a206469766973696f6e206279207a65726f000000000000604482015290519081900360640190fd5b81838161157b57fe5b049392505050565b60008282018381101561071a576040805162461bcd60e51b815260206004820152601b60248201527f536166654d6174683a206164646974696f6e206f766572666c6f770000000000604482015290519081900360640190fd5b60006114616113e1565b6040805162461bcd60e51b81526020600482015260096024820152682337b93134b23232b760b91b604482015290519081900360640190fd5b600081848411156116af5760405162461bcd60e51b81526004018080602001828103825283818151815260200191508051906020019080838360005b8381101561167457818101518382015260200161165c565b50505050905090810190601f1680156116a15780820380516001836020036101000a031916815260200191505b509250505060405180910390fd5b505050900390565b6000611461426006546119c5565b6001600160a01b038216611720576040805162461bcd60e51b815260206004820152601f60248201527f45524332303a206d696e7420746f20746865207a65726f206164647265737300604482015290519081900360640190fd5b61172c60008383611087565b6002546117399082611583565b6002556001600160a01b03821660009081526020819052604090205461175f9082611583565b6001600160a01b0383166000818152602081815260408083209490945583518581529351929391927fddf252ad1be2c89b69c2b068fc378daa952ba7f163c4a11628f55a4df523b3ef9281900390910190a35050565b604080516001600160a01b0380861660248301528416604482015260648082018490528251808303909101815260849091019091526020810180516001600160e01b03166323b872dd60e01b17905261180f9085906119db565b50505050565b604080516001600160a01b038416602482015260448082018490528251808303909101815260649091019091526020810180516001600160e01b031663a9059cbb60e01b1790526110879084906119db565b600b80546001600160a01b038381166001600160a01b0319831617928390556040805192821680845293909116602083015280517f06dff7401eb7fb04d241246ade7f817c7ad512b1bed61c18aedd9bc51eec04759281900390910190a15050565b6001600160a01b03821661190e5760405162461bcd60e51b8152600401808060200182810382526021815260200180611d3c6021913960400191505060405180910390fd5b61191a82600083611087565b61195781604051806060016040528060228152602001611c65602291396001600160a01b0385166000908152602081905260409020549190611620565b6001600160a01b03831660009081526020819052604090205560025461197d9082611466565b6002556040805182815290516000916001600160a01b038516917fddf252ad1be2c89b69c2b068fc378daa952ba7f163c4a11628f55a4df523b3ef9181900360200190a35050565b60008183106119d4578161071a565b5090919050565b6000611a30826040518060400160405280602081526020017f5361666545524332303a206c6f772d6c6576656c2063616c6c206661696c6564815250856001600160a01b0316611a8c9092919063ffffffff16565b80519091501561108757808060200190516020811015611a4f57600080fd5b50516110875760405162461bcd60e51b815260040180806020018281038252602a815260200180611d5d602a913960400191505060405180910390fd5b6060611a9b8484600085611aa3565b949350505050565b606082471015611ae45760405162461bcd60e51b8152600401808060200182810382526026815260200180611cad6026913960400191505060405180910390fd5b611aed856113db565b611b3e576040805162461bcd60e51b815260206004820152601d60248201527f416464726573733a2063616c6c20746f206e6f6e2d636f6e7472616374000000604482015290519081900360640190fd5b600080866001600160a01b031685876040518082805190602001908083835b60208310611b7c5780518252601f199092019160209182019101611b5d565b6001836020036101000a03801982511681845116808217855250505050505090500191505060006040518083038185875af1925050503d8060008114611bde576040519150601f19603f3d011682016040523d82523d6000602084013e611be3565b606091505b5091509150611bf3828286611bfe565b979650505050505050565b60608315611c0d57508161071a565b825115611c1d5782518084602001fd5b60405162461bcd60e51b815260206004820181815284516024840152845185939192839260440191908501908083836000831561167457818101518382015260200161165c56fe45524332303a206275726e20616d6f756e7420657863656564732062616c616e63654f776e61626c653a206e6577206f776e657220697320746865207a65726f2061646472657373416464726573733a20696e73756666696369656e742062616c616e636520666f722063616c6c536166654d6174683a206d756c7469706c69636174696f6e206f766572666c6f7745524332303a207472616e7366657220616d6f756e74206578636565647320616c6c6f77616e63654f776e61626c653a2063616c6c6572206973206e6f7420746865206f776e657245524332303a206275726e2066726f6d20746865207a65726f20616464726573735361666545524332303a204552433230206f7065726174696f6e20646964206e6f74207375636365656445524332303a2064656372656173656420616c6c6f77616e63652062656c6f77207a65726fa2646970667358221220b073b40d4b21471a506d7cfbc9bc43be31b095eee3ec82fecf91841348bd55c164736f6c634300070600334f776e61626c653a206e6577206f776e657220697320746865207a65726f20616464726573734f776e61626c653a2063616c6c6572206973206e6f7420746865206f776e6572a26469706673582212203a41624f2a312fc425e47f66526f646fd00cbc13cf48e78c33f547eb3763672464736f6c63430007060033",
  "immutableReferences": {
    "3791": [
      {
        "length": 32,
        "start": 880
      },
      {
        "length": 32,
        "start": 1414
      },
      {
        "length": 32,
        "start": 1720
      }
    ]
  },
  "source": "// SPDX-License-Identifier: MIT\npragma solidity ^0.7.6;\n\nimport \"@openzeppelin/contracts/access/Ownable.sol\";\nimport \"@openzeppelin/contracts/utils/Address.sol\";\n\nimport \"./FarmingRewards.sol\";\nimport \"../interfaces/IRewardsToken.sol\";\nimport \"../interfaces/IRewardsDistributionRecipient.sol\";\nimport \"../interfaces/IFarmingRewardsFactory.sol\";\n\ncontract FarmingRewardsFactory is IFarmingRewardsFactory, Ownable {\n    using Address for address;\n\n    IRewardsToken public immutable rewardsToken;\n\n    constructor(address rewardsToken_) {\n        require(rewardsToken_.isContract(), \"RewardsToken must be contract\");\n        rewardsToken = IRewardsToken(rewardsToken_);\n    }\n\n    function createFarming(\n        string memory _name,\n        string memory _symbol,\n        address _stakingToken,\n        uint256 _rewardsDuration,\n        uint256 _maximalStake\n    ) external override onlyOwner returns (address) {\n        FarmingRewards farming =\n            new FarmingRewards(\n                _name,\n                _symbol,\n                _rewardsDuration,\n                address(rewardsToken),\n                _stakingToken,\n                _maximalStake\n            );\n        emit FarmingCreated(address(farming));\n        return address(farming);\n    }\n\n    function distributeRewards(address farming, uint256 total)\n        external\n        override\n        onlyOwner\n    {\n        rewardsToken.mint(farming, total);\n        IRewardsDistributionRecipient(farming).notifyRewardAmount(total);\n        emit FarmingDistributed(address(farming));\n    }\n}\n",
  "sourcePath": "/home/nailkhaf/Projects/san-games/contracts/rewards/FarmingRewardsFactory.sol",
  "compiler": {
    "name": "solc",
    "version": "0.7.6+commit.7338295f.Emscripten.clang"
  },
  "schemaVersion": "3.3.3",
  "updatedAt": "2021-02-22T12:24:27.903Z",
  "devdoc": {
    "kind": "dev",
    "methods": {
      "createFarming(string,string,address,uint256,uint256)": {
        "details": "Deploy contract {FarmingReward} as ERC20 token with `_name`, `_symbol`. Return address of deployed contract."
      },
      "distributeRewards(address,uint256)": {
        "details": "Distribute farming `total` reward tokens to `farming` contract."
      },
      "owner()": {
        "details": "Returns the address of the current owner."
      },
      "renounceOwnership()": {
        "details": "Leaves the contract without owner. It will not be possible to call `onlyOwner` functions anymore. Can only be called by the current owner. NOTE: Renouncing ownership will leave the contract without an owner, thereby removing any functionality that is only available to the owner."
      },
      "transferOwnership(address)": {
        "details": "Transfers ownership of the contract to a new account (`newOwner`). Can only be called by the current owner."
      }
    },
    "version": 1
  },
  "userdoc": {
    "kind": "user",
    "methods": {},
    "version": 1
  }
}