{
  "contractName": "FarmingRewardsFactory",
  "abi": [
    {
      "inputs": [
        {
          "internalType": "address",
          "name": "rewardsToken_",
          "type": "address"
        }
      ],
      "stateMutability": "nonpayable",
      "type": "constructor"
    },
    {
      "anonymous": false,
      "inputs": [
        {
          "indexed": false,
          "internalType": "address",
          "name": "addr",
          "type": "address"
        }
      ],
      "name": "FarmingCreated",
      "type": "event"
    },
    {
      "anonymous": false,
      "inputs": [
        {
          "indexed": false,
          "internalType": "address",
          "name": "addr",
          "type": "address"
        }
      ],
      "name": "FarmingDistributed",
      "type": "event"
    },
    {
      "anonymous": false,
      "inputs": [
        {
          "indexed": true,
          "internalType": "address",
          "name": "previousOwner",
          "type": "address"
        },
        {
          "indexed": true,
          "internalType": "address",
          "name": "newOwner",
          "type": "address"
        }
      ],
      "name": "OwnershipTransferred",
      "type": "event"
    },
    {
      "inputs": [],
      "name": "owner",
      "outputs": [
        {
          "internalType": "address",
          "name": "",
          "type": "address"
        }
      ],
      "stateMutability": "view",
      "type": "function"
    },
    {
      "inputs": [],
      "name": "renounceOwnership",
      "outputs": [],
      "stateMutability": "nonpayable",
      "type": "function"
    },
    {
      "inputs": [],
      "name": "rewardsToken",
      "outputs": [
        {
          "internalType": "contract IRewardsToken",
          "name": "",
          "type": "address"
        }
      ],
      "stateMutability": "view",
      "type": "function"
    },
    {
      "inputs": [
        {
          "internalType": "address",
          "name": "newOwner",
          "type": "address"
        }
      ],
      "name": "transferOwnership",
      "outputs": [],
      "stateMutability": "nonpayable",
      "type": "function"
    },
    {
      "inputs": [
        {
          "internalType": "string",
          "name": "_name",
          "type": "string"
        },
        {
          "internalType": "string",
          "name": "_symbol",
          "type": "string"
        },
        {
          "internalType": "address",
          "name": "_stakingToken",
          "type": "address"
        },
        {
          "internalType": "uint256",
          "name": "_rewardsDuration",
          "type": "uint256"
        },
        {
          "internalType": "uint256",
          "name": "_maximalStake",
          "type": "uint256"
        }
      ],
      "name": "createFarming",
      "outputs": [
        {
          "internalType": "address",
          "name": "",
          "type": "address"
        }
      ],
      "stateMutability": "nonpayable",
      "type": "function"
    },
    {
      "inputs": [
        {
          "internalType": "address",
          "name": "farming",
          "type": "address"
        },
        {
          "internalType": "uint256",
          "name": "total",
          "type": "uint256"
        }
      ],
      "name": "distributeRewards",
      "outputs": [],
      "stateMutability": "nonpayable",
      "type": "function"
    }
  ],
  "bytecode": "0x60a060405234801561001057600080fd5b50604051612a54380380612a548339818101604052602081101561003357600080fd5b5051600061003f61010b565b600080546001600160a01b0319166001600160a01b0383169081178255604051929350917f8be0079c531659141344cd1fd0a4f28419497f9722a3daafe3b4186f6b6457e0908290a3506100a5816001600160a01b031661010f60201b6107e41760201c565b6100f6576040805162461bcd60e51b815260206004820152601d60248201527f52657761726473546f6b656e206d75737420626520636f6e7472616374000000604482015290519081900360640190fd5b60601b6001600160601b031916608052610115565b3390565b3b151590565b60805160601c61291861013c60003980610370528061058652806106b852506129186000f3fe60806040523480156200001157600080fd5b50600436106200006a5760003560e01c8063715018a6146200006f57806373b064e8146200007b5780638da5cb5b14620001e1578063a8031a1d14620001eb578063d1af0c7d146200021a578063f2fde38b1462000224575b600080fd5b620000796200024d565b005b620001c5600480360360a08110156200009357600080fd5b810190602081018135640100000000811115620000af57600080fd5b820183602082011115620000c257600080fd5b80359060200191846001830284011164010000000083111715620000e557600080fd5b91908080601f01602080910402602001604051908101604052809392919081815260200183838082843760009201919091525092959493602081019350359150506401000000008111156200013957600080fd5b8201836020820111156200014c57600080fd5b803590602001918460018302840111640100000000831117156200016f57600080fd5b91908080601f016020809104026020016040519081016040528093929190818152602001838380828437600092019190915250929550506001600160a01b038335169350505060208101359060400135620002ff565b604080516001600160a01b039092168252519081900360200190f35b620001c56200050d565b62000079600480360360408110156200020357600080fd5b506001600160a01b0381351690602001356200051c565b620001c5620006b6565b62000079600480360360208110156200023c57600080fd5b50356001600160a01b0316620006da565b62000257620007ea565b6001600160a01b03166200026a6200050d565b6001600160a01b031614620002b5576040805162461bcd60e51b81526020600482018190526024820152600080516020620028c3833981519152604482015290519081900360640190fd5b600080546040516001600160a01b03909116907f8be0079c531659141344cd1fd0a4f28419497f9722a3daafe3b4186f6b6457e0908390a3600080546001600160a01b0319169055565b60006200030b620007ea565b6001600160a01b03166200031e6200050d565b6001600160a01b03161462000369576040805162461bcd60e51b81526020600482018190526024820152600080516020620028c3833981519152604482015290519081900360640190fd5b60008686857f000000000000000000000000000000000000000000000000000000000000000088876040516200039f90620007ee565b808060200180602001878152602001866001600160a01b03168152602001856001600160a01b03168152602001848152602001838103835289818151815260200191508051906020019080838360005b8381101562000409578181015183820152602001620003ef565b50505050905090810190601f168015620004375780820380516001836020036101000a031916815260200191505b5083810382528851815288516020918201918a019080838360005b838110156200046c57818101518382015260200162000452565b50505050905090810190601f1680156200049a5780820380516001836020036101000a031916815260200191505b5098505050505050505050604051809103906000f080158015620004c2573d6000803e3d6000fd5b50604080516001600160a01b038316815290519192507f317ffb3adbb5480e2b100462c4a0b72b9cfb03eee33291b5c1e897148116fcd2919081900360200190a19695505050505050565b6000546001600160a01b031690565b62000526620007ea565b6001600160a01b0316620005396200050d565b6001600160a01b03161462000584576040805162461bcd60e51b81526020600482018190526024820152600080516020620028c3833981519152604482015290519081900360640190fd5b7f00000000000000000000000000000000000000000000000000000000000000006001600160a01b03166340c10f1983836040518363ffffffff1660e01b815260040180836001600160a01b0316815260200182815260200192505050600060405180830381600087803b158015620005fc57600080fd5b505af115801562000611573d6000803e3d6000fd5b50505050816001600160a01b0316633c6b16ab826040518263ffffffff1660e01b815260040180828152602001915050600060405180830381600087803b1580156200065c57600080fd5b505af115801562000671573d6000803e3d6000fd5b5050604080516001600160a01b038616815290517f4c6c4cc8a15c6ffd38bd208676ffe2b0597b9711d858d42c85eabda07aa8d0769350908190036020019150a15050565b7f000000000000000000000000000000000000000000000000000000000000000081565b620006e4620007ea565b6001600160a01b0316620006f76200050d565b6001600160a01b03161462000742576040805162461bcd60e51b81526020600482018190526024820152600080516020620028c3833981519152604482015290519081900360640190fd5b6001600160a01b038116620007895760405162461bcd60e51b81526004018080602001828103825260268152602001806200289d6026913960400191505060405180910390fd5b600080546040516001600160a01b03808516939216917f8be0079c531659141344cd1fd0a4f28419497f9722a3daafe3b4186f6b6457e091a3600080546001600160a01b0319166001600160a01b0392909216919091179055565b3b151590565b3390565b6120a080620007fd8339019056fe6101006040523480156200001257600080fd5b50604051620020a0380380620020a0833981810160405260c08110156200003857600080fd5b81019080805160405193929190846401000000008211156200005957600080fd5b9083019060208201858111156200006f57600080fd5b82516401000000008111828201881017156200008a57600080fd5b82525081516020918201929091019080838360005b83811015620000b95781810151838201526020016200009f565b50505050905090810190601f168015620000e75780820380516001836020036101000a031916815260200191505b50604052602001805160405193929190846401000000008211156200010b57600080fd5b9083019060208201858111156200012157600080fd5b82516401000000008111828201881017156200013c57600080fd5b82525081516020918201929091019080838360005b838110156200016b57818101518382015260200162000151565b50505050905090810190601f168015620001995780820380516001836020036101000a031916815260200191505b506040908152602082810151918301516060840151608090940151885193965090945091879187918691869186918691869183918391620001e091600391850190620003d4565b508051620001f6906004906020840190620003d4565b50506005805460ff19166012179055505050806200025b576040805162461bcd60e51b815260206004820152601560248201527f4d6178696d616c207374616b65206973207a65726f0000000000000000000000604482015290519081900360640190fd5b6200027a836001600160a01b0316620003ca60201b6200126b1760201c565b620002cc576040805162461bcd60e51b815260206004820152601d60248201527f52657761726473546f6b656e206d75737420626520636f6e7472616374000000604482015290519081900360640190fd5b620002eb826001600160a01b0316620003ca60201b6200126b1760201c565b6200033d576040805162461bcd60e51b815260206004820152601d60248201527f52657761726473546f6b656e206d75737420626520636f6e7472616374000000604482015290519081900360640190fd5b6001600160601b0319606093841b81166080529190921b1660a05260c05250600090506200036a620003d0565b600b80546001600160a01b0319166001600160a01b038316908117909155604051919250906000907f8be0079c531659141344cd1fd0a4f28419497f9722a3daafe3b4186f6b6457e0908290a350505060e0919091525062000480915050565b3b151590565b3390565b828054600181600116156101000203166002900490600052602060002090601f0160209004810192826200040c576000855562000457565b82601f106200042757805160ff191683800117855562000457565b8280016001018555821562000457579182015b82811115620004575782518255916020019190600101906200043a565b506200046592915062000469565b5090565b5b808211156200046557600081556001016200046a565b60805160601c60a05160601c60c05160e051611bb7620004e96000398061067452806107c3528061081f52806108f15280610977525080610ca45280610e13525080610ab15280610d3152806112005250806108525280610f195280610f875250611bb76000f3fe608060405234801561001057600080fd5b50600436106101725760003560e01c80638da5cb5b116100de578063b4509cb511610097578063dd62ed3e11610071578063dd62ed3e14610431578063ebe2b12b1461045f578063f2fde38b14610467578063f3fef3a31461048d57610172565b8063b4509cb5146103fb578063c00007b014610403578063d1af0c7d1461042957610172565b80638da5cb5b1461036d57806395d89b4114610375578063a457c2d71461037d578063a9059cbb1461022c578063adc9772e146103a9578063b42652e9146103d557610172565b8063386a952511610130578063386a9525146102c857806339509351146102d05780633c6b16ab146102fc57806370a082311461031b578063715018a61461034157806372f702f31461034957610172565b80628cc2621461017757806306fdde03146101af578063095ea7b31461022c57806318160ddd1461026c57806323b872dd14610274578063313ce567146102aa575b600080fd5b61019d6004803603602081101561018d57600080fd5b50356001600160a01b03166104b9565b60408051918252519081900360200190f35b6101b7610527565b6040805160208082528351818301528351919283929083019185019080838360005b838110156101f15781810151838201526020016101d9565b50505050905090810190601f16801561021e5780820380516001836020036101000a031916815260200191505b509250505060405180910390f35b6102586004803603604081101561024257600080fd5b506001600160a01b0381351690602001356105be565b604080519115158252519081900360200190f35b61019d6105db565b6102586004803603606081101561028a57600080fd5b506001600160a01b038135811691602081013590911690604001356105e1565b6102b2610669565b6040805160ff9092168252519081900360200190f35b61019d610672565b610258600480360360408110156102e657600080fd5b506001600160a01b038135169060200135610696565b6103196004803603602081101561031257600080fd5b50356106e4565b005b61019d6004803603602081101561033157600080fd5b50356001600160a01b03166109d6565b6103196109f1565b610351610aaf565b604080516001600160a01b039092168252519081900360200190f35b610351610ad3565b6101b7610ae2565b6102586004803603604081101561039357600080fd5b506001600160a01b038135169060200135610b43565b610319600480360360408110156103bf57600080fd5b506001600160a01b038135169060200135610bab565b610319600480360360208110156103eb57600080fd5b50356001600160a01b0316610d9d565b61019d610e11565b6103196004803603602081101561041957600080fd5b50356001600160a01b0316610e35565b610351610f85565b61019d6004803603604081101561044757600080fd5b506001600160a01b0381358116916020013516610fa9565b61019d610fd4565b6103196004803603602081101561047d57600080fd5b50356001600160a01b0316610fda565b610319600480360360408110156104a357600080fd5b506001600160a01b0381351690602001356110ef565b6001600160a01b0381166000908152600a60209081526040808320546009909252822054610521919061051b90670de0b6b3a7640000906105159061050690610500611271565b906112c4565b61050f886109d6565b90611321565b9061137a565b906113e1565b92915050565b60038054604080516020601f60026000196101006001881615020190951694909404938401819004810282018101909252828152606093909290918301828280156105b35780601f10610588576101008083540402835291602001916105b3565b820191906000526020600020905b81548152906001019060200180831161059657829003601f168201915b505050505090505b90565b60006105d26105cb61143b565b848461143f565b50600192915050565b60025490565b60006105ee84848461143f565b61065e846105fa61143b565b61065985604051806060016040528060288152602001611aea602891396001600160a01b038a1660009081526001602052604081209061063861143b565b6001600160a01b031681526020810191909152604001600020549190611478565b61143f565b5060015b9392505050565b60055460ff1690565b7f000000000000000000000000000000000000000000000000000000000000000081565b60006105d26106a361143b565b8461065985600160006106b461143b565b6001600160a01b03908116825260208083019390935260409182016000908120918c1681529252902054906113e1565b6106ec61143b565b6001600160a01b03166106fd610ad3565b6001600160a01b031614610758576040805162461bcd60e51b815260206004820181905260248201527f4f776e61626c653a2063616c6c6572206973206e6f7420746865206f776e6572604482015290519081900360640190fd5b6000610762611271565b60085561076d61150f565b6007556001600160a01b038116156107b457610788816104b9565b6001600160a01b0382166000908152600a60209081526040808320939093556008546009909152919020555b60065442106107ef576107e7827f000000000000000000000000000000000000000000000000000000000000000061137a565b600c5561084e565b6006546000906107ff90426112c4565b90506000610818600c548361132190919063ffffffff16565b90506108487f000000000000000000000000000000000000000000000000000000000000000061051586846113e1565b600c5550505b60007f00000000000000000000000000000000000000000000000000000000000000006001600160a01b03166370a08231306040518263ffffffff1660e01b815260040180826001600160a01b0316815260200191505060206040518083038186803b1580156108bd57600080fd5b505afa1580156108d1573d6000803e3d6000fd5b505050506040513d60208110156108e757600080fd5b50519050610915817f000000000000000000000000000000000000000000000000000000000000000061137a565b600c54111561096b576040805162461bcd60e51b815260206004820152601860248201527f50726f76696465642072657761726420746f6f20686967680000000000000000604482015290519081900360640190fd5b42600781905561099b907f00000000000000000000000000000000000000000000000000000000000000006113e1565b6006556040805184815290517fde88a922e0d3b88b24e9623efeb464919c6bf9f66857a65e2bfcf2ce87a9433d9181900360200190a1505050565b6001600160a01b031660009081526020819052604090205490565b6109f961143b565b6001600160a01b0316610a0a610ad3565b6001600160a01b031614610a65576040805162461bcd60e51b815260206004820181905260248201527f4f776e61626c653a2063616c6c6572206973206e6f7420746865206f776e6572604482015290519081900360640190fd5b600b546040516000916001600160a01b0316907f8be0079c531659141344cd1fd0a4f28419497f9722a3daafe3b4186f6b6457e0908390a3600b80546001600160a01b0319169055565b7f000000000000000000000000000000000000000000000000000000000000000081565b600b546001600160a01b031690565b60048054604080516020601f60026000196101006001881615020190951694909404938401819004810282018101909252828152606093909290918301828280156105b35780601f10610588576101008083540402835291602001916105b3565b60006105d2610b5061143b565b8461065985604051806060016040528060258152602001611b5d6025913960016000610b7a61143b565b6001600160a01b03908116825260208083019390935260409182016000908120918d16815292529020549190611478565b81610bb4611271565b600855610bbf61150f565b6007556001600160a01b03811615610c0657610bda816104b9565b6001600160a01b0382166000908152600a60209081526040808320939093556008546009909152919020555b6001600160a01b0383163314610c5c576040805162461bcd60e51b815260206004820152601660248201527514d95b99195c881b5d5cdd081899481858d8dbdd5b9d60521b604482015290519081900360640190fd5b60008211610ca2576040805162461bcd60e51b815260206004820152600e60248201526d043616e6e6f74207374616b6520360941b604482015290519081900360640190fd5b7f0000000000000000000000000000000000000000000000000000000000000000610cd08361051b866109d6565b1115610d1a576040805162461bcd60e51b815260206004820152601460248201527314dd185ad948195e18d95959081b585e1a5b585b60621b604482015290519081900360640190fd5b610d24838361151d565b610d596001600160a01b037f00000000000000000000000000000000000000000000000000000000000000001684308561160d565b6040805183815290516001600160a01b038516917f9e71bc8eea02a63969f509818f2dafb9254532904319f9dbda79b67bd34a5f3d919081900360200190a2505050565b6001600160a01b0381163314610df3576040805162461bcd60e51b815260206004820152601660248201527514d95b99195c881b5d5cdd081899481858d8dbdd5b9d60521b604482015290519081900360640190fd5b610e0581610e00836109d6565b6110ef565b610e0e81610e35565b50565b7f000000000000000000000000000000000000000000000000000000000000000090565b80610e3e611271565b600855610e4961150f565b6007556001600160a01b03811615610e9057610e64816104b9565b6001600160a01b0382166000908152600a60209081526040808320939093556008546009909152919020555b6001600160a01b0382163314610ee6576040805162461bcd60e51b815260206004820152601660248201527514d95b99195c881b5d5cdd081899481858d8dbdd5b9d60521b604482015290519081900360640190fd5b6000610ef1836104b9565b90508015610f80576001600160a01b038084166000908152600a6020526040812055610f40907f000000000000000000000000000000000000000000000000000000000000000016848361166d565b6040805182815290516001600160a01b038516917fe2403640ba68fed3a2f88b7557551d1993f84b99bb10ff833f0cf8db0c5e0486919081900360200190a25b505050565b7f000000000000000000000000000000000000000000000000000000000000000081565b6001600160a01b03918216600090815260016020908152604080832093909416825291909152205490565b60065490565b610fe261143b565b6001600160a01b0316610ff3610ad3565b6001600160a01b03161461104e576040805162461bcd60e51b815260206004820181905260248201527f4f776e61626c653a2063616c6c6572206973206e6f7420746865206f776e6572604482015290519081900360640190fd5b6001600160a01b0381166110935760405162461bcd60e51b8152600401808060200182810382526026815260200180611a7d6026913960400191505060405180910390fd5b600b546040516001600160a01b038084169216907f8be0079c531659141344cd1fd0a4f28419497f9722a3daafe3b4186f6b6457e090600090a3600b80546001600160a01b0319166001600160a01b0392909216919091179055565b816110f8611271565b60085561110361150f565b6007556001600160a01b0381161561114a5761111e816104b9565b6001600160a01b0382166000908152600a60209081526040808320939093556008546009909152919020555b6001600160a01b03831633146111a0576040805162461bcd60e51b815260206004820152601660248201527514d95b99195c881b5d5cdd081899481858d8dbdd5b9d60521b604482015290519081900360640190fd5b600082116111e9576040805162461bcd60e51b8152602060048201526011602482015270043616e6e6f74207769746864726177203607c1b604482015290519081900360640190fd5b6111f383836116bf565b6112276001600160a01b037f000000000000000000000000000000000000000000000000000000000000000016848461166d565b6040805183815290516001600160a01b038516917f7084f5476618d8e60b11ef0d7d3f06914655adb8793e28ff7f018d4c76d505d5919081900360200190a2505050565b3b151590565b600061127b6105db565b61128857506008546105bb565b6112bf6112b66112966105db565b610515670de0b6b3a764000061050f600c5461050f60075461050061150f565b600854906113e1565b905090565b60008282111561131b576040805162461bcd60e51b815260206004820152601e60248201527f536166654d6174683a207375627472616374696f6e206f766572666c6f770000604482015290519081900360640190fd5b50900390565b60008261133057506000610521565b8282028284828161133d57fe5b04146106625760405162461bcd60e51b8152600401808060200182810382526021815260200180611ac96021913960400191505060405180910390fd5b60008082116113d0576040805162461bcd60e51b815260206004820152601a60248201527f536166654d6174683a206469766973696f6e206279207a65726f000000000000604482015290519081900360640190fd5b8183816113d957fe5b049392505050565b600082820183811015610662576040805162461bcd60e51b815260206004820152601b60248201527f536166654d6174683a206164646974696f6e206f766572666c6f770000000000604482015290519081900360640190fd5b3390565b6040805162461bcd60e51b81526020600482015260096024820152682337b93134b23232b760b91b604482015290519081900360640190fd5b600081848411156115075760405162461bcd60e51b81526004018080602001828103825283818151815260200191508051906020019080838360005b838110156114cc5781810151838201526020016114b4565b50505050905090810190601f1680156114f95780820380516001836020036101000a031916815260200191505b509250505060405180910390fd5b505050900390565b60006112bf426006546117bb565b6001600160a01b038216611578576040805162461bcd60e51b815260206004820152601f60248201527f45524332303a206d696e7420746f20746865207a65726f206164647265737300604482015290519081900360640190fd5b61158460008383610f80565b60025461159190826113e1565b6002556001600160a01b0382166000908152602081905260409020546115b790826113e1565b6001600160a01b0383166000818152602081815260408083209490945583518581529351929391927fddf252ad1be2c89b69c2b068fc378daa952ba7f163c4a11628f55a4df523b3ef9281900390910190a35050565b604080516001600160a01b0380861660248301528416604482015260648082018490528251808303909101815260849091019091526020810180516001600160e01b03166323b872dd60e01b1790526116679085906117d1565b50505050565b604080516001600160a01b038416602482015260448082018490528251808303909101815260649091019091526020810180516001600160e01b031663a9059cbb60e01b179052610f809084906117d1565b6001600160a01b0382166117045760405162461bcd60e51b8152600401808060200182810382526021815260200180611b126021913960400191505060405180910390fd5b61171082600083610f80565b61174d81604051806060016040528060228152602001611a5b602291396001600160a01b0385166000908152602081905260409020549190611478565b6001600160a01b03831660009081526020819052604090205560025461177390826112c4565b6002556040805182815290516000916001600160a01b038516917fddf252ad1be2c89b69c2b068fc378daa952ba7f163c4a11628f55a4df523b3ef9181900360200190a35050565b60008183106117ca5781610662565b5090919050565b6000611826826040518060400160405280602081526020017f5361666545524332303a206c6f772d6c6576656c2063616c6c206661696c6564815250856001600160a01b03166118829092919063ffffffff16565b805190915015610f805780806020019051602081101561184557600080fd5b5051610f805760405162461bcd60e51b815260040180806020018281038252602a815260200180611b33602a913960400191505060405180910390fd5b60606118918484600085611899565b949350505050565b6060824710156118da5760405162461bcd60e51b8152600401808060200182810382526026815260200180611aa36026913960400191505060405180910390fd5b6118e38561126b565b611934576040805162461bcd60e51b815260206004820152601d60248201527f416464726573733a2063616c6c20746f206e6f6e2d636f6e7472616374000000604482015290519081900360640190fd5b600080866001600160a01b031685876040518082805190602001908083835b602083106119725780518252601f199092019160209182019101611953565b6001836020036101000a03801982511681845116808217855250505050505090500191505060006040518083038185875af1925050503d80600081146119d4576040519150601f19603f3d011682016040523d82523d6000602084013e6119d9565b606091505b50915091506119e98282866119f4565b979650505050505050565b60608315611a03575081610662565b825115611a135782518084602001fd5b60405162461bcd60e51b81526020600482018181528451602484015284518593919283926044019190850190808383600083156114cc5781810151838201526020016114b456fe45524332303a206275726e20616d6f756e7420657863656564732062616c616e63654f776e61626c653a206e6577206f776e657220697320746865207a65726f2061646472657373416464726573733a20696e73756666696369656e742062616c616e636520666f722063616c6c536166654d6174683a206d756c7469706c69636174696f6e206f766572666c6f7745524332303a207472616e7366657220616d6f756e74206578636565647320616c6c6f77616e636545524332303a206275726e2066726f6d20746865207a65726f20616464726573735361666545524332303a204552433230206f7065726174696f6e20646964206e6f74207375636365656445524332303a2064656372656173656420616c6c6f77616e63652062656c6f77207a65726fa26469706673582212209f96b967b4d741f88da8e2b69a026c74cf22d314b116fc25dfb01a7c74f90c2464736f6c634300070600334f776e61626c653a206e6577206f776e657220697320746865207a65726f20616464726573734f776e61626c653a2063616c6c6572206973206e6f7420746865206f776e6572a2646970667358221220e079df4e9e957b22e98bef190702d56b0443e80bed933e49afa4086b69cba0e264736f6c63430007060033",
  "immutableReferences": {
    "2785": [
      {
        "length": 32,
        "start": 880
      },
      {
        "length": 32,
        "start": 1414
      },
      {
        "length": 32,
        "start": 1720
      }
    ]
  },
  "source": "// SPDX-License-Identifier: MIT\npragma solidity >=0.6.0 <0.8.0;\n\nimport \"@openzeppelin/contracts/access/Ownable.sol\";\nimport \"@openzeppelin/contracts/utils/Address.sol\";\n\nimport \"./FarmingRewards.sol\";\nimport \"../interfaces/IRewardsToken.sol\";\nimport \"../interfaces/IRewardsDistributionRecipient.sol\";\nimport \"../interfaces/IFarmingRewardsFactory.sol\";\n\ncontract FarmingRewardsFactory is IFarmingRewardsFactory, Ownable {\n    using Address for address;\n\n    IRewardsToken public immutable rewardsToken;\n\n    constructor(address rewardsToken_) {\n        require(rewardsToken_.isContract(), \"RewardsToken must be contract\");\n        rewardsToken = IRewardsToken(rewardsToken_);\n    }\n\n    function createFarming(\n        string memory _name,\n        string memory _symbol,\n        address _stakingToken,\n        uint256 _rewardsDuration,\n        uint256 _maximalStake\n    ) external override onlyOwner returns (address) {\n        FarmingRewards farming =\n            new FarmingRewards(\n                _name,\n                _symbol,\n                _rewardsDuration,\n                address(rewardsToken),\n                _stakingToken,\n                _maximalStake\n            );\n        emit FarmingCreated(address(farming));\n        return address(farming);\n    }\n\n    function distributeRewards(address farming, uint256 total)\n        external\n        override\n        onlyOwner\n    {\n        rewardsToken.mint(farming, total);\n        IRewardsDistributionRecipient(farming).notifyRewardAmount(total);\n        emit FarmingDistributed(address(farming));\n    }\n}\n",
  "sourcePath": "/home/nailkhaf/Projects/san-games/contracts/rewards/FarmingRewardsFactory.sol",
  "compiler": {
    "name": "solc",
    "version": "0.7.6+commit.7338295f.Emscripten.clang"
  },
  "schemaVersion": "3.3.3",
  "updatedAt": "2021-02-16T11:51:41.939Z",
  "devdoc": {
    "kind": "dev",
    "methods": {
      "createFarming(string,string,address,uint256,uint256)": {
        "details": "Deploy contract {FarmingReward} as ERC20 token with `_name`, `_symbol`. Return address of deployed contract."
      },
      "distributeRewards(address,uint256)": {
        "details": "Distribute farming `total` reward tokens to `farming` contract."
      },
      "owner()": {
        "details": "Returns the address of the current owner."
      },
      "renounceOwnership()": {
        "details": "Leaves the contract without owner. It will not be possible to call `onlyOwner` functions anymore. Can only be called by the current owner. NOTE: Renouncing ownership will leave the contract without an owner, thereby removing any functionality that is only available to the owner."
      },
      "transferOwnership(address)": {
        "details": "Transfers ownership of the contract to a new account (`newOwner`). Can only be called by the current owner."
      }
    },
    "version": 1
  },
  "userdoc": {
    "kind": "user",
    "methods": {},
    "version": 1
  }
}