{
  "contractName": "MerkleDistributor",
  "abi": [
    {
      "inputs": [
        {
          "internalType": "address",
          "name": "token_",
          "type": "address"
        },
        {
          "internalType": "bytes32",
          "name": "merkleRoot_",
          "type": "bytes32"
        }
      ],
      "stateMutability": "nonpayable",
      "type": "constructor"
    },
    {
      "anonymous": false,
      "inputs": [
        {
          "indexed": false,
          "internalType": "uint256",
          "name": "index",
          "type": "uint256"
        },
        {
          "indexed": false,
          "internalType": "address",
          "name": "account",
          "type": "address"
        },
        {
          "indexed": false,
          "internalType": "uint256",
          "name": "amount",
          "type": "uint256"
        }
      ],
      "name": "Claimed",
      "type": "event"
    },
    {
      "inputs": [
        {
          "internalType": "uint256",
          "name": "index",
          "type": "uint256"
        },
        {
          "internalType": "address",
          "name": "account",
          "type": "address"
        },
        {
          "internalType": "uint256",
          "name": "amount",
          "type": "uint256"
        },
        {
          "internalType": "bytes32[]",
          "name": "merkleProof",
          "type": "bytes32[]"
        }
      ],
      "name": "claim",
      "outputs": [],
      "stateMutability": "nonpayable",
      "type": "function"
    },
    {
      "inputs": [
        {
          "internalType": "uint256",
          "name": "index",
          "type": "uint256"
        }
      ],
      "name": "isClaimed",
      "outputs": [
        {
          "internalType": "bool",
          "name": "",
          "type": "bool"
        }
      ],
      "stateMutability": "view",
      "type": "function"
    },
    {
      "inputs": [],
      "name": "token",
      "outputs": [
        {
          "internalType": "address",
          "name": "",
          "type": "address"
        }
      ],
      "stateMutability": "view",
      "type": "function"
    },
    {
      "inputs": [],
      "name": "merkleRoot",
      "outputs": [
        {
          "internalType": "bytes32",
          "name": "",
          "type": "bytes32"
        }
      ],
      "stateMutability": "view",
      "type": "function"
    }
  ],
  "bytecode": "0x60c060405234801561001057600080fd5b506040516106053803806106058339818101604052604081101561003357600080fd5b508051602090910151606082901b6001600160601b03191660805260a08190526001600160a01b039091169061057f6100866000398061020f52806103c4525080610296528061040e525061057f6000f3fe608060405234801561001057600080fd5b506004361061004c5760003560e01c80632e7ba6ef146100515780632eb4a7ab146100df5780639e34070f146100f9578063fc0c546a1461012a575b600080fd5b6100dd6004803603608081101561006757600080fd5b8135916001600160a01b03602082013516916040820135919081019060808101606082013564010000000081111561009e57600080fd5b8201836020820111156100b057600080fd5b803590602001918460208302840111640100000000831117156100d257600080fd5b50909250905061014e565b005b6100e76103c2565b60408051918252519081900360200190f35b6101166004803603602081101561010f57600080fd5b50356103e6565b604080519115158252519081900360200190f35b61013261040c565b604080516001600160a01b039092168252519081900360200190f35b610157856103e6565b156101935760405162461bcd60e51b81526004018080602001828103825260278152602001806105016027913960400191505060405180910390fd5b600085858560405160200180848152602001836001600160a01b031660601b8152601401828152602001935050505060405160208183030381529060405280519060200120905061023a8383808060200260200160405190810160405280939291908181526020018383602002808284376000920191909152507f000000000000000000000000000000000000000000000000000000000000000092508591506104309050565b61028b576040805162461bcd60e51b815260206004820181905260248201527f4d65726b6c654469737472696275746f723a20496e76616c69642070726f6f66604482015290519081900360640190fd5b610294866104d9565b7f00000000000000000000000000000000000000000000000000000000000000006001600160a01b031663a9059cbb86866040518363ffffffff1660e01b815260040180836001600160a01b0316815260200182815260200192505050602060405180830381600087803b15801561030b57600080fd5b505af115801561031f573d6000803e3d6000fd5b505050506040513d602081101561033557600080fd5b50516103725760405162461bcd60e51b81526004018080602001828103825260228152602001806105286022913960400191505060405180910390fd5b604080518781526001600160a01b038716602082015280820186905290517f4ec90e965519d92681267467f775ada5bd214aa92c0dc93d90a5e880ce9ed0269181900360600190a1505050505050565b7f000000000000000000000000000000000000000000000000000000000000000090565b6101008104600090815260208190526040902054600160ff9092169190911b9081161490565b7f000000000000000000000000000000000000000000000000000000000000000090565b600081815b85518110156104ce57600086828151811061044c57fe5b6020026020010151905080831161049357828160405160200180838152602001828152602001925050506040516020818303038152906040528051906020012092506104c5565b808360405160200180838152602001828152602001925050506040516020818303038152906040528051906020012092505b50600101610435565b509092149392505050565b610100810460009081526020819052604090208054600160ff9093169290921b909117905556fe4d65726b6c654469737472696275746f723a2044726f7020616c726561647920636c61696d65644d65726b6c654469737472696275746f723a205472616e73666572206661696c6564a2646970667358221220f2dda775e816b075124a479043074b498ad3266880cd554be23a653bd57f718664736f6c63430007060033",
  "immutableReferences": {
    "318": [
      {
        "length": 32,
        "start": 662
      },
      {
        "length": 32,
        "start": 1038
      }
    ],
    "320": [
      {
        "length": 32,
        "start": 527
      },
      {
        "length": 32,
        "start": 964
      }
    ]
  },
  "source": "// SPDX-License-Identifier: MIT\npragma solidity >=0.6.0 <0.8.0;\n\nimport \"@openzeppelin/contracts/token/ERC20/IERC20.sol\";\nimport \"@openzeppelin/contracts/cryptography/MerkleProof.sol\";\nimport \"../interfaces/IMerkleDistributor.sol\";\n\ncontract MerkleDistributor is IMerkleDistributor {\n    address private immutable _token;\n    bytes32 private immutable _merkleRoot;\n\n    // This is a packed array of booleans.\n    mapping(uint256 => uint256) private claimedBitMap;\n\n    constructor(address token_, bytes32 merkleRoot_) {\n        _token = token_;\n        _merkleRoot = merkleRoot_;\n    }\n\n    function claim(\n        uint256 index,\n        address account,\n        uint256 amount,\n        bytes32[] calldata merkleProof\n    ) external override {\n        require(!isClaimed(index), \"MerkleDistributor: Drop already claimed\");\n\n        // Verify the merkle proof.\n        bytes32 node = keccak256(abi.encodePacked(index, account, amount));\n        require(\n            MerkleProof.verify(merkleProof, _merkleRoot, node),\n            \"MerkleDistributor: Invalid proof\"\n        );\n\n        // Mark it claimed and send the token.\n        _setClaimed(index);\n        require(\n            IERC20(_token).transfer(account, amount),\n            \"MerkleDistributor: Transfer failed\"\n        );\n\n        emit Claimed(index, account, amount);\n    }\n\n    function _setClaimed(uint256 index) private {\n        uint256 claimedWordIndex = index / 256;\n        uint256 claimedBitIndex = index % 256;\n        claimedBitMap[claimedWordIndex] =\n            claimedBitMap[claimedWordIndex] |\n            (1 << claimedBitIndex);\n    }\n\n    function isClaimed(uint256 index) public view override returns (bool) {\n        uint256 claimedWordIndex = index / 256;\n        uint256 claimedBitIndex = index % 256;\n        uint256 claimedWord = claimedBitMap[claimedWordIndex];\n        uint256 mask = (1 << claimedBitIndex);\n        return claimedWord & mask == mask;\n    }\n\n    function token() external view override returns (address) {\n        return _token;\n    }\n\n    function merkleRoot() external view override returns (bytes32) {\n        return _merkleRoot;\n    }\n}\n",
  "sourcePath": "/home/nailkhaf/Projects/san-games/contracts/airdrop/MerkleDistributor.sol",
  "compiler": {
    "name": "solc",
    "version": "0.7.6+commit.7338295f.Emscripten.clang"
  },
  "schemaVersion": "3.3.3",
  "updatedAt": "2021-02-16T10:30:05.192Z",
  "devdoc": {
    "kind": "dev",
    "methods": {},
    "version": 1
  },
  "userdoc": {
    "kind": "user",
    "methods": {},
    "version": 1
  }
}