{
  "contractName": "RewardsToken",
  "abi": [
    {
      "inputs": [],
      "stateMutability": "nonpayable",
      "type": "constructor"
    },
    {
      "anonymous": false,
      "inputs": [
        {
          "indexed": true,
          "internalType": "address",
          "name": "owner",
          "type": "address"
        },
        {
          "indexed": true,
          "internalType": "address",
          "name": "spender",
          "type": "address"
        },
        {
          "indexed": false,
          "internalType": "uint256",
          "name": "value",
          "type": "uint256"
        }
      ],
      "name": "Approval",
      "type": "event"
    },
    {
      "anonymous": false,
      "inputs": [
        {
          "indexed": false,
          "internalType": "address",
          "name": "account",
          "type": "address"
        }
      ],
      "name": "Paused",
      "type": "event"
    },
    {
      "anonymous": false,
      "inputs": [
        {
          "indexed": true,
          "internalType": "bytes32",
          "name": "role",
          "type": "bytes32"
        },
        {
          "indexed": true,
          "internalType": "bytes32",
          "name": "previousAdminRole",
          "type": "bytes32"
        },
        {
          "indexed": true,
          "internalType": "bytes32",
          "name": "newAdminRole",
          "type": "bytes32"
        }
      ],
      "name": "RoleAdminChanged",
      "type": "event"
    },
    {
      "anonymous": false,
      "inputs": [
        {
          "indexed": true,
          "internalType": "bytes32",
          "name": "role",
          "type": "bytes32"
        },
        {
          "indexed": true,
          "internalType": "address",
          "name": "account",
          "type": "address"
        },
        {
          "indexed": true,
          "internalType": "address",
          "name": "sender",
          "type": "address"
        }
      ],
      "name": "RoleGranted",
      "type": "event"
    },
    {
      "anonymous": false,
      "inputs": [
        {
          "indexed": true,
          "internalType": "bytes32",
          "name": "role",
          "type": "bytes32"
        },
        {
          "indexed": true,
          "internalType": "address",
          "name": "account",
          "type": "address"
        },
        {
          "indexed": true,
          "internalType": "address",
          "name": "sender",
          "type": "address"
        }
      ],
      "name": "RoleRevoked",
      "type": "event"
    },
    {
      "anonymous": false,
      "inputs": [
        {
          "indexed": false,
          "internalType": "uint256",
          "name": "id",
          "type": "uint256"
        }
      ],
      "name": "Snapshot",
      "type": "event"
    },
    {
      "anonymous": false,
      "inputs": [
        {
          "indexed": true,
          "internalType": "address",
          "name": "from",
          "type": "address"
        },
        {
          "indexed": true,
          "internalType": "address",
          "name": "to",
          "type": "address"
        },
        {
          "indexed": false,
          "internalType": "uint256",
          "name": "value",
          "type": "uint256"
        }
      ],
      "name": "Transfer",
      "type": "event"
    },
    {
      "anonymous": false,
      "inputs": [
        {
          "indexed": false,
          "internalType": "address",
          "name": "previous",
          "type": "address"
        },
        {
          "indexed": false,
          "internalType": "address",
          "name": "current",
          "type": "address"
        }
      ],
      "name": "TrustedForwarderChanged",
      "type": "event"
    },
    {
      "anonymous": false,
      "inputs": [
        {
          "indexed": false,
          "internalType": "address",
          "name": "account",
          "type": "address"
        }
      ],
      "name": "Unpaused",
      "type": "event"
    },
    {
      "inputs": [],
      "name": "DEFAULT_ADMIN_ROLE",
      "outputs": [
        {
          "internalType": "bytes32",
          "name": "",
          "type": "bytes32"
        }
      ],
      "stateMutability": "view",
      "type": "function"
    },
    {
      "inputs": [],
      "name": "DOMAIN_SEPARATOR",
      "outputs": [
        {
          "internalType": "bytes32",
          "name": "",
          "type": "bytes32"
        }
      ],
      "stateMutability": "view",
      "type": "function"
    },
    {
      "inputs": [
        {
          "internalType": "address",
          "name": "owner",
          "type": "address"
        },
        {
          "internalType": "address",
          "name": "spender",
          "type": "address"
        }
      ],
      "name": "allowance",
      "outputs": [
        {
          "internalType": "uint256",
          "name": "",
          "type": "uint256"
        }
      ],
      "stateMutability": "view",
      "type": "function"
    },
    {
      "inputs": [
        {
          "internalType": "address",
          "name": "spender",
          "type": "address"
        },
        {
          "internalType": "uint256",
          "name": "amount",
          "type": "uint256"
        }
      ],
      "name": "approve",
      "outputs": [
        {
          "internalType": "bool",
          "name": "",
          "type": "bool"
        }
      ],
      "stateMutability": "nonpayable",
      "type": "function"
    },
    {
      "inputs": [
        {
          "internalType": "address",
          "name": "account",
          "type": "address"
        }
      ],
      "name": "balanceOf",
      "outputs": [
        {
          "internalType": "uint256",
          "name": "",
          "type": "uint256"
        }
      ],
      "stateMutability": "view",
      "type": "function"
    },
    {
      "inputs": [
        {
          "internalType": "address",
          "name": "account",
          "type": "address"
        },
        {
          "internalType": "uint256",
          "name": "snapshotId",
          "type": "uint256"
        }
      ],
      "name": "balanceOfAt",
      "outputs": [
        {
          "internalType": "uint256",
          "name": "",
          "type": "uint256"
        }
      ],
      "stateMutability": "view",
      "type": "function"
    },
    {
      "inputs": [],
      "name": "decimals",
      "outputs": [
        {
          "internalType": "uint8",
          "name": "",
          "type": "uint8"
        }
      ],
      "stateMutability": "view",
      "type": "function"
    },
    {
      "inputs": [
        {
          "internalType": "address",
          "name": "spender",
          "type": "address"
        },
        {
          "internalType": "uint256",
          "name": "subtractedValue",
          "type": "uint256"
        }
      ],
      "name": "decreaseAllowance",
      "outputs": [
        {
          "internalType": "bool",
          "name": "",
          "type": "bool"
        }
      ],
      "stateMutability": "nonpayable",
      "type": "function"
    },
    {
      "inputs": [
        {
          "internalType": "bytes32",
          "name": "role",
          "type": "bytes32"
        }
      ],
      "name": "getRoleAdmin",
      "outputs": [
        {
          "internalType": "bytes32",
          "name": "",
          "type": "bytes32"
        }
      ],
      "stateMutability": "view",
      "type": "function"
    },
    {
      "inputs": [
        {
          "internalType": "bytes32",
          "name": "role",
          "type": "bytes32"
        },
        {
          "internalType": "uint256",
          "name": "index",
          "type": "uint256"
        }
      ],
      "name": "getRoleMember",
      "outputs": [
        {
          "internalType": "address",
          "name": "",
          "type": "address"
        }
      ],
      "stateMutability": "view",
      "type": "function"
    },
    {
      "inputs": [
        {
          "internalType": "bytes32",
          "name": "role",
          "type": "bytes32"
        }
      ],
      "name": "getRoleMemberCount",
      "outputs": [
        {
          "internalType": "uint256",
          "name": "",
          "type": "uint256"
        }
      ],
      "stateMutability": "view",
      "type": "function"
    },
    {
      "inputs": [
        {
          "internalType": "bytes32",
          "name": "role",
          "type": "bytes32"
        },
        {
          "internalType": "address",
          "name": "account",
          "type": "address"
        }
      ],
      "name": "grantRole",
      "outputs": [],
      "stateMutability": "nonpayable",
      "type": "function"
    },
    {
      "inputs": [
        {
          "internalType": "bytes32",
          "name": "role",
          "type": "bytes32"
        },
        {
          "internalType": "address",
          "name": "account",
          "type": "address"
        }
      ],
      "name": "hasRole",
      "outputs": [
        {
          "internalType": "bool",
          "name": "",
          "type": "bool"
        }
      ],
      "stateMutability": "view",
      "type": "function"
    },
    {
      "inputs": [
        {
          "internalType": "address",
          "name": "spender",
          "type": "address"
        },
        {
          "internalType": "uint256",
          "name": "addedValue",
          "type": "uint256"
        }
      ],
      "name": "increaseAllowance",
      "outputs": [
        {
          "internalType": "bool",
          "name": "",
          "type": "bool"
        }
      ],
      "stateMutability": "nonpayable",
      "type": "function"
    },
    {
      "inputs": [
        {
          "internalType": "address",
          "name": "forwarder",
          "type": "address"
        }
      ],
      "name": "isTrustedForwarder",
      "outputs": [
        {
          "internalType": "bool",
          "name": "",
          "type": "bool"
        }
      ],
      "stateMutability": "view",
      "type": "function"
    },
    {
      "inputs": [],
      "name": "name",
      "outputs": [
        {
          "internalType": "string",
          "name": "",
          "type": "string"
        }
      ],
      "stateMutability": "view",
      "type": "function"
    },
    {
      "inputs": [
        {
          "internalType": "address",
          "name": "owner",
          "type": "address"
        }
      ],
      "name": "nonces",
      "outputs": [
        {
          "internalType": "uint256",
          "name": "",
          "type": "uint256"
        }
      ],
      "stateMutability": "view",
      "type": "function"
    },
    {
      "inputs": [],
      "name": "paused",
      "outputs": [
        {
          "internalType": "bool",
          "name": "",
          "type": "bool"
        }
      ],
      "stateMutability": "view",
      "type": "function"
    },
    {
      "inputs": [
        {
          "internalType": "address",
          "name": "owner",
          "type": "address"
        },
        {
          "internalType": "address",
          "name": "spender",
          "type": "address"
        },
        {
          "internalType": "uint256",
          "name": "value",
          "type": "uint256"
        },
        {
          "internalType": "uint256",
          "name": "deadline",
          "type": "uint256"
        },
        {
          "internalType": "uint8",
          "name": "v",
          "type": "uint8"
        },
        {
          "internalType": "bytes32",
          "name": "r",
          "type": "bytes32"
        },
        {
          "internalType": "bytes32",
          "name": "s",
          "type": "bytes32"
        }
      ],
      "name": "permit",
      "outputs": [],
      "stateMutability": "nonpayable",
      "type": "function"
    },
    {
      "inputs": [
        {
          "internalType": "bytes32",
          "name": "role",
          "type": "bytes32"
        },
        {
          "internalType": "address",
          "name": "account",
          "type": "address"
        }
      ],
      "name": "renounceRole",
      "outputs": [],
      "stateMutability": "nonpayable",
      "type": "function"
    },
    {
      "inputs": [
        {
          "internalType": "bytes32",
          "name": "role",
          "type": "bytes32"
        },
        {
          "internalType": "address",
          "name": "account",
          "type": "address"
        }
      ],
      "name": "revokeRole",
      "outputs": [],
      "stateMutability": "nonpayable",
      "type": "function"
    },
    {
      "inputs": [],
      "name": "symbol",
      "outputs": [
        {
          "internalType": "string",
          "name": "",
          "type": "string"
        }
      ],
      "stateMutability": "view",
      "type": "function"
    },
    {
      "inputs": [],
      "name": "totalSupply",
      "outputs": [
        {
          "internalType": "uint256",
          "name": "",
          "type": "uint256"
        }
      ],
      "stateMutability": "view",
      "type": "function"
    },
    {
      "inputs": [
        {
          "internalType": "uint256",
          "name": "snapshotId",
          "type": "uint256"
        }
      ],
      "name": "totalSupplyAt",
      "outputs": [
        {
          "internalType": "uint256",
          "name": "",
          "type": "uint256"
        }
      ],
      "stateMutability": "view",
      "type": "function"
    },
    {
      "inputs": [
        {
          "internalType": "address",
          "name": "recipient",
          "type": "address"
        },
        {
          "internalType": "uint256",
          "name": "amount",
          "type": "uint256"
        }
      ],
      "name": "transfer",
      "outputs": [
        {
          "internalType": "bool",
          "name": "",
          "type": "bool"
        }
      ],
      "stateMutability": "nonpayable",
      "type": "function"
    },
    {
      "inputs": [
        {
          "internalType": "address",
          "name": "sender",
          "type": "address"
        },
        {
          "internalType": "address",
          "name": "recipient",
          "type": "address"
        },
        {
          "internalType": "uint256",
          "name": "amount",
          "type": "uint256"
        }
      ],
      "name": "transferFrom",
      "outputs": [
        {
          "internalType": "bool",
          "name": "",
          "type": "bool"
        }
      ],
      "stateMutability": "nonpayable",
      "type": "function"
    },
    {
      "inputs": [],
      "name": "trustedForwarder",
      "outputs": [
        {
          "internalType": "address",
          "name": "",
          "type": "address"
        }
      ],
      "stateMutability": "view",
      "type": "function"
    },
    {
      "inputs": [
        {
          "internalType": "address",
          "name": "to",
          "type": "address"
        },
        {
          "internalType": "uint256",
          "name": "amount",
          "type": "uint256"
        }
      ],
      "name": "mint",
      "outputs": [],
      "stateMutability": "nonpayable",
      "type": "function"
    },
    {
      "inputs": [],
      "name": "pause",
      "outputs": [],
      "stateMutability": "nonpayable",
      "type": "function"
    },
    {
      "inputs": [],
      "name": "unpause",
      "outputs": [],
      "stateMutability": "nonpayable",
      "type": "function"
    },
    {
      "inputs": [
        {
          "internalType": "address",
          "name": "trustedForwarder",
          "type": "address"
        }
      ],
      "name": "setTrustedForwarder",
      "outputs": [],
      "stateMutability": "nonpayable",
      "type": "function"
    },
    {
      "inputs": [],
      "name": "minterRole",
      "outputs": [
        {
          "internalType": "bytes32",
          "name": "",
          "type": "bytes32"
        }
      ],
      "stateMutability": "pure",
      "type": "function"
    },
    {
      "inputs": [],
      "name": "pauserRole",
      "outputs": [
        {
          "internalType": "bytes32",
          "name": "",
          "type": "bytes32"
        }
      ],
      "stateMutability": "pure",
      "type": "function"
    },
    {
      "inputs": [],
      "name": "getChainId",
      "outputs": [
        {
          "internalType": "uint256",
          "name": "chainId",
          "type": "uint256"
        }
      ],
      "stateMutability": "view",
      "type": "function"
    },
    {
      "inputs": [],
      "name": "versionRecipient",
      "outputs": [
        {
          "internalType": "string",
          "name": "",
          "type": "string"
        }
      ],
      "stateMutability": "pure",
      "type": "function"
    }
  ],
  "bytecode": "0x6101406040527f6e71edae12b1b97f4d1f60370fef10105fa2faae0126114a169c64845d6126c9610120523480156200003757600080fd5b506040518060400160405280601d81526020017f53616e74696d656e74205265776172647320536861726520546f6b656e00000081525080604051806040016040528060018152602001603160f81b8152506040518060400160405280601d81526020017f53616e74696d656e74205265776172647320536861726520546f6b656e0000008152506040518060400160405280600481526020016314d4921560e21b8152508160039080519060200190620000f4929190620003e6565b5080516200010a906004906020840190620003e6565b50506005805461ff001960ff1990911660121716905550815160208084019190912082519183019190912060c082905260e08190527f8b73c3c69bb8fe3d512ecc4cf759cc79239f7b179b0ffacaa9a75d522b39400f6200016a62000203565b60a0526200017a81848462000207565b60805261010052506200019f935060009250620001999150506200026b565b62000288565b620001ce7f9f2df0fed2c77648de5860a4cc508cd0818c85b8b8a1ab4ceeef8d981c8956a6620001996200026b565b620001fd7f65d7a28e3265b37a6474929f336521b332c1681b933f6cb9f3376673440d862a620001996200026b565b62000492565b4690565b60008383836200021662000203565b3060405160200180868152602001858152602001848152602001838152602001826001600160a01b03168152602001955050505050506040516020818303038152906040528051906020012090509392505050565b6000620002826200029860201b62000fd61760201c565b90505b90565b620002948282620002d0565b5050565b600060183610801590620002b25750620002b2336200034b565b15620002c8575060131936013560601c62000285565b503362000285565b6000828152600c60209081526040909120620002f7918390620010086200035f821b17901c565b156200029457620003076200026b565b6001600160a01b0316816001600160a01b0316837f2f8788117e7eff1d82e926ec794901d17c78024a50270940304540a733656f0d60405160405180910390a45050565b600b546001600160a01b0390811691161490565b600062000376836001600160a01b0384166200037f565b90505b92915050565b60006200038d8383620003ce565b620003c55750815460018181018455600084815260208082209093018490558454848252828601909352604090209190915562000379565b50600062000379565b60009081526001919091016020526040902054151590565b828054600181600116156101000203166002900490600052602060002090601f0160209004810192826200041e576000855562000469565b82601f106200043957805160ff191683800117855562000469565b8280016001018555821562000469579182015b82811115620004695782518255916020019190600101906200044c565b50620004779291506200047b565b5090565b5b808211156200047757600081556001016200047c565b60805160a05160c05160e0516101005161012051611e3d620004dc60003980610d815250806111bd5250806111ff5250806111de5250806111645250806111945250611e3d6000f3fe608060405234801561001057600080fd5b50600436106102115760003560e01c806370a0823111610125578063a457c2d7116100ad578063d505accf1161007c578063d505accf146105cf578063d547741f14610620578063da7422281461064c578063dd62ed3e14610672578063f084219e146106a057610211565b8063a457c2d71461057e578063a9059cbb14610293578063aaf81bf3146105aa578063ca15c873146105b257610211565b80639010d07c116100f45780639010d07c1461050257806391d148541461052557806395d89b4114610551578063981b24d014610559578063a217fddf1461057657610211565b806370a082311461048a5780637da0a877146104b05780637ecebe00146104d45780638456cb59146104fa57610211565b80633644e515116101a857806340c10f191161017757806340c10f19146103fc578063486ff0cd146104285780634ee2cd7e14610430578063572b6c051461045c5780635c975abb1461048257610211565b80633644e5151461039457806336568abe1461039c57806339509351146103c85780633f4ba83a146103f457610211565b8063248a9ca3116101e4578063248a9ca3146103235780632f2ff15d14610340578063313ce5671461036e5780633408e4701461038c57610211565b806306fdde0314610216578063095ea7b31461029357806318160ddd146102d357806323b872dd146102ed575b600080fd5b61021e6106a8565b6040805160208082528351818301528351919283929083019185019080838360005b83811015610258578181015183820152602001610240565b50505050905090810190601f1680156102855780820380516001836020036101000a031916815260200191505b509250505060405180910390f35b6102bf600480360360408110156102a957600080fd5b506001600160a01b03813516906020013561073f565b604080519115158252519081900360200190f35b6102db61075d565b60408051918252519081900360200190f35b6102bf6004803603606081101561030357600080fd5b506001600160a01b03813581169160208101359091169060400135610763565b6102db6004803603602081101561033957600080fd5b50356107ea565b61036c6004803603604081101561035657600080fd5b50803590602001356001600160a01b0316610802565b005b61037661086e565b6040805160ff9092168252519081900360200190f35b6102db610877565b6102db61087b565b61036c600480360360408110156103b257600080fd5b50803590602001356001600160a01b031661088a565b6102bf600480360360408110156103de57600080fd5b506001600160a01b0381351690602001356108eb565b61036c610939565b61036c6004803603604081101561041257600080fd5b506001600160a01b0381351690602001356109bf565b61021e610a49565b6102db6004803603604081101561044657600080fd5b506001600160a01b038135169060200135610a69565b6102bf6004803603602081101561047257600080fd5b50356001600160a01b0316610ab2565b6102bf610ac6565b6102db600480360360208110156104a057600080fd5b50356001600160a01b0316610ad4565b6104b8610aef565b604080516001600160a01b039092168252519081900360200190f35b6102db600480360360208110156104ea57600080fd5b50356001600160a01b0316610afe565b61036c610b1f565b6104b86004803603604081101561051857600080fd5b5080359060200135610ba2565b6102bf6004803603604081101561053b57600080fd5b50803590602001356001600160a01b0316610bc1565b61021e610bd9565b6102db6004803603602081101561056f57600080fd5b5035610c3a565b6102db610c6a565b6102bf6004803603604081101561059457600080fd5b506001600160a01b038135169060200135610c6f565b6102db610cd7565b6102db600480360360208110156105c857600080fd5b5035610cfb565b61036c600480360360e08110156105e557600080fd5b506001600160a01b03813581169160208101359091169060408101359060608101359060ff6080820135169060a08101359060c00135610d12565b61036c6004803603604081101561063657600080fd5b50803590602001356001600160a01b0316610ec9565b61036c6004803603602081101561066257600080fd5b50356001600160a01b0316610f22565b6102db6004803603604081101561068857600080fd5b506001600160a01b0381358116916020013516610f87565b6102db610fb2565b60038054604080516020601f60026000196101006001881615020190951694909404938401819004810282018101909252828152606093909290918301828280156107345780601f1061070957610100808354040283529160200191610734565b820191906000526020600020905b81548152906001019060200180831161071757829003601f168201915b505050505090505b90565b600061075361074c61101d565b8484611027565b5060015b92915050565b60025490565b6000610770848484611027565b6107e08461077c61101d565b6107db85604051806060016040528060288152602001611d62602891396001600160a01b038a166000908152600160205260408120906107ba61101d565b6001600160a01b031681526020810191909152604001600020549190611060565b611027565b5060019392505050565b6000818152600c60205260409020600201545b919050565b6000828152600c60205260409020600201546108259061082061101d565b610bc1565b6108605760405162461bcd60e51b815260040180806020018281038252602f815260200180611cbf602f913960400191505060405180910390fd5b61086a82826110f7565b5050565b60055460ff1690565b4690565b6000610885611160565b905090565b61089261101d565b6001600160a01b0316816001600160a01b0316146108e15760405162461bcd60e51b815260040180806020018281038252602f815260200180611daf602f913960400191505060405180910390fd5b61086a828261122a565b60006107536108f861101d565b846107db856001600061090961101d565b6001600160a01b03908116825260208083019390935260409182016000908120918c168152925290205490611293565b7f65d7a28e3265b37a6474929f336521b332c1681b933f6cb9f3376673440d862a6109668161082061101d565b6109b4576040805162461bcd60e51b815260206004820152601a6024820152794d757374206861766520617070726f70726961746520726f6c6560301b604482015290519081900360640190fd5b6109bc6112ed565b50565b7f9f2df0fed2c77648de5860a4cc508cd0818c85b8b8a1ab4ceeef8d981c8956a66109ec8161082061101d565b610a3a576040805162461bcd60e51b815260206004820152601a6024820152794d757374206861766520617070726f70726961746520726f6c6560301b604482015290519081900360640190fd5b610a44838361138e565b505050565b604080518082019091526006815265322e302e302b60d01b602082015290565b6001600160a01b038216600090815260066020526040812081908190610a9090859061147e565b9150915081610aa757610aa285610ad4565b610aa9565b805b95945050505050565b600b546001600160a01b0390811691161490565b600554610100900460ff1690565b6001600160a01b031660009081526020819052604090205490565b600b546001600160a01b031681565b6001600160a01b0381166000908152600a602052604081206107579061157b565b7f65d7a28e3265b37a6474929f336521b332c1681b933f6cb9f3376673440d862a610b4c8161082061101d565b610b9a576040805162461bcd60e51b815260206004820152601a6024820152794d757374206861766520617070726f70726961746520726f6c6560301b604482015290519081900360640190fd5b6109bc61157f565b6000828152600c60205260408120610bba9083611604565b9392505050565b6000828152600c60205260408120610bba9083611610565b60048054604080516020601f60026000196101006001881615020190951694909404938401819004810282018101909252828152606093909290918301828280156107345780601f1061070957610100808354040283529160200191610734565b6000806000610c4a84600761147e565b9150915081610c6057610c5b61075d565b610c62565b805b949350505050565b600081565b6000610753610c7c61101d565b846107db85604051806060016040528060258152602001611d8a6025913960016000610ca661101d565b6001600160a01b03908116825260208083019390935260409182016000908120918d16815292529020549190611060565b7f65d7a28e3265b37a6474929f336521b332c1681b933f6cb9f3376673440d862a90565b6000818152600c6020526040812061075790611625565b83421115610d67576040805162461bcd60e51b815260206004820152601d60248201527f45524332305065726d69743a206578706972656420646561646c696e65000000604482015290519081900360640190fd5b6001600160a01b0387166000908152600a602052604081207f000000000000000000000000000000000000000000000000000000000000000090899089908990610db09061157b565b8960405160200180878152602001866001600160a01b03168152602001856001600160a01b0316815260200184815260200183815260200182815260200196505050505050506040516020818303038152906040528051906020012090506000610e1982611630565b90506000610e298287878761167c565b9050896001600160a01b0316816001600160a01b031614610e91576040805162461bcd60e51b815260206004820152601e60248201527f45524332305065726d69743a20696e76616c6964207369676e61747572650000604482015290519081900360640190fd5b6001600160a01b038a166000908152600a60205260409020610eb2906117f1565b610ebd8a8a8a611027565b50505050505050505050565b6000828152600c6020526040902060020154610ee79061082061101d565b6108e15760405162461bcd60e51b8152600401808060200182810382526030815260200180611d106030913960400191505060405180910390fd5b6000610f308161082061101d565b610f7e576040805162461bcd60e51b815260206004820152601a6024820152794d757374206861766520617070726f70726961746520726f6c6560301b604482015290519081900360640190fd5b61086a826117fa565b6001600160a01b03918216600090815260016020908152604080832093909416825291909152205490565b7f9f2df0fed2c77648de5860a4cc508cd0818c85b8b8a1ab4ceeef8d981c8956a690565b600060183610801590610fed5750610fed33610ab2565b15611001575060131936013560601c61073c565b503361073c565b6000610bba836001600160a01b03841661185c565b6000610885610fd6565b6040805162461bcd60e51b81526020600482015260096024820152682337b93134b23232b760b91b604482015290519081900360640190fd5b600081848411156110ef5760405162461bcd60e51b81526004018080602001828103825283818151815260200191508051906020019080838360005b838110156110b457818101518382015260200161109c565b50505050905090810190601f1680156110e15780820380516001836020036101000a031916815260200191505b509250505060405180910390fd5b505050900390565b6000828152600c6020526040902061110f9082611008565b1561086a5761111c61101d565b6001600160a01b0316816001600160a01b0316837f2f8788117e7eff1d82e926ec794901d17c78024a50270940304540a733656f0d60405160405180910390a45050565b60007f000000000000000000000000000000000000000000000000000000000000000061118b610877565b14156111b857507f000000000000000000000000000000000000000000000000000000000000000061073c565b6112237f00000000000000000000000000000000000000000000000000000000000000007f00000000000000000000000000000000000000000000000000000000000000007f00000000000000000000000000000000000000000000000000000000000000006118a6565b905061073c565b6000828152600c602052604090206112429082611908565b1561086a5761124f61101d565b6001600160a01b0316816001600160a01b0316837ff6391f5c32d9c69d2a47ea670b442974b53935d1edc7fd64eb21e047a839171b60405160405180910390a45050565b600082820183811015610bba576040805162461bcd60e51b815260206004820152601b60248201527f536166654d6174683a206164646974696f6e206f766572666c6f770000000000604482015290519081900360640190fd5b6112f5610ac6565b61133d576040805162461bcd60e51b815260206004820152601460248201527314185d5cd8589b194e881b9bdd081c185d5cd95960621b604482015290519081900360640190fd5b6005805461ff00191690557f5db9ee0a495bf2e6ff9c91a7834c1ba4fdd244a5e8aa4e537bd38aeae4b073aa61137161101d565b604080516001600160a01b039092168252519081900360200190a1565b6001600160a01b0382166113e9576040805162461bcd60e51b815260206004820152601f60248201527f45524332303a206d696e7420746f20746865207a65726f206164647265737300604482015290519081900360640190fd5b6113f56000838361191d565b6002546114029082611293565b6002556001600160a01b0382166000908152602081905260409020546114289082611293565b6001600160a01b0383166000818152602081815260408083209490945583518581529351929391927fddf252ad1be2c89b69c2b068fc378daa952ba7f163c4a11628f55a4df523b3ef9281900390910190a35050565b600080600084116114cf576040805162461bcd60e51b815260206004820152601660248201527504552433230536e617073686f743a20696420697320360541b604482015290519081900360640190fd5b6114d9600961157b565b84111561152d576040805162461bcd60e51b815260206004820152601d60248201527f4552433230536e617073686f743a206e6f6e6578697374656e74206964000000604482015290519081900360640190fd5b60006115398486611933565b8454909150811415611552576000809250925050611574565b600184600101828154811061156357fe5b906000526020600020015492509250505b9250929050565b5490565b611587610ac6565b156115cc576040805162461bcd60e51b815260206004820152601060248201526f14185d5cd8589b194e881c185d5cd95960821b604482015290519081900360640190fd5b6005805461ff0019166101001790557f62e78cea01bee320cd4e420270b5ea74000d11b0c9f74754ebdbfc544b05a25861137161101d565b6000610bba83836119d4565b6000610bba836001600160a01b038416611a38565b60006107578261157b565b600061163a611160565b82604051602001808061190160f01b81525060020183815260200182815260200192505050604051602081830303815290604052805190602001209050919050565b60007f7fffffffffffffffffffffffffffffff5d576e7357a4501ddfe92f46681b20a08211156116dd5760405162461bcd60e51b8152600401808060200182810382526022815260200180611cee6022913960400191505060405180910390fd5b8360ff16601b14806116f257508360ff16601c145b61172d5760405162461bcd60e51b8152600401808060200182810382526022815260200180611d406022913960400191505060405180910390fd5b600060018686868660405160008152602001604052604051808581526020018460ff1681526020018381526020018281526020019450505050506020604051602081039080840390855afa158015611789573d6000803e3d6000fd5b5050604051601f1901519150506001600160a01b038116610aa9576040805162461bcd60e51b815260206004820152601860248201527f45434453413a20696e76616c6964207369676e61747572650000000000000000604482015290519081900360640190fd5b80546001019055565b600b80546001600160a01b038381166001600160a01b0319831617928390556040805192821680845293909116602083015280517f06dff7401eb7fb04d241246ade7f817c7ad512b1bed61c18aedd9bc51eec04759281900390910190a15050565b60006118688383611a38565b61189e57508154600181810184556000848152602080822090930184905584548482528286019093526040902091909155610757565b506000610757565b60008383836118b3610877565b3060405160200180868152602001858152602001848152602001838152602001826001600160a01b03168152602001955050505050506040516020818303038152906040528051906020012090509392505050565b6000610bba836001600160a01b038416611a50565b611928838383611b16565b610a44838383611b65565b815460009061194457506000610757565b82546000905b8082101561199357600061195e8383611bbd565b90508486828154811061196d57fe5b906000526020600020015411156119865780915061198d565b8060010192505b5061194a565b6000821180156119bb5750838560018403815481106119ae57fe5b9060005260206000200154145b156119cc5750600019019050610757565b509050610757565b81546000908210611a165760405162461bcd60e51b8152600401808060200182810382526022815260200180611c9d6022913960400191505060405180910390fd5b826000018281548110611a2557fe5b9060005260206000200154905092915050565b60009081526001919091016020526040902054151590565b60008181526001830160205260408120548015611b0c5783546000198083019190810190600090879083908110611a8357fe5b9060005260206000200154905080876000018481548110611aa057fe5b600091825260208083209091019290925582815260018981019092526040902090840190558654879080611ad057fe5b60019003818190600052602060002001600090559055866001016000878152602001908152602001600020600090556001945050505050610757565b6000915050610757565b611b21838383610a44565b611b29610ac6565b15610a445760405162461bcd60e51b815260040180806020018281038252602a815260200180611dde602a913960400191505060405180910390fd5b611b70838383611b16565b6001600160a01b038316611b9457611b8782611be2565b611b8f611c0c565b610a44565b6001600160a01b038216611bab57611b8783611be2565b611bb483611be2565b610a4482611be2565b60006002808306600285060181611bd057fe5b04600283046002850401019392505050565b6001600160a01b03811660009081526006602052604090206109bc90611c0783610ad4565b611c1b565b611c196007611c0761075d565b565b6000611c27600961157b565b905080611c3384611c67565b1015610a44578254600180820185556000858152602080822090930193909355938401805494850181558252902090910155565b8054600090611c78575060006107fd565b815482906000198101908110611c8a57fe5b906000526020600020015490506107fd56fe456e756d657261626c655365743a20696e646578206f7574206f6620626f756e6473416363657373436f6e74726f6c3a2073656e646572206d75737420626520616e2061646d696e20746f206772616e7445434453413a20696e76616c6964207369676e6174757265202773272076616c7565416363657373436f6e74726f6c3a2073656e646572206d75737420626520616e2061646d696e20746f207265766f6b6545434453413a20696e76616c6964207369676e6174757265202776272076616c756545524332303a207472616e7366657220616d6f756e74206578636565647320616c6c6f77616e636545524332303a2064656372656173656420616c6c6f77616e63652062656c6f77207a65726f416363657373436f6e74726f6c3a2063616e206f6e6c792072656e6f756e636520726f6c657320666f722073656c6645524332305061757361626c653a20746f6b656e207472616e73666572207768696c6520706175736564a264697066735822122035c71d4439bba7c65a01ad5999827cf7c1580e9d2a05625ac90d9c171896a34964736f6c63430007060033",
  "immutableReferences": {
    "4878": [
      {
        "length": 32,
        "start": 4500
      }
    ],
    "4880": [
      {
        "length": 32,
        "start": 4452
      }
    ],
    "4882": [
      {
        "length": 32,
        "start": 4574
      }
    ],
    "4884": [
      {
        "length": 32,
        "start": 4607
      }
    ],
    "4886": [
      {
        "length": 32,
        "start": 4541
      }
    ],
    "5048": [
      {
        "length": 32,
        "start": 3457
      }
    ]
  },
  "source": "// SPDX-License-Identifier: MIT\npragma solidity ^0.7.6;\n\nimport \"@openzeppelin/contracts/access/AccessControl.sol\";\nimport \"@openzeppelin/contracts/token/ERC20/ERC20.sol\";\nimport \"@openzeppelin/contracts/token/ERC20/ERC20Pausable.sol\";\nimport \"@openzeppelin/contracts/token/ERC20/ERC20Burnable.sol\";\nimport \"@openzeppelin/contracts/token/ERC20/ERC20Snapshot.sol\";\nimport \"@openzeppelin/contracts/drafts/ERC20Permit.sol\";\nimport \"@openzeppelin/contracts/math/SafeMath.sol\";\n\nimport \"./interfaces/IRewardsToken.sol\";\nimport \"./gsn/RelayRecipient.sol\";\nimport \"./gsn/BaseRelayRecipient.sol\";\nimport \"./utils/AccountingToken.sol\";\n\ncontract RewardsToken is ERC20Pausable, ERC20Snapshot, ERC20Permit, RelayRecipient, AccessControl {\n    using SafeMath for uint256;\n\n    bytes32 private constant MINTER_ROLE = keccak256(\"MINTER_ROLE\");\n    bytes32 private constant PAUSER_ROLE = keccak256(\"PAUSER_ROLE\");\n\n    string private constant ERC20_NAME = \"Santiment Rewards Share Token\";\n    string private constant ERC20_SYMBOL = \"SRHT\";\n\n    modifier onlyRole(bytes32 role) {\n        require(\n            hasRole(role, _msgSender()),\n            \"Must have appropriate role\"\n        );\n        _;\n    }\n\n    constructor() ERC20(ERC20_NAME, ERC20_SYMBOL) ERC20Permit(ERC20_NAME) {\n        _setupRole(DEFAULT_ADMIN_ROLE, _msgSender());\n\n        _setupRole(MINTER_ROLE, _msgSender());\n        _setupRole(PAUSER_ROLE, _msgSender());\n    }\n\n    function mint(address to, uint256 amount) external onlyRole(MINTER_ROLE) {\n        _mint(to, amount);\n    }\n\n    function pause() external onlyRole(PAUSER_ROLE) {\n        _pause();\n    }\n\n    function unpause() external onlyRole(PAUSER_ROLE) {\n        _unpause();\n    }\n\n    function setTrustedForwarder(address trustedForwarder) external onlyRole(DEFAULT_ADMIN_ROLE) {\n        super._setTrustedForwarder(trustedForwarder);\n    }\n\n    // Do not need transfer of this token\n    function _transfer(\n        address,\n        address,\n        uint256\n    ) internal pure override {\n        revert(\"Forbidden\");\n    }\n\n    // Do not need allowance of this token\n    function _approve(\n        address,\n        address,\n        uint256\n    ) internal pure override {\n        revert(\"Forbidden\");\n    }\n\n    function _beforeTokenTransfer(address from, address to, uint256 amount) internal override (ERC20Pausable, ERC20Snapshot, ERC20) {\n        // ERC20._beforeTokenTransfer will be invoked twice with epmty block\n        ERC20Pausable._beforeTokenTransfer(from, to, amount);\n        ERC20Snapshot._beforeTokenTransfer(from, to, amount);\n    }\n\n    function minterRole() external pure returns (bytes32) {\n        return MINTER_ROLE;\n    }\n\n    function pauserRole() external pure returns (bytes32) {\n        return PAUSER_ROLE;\n    }\n\n    function _msgSender() internal view override(Context, BaseRelayRecipient) returns (address payable) {\n        return BaseRelayRecipient._msgSender();\n    }\n\n    function _msgData() internal view override(Context, BaseRelayRecipient) returns (bytes memory) {\n        return BaseRelayRecipient._msgData();\n    }\n\n    function getChainId() external view returns (uint256 chainId) {\n        this;\n        // silence state mutability warning without generating bytecode - see https://github.com/ethereum/solidity/issues/2691\n        // solhint-disable-next-line no-inline-assembly\n        assembly {\n            chainId := chainid()\n        }\n    }\n\n    function versionRecipient() external override pure returns (string memory) {\n        return \"2.0.0+\";\n    }\n}\n",
  "sourcePath": "/home/nailkhaf/Projects/san-games/contracts/RewardsToken.sol",
  "compiler": {
    "name": "solc",
    "version": "0.7.6+commit.7338295f.Emscripten.clang"
  },
  "schemaVersion": "3.3.3",
  "updatedAt": "2021-02-22T12:24:27.763Z",
  "devdoc": {
    "kind": "dev",
    "methods": {
      "DOMAIN_SEPARATOR()": {
        "details": "See {IERC20Permit-DOMAIN_SEPARATOR}."
      },
      "allowance(address,address)": {
        "details": "See {IERC20-allowance}."
      },
      "approve(address,uint256)": {
        "details": "See {IERC20-approve}. Requirements: - `spender` cannot be the zero address."
      },
      "balanceOf(address)": {
        "details": "See {IERC20-balanceOf}."
      },
      "balanceOfAt(address,uint256)": {
        "details": "Retrieves the balance of `account` at the time `snapshotId` was created."
      },
      "decimals()": {
        "details": "Returns the number of decimals used to get its user representation. For example, if `decimals` equals `2`, a balance of `505` tokens should be displayed to a user as `5,05` (`505 / 10 ** 2`). Tokens usually opt for a value of 18, imitating the relationship between Ether and Wei. This is the value {ERC20} uses, unless {_setupDecimals} is called. NOTE: This information is only used for _display_ purposes: it in no way affects any of the arithmetic of the contract, including {IERC20-balanceOf} and {IERC20-transfer}."
      },
      "decreaseAllowance(address,uint256)": {
        "details": "Atomically decreases the allowance granted to `spender` by the caller. This is an alternative to {approve} that can be used as a mitigation for problems described in {IERC20-approve}. Emits an {Approval} event indicating the updated allowance. Requirements: - `spender` cannot be the zero address. - `spender` must have allowance for the caller of at least `subtractedValue`."
      },
      "getRoleAdmin(bytes32)": {
        "details": "Returns the admin role that controls `role`. See {grantRole} and {revokeRole}. To change a role's admin, use {_setRoleAdmin}."
      },
      "getRoleMember(bytes32,uint256)": {
        "details": "Returns one of the accounts that have `role`. `index` must be a value between 0 and {getRoleMemberCount}, non-inclusive. Role bearers are not sorted in any particular way, and their ordering may change at any point. WARNING: When using {getRoleMember} and {getRoleMemberCount}, make sure you perform all queries on the same block. See the following https://forum.openzeppelin.com/t/iterating-over-elements-on-enumerableset-in-openzeppelin-contracts/2296[forum post] for more information."
      },
      "getRoleMemberCount(bytes32)": {
        "details": "Returns the number of accounts that have `role`. Can be used together with {getRoleMember} to enumerate all bearers of a role."
      },
      "grantRole(bytes32,address)": {
        "details": "Grants `role` to `account`. If `account` had not been already granted `role`, emits a {RoleGranted} event. Requirements: - the caller must have ``role``'s admin role."
      },
      "hasRole(bytes32,address)": {
        "details": "Returns `true` if `account` has been granted `role`."
      },
      "increaseAllowance(address,uint256)": {
        "details": "Atomically increases the allowance granted to `spender` by the caller. This is an alternative to {approve} that can be used as a mitigation for problems described in {IERC20-approve}. Emits an {Approval} event indicating the updated allowance. Requirements: - `spender` cannot be the zero address."
      },
      "name()": {
        "details": "Returns the name of the token."
      },
      "nonces(address)": {
        "details": "See {IERC20Permit-nonces}."
      },
      "paused()": {
        "details": "Returns true if the contract is paused, and false otherwise."
      },
      "permit(address,address,uint256,uint256,uint8,bytes32,bytes32)": {
        "details": "See {IERC20Permit-permit}."
      },
      "renounceRole(bytes32,address)": {
        "details": "Revokes `role` from the calling account. Roles are often managed via {grantRole} and {revokeRole}: this function's purpose is to provide a mechanism for accounts to lose their privileges if they are compromised (such as when a trusted device is misplaced). If the calling account had been granted `role`, emits a {RoleRevoked} event. Requirements: - the caller must be `account`."
      },
      "revokeRole(bytes32,address)": {
        "details": "Revokes `role` from `account`. If `account` had been granted `role`, emits a {RoleRevoked} event. Requirements: - the caller must have ``role``'s admin role."
      },
      "symbol()": {
        "details": "Returns the symbol of the token, usually a shorter version of the name."
      },
      "totalSupply()": {
        "details": "See {IERC20-totalSupply}."
      },
      "totalSupplyAt(uint256)": {
        "details": "Retrieves the total supply at the time `snapshotId` was created."
      },
      "transfer(address,uint256)": {
        "details": "See {IERC20-transfer}. Requirements: - `recipient` cannot be the zero address. - the caller must have a balance of at least `amount`."
      },
      "transferFrom(address,address,uint256)": {
        "details": "See {IERC20-transferFrom}. Emits an {Approval} event indicating the updated allowance. This is not required by the EIP. See the note at the beginning of {ERC20}. Requirements: - `sender` and `recipient` cannot be the zero address. - `sender` must have a balance of at least `amount`. - the caller must have allowance for ``sender``'s tokens of at least `amount`."
      }
    },
    "version": 1
  },
  "userdoc": {
    "kind": "user",
    "methods": {
      "isTrustedForwarder(address)": {
        "notice": "return if the forwarder is trusted to forward relayed transactions to us. the forwarder is required to verify the sender's signature, and verify the call is not a replay."
      }
    },
    "version": 1
  }
}