{
  "contractName": "RewardsToken",
  "abi": [
    {
      "inputs": [],
      "stateMutability": "nonpayable",
      "type": "constructor"
    },
    {
      "anonymous": false,
      "inputs": [
        {
          "indexed": true,
          "internalType": "address",
          "name": "owner",
          "type": "address"
        },
        {
          "indexed": true,
          "internalType": "address",
          "name": "spender",
          "type": "address"
        },
        {
          "indexed": false,
          "internalType": "uint256",
          "name": "value",
          "type": "uint256"
        }
      ],
      "name": "Approval",
      "type": "event"
    },
    {
      "anonymous": false,
      "inputs": [
        {
          "indexed": false,
          "internalType": "address",
          "name": "account",
          "type": "address"
        }
      ],
      "name": "Paused",
      "type": "event"
    },
    {
      "anonymous": false,
      "inputs": [
        {
          "indexed": true,
          "internalType": "bytes32",
          "name": "role",
          "type": "bytes32"
        },
        {
          "indexed": true,
          "internalType": "bytes32",
          "name": "previousAdminRole",
          "type": "bytes32"
        },
        {
          "indexed": true,
          "internalType": "bytes32",
          "name": "newAdminRole",
          "type": "bytes32"
        }
      ],
      "name": "RoleAdminChanged",
      "type": "event"
    },
    {
      "anonymous": false,
      "inputs": [
        {
          "indexed": true,
          "internalType": "bytes32",
          "name": "role",
          "type": "bytes32"
        },
        {
          "indexed": true,
          "internalType": "address",
          "name": "account",
          "type": "address"
        },
        {
          "indexed": true,
          "internalType": "address",
          "name": "sender",
          "type": "address"
        }
      ],
      "name": "RoleGranted",
      "type": "event"
    },
    {
      "anonymous": false,
      "inputs": [
        {
          "indexed": true,
          "internalType": "bytes32",
          "name": "role",
          "type": "bytes32"
        },
        {
          "indexed": true,
          "internalType": "address",
          "name": "account",
          "type": "address"
        },
        {
          "indexed": true,
          "internalType": "address",
          "name": "sender",
          "type": "address"
        }
      ],
      "name": "RoleRevoked",
      "type": "event"
    },
    {
      "anonymous": false,
      "inputs": [
        {
          "indexed": true,
          "internalType": "address",
          "name": "from",
          "type": "address"
        },
        {
          "indexed": true,
          "internalType": "address",
          "name": "to",
          "type": "address"
        },
        {
          "indexed": false,
          "internalType": "uint256",
          "name": "value",
          "type": "uint256"
        }
      ],
      "name": "Transfer",
      "type": "event"
    },
    {
      "anonymous": false,
      "inputs": [
        {
          "indexed": false,
          "internalType": "address",
          "name": "previous",
          "type": "address"
        },
        {
          "indexed": false,
          "internalType": "address",
          "name": "current",
          "type": "address"
        }
      ],
      "name": "TrustedForwarderChanged",
      "type": "event"
    },
    {
      "anonymous": false,
      "inputs": [
        {
          "indexed": false,
          "internalType": "address",
          "name": "account",
          "type": "address"
        }
      ],
      "name": "Unpaused",
      "type": "event"
    },
    {
      "inputs": [],
      "name": "DEFAULT_ADMIN_ROLE",
      "outputs": [
        {
          "internalType": "bytes32",
          "name": "",
          "type": "bytes32"
        }
      ],
      "stateMutability": "view",
      "type": "function"
    },
    {
      "inputs": [],
      "name": "DOMAIN_SEPARATOR",
      "outputs": [
        {
          "internalType": "bytes32",
          "name": "",
          "type": "bytes32"
        }
      ],
      "stateMutability": "view",
      "type": "function"
    },
    {
      "inputs": [
        {
          "internalType": "address",
          "name": "owner",
          "type": "address"
        },
        {
          "internalType": "address",
          "name": "spender",
          "type": "address"
        }
      ],
      "name": "allowance",
      "outputs": [
        {
          "internalType": "uint256",
          "name": "",
          "type": "uint256"
        }
      ],
      "stateMutability": "view",
      "type": "function"
    },
    {
      "inputs": [
        {
          "internalType": "address",
          "name": "spender",
          "type": "address"
        },
        {
          "internalType": "uint256",
          "name": "amount",
          "type": "uint256"
        }
      ],
      "name": "approve",
      "outputs": [
        {
          "internalType": "bool",
          "name": "",
          "type": "bool"
        }
      ],
      "stateMutability": "nonpayable",
      "type": "function"
    },
    {
      "inputs": [
        {
          "internalType": "address",
          "name": "account",
          "type": "address"
        }
      ],
      "name": "balanceOf",
      "outputs": [
        {
          "internalType": "uint256",
          "name": "",
          "type": "uint256"
        }
      ],
      "stateMutability": "view",
      "type": "function"
    },
    {
      "inputs": [],
      "name": "decimals",
      "outputs": [
        {
          "internalType": "uint8",
          "name": "",
          "type": "uint8"
        }
      ],
      "stateMutability": "view",
      "type": "function"
    },
    {
      "inputs": [
        {
          "internalType": "address",
          "name": "spender",
          "type": "address"
        },
        {
          "internalType": "uint256",
          "name": "subtractedValue",
          "type": "uint256"
        }
      ],
      "name": "decreaseAllowance",
      "outputs": [
        {
          "internalType": "bool",
          "name": "",
          "type": "bool"
        }
      ],
      "stateMutability": "nonpayable",
      "type": "function"
    },
    {
      "inputs": [
        {
          "internalType": "bytes32",
          "name": "role",
          "type": "bytes32"
        }
      ],
      "name": "getRoleAdmin",
      "outputs": [
        {
          "internalType": "bytes32",
          "name": "",
          "type": "bytes32"
        }
      ],
      "stateMutability": "view",
      "type": "function"
    },
    {
      "inputs": [
        {
          "internalType": "bytes32",
          "name": "role",
          "type": "bytes32"
        },
        {
          "internalType": "uint256",
          "name": "index",
          "type": "uint256"
        }
      ],
      "name": "getRoleMember",
      "outputs": [
        {
          "internalType": "address",
          "name": "",
          "type": "address"
        }
      ],
      "stateMutability": "view",
      "type": "function"
    },
    {
      "inputs": [
        {
          "internalType": "bytes32",
          "name": "role",
          "type": "bytes32"
        }
      ],
      "name": "getRoleMemberCount",
      "outputs": [
        {
          "internalType": "uint256",
          "name": "",
          "type": "uint256"
        }
      ],
      "stateMutability": "view",
      "type": "function"
    },
    {
      "inputs": [
        {
          "internalType": "bytes32",
          "name": "role",
          "type": "bytes32"
        },
        {
          "internalType": "address",
          "name": "account",
          "type": "address"
        }
      ],
      "name": "grantRole",
      "outputs": [],
      "stateMutability": "nonpayable",
      "type": "function"
    },
    {
      "inputs": [
        {
          "internalType": "bytes32",
          "name": "role",
          "type": "bytes32"
        },
        {
          "internalType": "address",
          "name": "account",
          "type": "address"
        }
      ],
      "name": "hasRole",
      "outputs": [
        {
          "internalType": "bool",
          "name": "",
          "type": "bool"
        }
      ],
      "stateMutability": "view",
      "type": "function"
    },
    {
      "inputs": [
        {
          "internalType": "address",
          "name": "spender",
          "type": "address"
        },
        {
          "internalType": "uint256",
          "name": "addedValue",
          "type": "uint256"
        }
      ],
      "name": "increaseAllowance",
      "outputs": [
        {
          "internalType": "bool",
          "name": "",
          "type": "bool"
        }
      ],
      "stateMutability": "nonpayable",
      "type": "function"
    },
    {
      "inputs": [
        {
          "internalType": "address",
          "name": "forwarder",
          "type": "address"
        }
      ],
      "name": "isTrustedForwarder",
      "outputs": [
        {
          "internalType": "bool",
          "name": "",
          "type": "bool"
        }
      ],
      "stateMutability": "view",
      "type": "function"
    },
    {
      "inputs": [],
      "name": "name",
      "outputs": [
        {
          "internalType": "string",
          "name": "",
          "type": "string"
        }
      ],
      "stateMutability": "view",
      "type": "function"
    },
    {
      "inputs": [
        {
          "internalType": "address",
          "name": "owner",
          "type": "address"
        }
      ],
      "name": "nonces",
      "outputs": [
        {
          "internalType": "uint256",
          "name": "",
          "type": "uint256"
        }
      ],
      "stateMutability": "view",
      "type": "function"
    },
    {
      "inputs": [],
      "name": "paused",
      "outputs": [
        {
          "internalType": "bool",
          "name": "",
          "type": "bool"
        }
      ],
      "stateMutability": "view",
      "type": "function"
    },
    {
      "inputs": [
        {
          "internalType": "address",
          "name": "owner",
          "type": "address"
        },
        {
          "internalType": "address",
          "name": "spender",
          "type": "address"
        },
        {
          "internalType": "uint256",
          "name": "value",
          "type": "uint256"
        },
        {
          "internalType": "uint256",
          "name": "deadline",
          "type": "uint256"
        },
        {
          "internalType": "uint8",
          "name": "v",
          "type": "uint8"
        },
        {
          "internalType": "bytes32",
          "name": "r",
          "type": "bytes32"
        },
        {
          "internalType": "bytes32",
          "name": "s",
          "type": "bytes32"
        }
      ],
      "name": "permit",
      "outputs": [],
      "stateMutability": "nonpayable",
      "type": "function"
    },
    {
      "inputs": [
        {
          "internalType": "bytes32",
          "name": "role",
          "type": "bytes32"
        },
        {
          "internalType": "address",
          "name": "account",
          "type": "address"
        }
      ],
      "name": "renounceRole",
      "outputs": [],
      "stateMutability": "nonpayable",
      "type": "function"
    },
    {
      "inputs": [
        {
          "internalType": "bytes32",
          "name": "role",
          "type": "bytes32"
        },
        {
          "internalType": "address",
          "name": "account",
          "type": "address"
        }
      ],
      "name": "revokeRole",
      "outputs": [],
      "stateMutability": "nonpayable",
      "type": "function"
    },
    {
      "inputs": [],
      "name": "symbol",
      "outputs": [
        {
          "internalType": "string",
          "name": "",
          "type": "string"
        }
      ],
      "stateMutability": "view",
      "type": "function"
    },
    {
      "inputs": [],
      "name": "totalSupply",
      "outputs": [
        {
          "internalType": "uint256",
          "name": "",
          "type": "uint256"
        }
      ],
      "stateMutability": "view",
      "type": "function"
    },
    {
      "inputs": [
        {
          "internalType": "address",
          "name": "recipient",
          "type": "address"
        },
        {
          "internalType": "uint256",
          "name": "amount",
          "type": "uint256"
        }
      ],
      "name": "transfer",
      "outputs": [
        {
          "internalType": "bool",
          "name": "",
          "type": "bool"
        }
      ],
      "stateMutability": "nonpayable",
      "type": "function"
    },
    {
      "inputs": [
        {
          "internalType": "address",
          "name": "sender",
          "type": "address"
        },
        {
          "internalType": "address",
          "name": "recipient",
          "type": "address"
        },
        {
          "internalType": "uint256",
          "name": "amount",
          "type": "uint256"
        }
      ],
      "name": "transferFrom",
      "outputs": [
        {
          "internalType": "bool",
          "name": "",
          "type": "bool"
        }
      ],
      "stateMutability": "nonpayable",
      "type": "function"
    },
    {
      "inputs": [],
      "name": "trustedForwarder",
      "outputs": [
        {
          "internalType": "address",
          "name": "",
          "type": "address"
        }
      ],
      "stateMutability": "view",
      "type": "function"
    },
    {
      "inputs": [
        {
          "internalType": "address",
          "name": "to",
          "type": "address"
        },
        {
          "internalType": "uint256",
          "name": "amount",
          "type": "uint256"
        }
      ],
      "name": "mint",
      "outputs": [],
      "stateMutability": "nonpayable",
      "type": "function"
    },
    {
      "inputs": [
        {
          "internalType": "uint256",
          "name": "amount",
          "type": "uint256"
        }
      ],
      "name": "burn",
      "outputs": [],
      "stateMutability": "nonpayable",
      "type": "function"
    },
    {
      "inputs": [
        {
          "internalType": "address",
          "name": "account",
          "type": "address"
        },
        {
          "internalType": "uint256",
          "name": "amount",
          "type": "uint256"
        }
      ],
      "name": "burnFrom",
      "outputs": [],
      "stateMutability": "nonpayable",
      "type": "function"
    },
    {
      "inputs": [],
      "name": "pause",
      "outputs": [],
      "stateMutability": "nonpayable",
      "type": "function"
    },
    {
      "inputs": [],
      "name": "unpause",
      "outputs": [],
      "stateMutability": "nonpayable",
      "type": "function"
    },
    {
      "inputs": [
        {
          "internalType": "address",
          "name": "trustedForwarder",
          "type": "address"
        }
      ],
      "name": "setTrustedForwarder",
      "outputs": [],
      "stateMutability": "nonpayable",
      "type": "function"
    },
    {
      "inputs": [],
      "name": "minterRole",
      "outputs": [
        {
          "internalType": "bytes32",
          "name": "",
          "type": "bytes32"
        }
      ],
      "stateMutability": "pure",
      "type": "function"
    },
    {
      "inputs": [],
      "name": "pauserRole",
      "outputs": [
        {
          "internalType": "bytes32",
          "name": "",
          "type": "bytes32"
        }
      ],
      "stateMutability": "pure",
      "type": "function"
    },
    {
      "inputs": [],
      "name": "getChainId",
      "outputs": [
        {
          "internalType": "uint256",
          "name": "chainId",
          "type": "uint256"
        }
      ],
      "stateMutability": "view",
      "type": "function"
    },
    {
      "inputs": [],
      "name": "versionRecipient",
      "outputs": [
        {
          "internalType": "string",
          "name": "",
          "type": "string"
        }
      ],
      "stateMutability": "pure",
      "type": "function"
    }
  ],
  "bytecode": "0x6101406040527f6e71edae12b1b97f4d1f60370fef10105fa2faae0126114a169c64845d6126c9610120523480156200003757600080fd5b506040518060400160405280601781526020017f53616e74696d656e74205265776172647320546f6b656e00000000000000000081525080604051806040016040528060018152602001603160f81b8152506040518060400160405280601781526020017f53616e74696d656e74205265776172647320546f6b656e0000000000000000008152506040518060400160405280600381526020016214d49560ea1b8152508160039080519060200190620000f3929190620003ec565b50805162000109906004906020840190620003ec565b50506005805460ff1916601217905550815160208084019190912082519183019190912060c082905260e08190527f8b73c3c69bb8fe3d512ecc4cf759cc79239f7b179b0ffacaa9a75d522b39400f6200016262000204565b60a0526200017281848462000208565b6080526101005250506007805460ff1916905550620001a09150600090506200019a6200026c565b62000289565b620001cf7f9f2df0fed2c77648de5860a4cc508cd0818c85b8b8a1ab4ceeef8d981c8956a66200019a6200026c565b620001fe7f65d7a28e3265b37a6474929f336521b332c1681b933f6cb9f3376673440d862a6200019a6200026c565b62000498565b4690565b60008383836200021762000204565b3060405160200180868152602001858152602001848152602001838152602001826001600160a01b03168152602001955050505050506040516020818303038152906040528051906020012090509392505050565b6000620002836200029960201b62000fb71760201c565b90505b90565b620002958282620002d1565b5050565b600060183610801590620002b35750620002b3336200034c565b15620002c9575060131936013560601c62000286565b503362000286565b6000828152600860209081526040909120620002f891839062000fe962000365821b17901c565b156200029557620003086200026c565b6001600160a01b0316816001600160a01b0316837f2f8788117e7eff1d82e926ec794901d17c78024a50270940304540a733656f0d60405160405180910390a45050565b60075461010090046001600160a01b0390811691161490565b60006200037c836001600160a01b03841662000385565b90505b92915050565b6000620003938383620003d4565b620003cb575081546001818101845560008481526020808220909301849055845484825282860190935260409020919091556200037f565b5060006200037f565b60009081526001919091016020526040902054151590565b828054600181600116156101000203166002900490600052602060002090601f0160209004810192826200042457600085556200046f565b82601f106200043f57805160ff19168380011785556200046f565b828001600101855582156200046f579182015b828111156200046f57825182559160200191906001019062000452565b506200047d92915062000481565b5090565b5b808211156200047d576000815560010162000482565b60805160a05160c05160e051610100516101205161204a620004e260003980610d765250806113ac5250806113ee5250806113cd525080611353525080611383525061204a6000f3fe608060405234801561001057600080fd5b50600436106102115760003560e01c806370a0823111610125578063a457c2d7116100ad578063d505accf1161007c578063d505accf146105fb578063d547741f1461064c578063da74222814610678578063dd62ed3e1461069e578063f084219e146106cc57610211565b8063a457c2d71461057e578063a9059cbb146105aa578063aaf81bf3146105d6578063ca15c873146105de57610211565b80638456cb59116100f45780638456cb59146105175780639010d07c1461051f57806391d148541461054257806395d89b411461056e578063a217fddf1461057657610211565b806370a082311461047b57806379cc6790146104a15780637da0a877146104cd5780637ecebe00146104f157610211565b80633644e515116101a857806340c10f191161017757806340c10f19146103fc57806342966c6814610428578063486ff0cd14610445578063572b6c051461044d5780635c975abb1461047357610211565b80633644e5151461039457806336568abe1461039c57806339509351146103c85780633f4ba83a146103f457610211565b8063248a9ca3116101e4578063248a9ca3146103235780632f2ff15d14610340578063313ce5671461036e5780633408e4701461038c57610211565b806306fdde0314610216578063095ea7b31461029357806318160ddd146102d357806323b872dd146102ed575b600080fd5b61021e6106d4565b6040805160208082528351818301528351919283929083019185019080838360005b83811015610258578181015183820152602001610240565b50505050905090810190601f1680156102855780820380516001836020036101000a031916815260200191505b509250505060405180910390f35b6102bf600480360360408110156102a957600080fd5b506001600160a01b03813516906020013561076b565b604080519115158252519081900360200190f35b6102db610789565b60408051918252519081900360200190f35b6102bf6004803603606081101561030357600080fd5b506001600160a01b0381358116916020810135909116906040013561078f565b6102db6004803603602081101561033957600080fd5b5035610816565b61036c6004803603604081101561035657600080fd5b50803590602001356001600160a01b031661082b565b005b610376610897565b6040805160ff9092168252519081900360200190f35b6102db6108a0565b6102db6108a4565b61036c600480360360408110156103b257600080fd5b50803590602001356001600160a01b03166108b3565b6102bf600480360360408110156103de57600080fd5b506001600160a01b038135169060200135610914565b61036c610962565b61036c6004803603604081101561041257600080fd5b506001600160a01b0381351690602001356109d3565b61036c6004803603602081101561043e57600080fd5b5035610a44565b61021e610a58565b6102bf6004803603602081101561046357600080fd5b50356001600160a01b0316610a78565b6102bf610a91565b6102db6004803603602081101561049157600080fd5b50356001600160a01b0316610a9a565b61036c600480360360408110156104b757600080fd5b506001600160a01b038135169060200135610ab5565b6104d5610b0f565b604080516001600160a01b039092168252519081900360200190f35b6102db6004803603602081101561050757600080fd5b50356001600160a01b0316610b23565b61036c610b44565b6104d56004803603604081101561053557600080fd5b5080359060200135610bb3565b6102bf6004803603604081101561055857600080fd5b50803590602001356001600160a01b0316610bd2565b61021e610bea565b6102db610c4b565b6102bf6004803603604081101561059457600080fd5b506001600160a01b038135169060200135610c50565b6102bf600480360360408110156105c057600080fd5b506001600160a01b038135169060200135610cb8565b6102db610ccc565b6102db600480360360208110156105f457600080fd5b5035610cf0565b61036c600480360360e081101561061157600080fd5b506001600160a01b03813581169160208101359091169060408101359060608101359060ff6080820135169060a08101359060c00135610d07565b61036c6004803603604081101561066257600080fd5b50803590602001356001600160a01b0316610ebe565b61036c6004803603602081101561068e57600080fd5b50356001600160a01b0316610f17565b6102db600480360360408110156106b457600080fd5b506001600160a01b0381358116916020013516610f68565b6102db610f93565b60038054604080516020601f60026000196101006001881615020190951694909404938401819004810282018101909252828152606093909290918301828280156107605780601f1061073557610100808354040283529160200191610760565b820191906000526020600020905b81548152906001019060200180831161074357829003601f168201915b505050505090505b90565b600061077f610778610ffe565b8484611008565b5060015b92915050565b60025490565b600061079c8484846110f4565b61080c846107a8610ffe565b61080785604051806060016040528060288152602001611eb8602891396001600160a01b038a166000908152600160205260408120906107e6610ffe565b6001600160a01b03168152602081019190915260400160002054919061124f565b611008565b5060019392505050565b60009081526008602052604090206002015490565b60008281526008602052604090206002015461084e90610849610ffe565b610bd2565b6108895760405162461bcd60e51b815260040180806020018281038252602f815260200180611d5d602f913960400191505060405180910390fd5b61089382826112e6565b5050565b60055460ff1690565b4690565b60006108ae61134f565b905090565b6108bb610ffe565b6001600160a01b0316816001600160a01b03161461090a5760405162461bcd60e51b815260040180806020018281038252602f815260200180611fbc602f913960400191505060405180910390fd5b6108938282611419565b600061077f610921610ffe565b846108078560016000610932610ffe565b6001600160a01b03908116825260208083019390935260409182016000908120918c168152925290205490611482565b61098e7f65d7a28e3265b37a6474929f336521b332c1681b933f6cb9f3376673440d862a610849610ffe565b6109c95760405162461bcd60e51b8152600401808060200182810382526023815260200180611dd06023913960400191505060405180910390fd5b6109d16114dc565b565b6109ff7f9f2df0fed2c77648de5860a4cc508cd0818c85b8b8a1ab4ceeef8d981c8956a6610849610ffe565b610a3a5760405162461bcd60e51b815260040180806020018281038252602b815260200180611ee0602b913960400191505060405180910390fd5b610893828261157c565b610a55610a4f610ffe565b8261166c565b50565b604080518082019091526006815265322e302e302b60d01b602082015290565b60075461010090046001600160a01b0390811691161490565b60075460ff1690565b6001600160a01b031660009081526020819052604090205490565b6000610aec826040518060600160405280602b8152602001611e6b602b9139610ae586610ae0610ffe565b610f68565b919061124f565b9050610b0083610afa610ffe565b83611008565b610b0a838361166c565b505050565b60075461010090046001600160a01b031681565b6001600160a01b038116600090815260066020526040812061078390611768565b610b707f65d7a28e3265b37a6474929f336521b332c1681b933f6cb9f3376673440d862a610849610ffe565b610bab5760405162461bcd60e51b8152600401808060200182810382526023815260200180611dd06023913960400191505060405180910390fd5b6109d161176c565b6000828152600860205260408120610bcb90836117ef565b9392505050565b6000828152600860205260408120610bcb90836117fb565b60048054604080516020601f60026000196101006001881615020190951694909404938401819004810282018101909252828152606093909290918301828280156107605780601f1061073557610100808354040283529160200191610760565b600081565b600061077f610c5d610ffe565b8461080785604051806060016040528060258152602001611f976025913960016000610c87610ffe565b6001600160a01b03908116825260208083019390935260409182016000908120918d1681529252902054919061124f565b600061077f610cc5610ffe565b84846110f4565b7f65d7a28e3265b37a6474929f336521b332c1681b933f6cb9f3376673440d862a90565b600081815260086020526040812061078390611810565b83421115610d5c576040805162461bcd60e51b815260206004820152601d60248201527f45524332305065726d69743a206578706972656420646561646c696e65000000604482015290519081900360640190fd5b6001600160a01b03871660009081526006602052604081207f000000000000000000000000000000000000000000000000000000000000000090899089908990610da590611768565b8960405160200180878152602001866001600160a01b03168152602001856001600160a01b0316815260200184815260200183815260200182815260200196505050505050506040516020818303038152906040528051906020012090506000610e0e8261181b565b90506000610e1e82878787611867565b9050896001600160a01b0316816001600160a01b031614610e86576040805162461bcd60e51b815260206004820152601e60248201527f45524332305065726d69743a20696e76616c6964207369676e61747572650000604482015290519081900360640190fd5b6001600160a01b038a166000908152600660205260409020610ea7906119e5565b610eb28a8a8a611008565b50505050505050505050565b600082815260086020526040902060020154610edc90610849610ffe565b61090a5760405162461bcd60e51b8152600401808060200182810382526030815260200180611e3b6030913960400191505060405180910390fd5b610f246000610849610ffe565b610f5f5760405162461bcd60e51b8152600401808060200182810382526022815260200180611f516022913960400191505060405180910390fd5b610a55816119ee565b6001600160a01b03918216600090815260016020908152604080832093909416825291909152205490565b7f9f2df0fed2c77648de5860a4cc508cd0818c85b8b8a1ab4ceeef8d981c8956a690565b600060183610801590610fce5750610fce33610a78565b15610fe2575060131936013560601c610768565b5033610768565b6000610bcb836001600160a01b038416611a5d565b60006108ae610fb7565b6001600160a01b03831661104d5760405162461bcd60e51b8152600401808060200182810382526024815260200180611f736024913960400191505060405180910390fd5b6001600160a01b0382166110925760405162461bcd60e51b8152600401808060200182810382526022815260200180611dae6022913960400191505060405180910390fd5b6001600160a01b03808416600081815260016020908152604080832094871680845294825291829020859055815185815291517f8c5be1e5ebec7d5bd14f71427d1e84f3dd0314c0f7b2291e5b200ac8c7c3b9259281900390910190a3505050565b6001600160a01b0383166111395760405162461bcd60e51b8152600401808060200182810382526025815260200180611f2c6025913960400191505060405180910390fd5b6001600160a01b03821661117e5760405162461bcd60e51b8152600401808060200182810382526023815260200180611d3a6023913960400191505060405180910390fd5b611189838383611aa7565b6111c681604051806060016040528060268152602001611df3602691396001600160a01b038616600090815260208190526040902054919061124f565b6001600160a01b0380851660009081526020819052604080822093909355908416815220546111f59082611482565b6001600160a01b038084166000818152602081815260409182902094909455805185815290519193928716927fddf252ad1be2c89b69c2b068fc378daa952ba7f163c4a11628f55a4df523b3ef92918290030190a3505050565b600081848411156112de5760405162461bcd60e51b81526004018080602001828103825283818151815260200191508051906020019080838360005b838110156112a357818101518382015260200161128b565b50505050905090810190601f1680156112d05780820380516001836020036101000a031916815260200191505b509250505060405180910390fd5b505050900390565b60008281526008602052604090206112fe9082610fe9565b156108935761130b610ffe565b6001600160a01b0316816001600160a01b0316837f2f8788117e7eff1d82e926ec794901d17c78024a50270940304540a733656f0d60405160405180910390a45050565b60007f000000000000000000000000000000000000000000000000000000000000000061137a6108a0565b14156113a757507f0000000000000000000000000000000000000000000000000000000000000000610768565b6114127f00000000000000000000000000000000000000000000000000000000000000007f00000000000000000000000000000000000000000000000000000000000000007f0000000000000000000000000000000000000000000000000000000000000000611ab2565b9050610768565b60008281526008602052604090206114319082611b14565b156108935761143e610ffe565b6001600160a01b0316816001600160a01b0316837ff6391f5c32d9c69d2a47ea670b442974b53935d1edc7fd64eb21e047a839171b60405160405180910390a45050565b600082820183811015610bcb576040805162461bcd60e51b815260206004820152601b60248201527f536166654d6174683a206164646974696f6e206f766572666c6f770000000000604482015290519081900360640190fd5b6114e4610a91565b61152c576040805162461bcd60e51b815260206004820152601460248201527314185d5cd8589b194e881b9bdd081c185d5cd95960621b604482015290519081900360640190fd5b6007805460ff191690557f5db9ee0a495bf2e6ff9c91a7834c1ba4fdd244a5e8aa4e537bd38aeae4b073aa61155f610ffe565b604080516001600160a01b039092168252519081900360200190a1565b6001600160a01b0382166115d7576040805162461bcd60e51b815260206004820152601f60248201527f45524332303a206d696e7420746f20746865207a65726f206164647265737300604482015290519081900360640190fd5b6115e360008383611aa7565b6002546115f09082611482565b6002556001600160a01b0382166000908152602081905260409020546116169082611482565b6001600160a01b0383166000818152602081815260408083209490945583518581529351929391927fddf252ad1be2c89b69c2b068fc378daa952ba7f163c4a11628f55a4df523b3ef9281900390910190a35050565b6001600160a01b0382166116b15760405162461bcd60e51b8152600401808060200182810382526021815260200180611f0b6021913960400191505060405180910390fd5b6116bd82600083611aa7565b6116fa81604051806060016040528060228152602001611d8c602291396001600160a01b038516600090815260208190526040902054919061124f565b6001600160a01b0383166000908152602081905260409020556002546117209082611b29565b6002556040805182815290516000916001600160a01b038516917fddf252ad1be2c89b69c2b068fc378daa952ba7f163c4a11628f55a4df523b3ef9181900360200190a35050565b5490565b611774610a91565b156117b9576040805162461bcd60e51b815260206004820152601060248201526f14185d5cd8589b194e881c185d5cd95960821b604482015290519081900360640190fd5b6007805460ff191660011790557f62e78cea01bee320cd4e420270b5ea74000d11b0c9f74754ebdbfc544b05a25861155f610ffe565b6000610bcb8383611b86565b6000610bcb836001600160a01b038416611bea565b600061078382611768565b600061182561134f565b82604051602001808061190160f01b81525060020183815260200182815260200192505050604051602081830303815290604052805190602001209050919050565b60007f7fffffffffffffffffffffffffffffff5d576e7357a4501ddfe92f46681b20a08211156118c85760405162461bcd60e51b8152600401808060200182810382526022815260200180611e196022913960400191505060405180910390fd5b8360ff16601b14806118dd57508360ff16601c145b6119185760405162461bcd60e51b8152600401808060200182810382526022815260200180611e966022913960400191505060405180910390fd5b600060018686868660405160008152602001604052604051808581526020018460ff1681526020018381526020018281526020019450505050506020604051602081039080840390855afa158015611974573d6000803e3d6000fd5b5050604051601f1901519150506001600160a01b0381166119dc576040805162461bcd60e51b815260206004820152601860248201527f45434453413a20696e76616c6964207369676e61747572650000000000000000604482015290519081900360640190fd5b95945050505050565b80546001019055565b600780546001600160a01b03838116610100908102610100600160a81b03198416179384905560408051938290048316808552919094049091166020830152825190927f06dff7401eb7fb04d241246ade7f817c7ad512b1bed61c18aedd9bc51eec0475928290030190a15050565b6000611a698383611bea565b611a9f57508154600181810184556000848152602080822090930184905584548482528286019093526040902091909155610783565b506000610783565b610b0a838383611c02565b6000838383611abf6108a0565b3060405160200180868152602001858152602001848152602001838152602001826001600160a01b03168152602001955050505050506040516020818303038152906040528051906020012090509392505050565b6000610bcb836001600160a01b038416611c51565b600082821115611b80576040805162461bcd60e51b815260206004820152601e60248201527f536166654d6174683a207375627472616374696f6e206f766572666c6f770000604482015290519081900360640190fd5b50900390565b81546000908210611bc85760405162461bcd60e51b8152600401808060200182810382526022815260200180611d186022913960400191505060405180910390fd5b826000018281548110611bd757fe5b9060005260206000200154905092915050565b60009081526001919091016020526040902054151590565b611c0d838383610b0a565b611c15610a91565b15610b0a5760405162461bcd60e51b815260040180806020018281038252602a815260200180611feb602a913960400191505060405180910390fd5b60008181526001830160205260408120548015611d0d5783546000198083019190810190600090879083908110611c8457fe5b9060005260206000200154905080876000018481548110611ca157fe5b600091825260208083209091019290925582815260018981019092526040902090840190558654879080611cd157fe5b60019003818190600052602060002001600090559055866001016000878152602001908152602001600020600090556001945050505050610783565b600091505061078356fe456e756d657261626c655365743a20696e646578206f7574206f6620626f756e647345524332303a207472616e7366657220746f20746865207a65726f2061646472657373416363657373436f6e74726f6c3a2073656e646572206d75737420626520616e2061646d696e20746f206772616e7445524332303a206275726e20616d6f756e7420657863656564732062616c616e636545524332303a20617070726f766520746f20746865207a65726f206164647265737352657761726473546f6b656e3a206d75737420686176652070617573657220726f6c6545524332303a207472616e7366657220616d6f756e7420657863656564732062616c616e636545434453413a20696e76616c6964207369676e6174757265202773272076616c7565416363657373436f6e74726f6c3a2073656e646572206d75737420626520616e2061646d696e20746f207265766f6b6552657761726473546f6b656e3a206275726e20616d6f756e74206578636565647320616c6c6f77616e636545434453413a20696e76616c6964207369676e6174757265202776272076616c756545524332303a207472616e7366657220616d6f756e74206578636565647320616c6c6f77616e636552657761726473546f6b656e3a206d7573742068617665206d696e74657220726f6c6520746f206d696e7445524332303a206275726e2066726f6d20746865207a65726f206164647265737345524332303a207472616e736665722066726f6d20746865207a65726f206164647265737352657761726473546f6b656e3a206d75737420686176652061646d696e20726f6c6545524332303a20617070726f76652066726f6d20746865207a65726f206164647265737345524332303a2064656372656173656420616c6c6f77616e63652062656c6f77207a65726f416363657373436f6e74726f6c3a2063616e206f6e6c792072656e6f756e636520726f6c657320666f722073656c6645524332305061757361626c653a20746f6b656e207472616e73666572207768696c6520706175736564a2646970667358221220f421a29f5c32d69244c055411b7d9294ba9000ae845b0ac039c842262fac6b5c64736f6c63430007060033",
  "immutableReferences": {
    "4765": [
      {
        "length": 32,
        "start": 4995
      }
    ],
    "4767": [
      {
        "length": 32,
        "start": 4947
      }
    ],
    "4769": [
      {
        "length": 32,
        "start": 5069
      }
    ],
    "4771": [
      {
        "length": 32,
        "start": 5102
      }
    ],
    "4773": [
      {
        "length": 32,
        "start": 5036
      }
    ],
    "4935": [
      {
        "length": 32,
        "start": 3446
      }
    ]
  },
  "source": "// SPDX-License-Identifier: MIT\npragma solidity >=0.6.0 <0.8.0;\n\nimport \"@openzeppelin/contracts/access/AccessControl.sol\";\nimport \"@openzeppelin/contracts/token/ERC20/ERC20.sol\";\nimport \"@openzeppelin/contracts/token/ERC20/ERC20Pausable.sol\";\nimport \"@openzeppelin/contracts/drafts/ERC20Permit.sol\";\nimport \"@openzeppelin/contracts/math/SafeMath.sol\";\n\nimport \"./interfaces/IRewardsToken.sol\";\nimport \"./gsn/RelayRecipient.sol\";\nimport \"./gsn/BaseRelayRecipient.sol\";\n\ncontract RewardsToken is IRewardsToken, ERC20Permit, ERC20Pausable, RelayRecipient, AccessControl {\n    using SafeMath for uint256;\n\n    bytes32 private constant MINTER_ROLE = keccak256(\"MINTER_ROLE\");\n    bytes32 private constant PAUSER_ROLE = keccak256(\"PAUSER_ROLE\");\n\n    string private constant ERC20_NAME = \"Santiment Rewards Token\";\n    string private constant ERC20_SYMBOL = \"SRT\";\n\n    constructor() ERC20(ERC20_NAME, ERC20_SYMBOL) ERC20Permit(ERC20_NAME) {\n        _setupRole(DEFAULT_ADMIN_ROLE, _msgSender());\n\n        _setupRole(MINTER_ROLE, _msgSender());\n        _setupRole(PAUSER_ROLE, _msgSender());\n    }\n\n    function mint(address to, uint256 amount) external override {\n        require(\n            hasRole(MINTER_ROLE, _msgSender()),\n            \"RewardsToken: must have minter role to mint\"\n        );\n        _mint(to, amount);\n    }\n\n    function burn(uint256 amount) external override {\n        _burn(_msgSender(), amount);\n    }\n\n    function burnFrom(address account, uint256 amount) external override {\n        uint256 decreasedAllowance =\n            allowance(account, _msgSender()).sub(\n                amount,\n                \"RewardsToken: burn amount exceeds allowance\"\n            );\n\n        _approve(account, _msgSender(), decreasedAllowance);\n        _burn(account, amount);\n    }\n\n    function pause() external override {\n        require(\n            hasRole(PAUSER_ROLE, _msgSender()),\n            \"RewardsToken: must have pauser role\"\n        );\n        _pause();\n    }\n\n    function unpause() external override {\n        require(\n            hasRole(PAUSER_ROLE, _msgSender()),\n            \"RewardsToken: must have pauser role\"\n        );\n        _unpause();\n    }\n\n    function setTrustedForwarder(address trustedForwarder) external override {\n        require(\n            hasRole(DEFAULT_ADMIN_ROLE, _msgSender()),\n            \"RewardsToken: must have admin role\"\n        );\n        super._setTrustedForwarder(trustedForwarder);\n    }\n\n    function _beforeTokenTransfer(address from, address to, uint256 amount) internal override (ERC20Pausable, ERC20) {\n        ERC20Pausable._beforeTokenTransfer(from, to, amount);\n    }\n\n    function minterRole() external pure override returns (bytes32) {\n        return MINTER_ROLE;\n    }\n\n    function pauserRole() external pure override returns (bytes32) {\n        return PAUSER_ROLE;\n    }\n\n    function _msgSender() internal view override(Context, BaseRelayRecipient) returns (address payable) {\n        return BaseRelayRecipient._msgSender();\n    }\n\n    function _msgData() internal view override(Context, BaseRelayRecipient) returns (bytes memory) {\n        return BaseRelayRecipient._msgData();\n    }\n\n    function getChainId() external view returns (uint256 chainId) {\n        this; // silence state mutability warning without generating bytecode - see https://github.com/ethereum/solidity/issues/2691\n        // solhint-disable-next-line no-inline-assembly\n        assembly {\n            chainId := chainid()\n        }\n    }\n\n    function versionRecipient() external override pure returns (string memory) {\n        return \"2.0.0+\";\n    }\n}\n",
  "sourcePath": "/home/nailkhaf/Projects/san-games/contracts/RewardsToken.sol",
  "compiler": {
    "name": "solc",
    "version": "0.7.6+commit.7338295f.Emscripten.clang"
  },
  "schemaVersion": "3.3.3",
  "updatedAt": "2021-02-17T17:50:09.705Z",
  "devdoc": {
    "kind": "dev",
    "methods": {
      "DOMAIN_SEPARATOR()": {
        "details": "See {IERC20Permit-DOMAIN_SEPARATOR}."
      },
      "allowance(address,address)": {
        "details": "See {IERC20-allowance}."
      },
      "approve(address,uint256)": {
        "details": "See {IERC20-approve}. Requirements: - `spender` cannot be the zero address."
      },
      "balanceOf(address)": {
        "details": "See {IERC20-balanceOf}."
      },
      "burn(uint256)": {
        "details": "Destroys `amount` tokens from the caller's balance."
      },
      "burnFrom(address,uint256)": {
        "details": "Destroys `amount` tokens from `account`, deducting from the caller's allowance. - the caller must have allowance for ``account``'s tokens of at least `amount`."
      },
      "decimals()": {
        "details": "Returns the number of decimals used to get its user representation. For example, if `decimals` equals `2`, a balance of `505` tokens should be displayed to a user as `5,05` (`505 / 10 ** 2`). Tokens usually opt for a value of 18, imitating the relationship between Ether and Wei. This is the value {ERC20} uses, unless {_setupDecimals} is called. NOTE: This information is only used for _display_ purposes: it in no way affects any of the arithmetic of the contract, including {IERC20-balanceOf} and {IERC20-transfer}."
      },
      "decreaseAllowance(address,uint256)": {
        "details": "Atomically decreases the allowance granted to `spender` by the caller. This is an alternative to {approve} that can be used as a mitigation for problems described in {IERC20-approve}. Emits an {Approval} event indicating the updated allowance. Requirements: - `spender` cannot be the zero address. - `spender` must have allowance for the caller of at least `subtractedValue`."
      },
      "getRoleAdmin(bytes32)": {
        "details": "Returns the admin role that controls `role`. See {grantRole} and {revokeRole}. To change a role's admin, use {_setRoleAdmin}."
      },
      "getRoleMember(bytes32,uint256)": {
        "details": "Returns one of the accounts that have `role`. `index` must be a value between 0 and {getRoleMemberCount}, non-inclusive. Role bearers are not sorted in any particular way, and their ordering may change at any point. WARNING: When using {getRoleMember} and {getRoleMemberCount}, make sure you perform all queries on the same block. See the following https://forum.openzeppelin.com/t/iterating-over-elements-on-enumerableset-in-openzeppelin-contracts/2296[forum post] for more information."
      },
      "getRoleMemberCount(bytes32)": {
        "details": "Returns the number of accounts that have `role`. Can be used together with {getRoleMember} to enumerate all bearers of a role."
      },
      "grantRole(bytes32,address)": {
        "details": "Grants `role` to `account`. If `account` had not been already granted `role`, emits a {RoleGranted} event. Requirements: - the caller must have ``role``'s admin role."
      },
      "hasRole(bytes32,address)": {
        "details": "Returns `true` if `account` has been granted `role`."
      },
      "increaseAllowance(address,uint256)": {
        "details": "Atomically increases the allowance granted to `spender` by the caller. This is an alternative to {approve} that can be used as a mitigation for problems described in {IERC20-approve}. Emits an {Approval} event indicating the updated allowance. Requirements: - `spender` cannot be the zero address."
      },
      "mint(address,uint256)": {
        "details": "Creates `amount` new tokens for `to`. - the caller must have the `MINTER_ROLE`."
      },
      "minterRole()": {
        "details": "Return minter role unique id. Used for managing minter role at contract {AccessControl}"
      },
      "name()": {
        "details": "Returns the name of the token."
      },
      "nonces(address)": {
        "details": "See {IERC20Permit-nonces}."
      },
      "pause()": {
        "details": "Pause transferring, minting, burning tokens. - the caller must have the `PAUSER_ROLE`."
      },
      "paused()": {
        "details": "Returns true if the contract is paused, and false otherwise."
      },
      "pauserRole()": {
        "details": "Return pauser role unique id. Used for managing pauser role at contract {AccessControl}"
      },
      "permit(address,address,uint256,uint256,uint8,bytes32,bytes32)": {
        "details": "See {IERC20Permit-permit}."
      },
      "renounceRole(bytes32,address)": {
        "details": "Revokes `role` from the calling account. Roles are often managed via {grantRole} and {revokeRole}: this function's purpose is to provide a mechanism for accounts to lose their privileges if they are compromised (such as when a trusted device is misplaced). If the calling account had been granted `role`, emits a {RoleRevoked} event. Requirements: - the caller must be `account`."
      },
      "revokeRole(bytes32,address)": {
        "details": "Revokes `role` from `account`. If `account` had been granted `role`, emits a {RoleRevoked} event. Requirements: - the caller must have ``role``'s admin role."
      },
      "setTrustedForwarder(address)": {
        "details": "Set trusted forwarder address for gsn. - `trustedForwarder` can be zero address to disable gsn"
      },
      "symbol()": {
        "details": "Returns the symbol of the token, usually a shorter version of the name."
      },
      "totalSupply()": {
        "details": "See {IERC20-totalSupply}."
      },
      "transfer(address,uint256)": {
        "details": "See {IERC20-transfer}. Requirements: - `recipient` cannot be the zero address. - the caller must have a balance of at least `amount`."
      },
      "transferFrom(address,address,uint256)": {
        "details": "See {IERC20-transferFrom}. Emits an {Approval} event indicating the updated allowance. This is not required by the EIP. See the note at the beginning of {ERC20}. Requirements: - `sender` and `recipient` cannot be the zero address. - `sender` must have a balance of at least `amount`. - the caller must have allowance for ``sender``'s tokens of at least `amount`."
      },
      "unpause()": {
        "details": "Resume transferring, minting, burning tokens. - the caller must have the `PAUSER_ROLE`."
      }
    },
    "version": 1
  },
  "userdoc": {
    "kind": "user",
    "methods": {
      "isTrustedForwarder(address)": {
        "notice": "return if the forwarder is trusted to forward relayed transactions to us. the forwarder is required to verify the sender's signature, and verify the call is not a replay."
      }
    },
    "version": 1
  }
}