{
  "contractName": "RewardsToken",
  "abi": [
    {
      "inputs": [],
      "stateMutability": "nonpayable",
      "type": "constructor"
    },
    {
      "anonymous": false,
      "inputs": [
        {
          "indexed": true,
          "internalType": "address",
          "name": "owner",
          "type": "address"
        },
        {
          "indexed": true,
          "internalType": "address",
          "name": "spender",
          "type": "address"
        },
        {
          "indexed": false,
          "internalType": "uint256",
          "name": "value",
          "type": "uint256"
        }
      ],
      "name": "Approval",
      "type": "event"
    },
    {
      "anonymous": false,
      "inputs": [
        {
          "indexed": true,
          "internalType": "bytes32",
          "name": "role",
          "type": "bytes32"
        },
        {
          "indexed": true,
          "internalType": "bytes32",
          "name": "previousAdminRole",
          "type": "bytes32"
        },
        {
          "indexed": true,
          "internalType": "bytes32",
          "name": "newAdminRole",
          "type": "bytes32"
        }
      ],
      "name": "RoleAdminChanged",
      "type": "event"
    },
    {
      "anonymous": false,
      "inputs": [
        {
          "indexed": true,
          "internalType": "bytes32",
          "name": "role",
          "type": "bytes32"
        },
        {
          "indexed": true,
          "internalType": "address",
          "name": "account",
          "type": "address"
        },
        {
          "indexed": true,
          "internalType": "address",
          "name": "sender",
          "type": "address"
        }
      ],
      "name": "RoleGranted",
      "type": "event"
    },
    {
      "anonymous": false,
      "inputs": [
        {
          "indexed": true,
          "internalType": "bytes32",
          "name": "role",
          "type": "bytes32"
        },
        {
          "indexed": true,
          "internalType": "address",
          "name": "account",
          "type": "address"
        },
        {
          "indexed": true,
          "internalType": "address",
          "name": "sender",
          "type": "address"
        }
      ],
      "name": "RoleRevoked",
      "type": "event"
    },
    {
      "anonymous": false,
      "inputs": [
        {
          "indexed": true,
          "internalType": "address",
          "name": "from",
          "type": "address"
        },
        {
          "indexed": true,
          "internalType": "address",
          "name": "to",
          "type": "address"
        },
        {
          "indexed": false,
          "internalType": "uint256",
          "name": "value",
          "type": "uint256"
        }
      ],
      "name": "Transfer",
      "type": "event"
    },
    {
      "inputs": [],
      "name": "DEFAULT_ADMIN_ROLE",
      "outputs": [
        {
          "internalType": "bytes32",
          "name": "",
          "type": "bytes32"
        }
      ],
      "stateMutability": "view",
      "type": "function"
    },
    {
      "inputs": [
        {
          "internalType": "address",
          "name": "owner",
          "type": "address"
        },
        {
          "internalType": "address",
          "name": "spender",
          "type": "address"
        }
      ],
      "name": "allowance",
      "outputs": [
        {
          "internalType": "uint256",
          "name": "",
          "type": "uint256"
        }
      ],
      "stateMutability": "view",
      "type": "function"
    },
    {
      "inputs": [
        {
          "internalType": "address",
          "name": "spender",
          "type": "address"
        },
        {
          "internalType": "uint256",
          "name": "amount",
          "type": "uint256"
        }
      ],
      "name": "approve",
      "outputs": [
        {
          "internalType": "bool",
          "name": "",
          "type": "bool"
        }
      ],
      "stateMutability": "nonpayable",
      "type": "function"
    },
    {
      "inputs": [
        {
          "internalType": "address",
          "name": "account",
          "type": "address"
        }
      ],
      "name": "balanceOf",
      "outputs": [
        {
          "internalType": "uint256",
          "name": "",
          "type": "uint256"
        }
      ],
      "stateMutability": "view",
      "type": "function"
    },
    {
      "inputs": [],
      "name": "decimals",
      "outputs": [
        {
          "internalType": "uint8",
          "name": "",
          "type": "uint8"
        }
      ],
      "stateMutability": "view",
      "type": "function"
    },
    {
      "inputs": [
        {
          "internalType": "address",
          "name": "spender",
          "type": "address"
        },
        {
          "internalType": "uint256",
          "name": "subtractedValue",
          "type": "uint256"
        }
      ],
      "name": "decreaseAllowance",
      "outputs": [
        {
          "internalType": "bool",
          "name": "",
          "type": "bool"
        }
      ],
      "stateMutability": "nonpayable",
      "type": "function"
    },
    {
      "inputs": [
        {
          "internalType": "bytes32",
          "name": "role",
          "type": "bytes32"
        }
      ],
      "name": "getRoleAdmin",
      "outputs": [
        {
          "internalType": "bytes32",
          "name": "",
          "type": "bytes32"
        }
      ],
      "stateMutability": "view",
      "type": "function"
    },
    {
      "inputs": [
        {
          "internalType": "bytes32",
          "name": "role",
          "type": "bytes32"
        },
        {
          "internalType": "uint256",
          "name": "index",
          "type": "uint256"
        }
      ],
      "name": "getRoleMember",
      "outputs": [
        {
          "internalType": "address",
          "name": "",
          "type": "address"
        }
      ],
      "stateMutability": "view",
      "type": "function"
    },
    {
      "inputs": [
        {
          "internalType": "bytes32",
          "name": "role",
          "type": "bytes32"
        }
      ],
      "name": "getRoleMemberCount",
      "outputs": [
        {
          "internalType": "uint256",
          "name": "",
          "type": "uint256"
        }
      ],
      "stateMutability": "view",
      "type": "function"
    },
    {
      "inputs": [
        {
          "internalType": "bytes32",
          "name": "role",
          "type": "bytes32"
        },
        {
          "internalType": "address",
          "name": "account",
          "type": "address"
        }
      ],
      "name": "grantRole",
      "outputs": [],
      "stateMutability": "nonpayable",
      "type": "function"
    },
    {
      "inputs": [
        {
          "internalType": "bytes32",
          "name": "role",
          "type": "bytes32"
        },
        {
          "internalType": "address",
          "name": "account",
          "type": "address"
        }
      ],
      "name": "hasRole",
      "outputs": [
        {
          "internalType": "bool",
          "name": "",
          "type": "bool"
        }
      ],
      "stateMutability": "view",
      "type": "function"
    },
    {
      "inputs": [
        {
          "internalType": "address",
          "name": "spender",
          "type": "address"
        },
        {
          "internalType": "uint256",
          "name": "addedValue",
          "type": "uint256"
        }
      ],
      "name": "increaseAllowance",
      "outputs": [
        {
          "internalType": "bool",
          "name": "",
          "type": "bool"
        }
      ],
      "stateMutability": "nonpayable",
      "type": "function"
    },
    {
      "inputs": [],
      "name": "name",
      "outputs": [
        {
          "internalType": "string",
          "name": "",
          "type": "string"
        }
      ],
      "stateMutability": "view",
      "type": "function"
    },
    {
      "inputs": [
        {
          "internalType": "bytes32",
          "name": "role",
          "type": "bytes32"
        },
        {
          "internalType": "address",
          "name": "account",
          "type": "address"
        }
      ],
      "name": "renounceRole",
      "outputs": [],
      "stateMutability": "nonpayable",
      "type": "function"
    },
    {
      "inputs": [
        {
          "internalType": "bytes32",
          "name": "role",
          "type": "bytes32"
        },
        {
          "internalType": "address",
          "name": "account",
          "type": "address"
        }
      ],
      "name": "revokeRole",
      "outputs": [],
      "stateMutability": "nonpayable",
      "type": "function"
    },
    {
      "inputs": [],
      "name": "symbol",
      "outputs": [
        {
          "internalType": "string",
          "name": "",
          "type": "string"
        }
      ],
      "stateMutability": "view",
      "type": "function"
    },
    {
      "inputs": [],
      "name": "totalSupply",
      "outputs": [
        {
          "internalType": "uint256",
          "name": "",
          "type": "uint256"
        }
      ],
      "stateMutability": "view",
      "type": "function"
    },
    {
      "inputs": [
        {
          "internalType": "address",
          "name": "recipient",
          "type": "address"
        },
        {
          "internalType": "uint256",
          "name": "amount",
          "type": "uint256"
        }
      ],
      "name": "transfer",
      "outputs": [
        {
          "internalType": "bool",
          "name": "",
          "type": "bool"
        }
      ],
      "stateMutability": "nonpayable",
      "type": "function"
    },
    {
      "inputs": [
        {
          "internalType": "address",
          "name": "sender",
          "type": "address"
        },
        {
          "internalType": "address",
          "name": "recipient",
          "type": "address"
        },
        {
          "internalType": "uint256",
          "name": "amount",
          "type": "uint256"
        }
      ],
      "name": "transferFrom",
      "outputs": [
        {
          "internalType": "bool",
          "name": "",
          "type": "bool"
        }
      ],
      "stateMutability": "nonpayable",
      "type": "function"
    },
    {
      "inputs": [
        {
          "internalType": "address",
          "name": "to",
          "type": "address"
        },
        {
          "internalType": "uint256",
          "name": "amount",
          "type": "uint256"
        }
      ],
      "name": "mint",
      "outputs": [],
      "stateMutability": "nonpayable",
      "type": "function"
    },
    {
      "inputs": [
        {
          "internalType": "uint256",
          "name": "amount",
          "type": "uint256"
        }
      ],
      "name": "burn",
      "outputs": [],
      "stateMutability": "nonpayable",
      "type": "function"
    },
    {
      "inputs": [
        {
          "internalType": "address",
          "name": "account",
          "type": "address"
        },
        {
          "internalType": "uint256",
          "name": "amount",
          "type": "uint256"
        }
      ],
      "name": "burnFrom",
      "outputs": [],
      "stateMutability": "nonpayable",
      "type": "function"
    },
    {
      "inputs": [],
      "name": "minterRole",
      "outputs": [
        {
          "internalType": "bytes32",
          "name": "",
          "type": "bytes32"
        }
      ],
      "stateMutability": "pure",
      "type": "function"
    }
  ],
  "bytecode": "0x60806040523480156200001157600080fd5b506040518060400160405280601781526020017f53616e74696d656e74205265776172647320546f6b656e0000000000000000008152506040518060400160405280600381526020016214d49560ea1b81525081600390805190602001906200007c92919062000203565b5080516200009290600490602084019062000203565b50506005805460ff1916601217905550620000b86000620000b2620000ed565b620000f1565b620000e77f9f2df0fed2c77648de5860a4cc508cd0818c85b8b8a1ab4ceeef8d981c8956a6620000b2620000ed565b620002af565b3390565b620000fd828262000101565b5050565b60008281526006602090815260409091206200012891839062000a596200017c821b17901c565b15620000fd5762000138620000ed565b6001600160a01b0316816001600160a01b0316837f2f8788117e7eff1d82e926ec794901d17c78024a50270940304540a733656f0d60405160405180910390a45050565b600062000193836001600160a01b0384166200019c565b90505b92915050565b6000620001aa8383620001eb565b620001e25750815460018181018455600084815260208082209093018490558454848252828601909352604090209190915562000196565b50600062000196565b60009081526001919091016020526040902054151590565b828054600181600116156101000203166002900490600052602060002090601f0160209004810192826200023b576000855562000286565b82601f106200025657805160ff191683800117855562000286565b8280016001018555821562000286579182015b828111156200028657825182559160200191906001019062000269565b506200029492915062000298565b5090565b5b8082111562000294576000815560010162000299565b61151680620002bf6000396000f3fe608060405234801561001057600080fd5b506004361061014d5760003560e01c806370a08231116100c3578063a457c2d71161007c578063a457c2d714610436578063a9059cbb14610462578063ca15c8731461048e578063d547741f146104ab578063dd62ed3e146104d7578063f084219e146105055761014d565b806370a082311461036957806379cc67901461038f5780639010d07c146103bb57806391d14854146103fa57806395d89b4114610426578063a217fddf1461042e5761014d565b80632f2ff15d116101155780632f2ff15d1461027c578063313ce567146102aa57806336568abe146102c857806339509351146102f457806340c10f191461032057806342966c681461034c5761014d565b806306fdde0314610152578063095ea7b3146101cf57806318160ddd1461020f57806323b872dd14610229578063248a9ca31461025f575b600080fd5b61015a61050d565b6040805160208082528351818301528351919283929083019185019080838360005b8381101561019457818101518382015260200161017c565b50505050905090810190601f1680156101c15780820380516001836020036101000a031916815260200191505b509250505060405180910390f35b6101fb600480360360408110156101e557600080fd5b506001600160a01b0381351690602001356105a3565b604080519115158252519081900360200190f35b6102176105c1565b60408051918252519081900360200190f35b6101fb6004803603606081101561023f57600080fd5b506001600160a01b038135811691602081013590911690604001356105c7565b6102176004803603602081101561027557600080fd5b503561064e565b6102a86004803603604081101561029257600080fd5b50803590602001356001600160a01b0316610663565b005b6102b26106cf565b6040805160ff9092168252519081900360200190f35b6102a8600480360360408110156102de57600080fd5b50803590602001356001600160a01b03166106d8565b6101fb6004803603604081101561030a57600080fd5b506001600160a01b038135169060200135610739565b6102a86004803603604081101561033657600080fd5b506001600160a01b038135169060200135610787565b6102a86004803603602081101561036257600080fd5b50356107f8565b6102176004803603602081101561037f57600080fd5b50356001600160a01b031661080c565b6102a8600480360360408110156103a557600080fd5b506001600160a01b038135169060200135610827565b6103de600480360360408110156103d157600080fd5b5080359060200135610881565b604080516001600160a01b039092168252519081900360200190f35b6101fb6004803603604081101561041057600080fd5b50803590602001356001600160a01b03166108a0565b61015a6108b8565b610217610919565b6101fb6004803603604081101561044c57600080fd5b506001600160a01b03813516906020013561091e565b6101fb6004803603604081101561047857600080fd5b506001600160a01b038135169060200135610986565b610217600480360360208110156104a457600080fd5b503561099a565b6102a8600480360360408110156104c157600080fd5b50803590602001356001600160a01b03166109b1565b610217600480360360408110156104ed57600080fd5b506001600160a01b0381358116916020013516610a0a565b610217610a35565b60038054604080516020601f60026000196101006001881615020190951694909404938401819004810282018101909252828152606093909290918301828280156105995780601f1061056e57610100808354040283529160200191610599565b820191906000526020600020905b81548152906001019060200180831161057c57829003601f168201915b5050505050905090565b60006105b76105b0610a6e565b8484610a72565b5060015b92915050565b60025490565b60006105d4848484610b5e565b610644846105e0610a6e565b61063f856040518060600160405280602881526020016113d0602891396001600160a01b038a1660009081526001602052604081209061061e610a6e565b6001600160a01b031681526020810191909152604001600020549190610cb9565b610a72565b5060019392505050565b60009081526006602052604090206002015490565b60008281526006602052604090206002015461068690610681610a6e565b6108a0565b6106c15760405162461bcd60e51b815260040180806020018281038252602f8152602001806112dc602f913960400191505060405180910390fd5b6106cb8282610d50565b5050565b60055460ff1690565b6106e0610a6e565b6001600160a01b0316816001600160a01b03161461072f5760405162461bcd60e51b815260040180806020018281038252602f8152602001806114b2602f913960400191505060405180910390fd5b6106cb8282610db9565b60006105b7610746610a6e565b8461063f8560016000610757610a6e565b6001600160a01b03908116825260208083019390935260409182016000908120918c168152925290205490610e22565b6107b37f9f2df0fed2c77648de5860a4cc508cd0818c85b8b8a1ab4ceeef8d981c8956a6610681610a6e565b6107ee5760405162461bcd60e51b815260040180806020018281038252602b8152602001806113f8602b913960400191505060405180910390fd5b6106cb8282610e7c565b610809610803610a6e565b82610f6c565b50565b6001600160a01b031660009081526020819052604090205490565b600061085e826040518060600160405280602b81526020016113a5602b913961085786610852610a6e565b610a0a565b9190610cb9565b90506108728361086c610a6e565b83610a72565b61087c8383610f6c565b505050565b60008281526006602052604081206108999083611068565b9392505050565b60008281526006602052604081206108999083611074565b60048054604080516020601f60026000196101006001881615020190951694909404938401819004810282018101909252828152606093909290918301828280156105995780601f1061056e57610100808354040283529160200191610599565b600081565b60006105b761092b610a6e565b8461063f8560405180606001604052806025815260200161148d6025913960016000610955610a6e565b6001600160a01b03908116825260208083019390935260409182016000908120918d16815292529020549190610cb9565b60006105b7610993610a6e565b8484610b5e565b60008181526006602052604081206105bb90611089565b6000828152600660205260409020600201546109cf90610681610a6e565b61072f5760405162461bcd60e51b81526004018080602001828103825260308152602001806113756030913960400191505060405180910390fd5b6001600160a01b03918216600090815260016020908152604080832093909416825291909152205490565b7f9f2df0fed2c77648de5860a4cc508cd0818c85b8b8a1ab4ceeef8d981c8956a690565b6000610899836001600160a01b038416611094565b3390565b6001600160a01b038316610ab75760405162461bcd60e51b81526004018080602001828103825260248152602001806114696024913960400191505060405180910390fd5b6001600160a01b038216610afc5760405162461bcd60e51b815260040180806020018281038252602281526020018061132d6022913960400191505060405180910390fd5b6001600160a01b03808416600081815260016020908152604080832094871680845294825291829020859055815185815291517f8c5be1e5ebec7d5bd14f71427d1e84f3dd0314c0f7b2291e5b200ac8c7c3b9259281900390910190a3505050565b6001600160a01b038316610ba35760405162461bcd60e51b81526004018080602001828103825260258152602001806114446025913960400191505060405180910390fd5b6001600160a01b038216610be85760405162461bcd60e51b81526004018080602001828103825260238152602001806112b96023913960400191505060405180910390fd5b610bf383838361087c565b610c308160405180606001604052806026815260200161134f602691396001600160a01b0386166000908152602081905260409020549190610cb9565b6001600160a01b038085166000908152602081905260408082209390935590841681522054610c5f9082610e22565b6001600160a01b038084166000818152602081815260409182902094909455805185815290519193928716927fddf252ad1be2c89b69c2b068fc378daa952ba7f163c4a11628f55a4df523b3ef92918290030190a3505050565b60008184841115610d485760405162461bcd60e51b81526004018080602001828103825283818151815260200191508051906020019080838360005b83811015610d0d578181015183820152602001610cf5565b50505050905090810190601f168015610d3a5780820380516001836020036101000a031916815260200191505b509250505060405180910390fd5b505050900390565b6000828152600660205260409020610d689082610a59565b156106cb57610d75610a6e565b6001600160a01b0316816001600160a01b0316837f2f8788117e7eff1d82e926ec794901d17c78024a50270940304540a733656f0d60405160405180910390a45050565b6000828152600660205260409020610dd190826110de565b156106cb57610dde610a6e565b6001600160a01b0316816001600160a01b0316837ff6391f5c32d9c69d2a47ea670b442974b53935d1edc7fd64eb21e047a839171b60405160405180910390a45050565b600082820183811015610899576040805162461bcd60e51b815260206004820152601b60248201527f536166654d6174683a206164646974696f6e206f766572666c6f770000000000604482015290519081900360640190fd5b6001600160a01b038216610ed7576040805162461bcd60e51b815260206004820152601f60248201527f45524332303a206d696e7420746f20746865207a65726f206164647265737300604482015290519081900360640190fd5b610ee36000838361087c565b600254610ef09082610e22565b6002556001600160a01b038216600090815260208190526040902054610f169082610e22565b6001600160a01b0383166000818152602081815260408083209490945583518581529351929391927fddf252ad1be2c89b69c2b068fc378daa952ba7f163c4a11628f55a4df523b3ef9281900390910190a35050565b6001600160a01b038216610fb15760405162461bcd60e51b81526004018080602001828103825260218152602001806114236021913960400191505060405180910390fd5b610fbd8260008361087c565b610ffa8160405180606001604052806022815260200161130b602291396001600160a01b0385166000908152602081905260409020549190610cb9565b6001600160a01b03831660009081526020819052604090205560025461102090826110f3565b6002556040805182815290516000916001600160a01b038516917fddf252ad1be2c89b69c2b068fc378daa952ba7f163c4a11628f55a4df523b3ef9181900360200190a35050565b60006108998383611150565b6000610899836001600160a01b0384166111b4565b60006105bb826111cc565b60006110a083836111b4565b6110d6575081546001818101845560008481526020808220909301849055845484825282860190935260409020919091556105bb565b5060006105bb565b6000610899836001600160a01b0384166111d0565b60008282111561114a576040805162461bcd60e51b815260206004820152601e60248201527f536166654d6174683a207375627472616374696f6e206f766572666c6f770000604482015290519081900360640190fd5b50900390565b815460009082106111925760405162461bcd60e51b81526004018080602001828103825260228152602001806112976022913960400191505060405180910390fd5b8260000182815481106111a157fe5b9060005260206000200154905092915050565b60009081526001919091016020526040902054151590565b5490565b6000818152600183016020526040812054801561128c578354600019808301919081019060009087908390811061120357fe5b906000526020600020015490508087600001848154811061122057fe5b60009182526020808320909101929092558281526001898101909252604090209084019055865487908061125057fe5b600190038181906000526020600020016000905590558660010160008781526020019081526020016000206000905560019450505050506105bb565b60009150506105bb56fe456e756d657261626c655365743a20696e646578206f7574206f6620626f756e647345524332303a207472616e7366657220746f20746865207a65726f2061646472657373416363657373436f6e74726f6c3a2073656e646572206d75737420626520616e2061646d696e20746f206772616e7445524332303a206275726e20616d6f756e7420657863656564732062616c616e636545524332303a20617070726f766520746f20746865207a65726f206164647265737345524332303a207472616e7366657220616d6f756e7420657863656564732062616c616e6365416363657373436f6e74726f6c3a2073656e646572206d75737420626520616e2061646d696e20746f207265766f6b6552657761726473546f6b656e3a206275726e20616d6f756e74206578636565647320616c6c6f77616e636545524332303a207472616e7366657220616d6f756e74206578636565647320616c6c6f77616e636552657761726473546f6b656e3a206d7573742068617665206d696e74657220726f6c6520746f206d696e7445524332303a206275726e2066726f6d20746865207a65726f206164647265737345524332303a207472616e736665722066726f6d20746865207a65726f206164647265737345524332303a20617070726f76652066726f6d20746865207a65726f206164647265737345524332303a2064656372656173656420616c6c6f77616e63652062656c6f77207a65726f416363657373436f6e74726f6c3a2063616e206f6e6c792072656e6f756e636520726f6c657320666f722073656c66a264697066735822122080fef3980751987d8c82453ed800b18073ce3b717c9a5d4b2730c5f90c11cb8464736f6c63430007060033",
  "immutableReferences": {},
  "source": "// SPDX-License-Identifier: MIT\npragma solidity >=0.6.0 <0.8.0;\n\nimport \"@openzeppelin/contracts/access/AccessControl.sol\";\nimport \"@openzeppelin/contracts/token/ERC20/ERC20.sol\";\nimport \"@openzeppelin/contracts/math/SafeMath.sol\";\n\nimport \"./interfaces/IRewardsToken.sol\";\n\ncontract RewardsToken is IRewardsToken, ERC20, AccessControl {\n    using SafeMath for uint256;\n\n    bytes32 private constant MINTER_ROLE = keccak256(\"MINTER_ROLE\");\n\n    constructor() ERC20(\"Santiment Rewards Token\", \"SRT\") {\n        _setupRole(DEFAULT_ADMIN_ROLE, _msgSender());\n\n        _setupRole(MINTER_ROLE, _msgSender());\n    }\n\n    function mint(address to, uint256 amount) external override {\n        require(\n            hasRole(MINTER_ROLE, _msgSender()),\n            \"RewardsToken: must have minter role to mint\"\n        );\n        _mint(to, amount);\n    }\n\n    function burn(uint256 amount) external override {\n        _burn(_msgSender(), amount);\n    }\n\n    function burnFrom(address account, uint256 amount) external override {\n        uint256 decreasedAllowance =\n            allowance(account, _msgSender()).sub(\n                amount,\n                \"RewardsToken: burn amount exceeds allowance\"\n            );\n\n        _approve(account, _msgSender(), decreasedAllowance);\n        _burn(account, amount);\n    }\n\n    function minterRole() external pure override returns (bytes32) {\n        return MINTER_ROLE;\n    }\n}\n",
  "sourcePath": "/home/nailkhaf/Projects/san-games/contracts/RewardsToken.sol",
  "compiler": {
    "name": "solc",
    "version": "0.7.6+commit.7338295f.Emscripten.clang"
  },
  "schemaVersion": "3.3.3",
  "updatedAt": "2021-02-16T10:30:05.188Z",
  "devdoc": {
    "kind": "dev",
    "methods": {
      "allowance(address,address)": {
        "details": "See {IERC20-allowance}."
      },
      "approve(address,uint256)": {
        "details": "See {IERC20-approve}. Requirements: - `spender` cannot be the zero address."
      },
      "balanceOf(address)": {
        "details": "See {IERC20-balanceOf}."
      },
      "burn(uint256)": {
        "details": "Destroys `amount` tokens from the caller's balance."
      },
      "burnFrom(address,uint256)": {
        "details": "Destroys `amount` tokens from `account`, deducting from the caller's allowance. - the caller must have allowance for ``account``'s tokens of at least `amount`."
      },
      "decimals()": {
        "details": "Returns the number of decimals used to get its user representation. For example, if `decimals` equals `2`, a balance of `505` tokens should be displayed to a user as `5,05` (`505 / 10 ** 2`). Tokens usually opt for a value of 18, imitating the relationship between Ether and Wei. This is the value {ERC20} uses, unless {_setupDecimals} is called. NOTE: This information is only used for _display_ purposes: it in no way affects any of the arithmetic of the contract, including {IERC20-balanceOf} and {IERC20-transfer}."
      },
      "decreaseAllowance(address,uint256)": {
        "details": "Atomically decreases the allowance granted to `spender` by the caller. This is an alternative to {approve} that can be used as a mitigation for problems described in {IERC20-approve}. Emits an {Approval} event indicating the updated allowance. Requirements: - `spender` cannot be the zero address. - `spender` must have allowance for the caller of at least `subtractedValue`."
      },
      "getRoleAdmin(bytes32)": {
        "details": "Returns the admin role that controls `role`. See {grantRole} and {revokeRole}. To change a role's admin, use {_setRoleAdmin}."
      },
      "getRoleMember(bytes32,uint256)": {
        "details": "Returns one of the accounts that have `role`. `index` must be a value between 0 and {getRoleMemberCount}, non-inclusive. Role bearers are not sorted in any particular way, and their ordering may change at any point. WARNING: When using {getRoleMember} and {getRoleMemberCount}, make sure you perform all queries on the same block. See the following https://forum.openzeppelin.com/t/iterating-over-elements-on-enumerableset-in-openzeppelin-contracts/2296[forum post] for more information."
      },
      "getRoleMemberCount(bytes32)": {
        "details": "Returns the number of accounts that have `role`. Can be used together with {getRoleMember} to enumerate all bearers of a role."
      },
      "grantRole(bytes32,address)": {
        "details": "Grants `role` to `account`. If `account` had not been already granted `role`, emits a {RoleGranted} event. Requirements: - the caller must have ``role``'s admin role."
      },
      "hasRole(bytes32,address)": {
        "details": "Returns `true` if `account` has been granted `role`."
      },
      "increaseAllowance(address,uint256)": {
        "details": "Atomically increases the allowance granted to `spender` by the caller. This is an alternative to {approve} that can be used as a mitigation for problems described in {IERC20-approve}. Emits an {Approval} event indicating the updated allowance. Requirements: - `spender` cannot be the zero address."
      },
      "mint(address,uint256)": {
        "details": "Creates `amount` new tokens for `to`. - the caller must have the `MINTER_ROLE`."
      },
      "minterRole()": {
        "details": "Return minter role unique id. Used for managing minter role at contract {AccessControl}"
      },
      "name()": {
        "details": "Returns the name of the token."
      },
      "renounceRole(bytes32,address)": {
        "details": "Revokes `role` from the calling account. Roles are often managed via {grantRole} and {revokeRole}: this function's purpose is to provide a mechanism for accounts to lose their privileges if they are compromised (such as when a trusted device is misplaced). If the calling account had been granted `role`, emits a {RoleRevoked} event. Requirements: - the caller must be `account`."
      },
      "revokeRole(bytes32,address)": {
        "details": "Revokes `role` from `account`. If `account` had been granted `role`, emits a {RoleRevoked} event. Requirements: - the caller must have ``role``'s admin role."
      },
      "symbol()": {
        "details": "Returns the symbol of the token, usually a shorter version of the name."
      },
      "totalSupply()": {
        "details": "See {IERC20-totalSupply}."
      },
      "transfer(address,uint256)": {
        "details": "See {IERC20-transfer}. Requirements: - `recipient` cannot be the zero address. - the caller must have a balance of at least `amount`."
      },
      "transferFrom(address,address,uint256)": {
        "details": "See {IERC20-transferFrom}. Emits an {Approval} event indicating the updated allowance. This is not required by the EIP. See the note at the beginning of {ERC20}. Requirements: - `sender` and `recipient` cannot be the zero address. - `sender` must have a balance of at least `amount`. - the caller must have allowance for ``sender``'s tokens of at least `amount`."
      }
    },
    "version": 1
  },
  "userdoc": {
    "kind": "user",
    "methods": {},
    "version": 1
  }
}