{
  "contractName": "RewardsToken",
  "abi": [
    {
      "inputs": [],
      "stateMutability": "nonpayable",
      "type": "constructor"
    },
    {
      "anonymous": false,
      "inputs": [
        {
          "indexed": true,
          "internalType": "address",
          "name": "owner",
          "type": "address"
        },
        {
          "indexed": true,
          "internalType": "address",
          "name": "spender",
          "type": "address"
        },
        {
          "indexed": false,
          "internalType": "uint256",
          "name": "value",
          "type": "uint256"
        }
      ],
      "name": "Approval",
      "type": "event"
    },
    {
      "anonymous": false,
      "inputs": [
        {
          "indexed": false,
          "internalType": "address",
          "name": "account",
          "type": "address"
        }
      ],
      "name": "Paused",
      "type": "event"
    },
    {
      "anonymous": false,
      "inputs": [
        {
          "indexed": true,
          "internalType": "bytes32",
          "name": "role",
          "type": "bytes32"
        },
        {
          "indexed": true,
          "internalType": "bytes32",
          "name": "previousAdminRole",
          "type": "bytes32"
        },
        {
          "indexed": true,
          "internalType": "bytes32",
          "name": "newAdminRole",
          "type": "bytes32"
        }
      ],
      "name": "RoleAdminChanged",
      "type": "event"
    },
    {
      "anonymous": false,
      "inputs": [
        {
          "indexed": true,
          "internalType": "bytes32",
          "name": "role",
          "type": "bytes32"
        },
        {
          "indexed": true,
          "internalType": "address",
          "name": "account",
          "type": "address"
        },
        {
          "indexed": true,
          "internalType": "address",
          "name": "sender",
          "type": "address"
        }
      ],
      "name": "RoleGranted",
      "type": "event"
    },
    {
      "anonymous": false,
      "inputs": [
        {
          "indexed": true,
          "internalType": "bytes32",
          "name": "role",
          "type": "bytes32"
        },
        {
          "indexed": true,
          "internalType": "address",
          "name": "account",
          "type": "address"
        },
        {
          "indexed": true,
          "internalType": "address",
          "name": "sender",
          "type": "address"
        }
      ],
      "name": "RoleRevoked",
      "type": "event"
    },
    {
      "anonymous": false,
      "inputs": [
        {
          "indexed": true,
          "internalType": "address",
          "name": "from",
          "type": "address"
        },
        {
          "indexed": true,
          "internalType": "address",
          "name": "to",
          "type": "address"
        },
        {
          "indexed": false,
          "internalType": "uint256",
          "name": "value",
          "type": "uint256"
        }
      ],
      "name": "Transfer",
      "type": "event"
    },
    {
      "anonymous": false,
      "inputs": [
        {
          "indexed": false,
          "internalType": "address",
          "name": "account",
          "type": "address"
        }
      ],
      "name": "Unpaused",
      "type": "event"
    },
    {
      "inputs": [],
      "name": "DEFAULT_ADMIN_ROLE",
      "outputs": [
        {
          "internalType": "bytes32",
          "name": "",
          "type": "bytes32"
        }
      ],
      "stateMutability": "view",
      "type": "function"
    },
    {
      "inputs": [],
      "name": "DOMAIN_SEPARATOR",
      "outputs": [
        {
          "internalType": "bytes32",
          "name": "",
          "type": "bytes32"
        }
      ],
      "stateMutability": "view",
      "type": "function"
    },
    {
      "inputs": [
        {
          "internalType": "address",
          "name": "owner",
          "type": "address"
        },
        {
          "internalType": "address",
          "name": "spender",
          "type": "address"
        }
      ],
      "name": "allowance",
      "outputs": [
        {
          "internalType": "uint256",
          "name": "",
          "type": "uint256"
        }
      ],
      "stateMutability": "view",
      "type": "function"
    },
    {
      "inputs": [
        {
          "internalType": "address",
          "name": "spender",
          "type": "address"
        },
        {
          "internalType": "uint256",
          "name": "amount",
          "type": "uint256"
        }
      ],
      "name": "approve",
      "outputs": [
        {
          "internalType": "bool",
          "name": "",
          "type": "bool"
        }
      ],
      "stateMutability": "nonpayable",
      "type": "function"
    },
    {
      "inputs": [
        {
          "internalType": "address",
          "name": "account",
          "type": "address"
        }
      ],
      "name": "balanceOf",
      "outputs": [
        {
          "internalType": "uint256",
          "name": "",
          "type": "uint256"
        }
      ],
      "stateMutability": "view",
      "type": "function"
    },
    {
      "inputs": [],
      "name": "decimals",
      "outputs": [
        {
          "internalType": "uint8",
          "name": "",
          "type": "uint8"
        }
      ],
      "stateMutability": "view",
      "type": "function"
    },
    {
      "inputs": [
        {
          "internalType": "address",
          "name": "spender",
          "type": "address"
        },
        {
          "internalType": "uint256",
          "name": "subtractedValue",
          "type": "uint256"
        }
      ],
      "name": "decreaseAllowance",
      "outputs": [
        {
          "internalType": "bool",
          "name": "",
          "type": "bool"
        }
      ],
      "stateMutability": "nonpayable",
      "type": "function"
    },
    {
      "inputs": [
        {
          "internalType": "bytes32",
          "name": "role",
          "type": "bytes32"
        }
      ],
      "name": "getRoleAdmin",
      "outputs": [
        {
          "internalType": "bytes32",
          "name": "",
          "type": "bytes32"
        }
      ],
      "stateMutability": "view",
      "type": "function"
    },
    {
      "inputs": [
        {
          "internalType": "bytes32",
          "name": "role",
          "type": "bytes32"
        },
        {
          "internalType": "uint256",
          "name": "index",
          "type": "uint256"
        }
      ],
      "name": "getRoleMember",
      "outputs": [
        {
          "internalType": "address",
          "name": "",
          "type": "address"
        }
      ],
      "stateMutability": "view",
      "type": "function"
    },
    {
      "inputs": [
        {
          "internalType": "bytes32",
          "name": "role",
          "type": "bytes32"
        }
      ],
      "name": "getRoleMemberCount",
      "outputs": [
        {
          "internalType": "uint256",
          "name": "",
          "type": "uint256"
        }
      ],
      "stateMutability": "view",
      "type": "function"
    },
    {
      "inputs": [
        {
          "internalType": "bytes32",
          "name": "role",
          "type": "bytes32"
        },
        {
          "internalType": "address",
          "name": "account",
          "type": "address"
        }
      ],
      "name": "grantRole",
      "outputs": [],
      "stateMutability": "nonpayable",
      "type": "function"
    },
    {
      "inputs": [
        {
          "internalType": "bytes32",
          "name": "role",
          "type": "bytes32"
        },
        {
          "internalType": "address",
          "name": "account",
          "type": "address"
        }
      ],
      "name": "hasRole",
      "outputs": [
        {
          "internalType": "bool",
          "name": "",
          "type": "bool"
        }
      ],
      "stateMutability": "view",
      "type": "function"
    },
    {
      "inputs": [
        {
          "internalType": "address",
          "name": "spender",
          "type": "address"
        },
        {
          "internalType": "uint256",
          "name": "addedValue",
          "type": "uint256"
        }
      ],
      "name": "increaseAllowance",
      "outputs": [
        {
          "internalType": "bool",
          "name": "",
          "type": "bool"
        }
      ],
      "stateMutability": "nonpayable",
      "type": "function"
    },
    {
      "inputs": [],
      "name": "name",
      "outputs": [
        {
          "internalType": "string",
          "name": "",
          "type": "string"
        }
      ],
      "stateMutability": "view",
      "type": "function"
    },
    {
      "inputs": [
        {
          "internalType": "address",
          "name": "owner",
          "type": "address"
        }
      ],
      "name": "nonces",
      "outputs": [
        {
          "internalType": "uint256",
          "name": "",
          "type": "uint256"
        }
      ],
      "stateMutability": "view",
      "type": "function"
    },
    {
      "inputs": [],
      "name": "paused",
      "outputs": [
        {
          "internalType": "bool",
          "name": "",
          "type": "bool"
        }
      ],
      "stateMutability": "view",
      "type": "function"
    },
    {
      "inputs": [
        {
          "internalType": "address",
          "name": "owner",
          "type": "address"
        },
        {
          "internalType": "address",
          "name": "spender",
          "type": "address"
        },
        {
          "internalType": "uint256",
          "name": "value",
          "type": "uint256"
        },
        {
          "internalType": "uint256",
          "name": "deadline",
          "type": "uint256"
        },
        {
          "internalType": "uint8",
          "name": "v",
          "type": "uint8"
        },
        {
          "internalType": "bytes32",
          "name": "r",
          "type": "bytes32"
        },
        {
          "internalType": "bytes32",
          "name": "s",
          "type": "bytes32"
        }
      ],
      "name": "permit",
      "outputs": [],
      "stateMutability": "nonpayable",
      "type": "function"
    },
    {
      "inputs": [
        {
          "internalType": "bytes32",
          "name": "role",
          "type": "bytes32"
        },
        {
          "internalType": "address",
          "name": "account",
          "type": "address"
        }
      ],
      "name": "renounceRole",
      "outputs": [],
      "stateMutability": "nonpayable",
      "type": "function"
    },
    {
      "inputs": [
        {
          "internalType": "bytes32",
          "name": "role",
          "type": "bytes32"
        },
        {
          "internalType": "address",
          "name": "account",
          "type": "address"
        }
      ],
      "name": "revokeRole",
      "outputs": [],
      "stateMutability": "nonpayable",
      "type": "function"
    },
    {
      "inputs": [],
      "name": "symbol",
      "outputs": [
        {
          "internalType": "string",
          "name": "",
          "type": "string"
        }
      ],
      "stateMutability": "view",
      "type": "function"
    },
    {
      "inputs": [],
      "name": "totalSupply",
      "outputs": [
        {
          "internalType": "uint256",
          "name": "",
          "type": "uint256"
        }
      ],
      "stateMutability": "view",
      "type": "function"
    },
    {
      "inputs": [
        {
          "internalType": "address",
          "name": "recipient",
          "type": "address"
        },
        {
          "internalType": "uint256",
          "name": "amount",
          "type": "uint256"
        }
      ],
      "name": "transfer",
      "outputs": [
        {
          "internalType": "bool",
          "name": "",
          "type": "bool"
        }
      ],
      "stateMutability": "nonpayable",
      "type": "function"
    },
    {
      "inputs": [
        {
          "internalType": "address",
          "name": "sender",
          "type": "address"
        },
        {
          "internalType": "address",
          "name": "recipient",
          "type": "address"
        },
        {
          "internalType": "uint256",
          "name": "amount",
          "type": "uint256"
        }
      ],
      "name": "transferFrom",
      "outputs": [
        {
          "internalType": "bool",
          "name": "",
          "type": "bool"
        }
      ],
      "stateMutability": "nonpayable",
      "type": "function"
    },
    {
      "inputs": [
        {
          "internalType": "address",
          "name": "to",
          "type": "address"
        },
        {
          "internalType": "uint256",
          "name": "amount",
          "type": "uint256"
        }
      ],
      "name": "mint",
      "outputs": [],
      "stateMutability": "nonpayable",
      "type": "function"
    },
    {
      "inputs": [
        {
          "internalType": "uint256",
          "name": "amount",
          "type": "uint256"
        }
      ],
      "name": "burn",
      "outputs": [],
      "stateMutability": "nonpayable",
      "type": "function"
    },
    {
      "inputs": [
        {
          "internalType": "address",
          "name": "account",
          "type": "address"
        },
        {
          "internalType": "uint256",
          "name": "amount",
          "type": "uint256"
        }
      ],
      "name": "burnFrom",
      "outputs": [],
      "stateMutability": "nonpayable",
      "type": "function"
    },
    {
      "inputs": [],
      "name": "pause",
      "outputs": [],
      "stateMutability": "nonpayable",
      "type": "function"
    },
    {
      "inputs": [],
      "name": "unpause",
      "outputs": [],
      "stateMutability": "nonpayable",
      "type": "function"
    },
    {
      "inputs": [],
      "name": "minterRole",
      "outputs": [
        {
          "internalType": "bytes32",
          "name": "",
          "type": "bytes32"
        }
      ],
      "stateMutability": "pure",
      "type": "function"
    },
    {
      "inputs": [],
      "name": "pauserRole",
      "outputs": [
        {
          "internalType": "bytes32",
          "name": "",
          "type": "bytes32"
        }
      ],
      "stateMutability": "pure",
      "type": "function"
    },
    {
      "inputs": [],
      "name": "getChainId",
      "outputs": [
        {
          "internalType": "uint256",
          "name": "chainId",
          "type": "uint256"
        }
      ],
      "stateMutability": "view",
      "type": "function"
    }
  ],
  "bytecode": "0x6101406040527f6e71edae12b1b97f4d1f60370fef10105fa2faae0126114a169c64845d6126c9610120523480156200003757600080fd5b506040518060400160405280601781526020017f53616e74696d656e74205265776172647320546f6b656e00000000000000000081525080604051806040016040528060018152602001603160f81b8152506040518060400160405280601781526020017f53616e74696d656e74205265776172647320546f6b656e0000000000000000008152506040518060400160405280600381526020016214d49560ea1b8152508160039080519060200190620000f392919062000382565b5080516200010990600490602084019062000382565b50506005805460ff1916601217905550815160208084019190912082519183019190912060c082905260e08190527f8b73c3c69bb8fe3d512ecc4cf759cc79239f7b179b0ffacaa9a75d522b39400f6200016262000204565b60a0526200017281848462000208565b6080526101005250506007805460ff1916905550620001a09150600090506200019a6200026c565b62000270565b620001cf7f9f2df0fed2c77648de5860a4cc508cd0818c85b8b8a1ab4ceeef8d981c8956a66200019a6200026c565b620001fe7f65d7a28e3265b37a6474929f336521b332c1681b933f6cb9f3376673440d862a6200019a6200026c565b6200042e565b4690565b60008383836200021762000204565b3060405160200180868152602001858152602001848152602001838152602001826001600160a01b03168152602001955050505050506040516020818303038152906040528051906020012090509392505050565b3390565b6200027c828262000280565b5050565b6000828152600860209081526040909120620002a791839062000e91620002fb821b17901c565b156200027c57620002b76200026c565b6001600160a01b0316816001600160a01b0316837f2f8788117e7eff1d82e926ec794901d17c78024a50270940304540a733656f0d60405160405180910390a45050565b600062000312836001600160a01b0384166200031b565b90505b92915050565b60006200032983836200036a565b620003615750815460018181018455600084815260208082209093018490558454848252828601909352604090209190915562000315565b50600062000315565b60009081526001919091016020526040902054151590565b828054600181600116156101000203166002900490600052602060002090601f016020900481019282620003ba576000855562000405565b82601f10620003d557805160ff191683800117855562000405565b8280016001018555821562000405579182015b8281111562000405578251825591602001919060010190620003e8565b506200041392915062000417565b5090565b5b8082111562000413576000815560010162000418565b60805160a05160c05160e0516101005161012051611e5b6200047860003980610ca152508061124e52508061129052508061126f5250806111f55250806112255250611e5b6000f3fe608060405234801561001057600080fd5b50600436106101e55760003560e01c806370a082311161010f578063a457c2d7116100a2578063d505accf11610071578063d505accf14610599578063d547741f146105ea578063dd62ed3e14610616578063f084219e14610644576101e5565b8063a457c2d71461051c578063a9059cbb14610548578063aaf81bf314610574578063ca15c8731461057c576101e5565b80639010d07c116100de5780639010d07c146104a157806391d14854146104e057806395d89b411461050c578063a217fddf14610514576101e5565b806370a082311461042157806379cc6790146104475780637ecebe00146104735780638456cb5914610499576101e5565b80633408e470116101875780633f4ba83a116101565780633f4ba83a146103c857806340c10f19146103d057806342966c68146103fc5780635c975abb14610419576101e5565b80633408e470146103605780633644e5151461036857806336568abe14610370578063395093511461039c576101e5565b806323b872dd116101c357806323b872dd146102c1578063248a9ca3146102f75780632f2ff15d14610314578063313ce56714610342576101e5565b806306fdde03146101ea578063095ea7b31461026757806318160ddd146102a7575b600080fd5b6101f261064c565b6040805160208082528351818301528351919283929083019185019080838360005b8381101561022c578181015183820152602001610214565b50505050905090810190601f1680156102595780820380516001836020036101000a031916815260200191505b509250505060405180910390f35b6102936004803603604081101561027d57600080fd5b506001600160a01b0381351690602001356106e3565b604080519115158252519081900360200190f35b6102af610701565b60408051918252519081900360200190f35b610293600480360360608110156102d757600080fd5b506001600160a01b03813581169160208101359091169060400135610707565b6102af6004803603602081101561030d57600080fd5b503561078e565b6103406004803603604081101561032a57600080fd5b50803590602001356001600160a01b03166107a3565b005b61034a61080f565b6040805160ff9092168252519081900360200190f35b6102af610818565b6102af61081c565b6103406004803603604081101561038657600080fd5b50803590602001356001600160a01b031661082b565b610293600480360360408110156103b257600080fd5b506001600160a01b03813516906020013561088c565b6103406108da565b610340600480360360408110156103e657600080fd5b506001600160a01b03813516906020013561094b565b6103406004803603602081101561041257600080fd5b50356109bc565b6102936109d0565b6102af6004803603602081101561043757600080fd5b50356001600160a01b03166109d9565b6103406004803603604081101561045d57600080fd5b506001600160a01b0381351690602001356109f4565b6102af6004803603602081101561048957600080fd5b50356001600160a01b0316610a4e565b610340610a6f565b6104c4600480360360408110156104b757600080fd5b5080359060200135610ade565b604080516001600160a01b039092168252519081900360200190f35b610293600480360360408110156104f657600080fd5b50803590602001356001600160a01b0316610afd565b6101f2610b15565b6102af610b76565b6102936004803603604081101561053257600080fd5b506001600160a01b038135169060200135610b7b565b6102936004803603604081101561055e57600080fd5b506001600160a01b038135169060200135610be3565b6102af610bf7565b6102af6004803603602081101561059257600080fd5b5035610c1b565b610340600480360360e08110156105af57600080fd5b506001600160a01b03813581169160208101359091169060408101359060608101359060ff6080820135169060a08101359060c00135610c32565b6103406004803603604081101561060057600080fd5b50803590602001356001600160a01b0316610de9565b6102af6004803603604081101561062c57600080fd5b506001600160a01b0381358116916020013516610e42565b6102af610e6d565b60038054604080516020601f60026000196101006001881615020190951694909404938401819004810282018101909252828152606093909290918301828280156106d85780601f106106ad576101008083540402835291602001916106d8565b820191906000526020600020905b8154815290600101906020018083116106bb57829003601f168201915b505050505090505b90565b60006106f76106f0610ea6565b8484610eaa565b5060015b92915050565b60025490565b6000610714848484610f96565b61078484610720610ea6565b61077f85604051806060016040528060288152602001611ceb602891396001600160a01b038a1660009081526001602052604081209061075e610ea6565b6001600160a01b0316815260208101919091526040016000205491906110f1565b610eaa565b5060019392505050565b60009081526008602052604090206002015490565b6000828152600860205260409020600201546107c6906107c1610ea6565b610afd565b6108015760405162461bcd60e51b815260040180806020018281038252602f815260200180611b90602f913960400191505060405180910390fd5b61080b8282611188565b5050565b60055460ff1690565b4690565b60006108266111f1565b905090565b610833610ea6565b6001600160a01b0316816001600160a01b0316146108825760405162461bcd60e51b815260040180806020018281038252602f815260200180611dcd602f913960400191505060405180910390fd5b61080b82826112bb565b60006106f7610899610ea6565b8461077f85600160006108aa610ea6565b6001600160a01b03908116825260208083019390935260409182016000908120918c168152925290205490611324565b6109067f65d7a28e3265b37a6474929f336521b332c1681b933f6cb9f3376673440d862a6107c1610ea6565b6109415760405162461bcd60e51b8152600401808060200182810382526023815260200180611c036023913960400191505060405180910390fd5b61094961137e565b565b6109777f9f2df0fed2c77648de5860a4cc508cd0818c85b8b8a1ab4ceeef8d981c8956a66107c1610ea6565b6109b25760405162461bcd60e51b815260040180806020018281038252602b815260200180611d13602b913960400191505060405180910390fd5b61080b828261141e565b6109cd6109c7610ea6565b8261150e565b50565b60075460ff1690565b6001600160a01b031660009081526020819052604090205490565b6000610a2b826040518060600160405280602b8152602001611c9e602b9139610a2486610a1f610ea6565b610e42565b91906110f1565b9050610a3f83610a39610ea6565b83610eaa565b610a49838361150e565b505050565b6001600160a01b03811660009081526006602052604081206106fb9061160a565b610a9b7f65d7a28e3265b37a6474929f336521b332c1681b933f6cb9f3376673440d862a6107c1610ea6565b610ad65760405162461bcd60e51b8152600401808060200182810382526023815260200180611c036023913960400191505060405180910390fd5b61094961160e565b6000828152600860205260408120610af69083611691565b9392505050565b6000828152600860205260408120610af6908361169d565b60048054604080516020601f60026000196101006001881615020190951694909404938401819004810282018101909252828152606093909290918301828280156106d85780601f106106ad576101008083540402835291602001916106d8565b600081565b60006106f7610b88610ea6565b8461077f85604051806060016040528060258152602001611da86025913960016000610bb2610ea6565b6001600160a01b03908116825260208083019390935260409182016000908120918d168152925290205491906110f1565b60006106f7610bf0610ea6565b8484610f96565b7f65d7a28e3265b37a6474929f336521b332c1681b933f6cb9f3376673440d862a90565b60008181526008602052604081206106fb906116b2565b83421115610c87576040805162461bcd60e51b815260206004820152601d60248201527f45524332305065726d69743a206578706972656420646561646c696e65000000604482015290519081900360640190fd5b6001600160a01b03871660009081526006602052604081207f000000000000000000000000000000000000000000000000000000000000000090899089908990610cd09061160a565b8960405160200180878152602001866001600160a01b03168152602001856001600160a01b0316815260200184815260200183815260200182815260200196505050505050506040516020818303038152906040528051906020012090506000610d39826116bd565b90506000610d4982878787611709565b9050896001600160a01b0316816001600160a01b031614610db1576040805162461bcd60e51b815260206004820152601e60248201527f45524332305065726d69743a20696e76616c6964207369676e61747572650000604482015290519081900360640190fd5b6001600160a01b038a166000908152600660205260409020610dd290611887565b610ddd8a8a8a610eaa565b50505050505050505050565b600082815260086020526040902060020154610e07906107c1610ea6565b6108825760405162461bcd60e51b8152600401808060200182810382526030815260200180611c6e6030913960400191505060405180910390fd5b6001600160a01b03918216600090815260016020908152604080832093909416825291909152205490565b7f9f2df0fed2c77648de5860a4cc508cd0818c85b8b8a1ab4ceeef8d981c8956a690565b6000610af6836001600160a01b038416611890565b3390565b6001600160a01b038316610eef5760405162461bcd60e51b8152600401808060200182810382526024815260200180611d846024913960400191505060405180910390fd5b6001600160a01b038216610f345760405162461bcd60e51b8152600401808060200182810382526022815260200180611be16022913960400191505060405180910390fd5b6001600160a01b03808416600081815260016020908152604080832094871680845294825291829020859055815185815291517f8c5be1e5ebec7d5bd14f71427d1e84f3dd0314c0f7b2291e5b200ac8c7c3b9259281900390910190a3505050565b6001600160a01b038316610fdb5760405162461bcd60e51b8152600401808060200182810382526025815260200180611d5f6025913960400191505060405180910390fd5b6001600160a01b0382166110205760405162461bcd60e51b8152600401808060200182810382526023815260200180611b6d6023913960400191505060405180910390fd5b61102b8383836118da565b61106881604051806060016040528060268152602001611c26602691396001600160a01b03861660009081526020819052604090205491906110f1565b6001600160a01b0380851660009081526020819052604080822093909355908416815220546110979082611324565b6001600160a01b038084166000818152602081815260409182902094909455805185815290519193928716927fddf252ad1be2c89b69c2b068fc378daa952ba7f163c4a11628f55a4df523b3ef92918290030190a3505050565b600081848411156111805760405162461bcd60e51b81526004018080602001828103825283818151815260200191508051906020019080838360005b8381101561114557818101518382015260200161112d565b50505050905090810190601f1680156111725780820380516001836020036101000a031916815260200191505b509250505060405180910390fd5b505050900390565b60008281526008602052604090206111a09082610e91565b1561080b576111ad610ea6565b6001600160a01b0316816001600160a01b0316837f2f8788117e7eff1d82e926ec794901d17c78024a50270940304540a733656f0d60405160405180910390a45050565b60007f000000000000000000000000000000000000000000000000000000000000000061121c610818565b141561124957507f00000000000000000000000000000000000000000000000000000000000000006106e0565b6112b47f00000000000000000000000000000000000000000000000000000000000000007f00000000000000000000000000000000000000000000000000000000000000007f00000000000000000000000000000000000000000000000000000000000000006118e5565b90506106e0565b60008281526008602052604090206112d39082611947565b1561080b576112e0610ea6565b6001600160a01b0316816001600160a01b0316837ff6391f5c32d9c69d2a47ea670b442974b53935d1edc7fd64eb21e047a839171b60405160405180910390a45050565b600082820183811015610af6576040805162461bcd60e51b815260206004820152601b60248201527f536166654d6174683a206164646974696f6e206f766572666c6f770000000000604482015290519081900360640190fd5b6113866109d0565b6113ce576040805162461bcd60e51b815260206004820152601460248201527314185d5cd8589b194e881b9bdd081c185d5cd95960621b604482015290519081900360640190fd5b6007805460ff191690557f5db9ee0a495bf2e6ff9c91a7834c1ba4fdd244a5e8aa4e537bd38aeae4b073aa611401610ea6565b604080516001600160a01b039092168252519081900360200190a1565b6001600160a01b038216611479576040805162461bcd60e51b815260206004820152601f60248201527f45524332303a206d696e7420746f20746865207a65726f206164647265737300604482015290519081900360640190fd5b611485600083836118da565b6002546114929082611324565b6002556001600160a01b0382166000908152602081905260409020546114b89082611324565b6001600160a01b0383166000818152602081815260408083209490945583518581529351929391927fddf252ad1be2c89b69c2b068fc378daa952ba7f163c4a11628f55a4df523b3ef9281900390910190a35050565b6001600160a01b0382166115535760405162461bcd60e51b8152600401808060200182810382526021815260200180611d3e6021913960400191505060405180910390fd5b61155f826000836118da565b61159c81604051806060016040528060228152602001611bbf602291396001600160a01b03851660009081526020819052604090205491906110f1565b6001600160a01b0383166000908152602081905260409020556002546115c2908261195c565b6002556040805182815290516000916001600160a01b038516917fddf252ad1be2c89b69c2b068fc378daa952ba7f163c4a11628f55a4df523b3ef9181900360200190a35050565b5490565b6116166109d0565b1561165b576040805162461bcd60e51b815260206004820152601060248201526f14185d5cd8589b194e881c185d5cd95960821b604482015290519081900360640190fd5b6007805460ff191660011790557f62e78cea01bee320cd4e420270b5ea74000d11b0c9f74754ebdbfc544b05a258611401610ea6565b6000610af683836119b9565b6000610af6836001600160a01b038416611a1d565b60006106fb8261160a565b60006116c76111f1565b82604051602001808061190160f01b81525060020183815260200182815260200192505050604051602081830303815290604052805190602001209050919050565b60007f7fffffffffffffffffffffffffffffff5d576e7357a4501ddfe92f46681b20a082111561176a5760405162461bcd60e51b8152600401808060200182810382526022815260200180611c4c6022913960400191505060405180910390fd5b8360ff16601b148061177f57508360ff16601c145b6117ba5760405162461bcd60e51b8152600401808060200182810382526022815260200180611cc96022913960400191505060405180910390fd5b600060018686868660405160008152602001604052604051808581526020018460ff1681526020018381526020018281526020019450505050506020604051602081039080840390855afa158015611816573d6000803e3d6000fd5b5050604051601f1901519150506001600160a01b03811661187e576040805162461bcd60e51b815260206004820152601860248201527f45434453413a20696e76616c6964207369676e61747572650000000000000000604482015290519081900360640190fd5b95945050505050565b80546001019055565b600061189c8383611a1d565b6118d2575081546001818101845560008481526020808220909301849055845484825282860190935260409020919091556106fb565b5060006106fb565b610a49838383611a35565b60008383836118f2610818565b3060405160200180868152602001858152602001848152602001838152602001826001600160a01b03168152602001955050505050506040516020818303038152906040528051906020012090509392505050565b6000610af6836001600160a01b038416611a84565b6000828211156119b3576040805162461bcd60e51b815260206004820152601e60248201527f536166654d6174683a207375627472616374696f6e206f766572666c6f770000604482015290519081900360640190fd5b50900390565b815460009082106119fb5760405162461bcd60e51b8152600401808060200182810382526022815260200180611b4b6022913960400191505060405180910390fd5b826000018281548110611a0a57fe5b9060005260206000200154905092915050565b60009081526001919091016020526040902054151590565b611a40838383610a49565b611a486109d0565b15610a495760405162461bcd60e51b815260040180806020018281038252602a815260200180611dfc602a913960400191505060405180910390fd5b60008181526001830160205260408120548015611b405783546000198083019190810190600090879083908110611ab757fe5b9060005260206000200154905080876000018481548110611ad457fe5b600091825260208083209091019290925582815260018981019092526040902090840190558654879080611b0457fe5b600190038181906000526020600020016000905590558660010160008781526020019081526020016000206000905560019450505050506106fb565b60009150506106fb56fe456e756d657261626c655365743a20696e646578206f7574206f6620626f756e647345524332303a207472616e7366657220746f20746865207a65726f2061646472657373416363657373436f6e74726f6c3a2073656e646572206d75737420626520616e2061646d696e20746f206772616e7445524332303a206275726e20616d6f756e7420657863656564732062616c616e636545524332303a20617070726f766520746f20746865207a65726f206164647265737352657761726473546f6b656e3a206d75737420686176652070617573657220726f6c6545524332303a207472616e7366657220616d6f756e7420657863656564732062616c616e636545434453413a20696e76616c6964207369676e6174757265202773272076616c7565416363657373436f6e74726f6c3a2073656e646572206d75737420626520616e2061646d696e20746f207265766f6b6552657761726473546f6b656e3a206275726e20616d6f756e74206578636565647320616c6c6f77616e636545434453413a20696e76616c6964207369676e6174757265202776272076616c756545524332303a207472616e7366657220616d6f756e74206578636565647320616c6c6f77616e636552657761726473546f6b656e3a206d7573742068617665206d696e74657220726f6c6520746f206d696e7445524332303a206275726e2066726f6d20746865207a65726f206164647265737345524332303a207472616e736665722066726f6d20746865207a65726f206164647265737345524332303a20617070726f76652066726f6d20746865207a65726f206164647265737345524332303a2064656372656173656420616c6c6f77616e63652062656c6f77207a65726f416363657373436f6e74726f6c3a2063616e206f6e6c792072656e6f756e636520726f6c657320666f722073656c6645524332305061757361626c653a20746f6b656e207472616e73666572207768696c6520706175736564a26469706673582212205d3a83763901064cdd73ad3d7489a17fc1025ead7c547f33bae4e7a945e4f85d64736f6c63430007060033",
  "immutableReferences": {
    "668": [
      {
        "length": 32,
        "start": 4645
      }
    ],
    "670": [
      {
        "length": 32,
        "start": 4597
      }
    ],
    "672": [
      {
        "length": 32,
        "start": 4719
      }
    ],
    "674": [
      {
        "length": 32,
        "start": 4752
      }
    ],
    "676": [
      {
        "length": 32,
        "start": 4686
      }
    ],
    "838": [
      {
        "length": 32,
        "start": 3233
      }
    ]
  },
  "source": "// SPDX-License-Identifier: MIT\npragma solidity >=0.6.0 <0.8.0;\n\nimport \"@openzeppelin/contracts/access/AccessControl.sol\";\nimport \"@openzeppelin/contracts/token/ERC20/ERC20.sol\";\nimport \"@openzeppelin/contracts/token/ERC20/ERC20Pausable.sol\";\nimport \"@openzeppelin/contracts/drafts/ERC20Permit.sol\";\nimport \"@openzeppelin/contracts/math/SafeMath.sol\";\n\nimport \"./interfaces/IRewardsToken.sol\";\n\ncontract RewardsToken is IRewardsToken, ERC20Permit, ERC20Pausable, AccessControl {\n    using SafeMath for uint256;\n\n    bytes32 private constant MINTER_ROLE = keccak256(\"MINTER_ROLE\");\n    bytes32 private constant PAUSER_ROLE = keccak256(\"PAUSER_ROLE\");\n\n    string private constant ERC20_NAME = \"Santiment Rewards Token\";\n    string private constant ERC20_SYMBOL = \"SRT\";\n\n    constructor() ERC20(ERC20_NAME, ERC20_SYMBOL) ERC20Permit(ERC20_NAME) {\n        _setupRole(DEFAULT_ADMIN_ROLE, _msgSender());\n\n        _setupRole(MINTER_ROLE, _msgSender());\n        _setupRole(PAUSER_ROLE, _msgSender());\n    }\n\n    function mint(address to, uint256 amount) external override {\n        require(\n            hasRole(MINTER_ROLE, _msgSender()),\n            \"RewardsToken: must have minter role to mint\"\n        );\n        _mint(to, amount);\n    }\n\n    function burn(uint256 amount) external override {\n        _burn(_msgSender(), amount);\n    }\n\n    function burnFrom(address account, uint256 amount) external override {\n        uint256 decreasedAllowance =\n            allowance(account, _msgSender()).sub(\n                amount,\n                \"RewardsToken: burn amount exceeds allowance\"\n            );\n\n        _approve(account, _msgSender(), decreasedAllowance);\n        _burn(account, amount);\n    }\n\n    function pause() external override {\n        require(\n            hasRole(PAUSER_ROLE, _msgSender()),\n            \"RewardsToken: must have pauser role\"\n        );\n        _pause();\n    }\n\n    function unpause() external override {\n        require(\n            hasRole(PAUSER_ROLE, _msgSender()),\n            \"RewardsToken: must have pauser role\"\n        );\n        _unpause();\n    }\n\n    function _beforeTokenTransfer(address from, address to, uint256 amount) internal override (ERC20Pausable, ERC20) {\n        ERC20Pausable._beforeTokenTransfer(from, to, amount);\n    }\n\n    function minterRole() external pure override returns (bytes32) {\n        return MINTER_ROLE;\n    }\n\n    function pauserRole() external pure override returns (bytes32) {\n        return PAUSER_ROLE;\n    }\n\n    function getChainId() external view returns (uint256 chainId) {\n        this; // silence state mutability warning without generating bytecode - see https://github.com/ethereum/solidity/issues/2691\n        // solhint-disable-next-line no-inline-assembly\n        assembly {\n            chainId := chainid()\n        }\n    }\n}\n",
  "sourcePath": "/home/nailkhaf/Projects/san-games/contracts/RewardsToken.sol",
  "compiler": {
    "name": "solc",
    "version": "0.7.6+commit.7338295f.Emscripten.clang"
  },
  "schemaVersion": "3.3.3",
  "updatedAt": "2021-02-16T12:49:41.620Z",
  "devdoc": {
    "kind": "dev",
    "methods": {
      "DOMAIN_SEPARATOR()": {
        "details": "See {IERC20Permit-DOMAIN_SEPARATOR}."
      },
      "allowance(address,address)": {
        "details": "See {IERC20-allowance}."
      },
      "approve(address,uint256)": {
        "details": "See {IERC20-approve}. Requirements: - `spender` cannot be the zero address."
      },
      "balanceOf(address)": {
        "details": "See {IERC20-balanceOf}."
      },
      "burn(uint256)": {
        "details": "Destroys `amount` tokens from the caller's balance."
      },
      "burnFrom(address,uint256)": {
        "details": "Destroys `amount` tokens from `account`, deducting from the caller's allowance. - the caller must have allowance for ``account``'s tokens of at least `amount`."
      },
      "decimals()": {
        "details": "Returns the number of decimals used to get its user representation. For example, if `decimals` equals `2`, a balance of `505` tokens should be displayed to a user as `5,05` (`505 / 10 ** 2`). Tokens usually opt for a value of 18, imitating the relationship between Ether and Wei. This is the value {ERC20} uses, unless {_setupDecimals} is called. NOTE: This information is only used for _display_ purposes: it in no way affects any of the arithmetic of the contract, including {IERC20-balanceOf} and {IERC20-transfer}."
      },
      "decreaseAllowance(address,uint256)": {
        "details": "Atomically decreases the allowance granted to `spender` by the caller. This is an alternative to {approve} that can be used as a mitigation for problems described in {IERC20-approve}. Emits an {Approval} event indicating the updated allowance. Requirements: - `spender` cannot be the zero address. - `spender` must have allowance for the caller of at least `subtractedValue`."
      },
      "getRoleAdmin(bytes32)": {
        "details": "Returns the admin role that controls `role`. See {grantRole} and {revokeRole}. To change a role's admin, use {_setRoleAdmin}."
      },
      "getRoleMember(bytes32,uint256)": {
        "details": "Returns one of the accounts that have `role`. `index` must be a value between 0 and {getRoleMemberCount}, non-inclusive. Role bearers are not sorted in any particular way, and their ordering may change at any point. WARNING: When using {getRoleMember} and {getRoleMemberCount}, make sure you perform all queries on the same block. See the following https://forum.openzeppelin.com/t/iterating-over-elements-on-enumerableset-in-openzeppelin-contracts/2296[forum post] for more information."
      },
      "getRoleMemberCount(bytes32)": {
        "details": "Returns the number of accounts that have `role`. Can be used together with {getRoleMember} to enumerate all bearers of a role."
      },
      "grantRole(bytes32,address)": {
        "details": "Grants `role` to `account`. If `account` had not been already granted `role`, emits a {RoleGranted} event. Requirements: - the caller must have ``role``'s admin role."
      },
      "hasRole(bytes32,address)": {
        "details": "Returns `true` if `account` has been granted `role`."
      },
      "increaseAllowance(address,uint256)": {
        "details": "Atomically increases the allowance granted to `spender` by the caller. This is an alternative to {approve} that can be used as a mitigation for problems described in {IERC20-approve}. Emits an {Approval} event indicating the updated allowance. Requirements: - `spender` cannot be the zero address."
      },
      "mint(address,uint256)": {
        "details": "Creates `amount` new tokens for `to`. - the caller must have the `MINTER_ROLE`."
      },
      "minterRole()": {
        "details": "Return minter role unique id. Used for managing minter role at contract {AccessControl}"
      },
      "name()": {
        "details": "Returns the name of the token."
      },
      "nonces(address)": {
        "details": "See {IERC20Permit-nonces}."
      },
      "pause()": {
        "details": "Pause transferring, minting, burning tokens. - the caller must have the `PAUSER_ROLE`."
      },
      "paused()": {
        "details": "Returns true if the contract is paused, and false otherwise."
      },
      "pauserRole()": {
        "details": "Return pauser role unique id. Used for managing pauser role at contract {AccessControl}"
      },
      "permit(address,address,uint256,uint256,uint8,bytes32,bytes32)": {
        "details": "See {IERC20Permit-permit}."
      },
      "renounceRole(bytes32,address)": {
        "details": "Revokes `role` from the calling account. Roles are often managed via {grantRole} and {revokeRole}: this function's purpose is to provide a mechanism for accounts to lose their privileges if they are compromised (such as when a trusted device is misplaced). If the calling account had been granted `role`, emits a {RoleRevoked} event. Requirements: - the caller must be `account`."
      },
      "revokeRole(bytes32,address)": {
        "details": "Revokes `role` from `account`. If `account` had been granted `role`, emits a {RoleRevoked} event. Requirements: - the caller must have ``role``'s admin role."
      },
      "symbol()": {
        "details": "Returns the symbol of the token, usually a shorter version of the name."
      },
      "totalSupply()": {
        "details": "See {IERC20-totalSupply}."
      },
      "transfer(address,uint256)": {
        "details": "See {IERC20-transfer}. Requirements: - `recipient` cannot be the zero address. - the caller must have a balance of at least `amount`."
      },
      "transferFrom(address,address,uint256)": {
        "details": "See {IERC20-transferFrom}. Emits an {Approval} event indicating the updated allowance. This is not required by the EIP. See the note at the beginning of {ERC20}. Requirements: - `sender` and `recipient` cannot be the zero address. - `sender` must have a balance of at least `amount`. - the caller must have allowance for ``sender``'s tokens of at least `amount`."
      },
      "unpause()": {
        "details": "Resume transferring, minting, burning tokens. - the caller must have the `PAUSER_ROLE`."
      }
    },
    "version": 1
  },
  "userdoc": {
    "kind": "user",
    "methods": {},
    "version": 1
  }
}