{
  "contractName": "SanNFT",
  "abi": [
    {
      "inputs": [],
      "stateMutability": "nonpayable",
      "type": "constructor"
    },
    {
      "anonymous": false,
      "inputs": [
        {
          "indexed": true,
          "internalType": "address",
          "name": "owner",
          "type": "address"
        },
        {
          "indexed": true,
          "internalType": "address",
          "name": "approved",
          "type": "address"
        },
        {
          "indexed": true,
          "internalType": "uint256",
          "name": "tokenId",
          "type": "uint256"
        }
      ],
      "name": "Approval",
      "type": "event"
    },
    {
      "anonymous": false,
      "inputs": [
        {
          "indexed": true,
          "internalType": "address",
          "name": "owner",
          "type": "address"
        },
        {
          "indexed": true,
          "internalType": "address",
          "name": "operator",
          "type": "address"
        },
        {
          "indexed": false,
          "internalType": "bool",
          "name": "approved",
          "type": "bool"
        }
      ],
      "name": "ApprovalForAll",
      "type": "event"
    },
    {
      "anonymous": false,
      "inputs": [
        {
          "indexed": true,
          "internalType": "bytes32",
          "name": "role",
          "type": "bytes32"
        },
        {
          "indexed": true,
          "internalType": "bytes32",
          "name": "previousAdminRole",
          "type": "bytes32"
        },
        {
          "indexed": true,
          "internalType": "bytes32",
          "name": "newAdminRole",
          "type": "bytes32"
        }
      ],
      "name": "RoleAdminChanged",
      "type": "event"
    },
    {
      "anonymous": false,
      "inputs": [
        {
          "indexed": true,
          "internalType": "bytes32",
          "name": "role",
          "type": "bytes32"
        },
        {
          "indexed": true,
          "internalType": "address",
          "name": "account",
          "type": "address"
        },
        {
          "indexed": true,
          "internalType": "address",
          "name": "sender",
          "type": "address"
        }
      ],
      "name": "RoleGranted",
      "type": "event"
    },
    {
      "anonymous": false,
      "inputs": [
        {
          "indexed": true,
          "internalType": "bytes32",
          "name": "role",
          "type": "bytes32"
        },
        {
          "indexed": true,
          "internalType": "address",
          "name": "account",
          "type": "address"
        },
        {
          "indexed": true,
          "internalType": "address",
          "name": "sender",
          "type": "address"
        }
      ],
      "name": "RoleRevoked",
      "type": "event"
    },
    {
      "anonymous": false,
      "inputs": [
        {
          "indexed": true,
          "internalType": "address",
          "name": "from",
          "type": "address"
        },
        {
          "indexed": true,
          "internalType": "address",
          "name": "to",
          "type": "address"
        },
        {
          "indexed": true,
          "internalType": "uint256",
          "name": "tokenId",
          "type": "uint256"
        }
      ],
      "name": "Transfer",
      "type": "event"
    },
    {
      "inputs": [],
      "name": "DEFAULT_ADMIN_ROLE",
      "outputs": [
        {
          "internalType": "bytes32",
          "name": "",
          "type": "bytes32"
        }
      ],
      "stateMutability": "view",
      "type": "function"
    },
    {
      "inputs": [],
      "name": "MINTER_ROLE",
      "outputs": [
        {
          "internalType": "bytes32",
          "name": "",
          "type": "bytes32"
        }
      ],
      "stateMutability": "view",
      "type": "function"
    },
    {
      "inputs": [
        {
          "internalType": "address",
          "name": "to",
          "type": "address"
        },
        {
          "internalType": "uint256",
          "name": "tokenId",
          "type": "uint256"
        }
      ],
      "name": "approve",
      "outputs": [],
      "stateMutability": "nonpayable",
      "type": "function"
    },
    {
      "inputs": [
        {
          "internalType": "address",
          "name": "owner",
          "type": "address"
        }
      ],
      "name": "balanceOf",
      "outputs": [
        {
          "internalType": "uint256",
          "name": "",
          "type": "uint256"
        }
      ],
      "stateMutability": "view",
      "type": "function"
    },
    {
      "inputs": [],
      "name": "baseURI",
      "outputs": [
        {
          "internalType": "string",
          "name": "",
          "type": "string"
        }
      ],
      "stateMutability": "view",
      "type": "function"
    },
    {
      "inputs": [
        {
          "internalType": "uint256",
          "name": "tokenId",
          "type": "uint256"
        }
      ],
      "name": "burn",
      "outputs": [],
      "stateMutability": "nonpayable",
      "type": "function"
    },
    {
      "inputs": [
        {
          "internalType": "uint256",
          "name": "tokenId",
          "type": "uint256"
        }
      ],
      "name": "getApproved",
      "outputs": [
        {
          "internalType": "address",
          "name": "",
          "type": "address"
        }
      ],
      "stateMutability": "view",
      "type": "function"
    },
    {
      "inputs": [
        {
          "internalType": "bytes32",
          "name": "role",
          "type": "bytes32"
        }
      ],
      "name": "getRoleAdmin",
      "outputs": [
        {
          "internalType": "bytes32",
          "name": "",
          "type": "bytes32"
        }
      ],
      "stateMutability": "view",
      "type": "function"
    },
    {
      "inputs": [
        {
          "internalType": "bytes32",
          "name": "role",
          "type": "bytes32"
        },
        {
          "internalType": "uint256",
          "name": "index",
          "type": "uint256"
        }
      ],
      "name": "getRoleMember",
      "outputs": [
        {
          "internalType": "address",
          "name": "",
          "type": "address"
        }
      ],
      "stateMutability": "view",
      "type": "function"
    },
    {
      "inputs": [
        {
          "internalType": "bytes32",
          "name": "role",
          "type": "bytes32"
        }
      ],
      "name": "getRoleMemberCount",
      "outputs": [
        {
          "internalType": "uint256",
          "name": "",
          "type": "uint256"
        }
      ],
      "stateMutability": "view",
      "type": "function"
    },
    {
      "inputs": [
        {
          "internalType": "bytes32",
          "name": "role",
          "type": "bytes32"
        },
        {
          "internalType": "address",
          "name": "account",
          "type": "address"
        }
      ],
      "name": "grantRole",
      "outputs": [],
      "stateMutability": "nonpayable",
      "type": "function"
    },
    {
      "inputs": [
        {
          "internalType": "bytes32",
          "name": "role",
          "type": "bytes32"
        },
        {
          "internalType": "address",
          "name": "account",
          "type": "address"
        }
      ],
      "name": "hasRole",
      "outputs": [
        {
          "internalType": "bool",
          "name": "",
          "type": "bool"
        }
      ],
      "stateMutability": "view",
      "type": "function"
    },
    {
      "inputs": [
        {
          "internalType": "address",
          "name": "owner",
          "type": "address"
        },
        {
          "internalType": "address",
          "name": "operator",
          "type": "address"
        }
      ],
      "name": "isApprovedForAll",
      "outputs": [
        {
          "internalType": "bool",
          "name": "",
          "type": "bool"
        }
      ],
      "stateMutability": "view",
      "type": "function"
    },
    {
      "inputs": [],
      "name": "name",
      "outputs": [
        {
          "internalType": "string",
          "name": "",
          "type": "string"
        }
      ],
      "stateMutability": "view",
      "type": "function"
    },
    {
      "inputs": [
        {
          "internalType": "uint256",
          "name": "tokenId",
          "type": "uint256"
        }
      ],
      "name": "ownerOf",
      "outputs": [
        {
          "internalType": "address",
          "name": "",
          "type": "address"
        }
      ],
      "stateMutability": "view",
      "type": "function"
    },
    {
      "inputs": [
        {
          "internalType": "bytes32",
          "name": "role",
          "type": "bytes32"
        },
        {
          "internalType": "address",
          "name": "account",
          "type": "address"
        }
      ],
      "name": "renounceRole",
      "outputs": [],
      "stateMutability": "nonpayable",
      "type": "function"
    },
    {
      "inputs": [
        {
          "internalType": "bytes32",
          "name": "role",
          "type": "bytes32"
        },
        {
          "internalType": "address",
          "name": "account",
          "type": "address"
        }
      ],
      "name": "revokeRole",
      "outputs": [],
      "stateMutability": "nonpayable",
      "type": "function"
    },
    {
      "inputs": [
        {
          "internalType": "address",
          "name": "from",
          "type": "address"
        },
        {
          "internalType": "address",
          "name": "to",
          "type": "address"
        },
        {
          "internalType": "uint256",
          "name": "tokenId",
          "type": "uint256"
        }
      ],
      "name": "safeTransferFrom",
      "outputs": [],
      "stateMutability": "nonpayable",
      "type": "function"
    },
    {
      "inputs": [
        {
          "internalType": "address",
          "name": "from",
          "type": "address"
        },
        {
          "internalType": "address",
          "name": "to",
          "type": "address"
        },
        {
          "internalType": "uint256",
          "name": "tokenId",
          "type": "uint256"
        },
        {
          "internalType": "bytes",
          "name": "_data",
          "type": "bytes"
        }
      ],
      "name": "safeTransferFrom",
      "outputs": [],
      "stateMutability": "nonpayable",
      "type": "function"
    },
    {
      "inputs": [
        {
          "internalType": "address",
          "name": "operator",
          "type": "address"
        },
        {
          "internalType": "bool",
          "name": "approved",
          "type": "bool"
        }
      ],
      "name": "setApprovalForAll",
      "outputs": [],
      "stateMutability": "nonpayable",
      "type": "function"
    },
    {
      "inputs": [
        {
          "internalType": "bytes4",
          "name": "interfaceId",
          "type": "bytes4"
        }
      ],
      "name": "supportsInterface",
      "outputs": [
        {
          "internalType": "bool",
          "name": "",
          "type": "bool"
        }
      ],
      "stateMutability": "view",
      "type": "function"
    },
    {
      "inputs": [],
      "name": "symbol",
      "outputs": [
        {
          "internalType": "string",
          "name": "",
          "type": "string"
        }
      ],
      "stateMutability": "view",
      "type": "function"
    },
    {
      "inputs": [
        {
          "internalType": "uint256",
          "name": "index",
          "type": "uint256"
        }
      ],
      "name": "tokenByIndex",
      "outputs": [
        {
          "internalType": "uint256",
          "name": "",
          "type": "uint256"
        }
      ],
      "stateMutability": "view",
      "type": "function"
    },
    {
      "inputs": [
        {
          "internalType": "address",
          "name": "owner",
          "type": "address"
        },
        {
          "internalType": "uint256",
          "name": "index",
          "type": "uint256"
        }
      ],
      "name": "tokenOfOwnerByIndex",
      "outputs": [
        {
          "internalType": "uint256",
          "name": "",
          "type": "uint256"
        }
      ],
      "stateMutability": "view",
      "type": "function"
    },
    {
      "inputs": [
        {
          "internalType": "uint256",
          "name": "tokenId",
          "type": "uint256"
        }
      ],
      "name": "tokenURI",
      "outputs": [
        {
          "internalType": "string",
          "name": "",
          "type": "string"
        }
      ],
      "stateMutability": "view",
      "type": "function"
    },
    {
      "inputs": [],
      "name": "totalSupply",
      "outputs": [
        {
          "internalType": "uint256",
          "name": "",
          "type": "uint256"
        }
      ],
      "stateMutability": "view",
      "type": "function"
    },
    {
      "inputs": [
        {
          "internalType": "address",
          "name": "from",
          "type": "address"
        },
        {
          "internalType": "address",
          "name": "to",
          "type": "address"
        },
        {
          "internalType": "uint256",
          "name": "tokenId",
          "type": "uint256"
        }
      ],
      "name": "transferFrom",
      "outputs": [],
      "stateMutability": "nonpayable",
      "type": "function"
    },
    {
      "inputs": [
        {
          "internalType": "address",
          "name": "to",
          "type": "address"
        }
      ],
      "name": "mint",
      "outputs": [],
      "stateMutability": "nonpayable",
      "type": "function"
    }
  ],
  "bytecode": "0x60806040523480156200001157600080fd5b50604080518082018252600d81526c14d85b9d1a5b595b9d08139195609a1b6020808301919091528251808401909352600483526314d3919560e21b9083015290620000646301ffc9a760e01b6200013f565b815162000079906007906020850190620002f0565b5080516200008f906008906020840190620002f0565b50620000a26380ac58cd60e01b6200013f565b620000b4635b5e139f60e01b6200013f565b620000c663780e9d6360e01b6200013f565b50620000df90506000620000d9620001c7565b620001cb565b6200010e7f9f2df0fed2c77648de5860a4cc508cd0818c85b8b8a1ab4ceeef8d981c8956a6620000d9620001c7565b604080518082019091526009815268626173652f7572692f60b81b60208201526200013990620001db565b6200039c565b6001600160e01b031980821614156200019f576040805162461bcd60e51b815260206004820152601c60248201527f4552433136353a20696e76616c696420696e7465726661636520696400000000604482015290519081900360640190fd5b6001600160e01b0319166000908152600160208190526040909120805460ff19169091179055565b3390565b620001d78282620001f0565b5050565b8051620001d790600a906020840190620002f0565b600082815260208181526040909120620002159183906200115662000269821b17901c565b15620001d75762000225620001c7565b6001600160a01b0316816001600160a01b0316837f2f8788117e7eff1d82e926ec794901d17c78024a50270940304540a733656f0d60405160405180910390a45050565b600062000280836001600160a01b03841662000289565b90505b92915050565b6000620002978383620002d8565b620002cf5750815460018181018455600084815260208082209093018490558454848252828601909352604090209190915562000283565b50600062000283565b60009081526001919091016020526040902054151590565b828054600181600116156101000203166002900490600052602060002090601f01602090048101928262000328576000855562000373565b82601f106200034357805160ff191683800117855562000373565b8280016001018555821562000373579182015b828111156200037357825182559160200191906001019062000356565b506200038192915062000385565b5090565b5b8082111562000381576000815560010162000386565b61234380620003ac6000396000f3fe608060405234801561001057600080fd5b50600436106101c45760003560e01c80636a627842116100f9578063a22cb46511610097578063ca15c87311610071578063ca15c8731461062a578063d539139314610647578063d547741f1461064f578063e985e9c51461067b576101c4565b8063a22cb46514610519578063b88d4fde14610547578063c87b56dd1461060d576101c4565b80639010d07c116100d35780639010d07c146104ba57806391d14854146104dd57806395d89b4114610509578063a217fddf14610511576101c4565b80636a627842146104665780636c0360eb1461048c57806370a0823114610494576101c4565b80632f2ff15d1161016657806342842e0e1161014057806342842e0e146103d957806342966c681461040f5780634f6ccce71461042c5780636352211e14610449576101c4565b80632f2ff15d146103555780632f745c591461038157806336568abe146103ad576101c4565b8063095ea7b3116101a2578063095ea7b3146102ba57806318160ddd146102e857806323b872dd14610302578063248a9ca314610338576101c4565b806301ffc9a7146101c957806306fdde0314610204578063081812fc14610281575b600080fd5b6101f0600480360360208110156101df57600080fd5b50356001600160e01b0319166106a9565b604080519115158252519081900360200190f35b61020c6106cc565b6040805160208082528351818301528351919283929083019185019080838360005b8381101561024657818101518382015260200161022e565b50505050905090810190601f1680156102735780820380516001836020036101000a031916815260200191505b509250505060405180910390f35b61029e6004803603602081101561029757600080fd5b5035610762565b604080516001600160a01b039092168252519081900360200190f35b6102e6600480360360408110156102d057600080fd5b506001600160a01b0381351690602001356107c4565b005b6102f061089f565b60408051918252519081900360200190f35b6102e66004803603606081101561031857600080fd5b506001600160a01b038135811691602081013590911690604001356108b0565b6102f06004803603602081101561034e57600080fd5b5035610907565b6102e66004803603604081101561036b57600080fd5b50803590602001356001600160a01b031661091c565b6102f06004803603604081101561039757600080fd5b506001600160a01b038135169060200135610988565b6102e6600480360360408110156103c357600080fd5b50803590602001356001600160a01b03166109b3565b6102e6600480360360608110156103ef57600080fd5b506001600160a01b03813581169160208101359091169060400135610a14565b6102e66004803603602081101561042557600080fd5b5035610a2f565b6102f06004803603602081101561044257600080fd5b5035610a81565b61029e6004803603602081101561045f57600080fd5b5035610a97565b6102e66004803603602081101561047c57600080fd5b50356001600160a01b0316610abf565b61020c610b51565b6102f0600480360360208110156104aa57600080fd5b50356001600160a01b0316610bb2565b61029e600480360360408110156104d057600080fd5b5080359060200135610c1a565b6101f0600480360360408110156104f357600080fd5b50803590602001356001600160a01b0316610c32565b61020c610c4a565b6102f0610cab565b6102e66004803603604081101561052f57600080fd5b506001600160a01b0381351690602001351515610cb0565b6102e66004803603608081101561055d57600080fd5b6001600160a01b0382358116926020810135909116916040820135919081019060808101606082013564010000000081111561059857600080fd5b8201836020820111156105aa57600080fd5b803590602001918460018302840111640100000000831117156105cc57600080fd5b91908080601f016020809104026020016040519081016040528093929190818152602001838380828437600092019190915250929550610db5945050505050565b61020c6004803603602081101561062357600080fd5b5035610e13565b6102f06004803603602081101561064057600080fd5b5035611094565b6102f06110ab565b6102e66004803603604081101561066557600080fd5b50803590602001356001600160a01b03166110cf565b6101f06004803603604081101561069157600080fd5b506001600160a01b0381358116916020013516611128565b6001600160e01b0319811660009081526001602052604090205460ff165b919050565b60078054604080516020601f60026000196101006001881615020190951694909404938401819004810282018101909252828152606093909290918301828280156107585780601f1061072d57610100808354040283529160200191610758565b820191906000526020600020905b81548152906001019060200180831161073b57829003601f168201915b5050505050905090565b600061076d8261116b565b6107a85760405162461bcd60e51b815260040180806020018281038252602c8152602001806121d9602c913960400191505060405180910390fd5b506000908152600560205260409020546001600160a01b031690565b60006107cf82610a97565b9050806001600160a01b0316836001600160a01b031614156108225760405162461bcd60e51b815260040180806020018281038252602181526020018061225d6021913960400191505060405180910390fd5b806001600160a01b0316610834611178565b6001600160a01b03161480610855575061085581610850611178565b611128565b6108905760405162461bcd60e51b815260040180806020018281038252603881526020018061212c6038913960400191505060405180910390fd5b61089a838361117c565b505050565b60006108ab60036111ea565b905090565b6108c16108bb611178565b826111f5565b6108fc5760405162461bcd60e51b815260040180806020018281038252603181526020018061227e6031913960400191505060405180910390fd5b61089a838383611299565b60009081526020819052604090206002015490565b60008281526020819052604090206002015461093f9061093a611178565b610c32565b61097a5760405162461bcd60e51b815260040180806020018281038252602f81526020018061204b602f913960400191505060405180910390fd5b61098482826113e5565b5050565b6001600160a01b03821660009081526002602052604081206109aa908361144e565b90505b92915050565b6109bb611178565b6001600160a01b0316816001600160a01b031614610a0a5760405162461bcd60e51b815260040180806020018281038252602f8152602001806122df602f913960400191505060405180910390fd5b610984828261145a565b61089a83838360405180602001604052806000815250610db5565b610a3a6108bb611178565b610a755760405162461bcd60e51b81526004018080602001828103825260308152602001806122af6030913960400191505060405180910390fd5b610a7e816114c3565b50565b600080610a8f600384611590565b509392505050565b60006109ad8260405180606001604052806029815260200161218e60299139600391906115ac565b610aeb7f9f2df0fed2c77648de5860a4cc508cd0818c85b8b8a1ab4ceeef8d981c8956a661093a611178565b610b34576040805162461bcd60e51b81526020600482015260156024820152744d7573742068617665206d696e74657220726f6c6560581b604482015290519081900360640190fd5b610b4781610b42600b6115c3565b6115c7565b610a7e600b6116f5565b600a8054604080516020601f60026000196101006001881615020190951694909404938401819004810282018101909252828152606093909290918301828280156107585780601f1061072d57610100808354040283529160200191610758565b60006001600160a01b038216610bf95760405162461bcd60e51b815260040180806020018281038252602a815260200180612164602a913960400191505060405180910390fd5b6001600160a01b03821660009081526002602052604090206109ad906111ea565b60008281526020819052604081206109aa908361144e565b60008281526020819052604081206109aa90836116fe565b60088054604080516020601f60026000196101006001881615020190951694909404938401819004810282018101909252828152606093909290918301828280156107585780601f1061072d57610100808354040283529160200191610758565b600081565b610cb8611178565b6001600160a01b0316826001600160a01b03161415610d1e576040805162461bcd60e51b815260206004820152601960248201527f4552433732313a20617070726f766520746f2063616c6c657200000000000000604482015290519081900360640190fd5b8060066000610d2b611178565b6001600160a01b03908116825260208083019390935260409182016000908120918716808252919093529120805460ff191692151592909217909155610d6f611178565b6001600160a01b03167f17307eab39ab6107e8899845ad3d59bd9653f200f220920489ca2b5937696c318360405180821515815260200191505060405180910390a35050565b610dc6610dc0611178565b836111f5565b610e015760405162461bcd60e51b815260040180806020018281038252603181526020018061227e6031913960400191505060405180910390fd5b610e0d84848484611713565b50505050565b6060610e1e8261116b565b610e595760405162461bcd60e51b815260040180806020018281038252602f81526020018061222e602f913960400191505060405180910390fd5b60008281526009602090815260408083208054825160026001831615610100026000190190921691909104601f810185900485028201850190935282815292909190830182828015610eec5780601f10610ec157610100808354040283529160200191610eec565b820191906000526020600020905b815481529060010190602001808311610ecf57829003601f168201915b505050505090506000610efd610b51565b9050805160001415610f11575090506106c7565b815115610fd25780826040516020018083805190602001908083835b60208310610f4c5780518252601f199092019160209182019101610f2d565b51815160209384036101000a600019018019909216911617905285519190930192850191508083835b60208310610f945780518252601f199092019160209182019101610f75565b6001836020036101000a03801982511681845116808217855250505050505090500192505050604051602081830303815290604052925050506106c7565b80610fdc85611765565b6040516020018083805190602001908083835b6020831061100e5780518252601f199092019160209182019101610fef565b51815160209384036101000a600019018019909216911617905285519190930192850191508083835b602083106110565780518252601f199092019160209182019101611037565b6001836020036101000a0380198251168184511680821785525050505050509050019250505060405160208183030381529060405292505050919050565b60008181526020819052604081206109ad906111ea565b7f9f2df0fed2c77648de5860a4cc508cd0818c85b8b8a1ab4ceeef8d981c8956a681565b6000828152602081905260409020600201546110ed9061093a611178565b610a0a5760405162461bcd60e51b81526004018080602001828103825260308152602001806120fc6030913960400191505060405180910390fd5b6001600160a01b03918216600090815260066020908152604080832093909416825291909152205460ff1690565b60006109aa836001600160a01b038416611840565b60006109ad60038361188a565b3390565b600081815260056020526040902080546001600160a01b0319166001600160a01b03841690811790915581906111b182610a97565b6001600160a01b03167f8c5be1e5ebec7d5bd14f71427d1e84f3dd0314c0f7b2291e5b200ac8c7c3b92560405160405180910390a45050565b60006109ad826115c3565b60006112008261116b565b61123b5760405162461bcd60e51b815260040180806020018281038252602c8152602001806120d0602c913960400191505060405180910390fd5b600061124683610a97565b9050806001600160a01b0316846001600160a01b031614806112815750836001600160a01b031661127684610762565b6001600160a01b0316145b8061129157506112918185611128565b949350505050565b826001600160a01b03166112ac82610a97565b6001600160a01b0316146112f15760405162461bcd60e51b81526004018080602001828103825260298152602001806122056029913960400191505060405180910390fd5b6001600160a01b0382166113365760405162461bcd60e51b81526004018080602001828103825260248152602001806120ac6024913960400191505060405180910390fd5b61134183838361089a565b61134c60008261117c565b6001600160a01b038316600090815260026020526040902061136e9082611896565b506001600160a01b038216600090815260026020526040902061139190826118a2565b5061139e600382846118ae565b5080826001600160a01b0316846001600160a01b03167fddf252ad1be2c89b69c2b068fc378daa952ba7f163c4a11628f55a4df523b3ef60405160405180910390a4505050565b60008281526020819052604090206113fd9082611156565b156109845761140a611178565b6001600160a01b0316816001600160a01b0316837f2f8788117e7eff1d82e926ec794901d17c78024a50270940304540a733656f0d60405160405180910390a45050565b60006109aa83836118c4565b60008281526020819052604090206114729082611928565b156109845761147f611178565b6001600160a01b0316816001600160a01b0316837ff6391f5c32d9c69d2a47ea670b442974b53935d1edc7fd64eb21e047a839171b60405160405180910390a45050565b60006114ce82610a97565b90506114dc8160008461089a565b6114e760008361117c565b600082815260096020526040902054600260001961010060018416150201909116041561152557600082815260096020526040812061152591611fd0565b6001600160a01b03811660009081526002602052604090206115479083611896565b5061155360038361193d565b5060405182906000906001600160a01b038416907fddf252ad1be2c89b69c2b068fc378daa952ba7f163c4a11628f55a4df523b3ef908390a45050565b600080808061159f8686611949565b9097909650945050505050565b60006115b98484846119c4565b90505b9392505050565b5490565b6001600160a01b038216611622576040805162461bcd60e51b815260206004820181905260248201527f4552433732313a206d696e7420746f20746865207a65726f2061646472657373604482015290519081900360640190fd5b61162b8161116b565b1561167d576040805162461bcd60e51b815260206004820152601c60248201527f4552433732313a20746f6b656e20616c7265616479206d696e74656400000000604482015290519081900360640190fd5b6116896000838361089a565b6001600160a01b03821660009081526002602052604090206116ab90826118a2565b506116b8600382846118ae565b5060405181906001600160a01b038416906000907fddf252ad1be2c89b69c2b068fc378daa952ba7f163c4a11628f55a4df523b3ef908290a45050565b80546001019055565b60006109aa836001600160a01b038416611a8e565b61171e848484611299565b61172a84848484611aa6565b610e0d5760405162461bcd60e51b815260040180806020018281038252603281526020018061207a6032913960400191505060405180910390fd5b60608161178a57506040805180820190915260018152600360fc1b60208201526106c7565b8160005b81156117a257600101600a8204915061178e565b60008167ffffffffffffffff811180156117bb57600080fd5b506040519080825280601f01601f1916602001820160405280156117e6576020820181803683370190505b50859350905060001982015b831561183757600a840660300160f81b8282806001900393508151811061181557fe5b60200101906001600160f81b031916908160001a905350600a840493506117f2565b50949350505050565b600061184c8383611a8e565b611882575081546001818101845560008481526020808220909301849055845484825282860190935260409020919091556109ad565b5060006109ad565b60006109aa8383611a8e565b60006109aa8383611c0e565b60006109aa8383611840565b60006115b984846001600160a01b038516611cd4565b815460009082106119065760405162461bcd60e51b81526004018080602001828103825260228152602001806120296022913960400191505060405180910390fd5b82600001828154811061191557fe5b9060005260206000200154905092915050565b60006109aa836001600160a01b038416611c0e565b60006109aa8383611d6b565b81546000908190831061198d5760405162461bcd60e51b81526004018080602001828103825260228152602001806121b76022913960400191505060405180910390fd5b600084600001848154811061199e57fe5b906000526020600020906002020190508060000154816001015492509250509250929050565b60008281526001840160205260408120548281611a5f5760405162461bcd60e51b81526004018080602001828103825283818151815260200191508051906020019080838360005b83811015611a24578181015183820152602001611a0c565b50505050905090810190601f168015611a515780820380516001836020036101000a031916815260200191505b509250505060405180910390fd5b50846000016001820381548110611a7257fe5b9060005260206000209060020201600101549150509392505050565b60009081526001919091016020526040902054151590565b6000611aba846001600160a01b0316611e3f565b611ac657506001611291565b6000611bd4630a85bd0160e11b611adb611178565b88878760405160240180856001600160a01b03168152602001846001600160a01b0316815260200183815260200180602001828103825283818151815260200191508051906020019080838360005b83811015611b42578181015183820152602001611b2a565b50505050905090810190601f168015611b6f5780820380516001836020036101000a031916815260200191505b5095505050505050604051602081830303815290604052906001600160e01b0319166020820180516001600160e01b03838183161783525050505060405180606001604052806032815260200161207a603291396001600160a01b0388169190611e45565b90506000818060200190516020811015611bed57600080fd5b50516001600160e01b031916630a85bd0160e11b1492505050949350505050565b60008181526001830160205260408120548015611cca5783546000198083019190810190600090879083908110611c4157fe5b9060005260206000200154905080876000018481548110611c5e57fe5b600091825260208083209091019290925582815260018981019092526040902090840190558654879080611c8e57fe5b600190038181906000526020600020016000905590558660010160008781526020019081526020016000206000905560019450505050506109ad565b60009150506109ad565b600082815260018401602052604081205480611d395750506040805180820182528381526020808201848152865460018181018955600089815284812095516002909302909501918255915190820155865486845281880190925292909120556115bc565b82856000016001830381548110611d4c57fe5b90600052602060002090600202016001018190555060009150506115bc565b60008181526001830160205260408120548015611cca5783546000198083019190810190600090879083908110611d9e57fe5b9060005260206000209060020201905080876000018481548110611dbe57fe5b600091825260208083208454600290930201918255600193840154918401919091558354825289830190526040902090840190558654879080611dfd57fe5b60008281526020808220600260001990940193840201828155600190810183905592909355888152898201909252604082209190915594506109ad9350505050565b3b151590565b60606115b9848460008585611e5985611e3f565b611eaa576040805162461bcd60e51b815260206004820152601d60248201527f416464726573733a2063616c6c20746f206e6f6e2d636f6e7472616374000000604482015290519081900360640190fd5b600080866001600160a01b031685876040518082805190602001908083835b60208310611ee85780518252601f199092019160209182019101611ec9565b6001836020036101000a03801982511681845116808217855250505050505090500191505060006040518083038185875af1925050503d8060008114611f4a576040519150601f19603f3d011682016040523d82523d6000602084013e611f4f565b606091505b5091509150611f5f828286611f6a565b979650505050505050565b60608315611f795750816115bc565b825115611f895782518084602001fd5b60405162461bcd60e51b8152602060048201818152845160248401528451859391928392604401919085019080838360008315611a24578181015183820152602001611a0c565b50805460018160011615610100020316600290046000825580601f10611ff65750610a7e565b601f016020900490600052602060002090810190610a7e91905b808211156120245760008155600101612010565b509056fe456e756d657261626c655365743a20696e646578206f7574206f6620626f756e6473416363657373436f6e74726f6c3a2073656e646572206d75737420626520616e2061646d696e20746f206772616e744552433732313a207472616e7366657220746f206e6f6e20455243373231526563656976657220696d706c656d656e7465724552433732313a207472616e7366657220746f20746865207a65726f20616464726573734552433732313a206f70657261746f7220717565727920666f72206e6f6e6578697374656e7420746f6b656e416363657373436f6e74726f6c3a2073656e646572206d75737420626520616e2061646d696e20746f207265766f6b654552433732313a20617070726f76652063616c6c6572206973206e6f74206f776e6572206e6f7220617070726f76656420666f7220616c6c4552433732313a2062616c616e636520717565727920666f7220746865207a65726f20616464726573734552433732313a206f776e657220717565727920666f72206e6f6e6578697374656e7420746f6b656e456e756d657261626c654d61703a20696e646578206f7574206f6620626f756e64734552433732313a20617070726f76656420717565727920666f72206e6f6e6578697374656e7420746f6b656e4552433732313a207472616e73666572206f6620746f6b656e2074686174206973206e6f74206f776e4552433732314d657461646174613a2055524920717565727920666f72206e6f6e6578697374656e7420746f6b656e4552433732313a20617070726f76616c20746f2063757272656e74206f776e65724552433732313a207472616e736665722063616c6c6572206973206e6f74206f776e6572206e6f7220617070726f7665644552433732314275726e61626c653a2063616c6c6572206973206e6f74206f776e6572206e6f7220617070726f766564416363657373436f6e74726f6c3a2063616e206f6e6c792072656e6f756e636520726f6c657320666f722073656c66a2646970667358221220923dca0c41515cef1bbc9de438f1a794fbd08ac2509a4f354f25906ee1e01a8664736f6c63430007060033",
  "immutableReferences": {},
  "source": "// SPDX-License-Identifier: MIT\npragma solidity ^0.7.6;\n\nimport \"@openzeppelin/contracts/access/AccessControl.sol\";\nimport \"@openzeppelin/contracts/token/ERC721/ERC721Burnable.sol\";\nimport \"@openzeppelin/contracts/utils/Context.sol\";\nimport \"@openzeppelin/contracts/utils/Counters.sol\";\n\ncontract SanNFT is Context, AccessControl, ERC721Burnable {\n    using Counters for Counters.Counter;\n\n    bytes32 public constant MINTER_ROLE = keccak256(\"MINTER_ROLE\");\n\n    Counters.Counter private _tokenIdTracker;\n\n    /**\n     * @dev Grants `DEFAULT_ADMIN_ROLE`, `MINTER_ROLE` and `PAUSER_ROLE` to the\n     * account that deploys the contract.\n     *\n     * Token URIs will be autogenerated based on `baseURI` and their token IDs.\n     * See {ERC721-tokenURI}.\n     */\n    constructor() ERC721(\"Santiment NFT\", \"SNFT\") {\n        _setupRole(DEFAULT_ADMIN_ROLE, _msgSender());\n\n        _setupRole(MINTER_ROLE, _msgSender());\n\n        _setBaseURI(\"base/uri/\");\n    }\n\n    /**\n     * @dev Creates a new token for `to`. Its token ID will be automatically\n     * assigned (and available on the emitted {IERC721-Transfer} event), and the token\n     * URI autogenerated based on the base URI passed at construction.\n     *\n     * See {ERC721-_mint}.\n     *\n     * Requirements:\n     *\n     * - the caller must have the `MINTER_ROLE`.\n     */\n    function mint(address to) public virtual {\n        require(hasRole(MINTER_ROLE, _msgSender()), \"Must have minter role\");\n\n        // We cannot just use balanceOf to create the new tokenId because tokens\n        // can be burned (destroyed), so we need a separate counter.\n        _mint(to, _tokenIdTracker.current());\n        _tokenIdTracker.increment();\n    }\n}\n",
  "sourcePath": "/home/nailkhaf/Projects/san-games/contracts/SanNFT.sol",
  "compiler": {
    "name": "solc",
    "version": "0.7.6+commit.7338295f.Emscripten.clang"
  },
  "schemaVersion": "3.3.3",
  "updatedAt": "2021-02-18T13:57:56.501Z",
  "devdoc": {
    "kind": "dev",
    "methods": {
      "approve(address,uint256)": {
        "details": "See {IERC721-approve}."
      },
      "balanceOf(address)": {
        "details": "See {IERC721-balanceOf}."
      },
      "baseURI()": {
        "details": "Returns the base URI set via {_setBaseURI}. This will be automatically added as a prefix in {tokenURI} to each token's URI, or to the token ID if no specific URI is set for that token ID."
      },
      "burn(uint256)": {
        "details": "Burns `tokenId`. See {ERC721-_burn}. Requirements: - The caller must own `tokenId` or be an approved operator."
      },
      "constructor": {
        "details": "Grants `DEFAULT_ADMIN_ROLE`, `MINTER_ROLE` and `PAUSER_ROLE` to the account that deploys the contract. Token URIs will be autogenerated based on `baseURI` and their token IDs. See {ERC721-tokenURI}."
      },
      "getApproved(uint256)": {
        "details": "See {IERC721-getApproved}."
      },
      "getRoleAdmin(bytes32)": {
        "details": "Returns the admin role that controls `role`. See {grantRole} and {revokeRole}. To change a role's admin, use {_setRoleAdmin}."
      },
      "getRoleMember(bytes32,uint256)": {
        "details": "Returns one of the accounts that have `role`. `index` must be a value between 0 and {getRoleMemberCount}, non-inclusive. Role bearers are not sorted in any particular way, and their ordering may change at any point. WARNING: When using {getRoleMember} and {getRoleMemberCount}, make sure you perform all queries on the same block. See the following https://forum.openzeppelin.com/t/iterating-over-elements-on-enumerableset-in-openzeppelin-contracts/2296[forum post] for more information."
      },
      "getRoleMemberCount(bytes32)": {
        "details": "Returns the number of accounts that have `role`. Can be used together with {getRoleMember} to enumerate all bearers of a role."
      },
      "grantRole(bytes32,address)": {
        "details": "Grants `role` to `account`. If `account` had not been already granted `role`, emits a {RoleGranted} event. Requirements: - the caller must have ``role``'s admin role."
      },
      "hasRole(bytes32,address)": {
        "details": "Returns `true` if `account` has been granted `role`."
      },
      "isApprovedForAll(address,address)": {
        "details": "See {IERC721-isApprovedForAll}."
      },
      "mint(address)": {
        "details": "Creates a new token for `to`. Its token ID will be automatically assigned (and available on the emitted {IERC721-Transfer} event), and the token URI autogenerated based on the base URI passed at construction. See {ERC721-_mint}. Requirements: - the caller must have the `MINTER_ROLE`."
      },
      "name()": {
        "details": "See {IERC721Metadata-name}."
      },
      "ownerOf(uint256)": {
        "details": "See {IERC721-ownerOf}."
      },
      "renounceRole(bytes32,address)": {
        "details": "Revokes `role` from the calling account. Roles are often managed via {grantRole} and {revokeRole}: this function's purpose is to provide a mechanism for accounts to lose their privileges if they are compromised (such as when a trusted device is misplaced). If the calling account had been granted `role`, emits a {RoleRevoked} event. Requirements: - the caller must be `account`."
      },
      "revokeRole(bytes32,address)": {
        "details": "Revokes `role` from `account`. If `account` had been granted `role`, emits a {RoleRevoked} event. Requirements: - the caller must have ``role``'s admin role."
      },
      "safeTransferFrom(address,address,uint256)": {
        "details": "See {IERC721-safeTransferFrom}."
      },
      "safeTransferFrom(address,address,uint256,bytes)": {
        "details": "See {IERC721-safeTransferFrom}."
      },
      "setApprovalForAll(address,bool)": {
        "details": "See {IERC721-setApprovalForAll}."
      },
      "supportsInterface(bytes4)": {
        "details": "See {IERC165-supportsInterface}. Time complexity O(1), guaranteed to always use less than 30 000 gas."
      },
      "symbol()": {
        "details": "See {IERC721Metadata-symbol}."
      },
      "tokenByIndex(uint256)": {
        "details": "See {IERC721Enumerable-tokenByIndex}."
      },
      "tokenOfOwnerByIndex(address,uint256)": {
        "details": "See {IERC721Enumerable-tokenOfOwnerByIndex}."
      },
      "tokenURI(uint256)": {
        "details": "See {IERC721Metadata-tokenURI}."
      },
      "totalSupply()": {
        "details": "See {IERC721Enumerable-totalSupply}."
      },
      "transferFrom(address,address,uint256)": {
        "details": "See {IERC721-transferFrom}."
      }
    },
    "version": 1
  },
  "userdoc": {
    "kind": "user",
    "methods": {},
    "version": 1
  }
}