{
  "contractName": "StakingRewardsFactory",
  "abi": [
    {
      "inputs": [
        {
          "internalType": "address",
          "name": "rewardsToken_",
          "type": "address"
        }
      ],
      "stateMutability": "nonpayable",
      "type": "constructor"
    },
    {
      "anonymous": false,
      "inputs": [
        {
          "indexed": true,
          "internalType": "address",
          "name": "previousOwner",
          "type": "address"
        },
        {
          "indexed": true,
          "internalType": "address",
          "name": "newOwner",
          "type": "address"
        }
      ],
      "name": "OwnershipTransferred",
      "type": "event"
    },
    {
      "anonymous": false,
      "inputs": [
        {
          "indexed": false,
          "internalType": "address",
          "name": "addr",
          "type": "address"
        }
      ],
      "name": "StakingCreated",
      "type": "event"
    },
    {
      "anonymous": false,
      "inputs": [
        {
          "indexed": false,
          "internalType": "address",
          "name": "addr",
          "type": "address"
        }
      ],
      "name": "StakingProlonged",
      "type": "event"
    },
    {
      "inputs": [],
      "name": "owner",
      "outputs": [
        {
          "internalType": "address",
          "name": "",
          "type": "address"
        }
      ],
      "stateMutability": "view",
      "type": "function"
    },
    {
      "inputs": [],
      "name": "renounceOwnership",
      "outputs": [],
      "stateMutability": "nonpayable",
      "type": "function"
    },
    {
      "inputs": [],
      "name": "rewardsToken",
      "outputs": [
        {
          "internalType": "contract IRewardsToken",
          "name": "",
          "type": "address"
        }
      ],
      "stateMutability": "view",
      "type": "function"
    },
    {
      "inputs": [
        {
          "internalType": "address",
          "name": "newOwner",
          "type": "address"
        }
      ],
      "name": "transferOwnership",
      "outputs": [],
      "stateMutability": "nonpayable",
      "type": "function"
    },
    {
      "inputs": [
        {
          "internalType": "string",
          "name": "_name",
          "type": "string"
        },
        {
          "internalType": "string",
          "name": "_symbol",
          "type": "string"
        },
        {
          "internalType": "address",
          "name": "_stakingToken",
          "type": "address"
        },
        {
          "internalType": "uint256",
          "name": "_rewardRate",
          "type": "uint256"
        },
        {
          "internalType": "uint256",
          "name": "_maximalStake",
          "type": "uint256"
        }
      ],
      "name": "createStaking",
      "outputs": [
        {
          "internalType": "address",
          "name": "",
          "type": "address"
        }
      ],
      "stateMutability": "nonpayable",
      "type": "function"
    },
    {
      "inputs": [
        {
          "internalType": "address",
          "name": "staking",
          "type": "address"
        },
        {
          "internalType": "uint256",
          "name": "duration",
          "type": "uint256"
        }
      ],
      "name": "prolongStacking",
      "outputs": [],
      "stateMutability": "nonpayable",
      "type": "function"
    }
  ],
  "bytecode": "0x60a060405234801561001057600080fd5b50604051612c9e380380612c9e8339818101604052602081101561003357600080fd5b5051600061003f61010b565b600080546001600160a01b0319166001600160a01b0383169081178255604051929350917f8be0079c531659141344cd1fd0a4f28419497f9722a3daafe3b4186f6b6457e0908290a3506100a5816001600160a01b031661010f60201b6108d71760201c565b6100f6576040805162461bcd60e51b815260206004820152601d60248201527f52657761726473546f6b656e206d75737420626520636f6e7472616374000000604482015290519081900360640190fd5b60601b6001600160601b031916608052610115565b3390565b3b151590565b60805160601c612b5d6101416000398061037852806103a7528061059d528061062f5250612b5d6000f3fe60806040523480156200001157600080fd5b50600436106200006a5760003560e01c8063715018a6146200006f5780638da5cb5b146200007b578063a368663314620000a1578063d1af0c7d14620000d0578063e3fefbc814620000da578063f2fde38b1462000224575b600080fd5b620000796200024d565b005b62000085620002ff565b604080516001600160a01b039092168252519081900360200190f35b6200007960048036036040811015620000b957600080fd5b506001600160a01b0381351690602001356200030e565b620000856200059b565b62000085600480360360a0811015620000f257600080fd5b8101906020810181356401000000008111156200010e57600080fd5b8201836020820111156200012157600080fd5b803590602001918460018302840111640100000000831117156200014457600080fd5b91908080601f01602080910402602001604051908101604052809392919081815260200183838082843760009201919091525092959493602081019350359150506401000000008111156200019857600080fd5b820183602082011115620001ab57600080fd5b80359060200191846001830284011164010000000083111715620001ce57600080fd5b91908080601f016020809104026020016040519081016040528093929190818152602001838380828437600092019190915250929550506001600160a01b038335169350505060208101359060400135620005bf565b62000079600480360360208110156200023c57600080fd5b50356001600160a01b0316620007cd565b62000257620008dd565b6001600160a01b03166200026a620002ff565b6001600160a01b031614620002b5576040805162461bcd60e51b8152602060048201819052602482015260008051602062002b08833981519152604482015290519081900360640190fd5b600080546040516001600160a01b03909116907f8be0079c531659141344cd1fd0a4f28419497f9722a3daafe3b4186f6b6457e0908390a3600080546001600160a01b0319169055565b6000546001600160a01b031690565b62000318620008dd565b6001600160a01b03166200032b620002ff565b6001600160a01b03161462000376576040805162461bcd60e51b8152602060048201819052602482015260008051602062002b08833981519152604482015290519081900360640190fd5b7f00000000000000000000000000000000000000000000000000000000000000006001600160a01b03166391d148547f00000000000000000000000000000000000000000000000000000000000000006001600160a01b031663f084219e6040518163ffffffff1660e01b815260040160206040518083038186803b158015620003ff57600080fd5b505afa15801562000414573d6000803e3d6000fd5b505050506040513d60208110156200042b57600080fd5b5051604080516001600160e01b031960e085901b16815260048101929092526001600160a01b0386166024830152516044808301926020929190829003018186803b1580156200047a57600080fd5b505afa1580156200048f573d6000803e3d6000fd5b505050506040513d6020811015620004a657600080fd5b5051620004fa576040805162461bcd60e51b815260206004820152601d60248201527f5374616b696e67206d7573742068617665206d696e74657220726f6c65000000604482015290519081900360640190fd5b816001600160a01b03166315f10118826040518263ffffffff1660e01b815260040180828152602001915050600060405180830381600087803b1580156200054157600080fd5b505af115801562000556573d6000803e3d6000fd5b5050604080516001600160a01b038616815290517f594aa263e223fdf6db4eadb0bef6a30dbab567bceb683ac4d3b1ce30cba7d2629350908190036020019150a15050565b7f000000000000000000000000000000000000000000000000000000000000000081565b6000620005cb620008dd565b6001600160a01b0316620005de620002ff565b6001600160a01b03161462000629576040805162461bcd60e51b8152602060048201819052602482015260008051602062002b08833981519152604482015290519081900360640190fd5b600086867f00000000000000000000000000000000000000000000000000000000000000008786886040516200065f90620008e1565b808060200180602001876001600160a01b03168152602001866001600160a01b03168152602001858152602001848152602001838103835289818151815260200191508051906020019080838360005b83811015620006c9578181015183820152602001620006af565b50505050905090810190601f168015620006f75780820380516001836020036101000a031916815260200191505b5083810382528851815288516020918201918a019080838360005b838110156200072c57818101518382015260200162000712565b50505050905090810190601f1680156200075a5780820380516001836020036101000a031916815260200191505b5098505050505050505050604051809103906000f08015801562000782573d6000803e3d6000fd5b50604080516001600160a01b038316815290519192507fbdefa4088db5a4dd88f44c72b34f2746e4dccc411b56c9b2f5e9e139e1c71cf9919081900360200190a19695505050505050565b620007d7620008dd565b6001600160a01b0316620007ea620002ff565b6001600160a01b03161462000835576040805162461bcd60e51b8152602060048201819052602482015260008051602062002b08833981519152604482015290519081900360640190fd5b6001600160a01b0381166200087c5760405162461bcd60e51b815260040180806020018281038252602681526020018062002ae26026913960400191505060405180910390fd5b600080546040516001600160a01b03808516939216917f8be0079c531659141344cd1fd0a4f28419497f9722a3daafe3b4186f6b6457e091a3600080546001600160a01b0319166001600160a01b0392909216919091179055565b3b151590565b3390565b6121f280620008f08339019056fe6101006040523480156200001257600080fd5b50604051620021f2380380620021f2833981810160405260c08110156200003857600080fd5b81019080805160405193929190846401000000008211156200005957600080fd5b9083019060208201858111156200006f57600080fd5b82516401000000008111828201881017156200008a57600080fd5b82525081516020918201929091019080838360005b83811015620000b95781810151838201526020016200009f565b50505050905090810190601f168015620000e75780820380516001836020036101000a031916815260200191505b50604052602001805160405193929190846401000000008211156200010b57600080fd5b9083019060208201858111156200012157600080fd5b82516401000000008111828201881017156200013c57600080fd5b82525081516020918201929091019080838360005b838110156200016b57818101518382015260200162000151565b50505050905090810190601f168015620001995780820380516001836020036101000a031916815260200191505b506040908152602082015190820151606083015160809093015191945092508585858585848481816000620001cd620003b8565b600080546001600160a01b0319166001600160a01b0383169081178255604051929350917f8be0079c531659141344cd1fd0a4f28419497f9722a3daafe3b4186f6b6457e0908290a35081516200022c90600490602085019062000427565b5080516200024290600590602084019062000427565b50506006805460ff1916601217905550505080620002a7576040805162461bcd60e51b815260206004820152601560248201527f4d6178696d616c207374616b65206973207a65726f0000000000000000000000604482015290519081900360640190fd5b620002c6836001600160a01b0316620003d560201b620012bb1760201c565b62000318576040805162461bcd60e51b815260206004820152601d60248201527f52657761726473546f6b656e206d75737420626520636f6e7472616374000000604482015290519081900360640190fd5b62000337826001600160a01b0316620003d560201b620012bb1760201c565b62000389576040805162461bcd60e51b815260206004820152601d60248201527f52657761726473546f6b656e206d75737420626520636f6e7472616374000000604482015290519081900360640190fd5b6001600160601b0319606093841b81166080529190921b1660a05260c052505060e05250620004d39350505050565b6000620003cf620003db60201b620012c11760201c565b90505b90565b3b151590565b600060183610801590620003f55750620003f53362000413565b156200040b575060131936013560601c620003d2565b5033620003d2565b600c546001600160a01b0390811691161490565b828054600181600116156101000203166002900490600052602060002090601f0160209004810192826200045f5760008555620004aa565b82601f106200047a57805160ff1916838001178555620004aa565b82800160010185558215620004aa579182015b82811115620004aa5782518255916020019190600101906200048d565b50620004b8929150620004bc565b5090565b5b80821115620004b85760008155600101620004bd565b60805160601c60a05160601c60c05160e051611cca6200052860003980610a085280611312525080610c1a5280610d995250806109e45280610ca75280611250525080610eca5280610f6f5250611cca6000f3fe608060405234801561001057600080fd5b50600436106101ce5760003560e01c80637da0a87711610104578063b4509cb5116100a2578063dd62ed3e11610071578063dd62ed3e146104e9578063ebe2b12b14610517578063f2fde38b1461051f578063f3fef3a314610545576101ce565b8063b4509cb51461048d578063c00007b014610495578063d1af0c7d146104bb578063da742228146104c3576101ce565b8063a457c2d7116100de578063a457c2d71461040f578063a9059cbb14610288578063adc9772e1461043b578063b42652e914610467576101ce565b80637da0a877146103f75780638da5cb5b146103ff57806395d89b4114610407576101ce565b8063395093511161017157806370a082311161014b57806370a082311461039d578063715018a6146103c357806372f702f3146103cb5780637b0a47ee146103ef576101ce565b80633950935114610343578063486ff0cd1461036f578063572b6c0514610377576101ce565b806315f10118116101ad57806315f10118146102c857806318160ddd146102e757806323b872dd146102ef578063313ce56714610325576101ce565b80628cc262146101d357806306fdde031461020b578063095ea7b314610288575b600080fd5b6101f9600480360360208110156101e957600080fd5b50356001600160a01b0316610571565b60408051918252519081900360200190f35b6102136105df565b6040805160208082528351818301528351919283929083019185019080838360005b8381101561024d578181015183820152602001610235565b50505050905090810190601f16801561027a5780820380516001836020036101000a031916815260200191505b509250505060405180910390f35b6102b46004803603604081101561029e57600080fd5b506001600160a01b038135169060200135610676565b604080519115158252519081900360200190f35b6102e5600480360360208110156102de57600080fd5b5035610693565b005b6101f9610802565b6102b46004803603606081101561030557600080fd5b506001600160a01b03813581169160208101359091169060400135610808565b61032d610890565b6040805160ff9092168252519081900360200190f35b6102b46004803603604081101561035957600080fd5b506001600160a01b038135169060200135610899565b6102136108e7565b6102b46004803603602081101561038d57600080fd5b50356001600160a01b0316610907565b6101f9600480360360208110156103b357600080fd5b50356001600160a01b031661091b565b6102e5610936565b6103d36109e2565b604080516001600160a01b039092168252519081900360200190f35b6101f9610a06565b6103d3610a2a565b6103d3610a39565b610213610a48565b6102b46004803603604081101561042557600080fd5b506001600160a01b038135169060200135610aa9565b6102e56004803603604081101561045157600080fd5b506001600160a01b038135169060200135610b11565b6102e56004803603602081101561047d57600080fd5b50356001600160a01b0316610d13565b6101f9610d97565b6102e5600480360360208110156104ab57600080fd5b50356001600160a01b0316610dbb565b6103d3610f6d565b6102e5600480360360208110156104d957600080fd5b50356001600160a01b0316610f91565b6101f9600480360360408110156104ff57600080fd5b506001600160a01b0381358116916020013516610ffc565b6101f9611027565b6102e56004803603602081101561053557600080fd5b50356001600160a01b031661102d565b6102e56004803603604081101561055b57600080fd5b506001600160a01b03813516906020013561112f565b6001600160a01b0381166000908152600b6020908152604080832054600a9092528220546105d991906105d390670de0b6b3a7640000906105cd906105be906105b86112f3565b9061134d565b6105c78861091b565b906113aa565b90611403565b9061146a565b92915050565b60048054604080516020601f600260001961010060018816150201909516949094049384018190048102820181019092528281526060939092909183018282801561066b5780601f106106405761010080835404028352916020019161066b565b820191906000526020600020905b81548152906001019060200180831161064e57829003601f168201915b505050505090505b90565b600061068a6106836114c4565b84846114ce565b50600192915050565b61069b6114c4565b6001600160a01b03166106ac610a39565b6001600160a01b0316146106f5576040805162461bcd60e51b81526020600482018190526024820152600080516020611c05833981519152604482015290519081900360640190fd5b60006106ff6112f3565b60095561070a611507565b6008556001600160a01b038116156107515761072581610571565b6001600160a01b0382166000908152600b6020908152604080832093909355600954600a909152919020555b63024ea000821061079d576040805162461bcd60e51b81526020600482015260116024820152704475726174696f6e20746f6f206c6f6e6760781b604482015290519081900360640190fd5b6007546107b6576107ae428361146a565b6007556107c7565b6007546107c3908361146a565b6007555b426008556040805183815290517f97d3a6deacea6b2c9504b045962ee3906801cbcf13b222f7867532186544e5a69181900360200190a15050565b60035490565b60006108158484846114ce565b610885846108216114c4565b61088085604051806060016040528060288152602001611bdd602891396001600160a01b038a1660009081526002602052604081209061085f6114c4565b6001600160a01b031681526020810191909152604001600020549190611515565b6114ce565b5060015b9392505050565b60065460ff1690565b600061068a6108a66114c4565b8461088085600260006108b76114c4565b6001600160a01b03908116825260208083019390935260409182016000908120918c16815292529020549061146a565b604080518082019091526006815265322e302e302b60d01b602082015290565b600c546001600160a01b0390811691161490565b6001600160a01b031660009081526001602052604090205490565b61093e6114c4565b6001600160a01b031661094f610a39565b6001600160a01b031614610998576040805162461bcd60e51b81526020600482018190526024820152600080516020611c05833981519152604482015290519081900360640190fd5b600080546040516001600160a01b03909116907f8be0079c531659141344cd1fd0a4f28419497f9722a3daafe3b4186f6b6457e0908390a3600080546001600160a01b0319169055565b7f000000000000000000000000000000000000000000000000000000000000000081565b7f000000000000000000000000000000000000000000000000000000000000000081565b600c546001600160a01b031681565b6000546001600160a01b031690565b60058054604080516020601f600260001961010060018816150201909516949094049384018190048102820181019092528281526060939092909183018282801561066b5780601f106106405761010080835404028352916020019161066b565b600061068a610ab66114c4565b8461088085604051806060016040528060258152602001611c706025913960026000610ae06114c4565b6001600160a01b03908116825260208083019390935260409182016000908120918d16815292529020549190611515565b81610b1a6112f3565b600955610b25611507565b6008556001600160a01b03811615610b6c57610b4081610571565b6001600160a01b0382166000908152600b6020908152604080832093909355600954600a909152919020555b610b746114c4565b6001600160a01b0316836001600160a01b031614610bd2576040805162461bcd60e51b815260206004820152601660248201527514d95b99195c881b5d5cdd081899481858d8dbdd5b9d60521b604482015290519081900360640190fd5b60008211610c18576040805162461bcd60e51b815260206004820152600e60248201526d043616e6e6f74207374616b6520360941b604482015290519081900360640190fd5b7f0000000000000000000000000000000000000000000000000000000000000000610c46836105d38661091b565b1115610c90576040805162461bcd60e51b815260206004820152601460248201527314dd185ad948195e18d95959081b585e1a5b585b60621b604482015290519081900360640190fd5b610c9a83836115ac565b610ccf6001600160a01b037f00000000000000000000000000000000000000000000000000000000000000001684308561169e565b6040805183815290516001600160a01b038516917f9e71bc8eea02a63969f509818f2dafb9254532904319f9dbda79b67bd34a5f3d919081900360200190a2505050565b610d1b6114c4565b6001600160a01b0316816001600160a01b031614610d79576040805162461bcd60e51b815260206004820152601660248201527514d95b99195c881b5d5cdd081899481858d8dbdd5b9d60521b604482015290519081900360640190fd5b610d8b81610d868361091b565b61112f565b610d9481610dbb565b50565b7f000000000000000000000000000000000000000000000000000000000000000090565b80610dc46112f3565b600955610dcf611507565b6008556001600160a01b03811615610e1657610dea81610571565b6001600160a01b0382166000908152600b6020908152604080832093909355600954600a909152919020555b610e1e6114c4565b6001600160a01b0316826001600160a01b031614610e7c576040805162461bcd60e51b815260206004820152601660248201527514d95b99195c881b5d5cdd081899481858d8dbdd5b9d60521b604482015290519081900360640190fd5b6000610e8783610571565b90508015610f68576001600160a01b038084166000818152600b602052604080822082905580516340c10f1960e01b8152600481019390935260248301859052517f0000000000000000000000000000000000000000000000000000000000000000909316926340c10f1992604480820193929182900301818387803b158015610f1057600080fd5b505af1158015610f24573d6000803e3d6000fd5b50506040805184815290516001600160a01b03871693507fe2403640ba68fed3a2f88b7557551d1993f84b99bb10ff833f0cf8db0c5e048692509081900360200190a25b505050565b7f000000000000000000000000000000000000000000000000000000000000000081565b610f996114c4565b6001600160a01b0316610faa610a39565b6001600160a01b031614610ff3576040805162461bcd60e51b81526020600482018190526024820152600080516020611c05833981519152604482015290519081900360640190fd5b610d94816116fe565b6001600160a01b03918216600090815260026020908152604080832093909416825291909152205490565b60075490565b6110356114c4565b6001600160a01b0316611046610a39565b6001600160a01b03161461108f576040805162461bcd60e51b81526020600482018190526024820152600080516020611c05833981519152604482015290519081900360640190fd5b6001600160a01b0381166110d45760405162461bcd60e51b8152600401808060200182810382526026815260200180611b706026913960400191505060405180910390fd5b600080546040516001600160a01b03808516939216917f8be0079c531659141344cd1fd0a4f28419497f9722a3daafe3b4186f6b6457e091a3600080546001600160a01b0319166001600160a01b0392909216919091179055565b816111386112f3565b600955611143611507565b6008556001600160a01b0381161561118a5761115e81610571565b6001600160a01b0382166000908152600b6020908152604080832093909355600954600a909152919020555b6111926114c4565b6001600160a01b0316836001600160a01b0316146111f0576040805162461bcd60e51b815260206004820152601660248201527514d95b99195c881b5d5cdd081899481858d8dbdd5b9d60521b604482015290519081900360640190fd5b60008211611239576040805162461bcd60e51b8152602060048201526011602482015270043616e6e6f74207769746864726177203607c1b604482015290519081900360640190fd5b6112438383611760565b6112776001600160a01b037f000000000000000000000000000000000000000000000000000000000000000016848461185c565b6040805183815290516001600160a01b038516917f7084f5476618d8e60b11ef0d7d3f06914655adb8793e28ff7f018d4c76d505d5919081900360200190a2505050565b3b151590565b6000601836108015906112d857506112d833610907565b156112ec575060131936013560601c610673565b5033610673565b60006112fd610802565b61130a5750600954610673565b61134861133f7f00000000000000000000000000000000000000000000000000000000000000006105c76008546105b8611507565b6009549061146a565b905090565b6000828211156113a4576040805162461bcd60e51b815260206004820152601e60248201527f536166654d6174683a207375627472616374696f6e206f766572666c6f770000604482015290519081900360640190fd5b50900390565b6000826113b9575060006105d9565b828202828482816113c657fe5b04146108895760405162461bcd60e51b8152600401808060200182810382526021815260200180611bbc6021913960400191505060405180910390fd5b6000808211611459576040805162461bcd60e51b815260206004820152601a60248201527f536166654d6174683a206469766973696f6e206279207a65726f000000000000604482015290519081900360640190fd5b81838161146257fe5b049392505050565b600082820183811015610889576040805162461bcd60e51b815260206004820152601b60248201527f536166654d6174683a206164646974696f6e206f766572666c6f770000000000604482015290519081900360640190fd5b60006113486112c1565b6040805162461bcd60e51b81526020600482015260096024820152682337b93134b23232b760b91b604482015290519081900360640190fd5b6000611348426007546118ae565b600081848411156115a45760405162461bcd60e51b81526004018080602001828103825283818151815260200191508051906020019080838360005b83811015611569578181015183820152602001611551565b50505050905090810190601f1680156115965780820380516001836020036101000a031916815260200191505b509250505060405180910390fd5b505050900390565b6001600160a01b038216611607576040805162461bcd60e51b815260206004820152601f60248201527f45524332303a206d696e7420746f20746865207a65726f206164647265737300604482015290519081900360640190fd5b61161360008383610f68565b600354611620908261146a565b6003556001600160a01b038216600090815260016020526040902054611646908261146a565b6001600160a01b03831660008181526001602090815260408083209490945583518581529351929391927fddf252ad1be2c89b69c2b068fc378daa952ba7f163c4a11628f55a4df523b3ef9281900390910190a35050565b604080516001600160a01b0380861660248301528416604482015260648082018490528251808303909101815260849091019091526020810180516001600160e01b03166323b872dd60e01b1790526116f89085906118c4565b50505050565b600c80546001600160a01b038381166001600160a01b0319831617928390556040805192821680845293909116602083015280517f06dff7401eb7fb04d241246ade7f817c7ad512b1bed61c18aedd9bc51eec04759281900390910190a15050565b6001600160a01b0382166117a55760405162461bcd60e51b8152600401808060200182810382526021815260200180611c256021913960400191505060405180910390fd5b6117b182600083610f68565b6117ee81604051806060016040528060228152602001611b4e602291396001600160a01b0385166000908152600160205260409020549190611515565b6001600160a01b038316600090815260016020526040902055600354611814908261134d565b6003556040805182815290516000916001600160a01b038516917fddf252ad1be2c89b69c2b068fc378daa952ba7f163c4a11628f55a4df523b3ef9181900360200190a35050565b604080516001600160a01b038416602482015260448082018490528251808303909101815260649091019091526020810180516001600160e01b031663a9059cbb60e01b179052610f689084906118c4565b60008183106118bd5781610889565b5090919050565b6000611919826040518060400160405280602081526020017f5361666545524332303a206c6f772d6c6576656c2063616c6c206661696c6564815250856001600160a01b03166119759092919063ffffffff16565b805190915015610f685780806020019051602081101561193857600080fd5b5051610f685760405162461bcd60e51b815260040180806020018281038252602a815260200180611c46602a913960400191505060405180910390fd5b6060611984848460008561198c565b949350505050565b6060824710156119cd5760405162461bcd60e51b8152600401808060200182810382526026815260200180611b966026913960400191505060405180910390fd5b6119d6856112bb565b611a27576040805162461bcd60e51b815260206004820152601d60248201527f416464726573733a2063616c6c20746f206e6f6e2d636f6e7472616374000000604482015290519081900360640190fd5b600080866001600160a01b031685876040518082805190602001908083835b60208310611a655780518252601f199092019160209182019101611a46565b6001836020036101000a03801982511681845116808217855250505050505090500191505060006040518083038185875af1925050503d8060008114611ac7576040519150601f19603f3d011682016040523d82523d6000602084013e611acc565b606091505b5091509150611adc828286611ae7565b979650505050505050565b60608315611af6575081610889565b825115611b065782518084602001fd5b60405162461bcd60e51b815260206004820181815284516024840152845185939192839260440191908501908083836000831561156957818101518382015260200161155156fe45524332303a206275726e20616d6f756e7420657863656564732062616c616e63654f776e61626c653a206e6577206f776e657220697320746865207a65726f2061646472657373416464726573733a20696e73756666696369656e742062616c616e636520666f722063616c6c536166654d6174683a206d756c7469706c69636174696f6e206f766572666c6f7745524332303a207472616e7366657220616d6f756e74206578636565647320616c6c6f77616e63654f776e61626c653a2063616c6c6572206973206e6f7420746865206f776e657245524332303a206275726e2066726f6d20746865207a65726f20616464726573735361666545524332303a204552433230206f7065726174696f6e20646964206e6f74207375636365656445524332303a2064656372656173656420616c6c6f77616e63652062656c6f77207a65726fa2646970667358221220f1f75ea6e9821451a93c5f04d2d92e9ca0b60d8bf6a349cbb24d3dcbad743da564736f6c634300070600334f776e61626c653a206e6577206f776e657220697320746865207a65726f20616464726573734f776e61626c653a2063616c6c6572206973206e6f7420746865206f776e6572a26469706673582212200b409fb9e3de27442830eaf82069dfc4382e3ba5a1a25f0a42ee26d2283e5e1664736f6c63430007060033",
  "immutableReferences": {
    "4120": [
      {
        "length": 32,
        "start": 888
      },
      {
        "length": 32,
        "start": 935
      },
      {
        "length": 32,
        "start": 1437
      },
      {
        "length": 32,
        "start": 1583
      }
    ]
  },
  "source": "// SPDX-License-Identifier: MIT\npragma solidity ^0.7.6;\n\nimport \"@openzeppelin/contracts/access/Ownable.sol\";\nimport \"@openzeppelin/contracts/access/AccessControl.sol\";\nimport \"@openzeppelin/contracts/utils/Address.sol\";\n\nimport \"./StakingRewards.sol\";\nimport \"../interfaces/IRewardsToken.sol\";\nimport \"../interfaces/IStakingRewardsFactory.sol\";\n\ncontract StakingRewardsFactory is IStakingRewardsFactory, Ownable {\n    using Address for address;\n\n    IRewardsToken public immutable rewardsToken;\n\n    constructor(address rewardsToken_) {\n        require(rewardsToken_.isContract(), \"RewardsToken must be contract\");\n        rewardsToken = IRewardsToken(rewardsToken_);\n    }\n\n    function createStaking(\n        string memory _name,\n        string memory _symbol,\n        address _stakingToken,\n        uint256 _rewardRate,\n        uint256 _maximalStake\n    ) external override onlyOwner returns (address) {\n        StakingRewards staking =\n            new StakingRewards(\n                _name,\n                _symbol,\n                address(rewardsToken),\n                _stakingToken,\n                _maximalStake,\n                _rewardRate\n            );\n        emit StakingCreated(address(staking));\n        return address(staking);\n    }\n\n    function prolongStacking(address staking, uint256 duration)\n        external\n        override\n        onlyOwner\n    {\n        require(\n            AccessControl(address(rewardsToken)).hasRole(\n                rewardsToken.minterRole(),\n                address(staking)\n            ),\n            \"Staking must have minter role\"\n        );\n        StakingRewards(staking).prolongStacking(duration);\n        emit StakingProlonged(staking);\n    }\n}\n",
  "sourcePath": "/home/nailkhaf/Projects/san-games/contracts/rewards/StakingRewardsFactory.sol",
  "compiler": {
    "name": "solc",
    "version": "0.7.6+commit.7338295f.Emscripten.clang"
  },
  "schemaVersion": "3.3.3",
  "updatedAt": "2021-02-18T13:57:56.678Z",
  "devdoc": {
    "kind": "dev",
    "methods": {
      "createStaking(string,string,address,uint256,uint256)": {
        "details": "Deploy contract {StakingReward} as ERC20 token with `_name`, `_symbol`. Return address of deployed contract."
      },
      "owner()": {
        "details": "Returns the address of the current owner."
      },
      "prolongStacking(address,uint256)": {
        "details": "Prolong staking rewards at `staking` contract for `stakingDuration` time"
      },
      "renounceOwnership()": {
        "details": "Leaves the contract without owner. It will not be possible to call `onlyOwner` functions anymore. Can only be called by the current owner. NOTE: Renouncing ownership will leave the contract without an owner, thereby removing any functionality that is only available to the owner."
      },
      "transferOwnership(address)": {
        "details": "Transfers ownership of the contract to a new account (`newOwner`). Can only be called by the current owner."
      }
    },
    "version": 1
  },
  "userdoc": {
    "kind": "user",
    "methods": {},
    "version": 1
  }
}