{
  "contractName": "StakingRewards",
  "abi": [
    {
      "inputs": [
        {
          "internalType": "string",
          "name": "name_",
          "type": "string"
        },
        {
          "internalType": "string",
          "name": "symbol_",
          "type": "string"
        },
        {
          "internalType": "address",
          "name": "rewardsToken_",
          "type": "address"
        },
        {
          "internalType": "address",
          "name": "stakingToken_",
          "type": "address"
        },
        {
          "internalType": "uint256",
          "name": "maximalStake_",
          "type": "uint256"
        },
        {
          "internalType": "uint256",
          "name": "rewardRate_",
          "type": "uint256"
        }
      ],
      "stateMutability": "nonpayable",
      "type": "constructor"
    },
    {
      "anonymous": false,
      "inputs": [
        {
          "indexed": true,
          "internalType": "address",
          "name": "owner",
          "type": "address"
        },
        {
          "indexed": true,
          "internalType": "address",
          "name": "spender",
          "type": "address"
        },
        {
          "indexed": false,
          "internalType": "uint256",
          "name": "value",
          "type": "uint256"
        }
      ],
      "name": "Approval",
      "type": "event"
    },
    {
      "anonymous": false,
      "inputs": [
        {
          "indexed": true,
          "internalType": "address",
          "name": "previousOwner",
          "type": "address"
        },
        {
          "indexed": true,
          "internalType": "address",
          "name": "newOwner",
          "type": "address"
        }
      ],
      "name": "OwnershipTransferred",
      "type": "event"
    },
    {
      "anonymous": false,
      "inputs": [
        {
          "indexed": true,
          "internalType": "address",
          "name": "user",
          "type": "address"
        },
        {
          "indexed": false,
          "internalType": "uint256",
          "name": "reward",
          "type": "uint256"
        }
      ],
      "name": "RewardPaid",
      "type": "event"
    },
    {
      "anonymous": false,
      "inputs": [
        {
          "indexed": false,
          "internalType": "uint256",
          "name": "rewardsDuration",
          "type": "uint256"
        }
      ],
      "name": "RewardProlonged",
      "type": "event"
    },
    {
      "anonymous": false,
      "inputs": [
        {
          "indexed": true,
          "internalType": "address",
          "name": "user",
          "type": "address"
        },
        {
          "indexed": false,
          "internalType": "uint256",
          "name": "amount",
          "type": "uint256"
        }
      ],
      "name": "Staked",
      "type": "event"
    },
    {
      "anonymous": false,
      "inputs": [
        {
          "indexed": true,
          "internalType": "address",
          "name": "from",
          "type": "address"
        },
        {
          "indexed": true,
          "internalType": "address",
          "name": "to",
          "type": "address"
        },
        {
          "indexed": false,
          "internalType": "uint256",
          "name": "value",
          "type": "uint256"
        }
      ],
      "name": "Transfer",
      "type": "event"
    },
    {
      "anonymous": false,
      "inputs": [
        {
          "indexed": true,
          "internalType": "address",
          "name": "user",
          "type": "address"
        },
        {
          "indexed": false,
          "internalType": "uint256",
          "name": "amount",
          "type": "uint256"
        }
      ],
      "name": "Withdrawn",
      "type": "event"
    },
    {
      "inputs": [
        {
          "internalType": "address",
          "name": "owner",
          "type": "address"
        },
        {
          "internalType": "address",
          "name": "spender",
          "type": "address"
        }
      ],
      "name": "allowance",
      "outputs": [
        {
          "internalType": "uint256",
          "name": "",
          "type": "uint256"
        }
      ],
      "stateMutability": "view",
      "type": "function"
    },
    {
      "inputs": [
        {
          "internalType": "address",
          "name": "spender",
          "type": "address"
        },
        {
          "internalType": "uint256",
          "name": "amount",
          "type": "uint256"
        }
      ],
      "name": "approve",
      "outputs": [
        {
          "internalType": "bool",
          "name": "",
          "type": "bool"
        }
      ],
      "stateMutability": "nonpayable",
      "type": "function"
    },
    {
      "inputs": [
        {
          "internalType": "address",
          "name": "account",
          "type": "address"
        }
      ],
      "name": "balanceOf",
      "outputs": [
        {
          "internalType": "uint256",
          "name": "",
          "type": "uint256"
        }
      ],
      "stateMutability": "view",
      "type": "function"
    },
    {
      "inputs": [],
      "name": "decimals",
      "outputs": [
        {
          "internalType": "uint8",
          "name": "",
          "type": "uint8"
        }
      ],
      "stateMutability": "view",
      "type": "function"
    },
    {
      "inputs": [
        {
          "internalType": "address",
          "name": "spender",
          "type": "address"
        },
        {
          "internalType": "uint256",
          "name": "subtractedValue",
          "type": "uint256"
        }
      ],
      "name": "decreaseAllowance",
      "outputs": [
        {
          "internalType": "bool",
          "name": "",
          "type": "bool"
        }
      ],
      "stateMutability": "nonpayable",
      "type": "function"
    },
    {
      "inputs": [
        {
          "internalType": "address",
          "name": "account",
          "type": "address"
        }
      ],
      "name": "earned",
      "outputs": [
        {
          "internalType": "uint256",
          "name": "",
          "type": "uint256"
        }
      ],
      "stateMutability": "view",
      "type": "function"
    },
    {
      "inputs": [
        {
          "internalType": "address",
          "name": "account",
          "type": "address"
        }
      ],
      "name": "exit",
      "outputs": [],
      "stateMutability": "nonpayable",
      "type": "function"
    },
    {
      "inputs": [
        {
          "internalType": "address",
          "name": "spender",
          "type": "address"
        },
        {
          "internalType": "uint256",
          "name": "addedValue",
          "type": "uint256"
        }
      ],
      "name": "increaseAllowance",
      "outputs": [
        {
          "internalType": "bool",
          "name": "",
          "type": "bool"
        }
      ],
      "stateMutability": "nonpayable",
      "type": "function"
    },
    {
      "inputs": [],
      "name": "maximalStake",
      "outputs": [
        {
          "internalType": "uint256",
          "name": "",
          "type": "uint256"
        }
      ],
      "stateMutability": "view",
      "type": "function"
    },
    {
      "inputs": [],
      "name": "name",
      "outputs": [
        {
          "internalType": "string",
          "name": "",
          "type": "string"
        }
      ],
      "stateMutability": "view",
      "type": "function"
    },
    {
      "inputs": [],
      "name": "owner",
      "outputs": [
        {
          "internalType": "address",
          "name": "",
          "type": "address"
        }
      ],
      "stateMutability": "view",
      "type": "function"
    },
    {
      "inputs": [],
      "name": "periodFinish",
      "outputs": [
        {
          "internalType": "uint256",
          "name": "",
          "type": "uint256"
        }
      ],
      "stateMutability": "view",
      "type": "function"
    },
    {
      "inputs": [],
      "name": "renounceOwnership",
      "outputs": [],
      "stateMutability": "nonpayable",
      "type": "function"
    },
    {
      "inputs": [],
      "name": "rewardRate",
      "outputs": [
        {
          "internalType": "uint256",
          "name": "",
          "type": "uint256"
        }
      ],
      "stateMutability": "view",
      "type": "function"
    },
    {
      "inputs": [],
      "name": "rewardsToken",
      "outputs": [
        {
          "internalType": "contract IRewardsToken",
          "name": "",
          "type": "address"
        }
      ],
      "stateMutability": "view",
      "type": "function"
    },
    {
      "inputs": [
        {
          "internalType": "address",
          "name": "account",
          "type": "address"
        },
        {
          "internalType": "uint256",
          "name": "amount",
          "type": "uint256"
        }
      ],
      "name": "stake",
      "outputs": [],
      "stateMutability": "nonpayable",
      "type": "function"
    },
    {
      "inputs": [],
      "name": "stakingToken",
      "outputs": [
        {
          "internalType": "contract IERC20",
          "name": "",
          "type": "address"
        }
      ],
      "stateMutability": "view",
      "type": "function"
    },
    {
      "inputs": [],
      "name": "symbol",
      "outputs": [
        {
          "internalType": "string",
          "name": "",
          "type": "string"
        }
      ],
      "stateMutability": "view",
      "type": "function"
    },
    {
      "inputs": [],
      "name": "totalSupply",
      "outputs": [
        {
          "internalType": "uint256",
          "name": "",
          "type": "uint256"
        }
      ],
      "stateMutability": "view",
      "type": "function"
    },
    {
      "inputs": [
        {
          "internalType": "address",
          "name": "recipient",
          "type": "address"
        },
        {
          "internalType": "uint256",
          "name": "amount",
          "type": "uint256"
        }
      ],
      "name": "transfer",
      "outputs": [
        {
          "internalType": "bool",
          "name": "",
          "type": "bool"
        }
      ],
      "stateMutability": "nonpayable",
      "type": "function"
    },
    {
      "inputs": [
        {
          "internalType": "address",
          "name": "sender",
          "type": "address"
        },
        {
          "internalType": "address",
          "name": "recipient",
          "type": "address"
        },
        {
          "internalType": "uint256",
          "name": "amount",
          "type": "uint256"
        }
      ],
      "name": "transferFrom",
      "outputs": [
        {
          "internalType": "bool",
          "name": "",
          "type": "bool"
        }
      ],
      "stateMutability": "nonpayable",
      "type": "function"
    },
    {
      "inputs": [
        {
          "internalType": "address",
          "name": "newOwner",
          "type": "address"
        }
      ],
      "name": "transferOwnership",
      "outputs": [],
      "stateMutability": "nonpayable",
      "type": "function"
    },
    {
      "inputs": [
        {
          "internalType": "address",
          "name": "account",
          "type": "address"
        },
        {
          "internalType": "uint256",
          "name": "amount",
          "type": "uint256"
        }
      ],
      "name": "withdraw",
      "outputs": [],
      "stateMutability": "nonpayable",
      "type": "function"
    },
    {
      "inputs": [
        {
          "internalType": "address",
          "name": "account",
          "type": "address"
        }
      ],
      "name": "getReward",
      "outputs": [],
      "stateMutability": "nonpayable",
      "type": "function"
    },
    {
      "inputs": [
        {
          "internalType": "uint256",
          "name": "duration",
          "type": "uint256"
        }
      ],
      "name": "prolongStacking",
      "outputs": [],
      "stateMutability": "nonpayable",
      "type": "function"
    }
  ],
  "bytecode": "0x6101006040523480156200001257600080fd5b5060405162001f6338038062001f63833981810160405260c08110156200003857600080fd5b81019080805160405193929190846401000000008211156200005957600080fd5b9083019060208201858111156200006f57600080fd5b82516401000000008111828201881017156200008a57600080fd5b82525081516020918201929091019080838360005b83811015620000b95781810151838201526020016200009f565b50505050905090810190601f168015620000e75780820380516001836020036101000a031916815260200191505b50604052602001805160405193929190846401000000008211156200010b57600080fd5b9083019060208201858111156200012157600080fd5b82516401000000008111828201881017156200013c57600080fd5b82525081516020918201929091019080838360005b838110156200016b57818101518382015260200162000151565b50505050905090810190601f168015620001995780820380516001836020036101000a031916815260200191505b506040908152602082015190820151606083015160809093015191945092508585858585848481816000620001cd620003b8565b600080546001600160a01b0319166001600160a01b0383169081178255604051929350917f8be0079c531659141344cd1fd0a4f28419497f9722a3daafe3b4186f6b6457e0908290a35081516200022c906004906020850190620003c2565b50805162000242906005906020840190620003c2565b50506006805460ff1916601217905550505080620002a7576040805162461bcd60e51b815260206004820152601560248201527f4d6178696d616c207374616b65206973207a65726f0000000000000000000000604482015290519081900360640190fd5b620002c6836001600160a01b0316620003bc60201b6200114b1760201c565b62000318576040805162461bcd60e51b815260206004820152601d60248201527f52657761726473546f6b656e206d75737420626520636f6e7472616374000000604482015290519081900360640190fd5b62000337826001600160a01b0316620003bc60201b6200114b1760201c565b62000389576040805162461bcd60e51b815260206004820152601d60248201527f52657761726473546f6b656e206d75737420626520636f6e7472616374000000604482015290519081900360640190fd5b6001600160601b0319606093841b81166080529190921b1660a05260c052505060e052506200046e9350505050565b3390565b3b151590565b828054600181600116156101000203166002900490600052602060002090601f016020900481019282620003fa576000855562000445565b82601f106200041557805160ff191683800117855562000445565b8280016001018555821562000445579182015b828111156200044557825182559160200191906001019062000428565b506200045392915062000457565b5090565b5b8082111562000453576000815560010162000458565b60805160601c60a05160601c60c05160e051611aa0620004c3600039806109405280611170525080610b335280610ca252508061091c5280610bc052806110e0525080610dc35280610e685250611aa06000f3fe608060405234801561001057600080fd5b50600436106101725760003560e01c80638da5cb5b116100de578063b4509cb511610097578063dd62ed3e11610071578063dd62ed3e14610431578063ebe2b12b1461045f578063f2fde38b14610467578063f3fef3a31461048d57610172565b8063b4509cb5146103fb578063c00007b014610403578063d1af0c7d1461042957610172565b80638da5cb5b1461036d57806395d89b4114610375578063a457c2d71461037d578063a9059cbb1461022c578063adc9772e146103a9578063b42652e9146103d557610172565b8063313ce56711610130578063313ce567146102c957806339509351146102e757806370a0823114610313578063715018a61461033957806372f702f3146103415780637b0a47ee1461036557610172565b80628cc2621461017757806306fdde03146101af578063095ea7b31461022c57806315f101181461026c57806318160ddd1461028b57806323b872dd14610293575b600080fd5b61019d6004803603602081101561018d57600080fd5b50356001600160a01b03166104b9565b60408051918252519081900360200190f35b6101b7610527565b6040805160208082528351818301528351919283929083019185019080838360005b838110156101f15781810151838201526020016101d9565b50505050905090810190601f16801561021e5780820380516001836020036101000a031916815260200191505b509250505060405180910390f35b6102586004803603604081101561024257600080fd5b506001600160a01b0381351690602001356105be565b604080519115158252519081900360200190f35b6102896004803603602081101561028257600080fd5b50356105db565b005b61019d61075c565b610258600480360360608110156102a957600080fd5b506001600160a01b03813581169160208101359091169060400135610762565b6102d16107ea565b6040805160ff9092168252519081900360200190f35b610258600480360360408110156102fd57600080fd5b506001600160a01b0381351690602001356107f3565b61019d6004803603602081101561032957600080fd5b50356001600160a01b0316610841565b61028961085c565b61034961091a565b604080516001600160a01b039092168252519081900360200190f35b61019d61093e565b610349610962565b6101b7610971565b6102586004803603604081101561039357600080fd5b506001600160a01b0381351690602001356109d2565b610289600480360360408110156103bf57600080fd5b506001600160a01b038135169060200135610a3a565b610289600480360360208110156103eb57600080fd5b50356001600160a01b0316610c2c565b61019d610ca0565b6102896004803603602081101561041957600080fd5b50356001600160a01b0316610cc4565b610349610e66565b61019d6004803603604081101561044757600080fd5b506001600160a01b0381358116916020013516610e8a565b61019d610eb5565b6102896004803603602081101561047d57600080fd5b50356001600160a01b0316610ebb565b610289600480360360408110156104a357600080fd5b506001600160a01b038135169060200135610fcf565b6001600160a01b0381166000908152600b6020908152604080832054600a909252822054610521919061051b90670de0b6b3a7640000906105159061050690610500611151565b906111ab565b61050f88610841565b90611208565b90611261565b906112c8565b92915050565b60048054604080516020601f60026000196101006001881615020190951694909404938401819004810282018101909252828152606093909290918301828280156105b35780601f10610588576101008083540402835291602001916105b3565b820191906000526020600020905b81548152906001019060200180831161059657829003601f168201915b505050505090505b90565b60006105d26105cb611322565b8484611326565b50600192915050565b6105e3611322565b6001600160a01b03166105f4610962565b6001600160a01b03161461064f576040805162461bcd60e51b815260206004820181905260248201527f4f776e61626c653a2063616c6c6572206973206e6f7420746865206f776e6572604482015290519081900360640190fd5b6000610659611151565b60095561066461135f565b6008556001600160a01b038116156106ab5761067f816104b9565b6001600160a01b0382166000908152600b6020908152604080832093909355600954600a909152919020555b63024ea00082106106f7576040805162461bcd60e51b81526020600482015260116024820152704475726174696f6e20746f6f206c6f6e6760781b604482015290519081900360640190fd5b6007546107105761070842836112c8565b600755610721565b60075461071d90836112c8565b6007555b426008556040805183815290517f97d3a6deacea6b2c9504b045962ee3906801cbcf13b222f7867532186544e5a69181900360200190a15050565b60035490565b600061076f848484611326565b6107df8461077b611322565b6107da856040518060600160405280602881526020016119d3602891396001600160a01b038a166000908152600260205260408120906107b9611322565b6001600160a01b03168152602081019190915260400160002054919061136d565b611326565b5060015b9392505050565b60065460ff1690565b60006105d2610800611322565b846107da8560026000610811611322565b6001600160a01b03908116825260208083019390935260409182016000908120918c1681529252902054906112c8565b6001600160a01b031660009081526001602052604090205490565b610864611322565b6001600160a01b0316610875610962565b6001600160a01b0316146108d0576040805162461bcd60e51b815260206004820181905260248201527f4f776e61626c653a2063616c6c6572206973206e6f7420746865206f776e6572604482015290519081900360640190fd5b600080546040516001600160a01b03909116907f8be0079c531659141344cd1fd0a4f28419497f9722a3daafe3b4186f6b6457e0908390a3600080546001600160a01b0319169055565b7f000000000000000000000000000000000000000000000000000000000000000081565b7f000000000000000000000000000000000000000000000000000000000000000081565b6000546001600160a01b031690565b60058054604080516020601f60026000196101006001881615020190951694909404938401819004810282018101909252828152606093909290918301828280156105b35780601f10610588576101008083540402835291602001916105b3565b60006105d26109df611322565b846107da85604051806060016040528060258152602001611a466025913960026000610a09611322565b6001600160a01b03908116825260208083019390935260409182016000908120918d1681529252902054919061136d565b81610a43611151565b600955610a4e61135f565b6008556001600160a01b03811615610a9557610a69816104b9565b6001600160a01b0382166000908152600b6020908152604080832093909355600954600a909152919020555b6001600160a01b0383163314610aeb576040805162461bcd60e51b815260206004820152601660248201527514d95b99195c881b5d5cdd081899481858d8dbdd5b9d60521b604482015290519081900360640190fd5b60008211610b31576040805162461bcd60e51b815260206004820152600e60248201526d043616e6e6f74207374616b6520360941b604482015290519081900360640190fd5b7f0000000000000000000000000000000000000000000000000000000000000000610b5f8361051b86610841565b1115610ba9576040805162461bcd60e51b815260206004820152601460248201527314dd185ad948195e18d95959081b585e1a5b585b60621b604482015290519081900360640190fd5b610bb38383611404565b610be86001600160a01b037f0000000000000000000000000000000000000000000000000000000000000000168430856114f6565b6040805183815290516001600160a01b038516917f9e71bc8eea02a63969f509818f2dafb9254532904319f9dbda79b67bd34a5f3d919081900360200190a2505050565b6001600160a01b0381163314610c82576040805162461bcd60e51b815260206004820152601660248201527514d95b99195c881b5d5cdd081899481858d8dbdd5b9d60521b604482015290519081900360640190fd5b610c9481610c8f83610841565b610fcf565b610c9d81610cc4565b50565b7f000000000000000000000000000000000000000000000000000000000000000090565b80610ccd611151565b600955610cd861135f565b6008556001600160a01b03811615610d1f57610cf3816104b9565b6001600160a01b0382166000908152600b6020908152604080832093909355600954600a909152919020555b6001600160a01b0382163314610d75576040805162461bcd60e51b815260206004820152601660248201527514d95b99195c881b5d5cdd081899481858d8dbdd5b9d60521b604482015290519081900360640190fd5b6000610d80836104b9565b90508015610e61576001600160a01b038084166000818152600b602052604080822082905580516340c10f1960e01b8152600481019390935260248301859052517f0000000000000000000000000000000000000000000000000000000000000000909316926340c10f1992604480820193929182900301818387803b158015610e0957600080fd5b505af1158015610e1d573d6000803e3d6000fd5b50506040805184815290516001600160a01b03871693507fe2403640ba68fed3a2f88b7557551d1993f84b99bb10ff833f0cf8db0c5e048692509081900360200190a25b505050565b7f000000000000000000000000000000000000000000000000000000000000000081565b6001600160a01b03918216600090815260026020908152604080832093909416825291909152205490565b60075490565b610ec3611322565b6001600160a01b0316610ed4610962565b6001600160a01b031614610f2f576040805162461bcd60e51b815260206004820181905260248201527f4f776e61626c653a2063616c6c6572206973206e6f7420746865206f776e6572604482015290519081900360640190fd5b6001600160a01b038116610f745760405162461bcd60e51b81526004018080602001828103825260268152602001806119666026913960400191505060405180910390fd5b600080546040516001600160a01b03808516939216917f8be0079c531659141344cd1fd0a4f28419497f9722a3daafe3b4186f6b6457e091a3600080546001600160a01b0319166001600160a01b0392909216919091179055565b81610fd8611151565b600955610fe361135f565b6008556001600160a01b0381161561102a57610ffe816104b9565b6001600160a01b0382166000908152600b6020908152604080832093909355600954600a909152919020555b6001600160a01b0383163314611080576040805162461bcd60e51b815260206004820152601660248201527514d95b99195c881b5d5cdd081899481858d8dbdd5b9d60521b604482015290519081900360640190fd5b600082116110c9576040805162461bcd60e51b8152602060048201526011602482015270043616e6e6f74207769746864726177203607c1b604482015290519081900360640190fd5b6110d38383611556565b6111076001600160a01b037f0000000000000000000000000000000000000000000000000000000000000000168484611652565b6040805183815290516001600160a01b038516917f7084f5476618d8e60b11ef0d7d3f06914655adb8793e28ff7f018d4c76d505d5919081900360200190a2505050565b3b151590565b600061115b61075c565b61116857506009546105bb565b6111a661119d7f000000000000000000000000000000000000000000000000000000000000000061050f60085461050061135f565b600954906112c8565b905090565b600082821115611202576040805162461bcd60e51b815260206004820152601e60248201527f536166654d6174683a207375627472616374696f6e206f766572666c6f770000604482015290519081900360640190fd5b50900390565b60008261121757506000610521565b8282028284828161122457fe5b04146107e35760405162461bcd60e51b81526004018080602001828103825260218152602001806119b26021913960400191505060405180910390fd5b60008082116112b7576040805162461bcd60e51b815260206004820152601a60248201527f536166654d6174683a206469766973696f6e206279207a65726f000000000000604482015290519081900360640190fd5b8183816112c057fe5b049392505050565b6000828201838110156107e3576040805162461bcd60e51b815260206004820152601b60248201527f536166654d6174683a206164646974696f6e206f766572666c6f770000000000604482015290519081900360640190fd5b3390565b6040805162461bcd60e51b81526020600482015260096024820152682337b93134b23232b760b91b604482015290519081900360640190fd5b60006111a6426007546116a4565b600081848411156113fc5760405162461bcd60e51b81526004018080602001828103825283818151815260200191508051906020019080838360005b838110156113c15781810151838201526020016113a9565b50505050905090810190601f1680156113ee5780820380516001836020036101000a031916815260200191505b509250505060405180910390fd5b505050900390565b6001600160a01b03821661145f576040805162461bcd60e51b815260206004820152601f60248201527f45524332303a206d696e7420746f20746865207a65726f206164647265737300604482015290519081900360640190fd5b61146b60008383610e61565b60035461147890826112c8565b6003556001600160a01b03821660009081526001602052604090205461149e90826112c8565b6001600160a01b03831660008181526001602090815260408083209490945583518581529351929391927fddf252ad1be2c89b69c2b068fc378daa952ba7f163c4a11628f55a4df523b3ef9281900390910190a35050565b604080516001600160a01b0380861660248301528416604482015260648082018490528251808303909101815260849091019091526020810180516001600160e01b03166323b872dd60e01b1790526115509085906116ba565b50505050565b6001600160a01b03821661159b5760405162461bcd60e51b81526004018080602001828103825260218152602001806119fb6021913960400191505060405180910390fd5b6115a782600083610e61565b6115e481604051806060016040528060228152602001611944602291396001600160a01b038516600090815260016020526040902054919061136d565b6001600160a01b03831660009081526001602052604090205560035461160a90826111ab565b6003556040805182815290516000916001600160a01b038516917fddf252ad1be2c89b69c2b068fc378daa952ba7f163c4a11628f55a4df523b3ef9181900360200190a35050565b604080516001600160a01b038416602482015260448082018490528251808303909101815260649091019091526020810180516001600160e01b031663a9059cbb60e01b179052610e619084906116ba565b60008183106116b357816107e3565b5090919050565b600061170f826040518060400160405280602081526020017f5361666545524332303a206c6f772d6c6576656c2063616c6c206661696c6564815250856001600160a01b031661176b9092919063ffffffff16565b805190915015610e615780806020019051602081101561172e57600080fd5b5051610e615760405162461bcd60e51b815260040180806020018281038252602a815260200180611a1c602a913960400191505060405180910390fd5b606061177a8484600085611782565b949350505050565b6060824710156117c35760405162461bcd60e51b815260040180806020018281038252602681526020018061198c6026913960400191505060405180910390fd5b6117cc8561114b565b61181d576040805162461bcd60e51b815260206004820152601d60248201527f416464726573733a2063616c6c20746f206e6f6e2d636f6e7472616374000000604482015290519081900360640190fd5b600080866001600160a01b031685876040518082805190602001908083835b6020831061185b5780518252601f19909201916020918201910161183c565b6001836020036101000a03801982511681845116808217855250505050505090500191505060006040518083038185875af1925050503d80600081146118bd576040519150601f19603f3d011682016040523d82523d6000602084013e6118c2565b606091505b50915091506118d28282866118dd565b979650505050505050565b606083156118ec5750816107e3565b8251156118fc5782518084602001fd5b60405162461bcd60e51b81526020600482018181528451602484015284518593919283926044019190850190808383600083156113c15781810151838201526020016113a956fe45524332303a206275726e20616d6f756e7420657863656564732062616c616e63654f776e61626c653a206e6577206f776e657220697320746865207a65726f2061646472657373416464726573733a20696e73756666696369656e742062616c616e636520666f722063616c6c536166654d6174683a206d756c7469706c69636174696f6e206f766572666c6f7745524332303a207472616e7366657220616d6f756e74206578636565647320616c6c6f77616e636545524332303a206275726e2066726f6d20746865207a65726f20616464726573735361666545524332303a204552433230206f7065726174696f6e20646964206e6f74207375636365656445524332303a2064656372656173656420616c6c6f77616e63652062656c6f77207a65726fa264697066735822122010373343a2c8f8a539712312ee9101d7120983deb1b9da6c03ad9e2d1ed0e19d64736f6c63430007060033",
  "immutableReferences": {
    "2342": [
      {
        "length": 32,
        "start": 3523
      },
      {
        "length": 32,
        "start": 3688
      }
    ],
    "2344": [
      {
        "length": 32,
        "start": 2332
      },
      {
        "length": 32,
        "start": 3008
      },
      {
        "length": 32,
        "start": 4320
      }
    ],
    "2346": [
      {
        "length": 32,
        "start": 2867
      },
      {
        "length": 32,
        "start": 3234
      }
    ],
    "3020": [
      {
        "length": 32,
        "start": 2368
      },
      {
        "length": 32,
        "start": 4464
      }
    ]
  },
  "source": "// SPDX-License-Identifier: MIT\npragma solidity >=0.6.0 <0.8.0;\n\nimport \"@openzeppelin/contracts/math/SafeMath.sol\";\nimport \"@openzeppelin/contracts/math/Math.sol\";\nimport \"@openzeppelin/contracts/utils/Context.sol\";\nimport \"@openzeppelin/contracts/token/ERC20/SafeERC20.sol\";\nimport \"@openzeppelin/contracts/access/Ownable.sol\";\n\nimport \"./BaseRewards.sol\";\nimport \"../interfaces/IRewardsToken.sol\";\nimport \"../interfaces/IProlongStaking.sol\";\n\ncontract StakingRewards is Ownable, BaseRewards, IProlongStaking {\n    using SafeERC20 for IERC20;\n    using SafeMath for uint256;\n\n    uint256 public immutable rewardRate;\n\n    constructor(\n        string memory name_,\n        string memory symbol_,\n        address rewardsToken_,\n        address stakingToken_,\n        uint256 maximalStake_,\n        uint256 rewardRate_\n    ) BaseRewards(name_, symbol_, rewardsToken_, stakingToken_, maximalStake_) {\n        rewardRate = rewardRate_;\n    }\n\n    function getReward(address account) public override updateReward(account) {\n        require(account == msg.sender, \"Sender must be account\");\n        uint256 reward = earned(account);\n        if (reward > 0) {\n            _rewards[account] = 0;\n            rewardsToken.mint(account, reward);\n            emit RewardPaid(account, reward);\n        }\n    }\n\n    function _rewardPerToken() internal view override returns (uint256) {\n        if (totalSupply() == 0) {\n            return _rewardPerTokenStored;\n        }\n        return\n            _rewardPerTokenStored.add(\n                _lastTimeRewardApplicable().sub(_lastUpdateTime).mul(rewardRate)\n            );\n    }\n\n    function prolongStacking(uint256 duration)\n        external\n        override\n        onlyOwner\n        updateReward(address(0))\n    {\n        require(duration < 64 weeks, \"Duration too long\");\n        if (_periodFinish == 0) {\n            _periodFinish = block.timestamp.add(duration);\n        } else {\n            _periodFinish = _periodFinish.add(duration);\n        }\n\n        _lastUpdateTime = block.timestamp;\n\n        emit RewardProlonged(duration);\n    }\n}\n",
  "sourcePath": "/home/nailkhaf/Projects/san-games/contracts/rewards/StakingRewards.sol",
  "compiler": {
    "name": "solc",
    "version": "0.7.6+commit.7338295f.Emscripten.clang"
  },
  "schemaVersion": "3.3.3",
  "updatedAt": "2021-02-16T10:30:05.227Z",
  "devdoc": {
    "kind": "dev",
    "methods": {
      "allowance(address,address)": {
        "details": "See {IERC20-allowance}."
      },
      "approve(address,uint256)": {
        "details": "See {IERC20-approve}. Requirements: - `spender` cannot be the zero address."
      },
      "balanceOf(address)": {
        "details": "See {IERC20-balanceOf}."
      },
      "decimals()": {
        "details": "Returns the number of decimals used to get its user representation. For example, if `decimals` equals `2`, a balance of `505` tokens should be displayed to a user as `5,05` (`505 / 10 ** 2`). Tokens usually opt for a value of 18, imitating the relationship between Ether and Wei. This is the value {ERC20} uses, unless {_setupDecimals} is called. NOTE: This information is only used for _display_ purposes: it in no way affects any of the arithmetic of the contract, including {IERC20-balanceOf} and {IERC20-transfer}."
      },
      "decreaseAllowance(address,uint256)": {
        "details": "Atomically decreases the allowance granted to `spender` by the caller. This is an alternative to {approve} that can be used as a mitigation for problems described in {IERC20-approve}. Emits an {Approval} event indicating the updated allowance. Requirements: - `spender` cannot be the zero address. - `spender` must have allowance for the caller of at least `subtractedValue`."
      },
      "increaseAllowance(address,uint256)": {
        "details": "Atomically increases the allowance granted to `spender` by the caller. This is an alternative to {approve} that can be used as a mitigation for problems described in {IERC20-approve}. Emits an {Approval} event indicating the updated allowance. Requirements: - `spender` cannot be the zero address."
      },
      "name()": {
        "details": "Returns the name of the token."
      },
      "owner()": {
        "details": "Returns the address of the current owner."
      },
      "prolongStacking(uint256)": {
        "details": "Prolong staking rewards for `duration` time."
      },
      "renounceOwnership()": {
        "details": "Leaves the contract without owner. It will not be possible to call `onlyOwner` functions anymore. Can only be called by the current owner. NOTE: Renouncing ownership will leave the contract without an owner, thereby removing any functionality that is only available to the owner."
      },
      "symbol()": {
        "details": "Returns the symbol of the token, usually a shorter version of the name."
      },
      "totalSupply()": {
        "details": "See {IERC20-totalSupply}."
      },
      "transfer(address,uint256)": {
        "details": "See {IERC20-transfer}. Requirements: - `recipient` cannot be the zero address. - the caller must have a balance of at least `amount`."
      },
      "transferFrom(address,address,uint256)": {
        "details": "See {IERC20-transferFrom}. Emits an {Approval} event indicating the updated allowance. This is not required by the EIP. See the note at the beginning of {ERC20}. Requirements: - `sender` and `recipient` cannot be the zero address. - `sender` must have a balance of at least `amount`. - the caller must have allowance for ``sender``'s tokens of at least `amount`."
      },
      "transferOwnership(address)": {
        "details": "Transfers ownership of the contract to a new account (`newOwner`). Can only be called by the current owner."
      }
    },
    "version": 1
  },
  "userdoc": {
    "kind": "user",
    "methods": {},
    "version": 1
  }
}