{
  "contractName": "TrustedForwarder",
  "abi": [
    {
      "inputs": [
        {
          "internalType": "address",
          "name": "_rewardsToken",
          "type": "address"
        }
      ],
      "stateMutability": "nonpayable",
      "type": "constructor"
    },
    {
      "anonymous": false,
      "inputs": [
        {
          "indexed": true,
          "internalType": "bytes32",
          "name": "domainSeparator",
          "type": "bytes32"
        },
        {
          "indexed": false,
          "internalType": "bytes",
          "name": "domainValue",
          "type": "bytes"
        }
      ],
      "name": "DomainRegistered",
      "type": "event"
    },
    {
      "anonymous": false,
      "inputs": [
        {
          "indexed": true,
          "internalType": "bytes32",
          "name": "typeHash",
          "type": "bytes32"
        },
        {
          "indexed": false,
          "internalType": "string",
          "name": "typeStr",
          "type": "string"
        }
      ],
      "name": "RequestTypeRegistered",
      "type": "event"
    },
    {
      "anonymous": false,
      "inputs": [
        {
          "indexed": true,
          "internalType": "bytes32",
          "name": "role",
          "type": "bytes32"
        },
        {
          "indexed": true,
          "internalType": "bytes32",
          "name": "previousAdminRole",
          "type": "bytes32"
        },
        {
          "indexed": true,
          "internalType": "bytes32",
          "name": "newAdminRole",
          "type": "bytes32"
        }
      ],
      "name": "RoleAdminChanged",
      "type": "event"
    },
    {
      "anonymous": false,
      "inputs": [
        {
          "indexed": true,
          "internalType": "bytes32",
          "name": "role",
          "type": "bytes32"
        },
        {
          "indexed": true,
          "internalType": "address",
          "name": "account",
          "type": "address"
        },
        {
          "indexed": true,
          "internalType": "address",
          "name": "sender",
          "type": "address"
        }
      ],
      "name": "RoleGranted",
      "type": "event"
    },
    {
      "anonymous": false,
      "inputs": [
        {
          "indexed": true,
          "internalType": "bytes32",
          "name": "role",
          "type": "bytes32"
        },
        {
          "indexed": true,
          "internalType": "address",
          "name": "account",
          "type": "address"
        },
        {
          "indexed": true,
          "internalType": "address",
          "name": "sender",
          "type": "address"
        }
      ],
      "name": "RoleRevoked",
      "type": "event"
    },
    {
      "inputs": [],
      "name": "DEFAULT_ADMIN_ROLE",
      "outputs": [
        {
          "internalType": "bytes32",
          "name": "",
          "type": "bytes32"
        }
      ],
      "stateMutability": "view",
      "type": "function"
    },
    {
      "inputs": [],
      "name": "EIP712_DOMAIN_TYPE",
      "outputs": [
        {
          "internalType": "string",
          "name": "",
          "type": "string"
        }
      ],
      "stateMutability": "view",
      "type": "function"
    },
    {
      "inputs": [],
      "name": "GENERIC_PARAMS",
      "outputs": [
        {
          "internalType": "string",
          "name": "",
          "type": "string"
        }
      ],
      "stateMutability": "view",
      "type": "function"
    },
    {
      "inputs": [
        {
          "components": [
            {
              "internalType": "address",
              "name": "from",
              "type": "address"
            },
            {
              "internalType": "address",
              "name": "to",
              "type": "address"
            },
            {
              "internalType": "uint256",
              "name": "value",
              "type": "uint256"
            },
            {
              "internalType": "uint256",
              "name": "gas",
              "type": "uint256"
            },
            {
              "internalType": "uint256",
              "name": "nonce",
              "type": "uint256"
            },
            {
              "internalType": "bytes",
              "name": "data",
              "type": "bytes"
            }
          ],
          "internalType": "struct IForwarder.ForwardRequest",
          "name": "req",
          "type": "tuple"
        },
        {
          "internalType": "bytes32",
          "name": "requestTypeHash",
          "type": "bytes32"
        },
        {
          "internalType": "bytes",
          "name": "suffixData",
          "type": "bytes"
        }
      ],
      "name": "_getEncoded",
      "outputs": [
        {
          "internalType": "bytes",
          "name": "",
          "type": "bytes"
        }
      ],
      "stateMutability": "pure",
      "type": "function"
    },
    {
      "inputs": [
        {
          "internalType": "bytes32",
          "name": "",
          "type": "bytes32"
        }
      ],
      "name": "domains",
      "outputs": [
        {
          "internalType": "bool",
          "name": "",
          "type": "bool"
        }
      ],
      "stateMutability": "view",
      "type": "function"
    },
    {
      "inputs": [
        {
          "internalType": "address",
          "name": "from",
          "type": "address"
        }
      ],
      "name": "getNonce",
      "outputs": [
        {
          "internalType": "uint256",
          "name": "",
          "type": "uint256"
        }
      ],
      "stateMutability": "view",
      "type": "function"
    },
    {
      "inputs": [
        {
          "internalType": "bytes32",
          "name": "role",
          "type": "bytes32"
        }
      ],
      "name": "getRoleAdmin",
      "outputs": [
        {
          "internalType": "bytes32",
          "name": "",
          "type": "bytes32"
        }
      ],
      "stateMutability": "view",
      "type": "function"
    },
    {
      "inputs": [
        {
          "internalType": "bytes32",
          "name": "role",
          "type": "bytes32"
        },
        {
          "internalType": "uint256",
          "name": "index",
          "type": "uint256"
        }
      ],
      "name": "getRoleMember",
      "outputs": [
        {
          "internalType": "address",
          "name": "",
          "type": "address"
        }
      ],
      "stateMutability": "view",
      "type": "function"
    },
    {
      "inputs": [
        {
          "internalType": "bytes32",
          "name": "role",
          "type": "bytes32"
        }
      ],
      "name": "getRoleMemberCount",
      "outputs": [
        {
          "internalType": "uint256",
          "name": "",
          "type": "uint256"
        }
      ],
      "stateMutability": "view",
      "type": "function"
    },
    {
      "inputs": [
        {
          "internalType": "bytes32",
          "name": "role",
          "type": "bytes32"
        },
        {
          "internalType": "address",
          "name": "account",
          "type": "address"
        }
      ],
      "name": "grantRole",
      "outputs": [],
      "stateMutability": "nonpayable",
      "type": "function"
    },
    {
      "inputs": [
        {
          "internalType": "bytes32",
          "name": "role",
          "type": "bytes32"
        },
        {
          "internalType": "address",
          "name": "account",
          "type": "address"
        }
      ],
      "name": "hasRole",
      "outputs": [
        {
          "internalType": "bool",
          "name": "",
          "type": "bool"
        }
      ],
      "stateMutability": "view",
      "type": "function"
    },
    {
      "inputs": [
        {
          "internalType": "string",
          "name": "name",
          "type": "string"
        },
        {
          "internalType": "string",
          "name": "version",
          "type": "string"
        }
      ],
      "name": "registerDomainSeparator",
      "outputs": [],
      "stateMutability": "nonpayable",
      "type": "function"
    },
    {
      "inputs": [
        {
          "internalType": "string",
          "name": "typeName",
          "type": "string"
        },
        {
          "internalType": "string",
          "name": "typeSuffix",
          "type": "string"
        }
      ],
      "name": "registerRequestType",
      "outputs": [],
      "stateMutability": "nonpayable",
      "type": "function"
    },
    {
      "inputs": [
        {
          "internalType": "bytes32",
          "name": "role",
          "type": "bytes32"
        },
        {
          "internalType": "address",
          "name": "account",
          "type": "address"
        }
      ],
      "name": "renounceRole",
      "outputs": [],
      "stateMutability": "nonpayable",
      "type": "function"
    },
    {
      "inputs": [
        {
          "internalType": "bytes32",
          "name": "role",
          "type": "bytes32"
        },
        {
          "internalType": "address",
          "name": "account",
          "type": "address"
        }
      ],
      "name": "revokeRole",
      "outputs": [],
      "stateMutability": "nonpayable",
      "type": "function"
    },
    {
      "inputs": [],
      "name": "rewardsToken",
      "outputs": [
        {
          "internalType": "contract RewardsToken",
          "name": "",
          "type": "address"
        }
      ],
      "stateMutability": "view",
      "type": "function"
    },
    {
      "inputs": [
        {
          "internalType": "bytes32",
          "name": "",
          "type": "bytes32"
        }
      ],
      "name": "typeHashes",
      "outputs": [
        {
          "internalType": "bool",
          "name": "",
          "type": "bool"
        }
      ],
      "stateMutability": "view",
      "type": "function"
    },
    {
      "inputs": [
        {
          "components": [
            {
              "internalType": "address",
              "name": "from",
              "type": "address"
            },
            {
              "internalType": "address",
              "name": "to",
              "type": "address"
            },
            {
              "internalType": "uint256",
              "name": "value",
              "type": "uint256"
            },
            {
              "internalType": "uint256",
              "name": "gas",
              "type": "uint256"
            },
            {
              "internalType": "uint256",
              "name": "nonce",
              "type": "uint256"
            },
            {
              "internalType": "bytes",
              "name": "data",
              "type": "bytes"
            }
          ],
          "internalType": "struct IForwarder.ForwardRequest",
          "name": "req",
          "type": "tuple"
        },
        {
          "internalType": "bytes32",
          "name": "domainSeparator",
          "type": "bytes32"
        },
        {
          "internalType": "bytes32",
          "name": "requestTypeHash",
          "type": "bytes32"
        },
        {
          "internalType": "bytes",
          "name": "suffixData",
          "type": "bytes"
        },
        {
          "internalType": "bytes",
          "name": "sig",
          "type": "bytes"
        }
      ],
      "name": "verify",
      "outputs": [],
      "stateMutability": "view",
      "type": "function"
    },
    {
      "stateMutability": "payable",
      "type": "receive"
    },
    {
      "inputs": [
        {
          "components": [
            {
              "internalType": "address",
              "name": "from",
              "type": "address"
            },
            {
              "internalType": "address",
              "name": "to",
              "type": "address"
            },
            {
              "internalType": "uint256",
              "name": "value",
              "type": "uint256"
            },
            {
              "internalType": "uint256",
              "name": "gas",
              "type": "uint256"
            },
            {
              "internalType": "uint256",
              "name": "nonce",
              "type": "uint256"
            },
            {
              "internalType": "bytes",
              "name": "data",
              "type": "bytes"
            }
          ],
          "internalType": "struct IForwarder.ForwardRequest",
          "name": "req",
          "type": "tuple"
        },
        {
          "internalType": "bytes32",
          "name": "domainSeparator",
          "type": "bytes32"
        },
        {
          "internalType": "bytes32",
          "name": "requestTypeHash",
          "type": "bytes32"
        },
        {
          "internalType": "bytes",
          "name": "suffixData",
          "type": "bytes"
        },
        {
          "internalType": "bytes",
          "name": "sig",
          "type": "bytes"
        }
      ],
      "name": "execute",
      "outputs": [
        {
          "internalType": "bool",
          "name": "success",
          "type": "bool"
        },
        {
          "internalType": "bytes",
          "name": "ret",
          "type": "bytes"
        }
      ],
      "stateMutability": "payable",
      "type": "function"
    },
    {
      "inputs": [],
      "name": "relayerRole",
      "outputs": [
        {
          "internalType": "bytes32",
          "name": "",
          "type": "bytes32"
        }
      ],
      "stateMutability": "pure",
      "type": "function"
    }
  ],
  "bytecode": "0x60a06040523480156200001157600080fd5b5060405162001cf038038062001cf0833981016040819052620000349162000255565b60006040518060800160405280604a815260200162001ca6604a913960405160200162000062919062000285565b60408051601f1981840301815291905290506200007f81620000db565b50620000966000620000906200013f565b62000143565b620000c57fe2b7fb3b832174769106daebcfd6d1970523240dda11281102db9363b83b0dc4620000906200013f565b60601b6001600160601b03191660805262000331565b8051602080830191909120600081815291829052604091829020805460ff19166001179055905181907f64d6bce64323458c44643c51fe45113efc882082f7b7fd5f09f0d69d2eedb2029062000133908590620002c9565b60405180910390a25050565b3390565b6200014f828262000153565b5050565b60008281526003602090815260409091206200017a91839062000924620001ce821b17901c565b156200014f576200018a6200013f565b6001600160a01b0316816001600160a01b0316837f2f8788117e7eff1d82e926ec794901d17c78024a50270940304540a733656f0d60405160405180910390a45050565b6000620001e5836001600160a01b038416620001ee565b90505b92915050565b6000620001fc83836200023d565b6200023457508154600181810184556000848152602080822090930184905584548482528286019093526040902091909155620001e8565b506000620001e8565b60009081526001919091016020526040902054151590565b60006020828403121562000267578081fd5b81516001600160a01b03811681146200027e578182fd5b9392505050565b60006e08cdee4eec2e4c8a4cae2eacae6e85608b1b82528251620002b181600f850160208701620002fe565b602960f81b600f939091019283015250601001919050565b6000602082528251806020840152620002ea816040850160208701620002fe565b601f01601f19169190910160400192915050565b60005b838110156200031b57818101518382015260200162000301565b838111156200032b576000848401525b50505050565b60805160601c6119576200034f600039806107e352506119576000f3fe6080604052600436106101235760003560e01c80639c7b4592116100a0578063ca15c87311610064578063ca15c87314610322578063cdf5735a14610342578063d1af0c7d14610363578063d547741f14610378578063d9210be5146103985761012a565b80639c7b459214610298578063a217fddf146102b8578063c3f28abd146102cd578063c45c2674146102e2578063c722f177146103025761012a565b806336568abe116100e757806336568abe146101f657806363928782146102165780639010d07c1461022b57806391d1485414610258578063992d82c3146102785761012a565b8063066a310c1461012f57806321fe98df1461015a578063248a9ca3146101875780632d0335ab146101b45780632f2ff15d146101d45761012a565b3661012a57005b600080fd5b34801561013b57600080fd5b506101446103b8565b6040516101519190611632565b60405180910390f35b34801561016657600080fd5b5061017a610175366004611277565b6103d4565b60405161015191906115cf565b34801561019357600080fd5b506101a76101a2366004611277565b6103e9565b60405161015191906115fd565b3480156101c057600080fd5b506101a76101cf36600461125d565b610401565b3480156101e057600080fd5b506101f46101ef36600461128f565b61041c565b005b34801561020257600080fd5b506101f461021136600461128f565b610483565b34801561022257600080fd5b506101a76104e4565b34801561023757600080fd5b5061024b6102463660046112ba565b610508565b6040516101519190611585565b34801561026457600080fd5b5061017a61027336600461128f565b610529565b34801561028457600080fd5b506101f4610293366004611344565b610541565b3480156102a457600080fd5b506101f46102b33660046112db565b6105c9565b3480156102c457600080fd5b506101a76106ab565b3480156102d957600080fd5b506101446106b0565b3480156102ee57600080fd5b506101446102fd3660046113e8565b6106cc565b34801561030e57600080fd5b5061017a61031d366004611277565b610741565b34801561032e57600080fd5b506101a761033d366004611277565b610756565b610355610350366004611344565b61076d565b6040516101519291906115da565b34801561036f57600080fd5b5061024b6107e1565b34801561038457600080fd5b506101f461039336600461128f565b610805565b3480156103a457600080fd5b506101f46103b33660046112db565b61085e565b6040518060800160405280604a8152602001611857604a913981565b60006020819052908152604090205460ff1681565b6000818152600360205260409020600201545b919050565b6001600160a01b031660009081526002602052604090205490565b60008281526003602052604090206002015461043a90610273610939565b6104755760405162461bcd60e51b815260040180806020018281038252602f8152602001806117b4602f913960400191505060405180910390fd5b61047f828261093d565b5050565b61048b610939565b6001600160a01b0316816001600160a01b0316146104da5760405162461bcd60e51b815260040180806020018281038252602f8152602001806118f3602f913960400191505060405180910390fd5b61047f82826109a6565b7fe2b7fb3b832174769106daebcfd6d1970523240dda11281102db9363b83b0dc490565b60008281526003602052604081206105209083610a0f565b90505b92915050565b60008281526003602052604081206105209083610a1b565b61054a87610a30565b6105c087878787878080601f01602080910402602001604051908101604052809392919081815260200183838082843760009201919091525050604080516020601f8b018190048102820181019092528981529250899150889081908401838280828437600092019190915250610a6f92505050565b50505050505050565b600046905060006040518060800160405280605281526020016118a1605291398051906020012086866040516106009291906114bb565b604051809103902085856040516106189291906114bb565b60405190819003812061063393929186903090602001611606565b60408051601f198184030181528282528051602080830191909120600081815260019283905293909320805460ff1916909117905592509081907f4bc68689cbe89a4a6333a3ab0a70093874da3e5bfb71e93102027f3f073687d89061069a908590611632565b60405180910390a250505050505050565b600081565b6040518060800160405280605281526020016118a16052913981565b606082846000015185602001518660400151876060015188608001518960a001518051906020012060405160200161070996959493929190611599565b60408051601f19818403018152908290526107299291859060200161147e565b60405160208183030381529060405290509392505050565b60016020526000908152604090205460ff1681565b600081815260036020526040812061052390610b4d565b6000606061079d7fe2b7fb3b832174769106daebcfd6d1970523240dda11281102db9363b83b0dc4610273610939565b6107c25760405162461bcd60e51b81526004016107b990611705565b60405180910390fd5b6107d189898989898989610b58565b909a909950975050505050505050565b7f000000000000000000000000000000000000000000000000000000000000000081565b60008281526003602052604090206002015461082390610273610939565b6104da5760405162461bcd60e51b81526004018080602001828103825260308152602001806118056030913960400191505060405180910390fd5b60005b838110156108cf57600085858381811061087757fe5b909101356001600160f81b031916915050600560fb1b81148015906108aa5750602960f81b6001600160f81b0319821614155b6108c65760405162461bcd60e51b81526004016107b990611645565b50600101610861565b50600084846040518060800160405280604a8152602001611857604a9139858560405160200161090395949392919061151e565b604051602081830303815290604052905061091d81610cc6565b5050505050565b6000610520836001600160a01b038416610d28565b3390565b60008281526003602052604090206109559082610924565b1561047f57610962610939565b6001600160a01b0316816001600160a01b0316837f2f8788117e7eff1d82e926ec794901d17c78024a50270940304540a733656f0d60405160405180910390a45050565b60008281526003602052604090206109be9082610d72565b1561047f576109cb610939565b6001600160a01b0316816001600160a01b0316837ff6391f5c32d9c69d2a47ea670b442974b53935d1edc7fd64eb21e047a839171b60405160405180910390a45050565b60006105208383610d87565b6000610520836001600160a01b038416610deb565b608081015181516001600160a01b031660009081526002602052604090205414610a6c5760405162461bcd60e51b81526004016107b99061166f565b50565b60008481526001602052604090205460ff16610a9d5760405162461bcd60e51b81526004016107b9906116ce565b60008381526020819052604090205460ff16610acb5760405162461bcd60e51b81526004016107b990611697565b600084610ad98786866106cc565b8051602091820120604051610aef93920161156a565b60408051601f19818403018152919052805160209091012086519091506001600160a01b0316610b1f8284610e03565b6001600160a01b031614610b455760405162461bcd60e51b81526004016107b990611735565b505050505050565b600061052382610e83565b60006060610b6589610a30565b610bdb89898989898080601f01602080910402602001604051908101604052809392919081815260200183838082843760009201919091525050604080516020601f8d018190048102820181019092528b815292508b91508a9081908401838280828437600092019190915250610a6f92505050565b610be489610e87565b88602001516001600160a01b031689606001518a604001518b60a001518c60000151604051602001610c179291906114e7565b60408051601f1981840301815290829052610c31916114cb565b600060405180830381858888f193505050503d8060008114610c6f576040519150601f19603f3d011682016040523d82523d6000602084013e610c74565b606091505b5090925090504715610cba5788516040516001600160a01b03909116904780156108fc02916000818181858888f19350505050158015610cb8573d6000803e3d6000fd5b505b97509795505050505050565b8051602080830191909120600081815291829052604091829020805460ff19166001179055905181907f64d6bce64323458c44643c51fe45113efc882082f7b7fd5f09f0d69d2eedb20290610d1c908590611632565b60405180910390a25050565b6000610d348383610deb565b610d6a57508154600181810184556000848152602080822090930184905584548482528286019093526040902091909155610523565b506000610523565b6000610520836001600160a01b038416610ea8565b81546000908210610dc95760405162461bcd60e51b81526004018080602001828103825260228152602001806117926022913960400191505060405180910390fd5b826000018281548110610dd857fe5b9060005260206000200154905092915050565b60009081526001919091016020526040902054151590565b60008151604114610e5b576040805162461bcd60e51b815260206004820152601f60248201527f45434453413a20696e76616c6964207369676e6174757265206c656e67746800604482015290519081900360640190fd5b60208201516040830151606084015160001a610e7986828585610f6e565b9695505050505050565b5490565b516001600160a01b0316600090815260026020526040902080546001019055565b60008181526001830160205260408120548015610f645783546000198083019190810190600090879083908110610edb57fe5b9060005260206000200154905080876000018481548110610ef857fe5b600091825260208083209091019290925582815260018981019092526040902090840190558654879080610f2857fe5b60019003818190600052602060002001600090559055866001016000878152602001908152602001600020600090556001945050505050610523565b6000915050610523565b60007f7fffffffffffffffffffffffffffffff5d576e7357a4501ddfe92f46681b20a0821115610fcf5760405162461bcd60e51b81526004018080602001828103825260228152602001806117e36022913960400191505060405180910390fd5b8360ff16601b1480610fe457508360ff16601c145b61101f5760405162461bcd60e51b81526004018080602001828103825260228152602001806118356022913960400191505060405180910390fd5b600060018686868660405160008152602001604052604051808581526020018460ff1681526020018381526020018281526020019450505050506020604051602081039080840390855afa15801561107b573d6000803e3d6000fd5b5050604051601f1901519150506001600160a01b0381166110e3576040805162461bcd60e51b815260206004820152601860248201527f45434453413a20696e76616c6964207369676e61747572650000000000000000604482015290519081900360640190fd5b95945050505050565b80356001600160a01b03811681146103fc57600080fd5b60008083601f840112611114578081fd5b50813567ffffffffffffffff81111561112b578182fd5b60208301915083602082850101111561114357600080fd5b9250929050565b600082601f83011261115a578081fd5b813567ffffffffffffffff8082111561116f57fe5b604051601f8301601f19168101602001828111828210171561118d57fe5b6040528281528483016020018610156111a4578384fd5b82602086016020830137918201602001929092529392505050565b600060c082840312156111d0578081fd5b60405160c0810167ffffffffffffffff82821081831117156111ee57fe5b816040528293506111fe856110ec565b835261120c602086016110ec565b602084015260408501356040840152606085013560608401526080850135608084015260a085013591508082111561124357600080fd5b506112508582860161114a565b60a0830152505092915050565b60006020828403121561126e578081fd5b610520826110ec565b600060208284031215611288578081fd5b5035919050565b600080604083850312156112a1578081fd5b823591506112b1602084016110ec565b90509250929050565b600080604083850312156112cc578182fd5b50508035926020909101359150565b600080600080604085870312156112f0578182fd5b843567ffffffffffffffff80821115611307578384fd5b61131388838901611103565b9096509450602087013591508082111561132b578384fd5b5061133887828801611103565b95989497509550505050565b600080600080600080600060a0888a03121561135e578283fd5b873567ffffffffffffffff80821115611375578485fd5b6113818b838c016111bf565b985060208a0135975060408a0135965060608a01359150808211156113a4578485fd5b6113b08b838c01611103565b909650945060808a01359150808211156113c8578384fd5b506113d58a828b01611103565b989b979a50959850939692959293505050565b6000806000606084860312156113fc578283fd5b833567ffffffffffffffff80821115611413578485fd5b61141f878388016111bf565b945060208601359350604086013591508082111561143b578283fd5b506114488682870161114a565b9150509250925092565b6000815180845261146a816020860160208601611761565b601f01601f19169290920160200192915050565b60008482528351611496816020850160208801611761565b808301905083516114ae816020840160208801611761565b0160200195945050505050565b6000828483379101908152919050565b600082516114dd818460208701611761565b9190910192915050565b600083516114f9818460208801611761565b60609390931b6bffffffffffffffffffffffff19169190920190815260140192915050565b600085878337600560fb1b8287019081528551611542816001840160208a01611761565b600b60fa1b600192909101918201528385600283013790920160020191825250949350505050565b61190160f01b81526002810192909252602282015260420190565b6001600160a01b0391909116815260200190565b6001600160a01b03968716815294909516602085015260408401929092526060830152608082015260a081019190915260c00190565b901515815260200190565b60008315158252604060208301526115f56040830184611452565b949350505050565b90815260200190565b9485526020850193909352604084019190915260608301526001600160a01b0316608082015260a00190565b6000602082526105206020830184611452565b60208082526010908201526f696e76616c696420747970656e616d6560801b604082015260600190565b6020808252600e908201526d0dcdedcc6ca40dad2e6dac2e8c6d60931b604082015260600190565b6020808252601d908201527f756e726567697374657265642072657175657374207479706568617368000000604082015260600190565b6020808252601d908201527f756e7265676973746572656420646f6d61696e20736570617261746f72000000604082015260600190565b6020808252601690820152754d75737420686176652072656c6179657220726f6c6560501b604082015260600190565b6020808252601290820152710e6d2cedcc2e8eae4ca40dad2e6dac2e8c6d60731b604082015260600190565b60005b8381101561177c578181015183820152602001611764565b8381111561178b576000848401525b5050505056fe456e756d657261626c655365743a20696e646578206f7574206f6620626f756e6473416363657373436f6e74726f6c3a2073656e646572206d75737420626520616e2061646d696e20746f206772616e7445434453413a20696e76616c6964207369676e6174757265202773272076616c7565416363657373436f6e74726f6c3a2073656e646572206d75737420626520616e2061646d696e20746f207265766f6b6545434453413a20696e76616c6964207369676e6174757265202776272076616c7565616464726573732066726f6d2c6164647265737320746f2c75696e743235362076616c75652c75696e74323536206761732c75696e74323536206e6f6e63652c62797465732064617461454950373132446f6d61696e28737472696e67206e616d652c737472696e672076657273696f6e2c75696e7432353620636861696e49642c6164647265737320766572696679696e67436f6e747261637429416363657373436f6e74726f6c3a2063616e206f6e6c792072656e6f756e636520726f6c657320666f722073656c66a2646970667358221220c01c37f04c54247d78bb616a6c12b2c03f70f1cf19ef715e918ccb91e57a5a8564736f6c63430007060033616464726573732066726f6d2c6164647265737320746f2c75696e743235362076616c75652c75696e74323536206761732c75696e74323536206e6f6e63652c62797465732064617461",
  "immutableReferences": {
    "935": [
      {
        "length": 32,
        "start": 2019
      }
    ]
  },
  "source": "// SPDX-License-Identifier: MIT\npragma solidity ^0.7.6;\n// solhint-disable-next-line compiler-version\npragma abicoder v2;\n\nimport \"@openzeppelin/contracts/access/AccessControl.sol\";\n\nimport \"./Forwarder.sol\";\nimport \"../RewardsToken.sol\";\n\ncontract TrustedForwarder is Forwarder, AccessControl {\n    bytes32 private constant RELAYER_ROLE = keccak256(\"RELAYER_ROLE\");\n\n    RewardsToken public immutable rewardsToken;\n\n    constructor(address _rewardsToken) {\n        _setupRole(DEFAULT_ADMIN_ROLE, _msgSender());\n\n        _setupRole(RELAYER_ROLE, _msgSender());\n\n        rewardsToken = RewardsToken(_rewardsToken);\n    }\n\n    function execute(\n        ForwardRequest memory req,\n        bytes32 domainSeparator,\n        bytes32 requestTypeHash,\n        bytes calldata suffixData,\n        bytes calldata sig\n    ) external payable override returns (bool success, bytes memory ret) {\n        require(\n            hasRole(RELAYER_ROLE, _msgSender()),\n            \"Must have relayer role\"\n        );\n\n        (success, ret) = super._execute(\n            req,\n            domainSeparator,\n            requestTypeHash,\n            suffixData,\n            sig\n        );\n    }\n\n    function relayerRole() external pure returns (bytes32) {\n        return RELAYER_ROLE;\n    }\n}\n",
  "sourcePath": "/home/nailkhaf/Projects/san-games/contracts/gsn/TrustedForwarder.sol",
  "compiler": {
    "name": "solc",
    "version": "0.7.6+commit.7338295f.Emscripten.clang"
  },
  "schemaVersion": "3.3.3",
  "updatedAt": "2021-02-18T13:57:56.561Z",
  "devdoc": {
    "kind": "dev",
    "methods": {
      "getRoleAdmin(bytes32)": {
        "details": "Returns the admin role that controls `role`. See {grantRole} and {revokeRole}. To change a role's admin, use {_setRoleAdmin}."
      },
      "getRoleMember(bytes32,uint256)": {
        "details": "Returns one of the accounts that have `role`. `index` must be a value between 0 and {getRoleMemberCount}, non-inclusive. Role bearers are not sorted in any particular way, and their ordering may change at any point. WARNING: When using {getRoleMember} and {getRoleMemberCount}, make sure you perform all queries on the same block. See the following https://forum.openzeppelin.com/t/iterating-over-elements-on-enumerableset-in-openzeppelin-contracts/2296[forum post] for more information."
      },
      "getRoleMemberCount(bytes32)": {
        "details": "Returns the number of accounts that have `role`. Can be used together with {getRoleMember} to enumerate all bearers of a role."
      },
      "grantRole(bytes32,address)": {
        "details": "Grants `role` to `account`. If `account` had not been already granted `role`, emits a {RoleGranted} event. Requirements: - the caller must have ``role``'s admin role."
      },
      "hasRole(bytes32,address)": {
        "details": "Returns `true` if `account` has been granted `role`."
      },
      "registerDomainSeparator(string,string)": {
        "params": {
          "name": "the domain's display name",
          "version": "the domain/protocol version"
        }
      },
      "registerRequestType(string,string)": {
        "params": {
          "typeName": "- the name of the request type.",
          "typeSuffix": "- anything after the generic params can be empty string (if no extra fields are needed)        if it does contain a value, then a comma is added first."
        }
      },
      "renounceRole(bytes32,address)": {
        "details": "Revokes `role` from the calling account. Roles are often managed via {grantRole} and {revokeRole}: this function's purpose is to provide a mechanism for accounts to lose their privileges if they are compromised (such as when a trusted device is misplaced). If the calling account had been granted `role`, emits a {RoleRevoked} event. Requirements: - the caller must be `account`."
      },
      "revokeRole(bytes32,address)": {
        "details": "Revokes `role` from `account`. If `account` had been granted `role`, emits a {RoleRevoked} event. Requirements: - the caller must have ``role``'s admin role."
      }
    },
    "version": 1
  },
  "userdoc": {
    "kind": "user",
    "methods": {
      "registerDomainSeparator(string,string)": {
        "notice": "Register a new domain separator. The domain separator must have the following fields: name,version,chainId, verifyingContract. the chainId is the current network's chainId, and the verifyingContract is this forwarder. This method is given the domain name and version to create and register the domain separator value."
      },
      "registerRequestType(string,string)": {
        "notice": "Register a new Request typehash."
      }
    },
    "version": 1
  }
}