{
  "contractName": "WalletHunters",
  "abi": [
    {
      "inputs": [
        {
          "internalType": "address",
          "name": "rewardsToken_",
          "type": "address"
        },
        {
          "internalType": "uint256",
          "name": "votingDuration_",
          "type": "uint256"
        }
      ],
      "stateMutability": "nonpayable",
      "type": "constructor"
    },
    {
      "anonymous": false,
      "inputs": [
        {
          "indexed": true,
          "internalType": "address",
          "name": "owner",
          "type": "address"
        },
        {
          "indexed": true,
          "internalType": "address",
          "name": "spender",
          "type": "address"
        },
        {
          "indexed": false,
          "internalType": "uint256",
          "name": "value",
          "type": "uint256"
        }
      ],
      "name": "Approval",
      "type": "event"
    },
    {
      "anonymous": false,
      "inputs": [
        {
          "indexed": true,
          "internalType": "address",
          "name": "hunter",
          "type": "address"
        },
        {
          "indexed": true,
          "internalType": "uint256",
          "name": "requestId",
          "type": "uint256"
        },
        {
          "indexed": false,
          "internalType": "uint256",
          "name": "reward",
          "type": "uint256"
        }
      ],
      "name": "HunterRewardPaid",
      "type": "event"
    },
    {
      "anonymous": false,
      "inputs": [
        {
          "indexed": true,
          "internalType": "uint256",
          "name": "requestId",
          "type": "uint256"
        },
        {
          "indexed": true,
          "internalType": "address",
          "name": "hunter",
          "type": "address"
        },
        {
          "indexed": true,
          "internalType": "address",
          "name": "wallet",
          "type": "address"
        },
        {
          "indexed": false,
          "internalType": "uint256",
          "name": "reward",
          "type": "uint256"
        }
      ],
      "name": "NewWalletRequest",
      "type": "event"
    },
    {
      "anonymous": false,
      "inputs": [
        {
          "indexed": true,
          "internalType": "uint256",
          "name": "requestId",
          "type": "uint256"
        },
        {
          "indexed": false,
          "internalType": "address",
          "name": "mayor",
          "type": "address"
        }
      ],
      "name": "RequestDiscarded",
      "type": "event"
    },
    {
      "anonymous": false,
      "inputs": [
        {
          "indexed": true,
          "internalType": "bytes32",
          "name": "role",
          "type": "bytes32"
        },
        {
          "indexed": true,
          "internalType": "bytes32",
          "name": "previousAdminRole",
          "type": "bytes32"
        },
        {
          "indexed": true,
          "internalType": "bytes32",
          "name": "newAdminRole",
          "type": "bytes32"
        }
      ],
      "name": "RoleAdminChanged",
      "type": "event"
    },
    {
      "anonymous": false,
      "inputs": [
        {
          "indexed": true,
          "internalType": "bytes32",
          "name": "role",
          "type": "bytes32"
        },
        {
          "indexed": true,
          "internalType": "address",
          "name": "account",
          "type": "address"
        },
        {
          "indexed": true,
          "internalType": "address",
          "name": "sender",
          "type": "address"
        }
      ],
      "name": "RoleGranted",
      "type": "event"
    },
    {
      "anonymous": false,
      "inputs": [
        {
          "indexed": true,
          "internalType": "bytes32",
          "name": "role",
          "type": "bytes32"
        },
        {
          "indexed": true,
          "internalType": "address",
          "name": "account",
          "type": "address"
        },
        {
          "indexed": true,
          "internalType": "address",
          "name": "sender",
          "type": "address"
        }
      ],
      "name": "RoleRevoked",
      "type": "event"
    },
    {
      "anonymous": false,
      "inputs": [
        {
          "indexed": true,
          "internalType": "address",
          "name": "sheriff",
          "type": "address"
        },
        {
          "indexed": true,
          "internalType": "uint256",
          "name": "requestId",
          "type": "uint256"
        },
        {
          "indexed": false,
          "internalType": "uint256",
          "name": "reward",
          "type": "uint256"
        }
      ],
      "name": "SheriffRewardPaid",
      "type": "event"
    },
    {
      "anonymous": false,
      "inputs": [
        {
          "indexed": true,
          "internalType": "address",
          "name": "sheriff",
          "type": "address"
        },
        {
          "indexed": false,
          "internalType": "uint256",
          "name": "amount",
          "type": "uint256"
        }
      ],
      "name": "Staked",
      "type": "event"
    },
    {
      "anonymous": false,
      "inputs": [
        {
          "indexed": true,
          "internalType": "address",
          "name": "from",
          "type": "address"
        },
        {
          "indexed": true,
          "internalType": "address",
          "name": "to",
          "type": "address"
        },
        {
          "indexed": false,
          "internalType": "uint256",
          "name": "value",
          "type": "uint256"
        }
      ],
      "name": "Transfer",
      "type": "event"
    },
    {
      "anonymous": false,
      "inputs": [
        {
          "indexed": true,
          "internalType": "address",
          "name": "sheriff",
          "type": "address"
        },
        {
          "indexed": false,
          "internalType": "uint256",
          "name": "amount",
          "type": "uint256"
        },
        {
          "indexed": false,
          "internalType": "enum IWalletHunters.Vote",
          "name": "kind",
          "type": "uint8"
        }
      ],
      "name": "Voted",
      "type": "event"
    },
    {
      "anonymous": false,
      "inputs": [
        {
          "indexed": true,
          "internalType": "address",
          "name": "sheriff",
          "type": "address"
        },
        {
          "indexed": false,
          "internalType": "uint256",
          "name": "amount",
          "type": "uint256"
        }
      ],
      "name": "Withdrawn",
      "type": "event"
    },
    {
      "inputs": [],
      "name": "DEFAULT_ADMIN_ROLE",
      "outputs": [
        {
          "internalType": "bytes32",
          "name": "",
          "type": "bytes32"
        }
      ],
      "stateMutability": "view",
      "type": "function"
    },
    {
      "inputs": [],
      "name": "FIXED_SHERIFF_REWARD",
      "outputs": [
        {
          "internalType": "uint256",
          "name": "",
          "type": "uint256"
        }
      ],
      "stateMutability": "view",
      "type": "function"
    },
    {
      "inputs": [],
      "name": "MAYOR_ROLE",
      "outputs": [
        {
          "internalType": "bytes32",
          "name": "",
          "type": "bytes32"
        }
      ],
      "stateMutability": "view",
      "type": "function"
    },
    {
      "inputs": [],
      "name": "MINIMAL_DEPOSIT_FOR_SHERIFF",
      "outputs": [
        {
          "internalType": "uint256",
          "name": "",
          "type": "uint256"
        }
      ],
      "stateMutability": "view",
      "type": "function"
    },
    {
      "inputs": [],
      "name": "MINIMAL_VOTES_FOR_REQUEST",
      "outputs": [
        {
          "internalType": "uint256",
          "name": "",
          "type": "uint256"
        }
      ],
      "stateMutability": "view",
      "type": "function"
    },
    {
      "inputs": [],
      "name": "SHERIFFS_REWARD_SHARE",
      "outputs": [
        {
          "internalType": "uint256",
          "name": "",
          "type": "uint256"
        }
      ],
      "stateMutability": "view",
      "type": "function"
    },
    {
      "inputs": [],
      "name": "SUPER_MAJORITY",
      "outputs": [
        {
          "internalType": "uint256",
          "name": "",
          "type": "uint256"
        }
      ],
      "stateMutability": "view",
      "type": "function"
    },
    {
      "inputs": [
        {
          "internalType": "address",
          "name": "owner",
          "type": "address"
        },
        {
          "internalType": "address",
          "name": "spender",
          "type": "address"
        }
      ],
      "name": "allowance",
      "outputs": [
        {
          "internalType": "uint256",
          "name": "",
          "type": "uint256"
        }
      ],
      "stateMutability": "view",
      "type": "function"
    },
    {
      "inputs": [
        {
          "internalType": "address",
          "name": "spender",
          "type": "address"
        },
        {
          "internalType": "uint256",
          "name": "amount",
          "type": "uint256"
        }
      ],
      "name": "approve",
      "outputs": [
        {
          "internalType": "bool",
          "name": "",
          "type": "bool"
        }
      ],
      "stateMutability": "nonpayable",
      "type": "function"
    },
    {
      "inputs": [
        {
          "internalType": "address",
          "name": "account",
          "type": "address"
        }
      ],
      "name": "balanceOf",
      "outputs": [
        {
          "internalType": "uint256",
          "name": "",
          "type": "uint256"
        }
      ],
      "stateMutability": "view",
      "type": "function"
    },
    {
      "inputs": [],
      "name": "decimals",
      "outputs": [
        {
          "internalType": "uint8",
          "name": "",
          "type": "uint8"
        }
      ],
      "stateMutability": "view",
      "type": "function"
    },
    {
      "inputs": [
        {
          "internalType": "address",
          "name": "spender",
          "type": "address"
        },
        {
          "internalType": "uint256",
          "name": "subtractedValue",
          "type": "uint256"
        }
      ],
      "name": "decreaseAllowance",
      "outputs": [
        {
          "internalType": "bool",
          "name": "",
          "type": "bool"
        }
      ],
      "stateMutability": "nonpayable",
      "type": "function"
    },
    {
      "inputs": [
        {
          "internalType": "bytes32",
          "name": "role",
          "type": "bytes32"
        }
      ],
      "name": "getRoleAdmin",
      "outputs": [
        {
          "internalType": "bytes32",
          "name": "",
          "type": "bytes32"
        }
      ],
      "stateMutability": "view",
      "type": "function"
    },
    {
      "inputs": [
        {
          "internalType": "bytes32",
          "name": "role",
          "type": "bytes32"
        },
        {
          "internalType": "uint256",
          "name": "index",
          "type": "uint256"
        }
      ],
      "name": "getRoleMember",
      "outputs": [
        {
          "internalType": "address",
          "name": "",
          "type": "address"
        }
      ],
      "stateMutability": "view",
      "type": "function"
    },
    {
      "inputs": [
        {
          "internalType": "bytes32",
          "name": "role",
          "type": "bytes32"
        }
      ],
      "name": "getRoleMemberCount",
      "outputs": [
        {
          "internalType": "uint256",
          "name": "",
          "type": "uint256"
        }
      ],
      "stateMutability": "view",
      "type": "function"
    },
    {
      "inputs": [
        {
          "internalType": "bytes32",
          "name": "role",
          "type": "bytes32"
        },
        {
          "internalType": "address",
          "name": "account",
          "type": "address"
        }
      ],
      "name": "grantRole",
      "outputs": [],
      "stateMutability": "nonpayable",
      "type": "function"
    },
    {
      "inputs": [
        {
          "internalType": "bytes32",
          "name": "role",
          "type": "bytes32"
        },
        {
          "internalType": "address",
          "name": "account",
          "type": "address"
        }
      ],
      "name": "hasRole",
      "outputs": [
        {
          "internalType": "bool",
          "name": "",
          "type": "bool"
        }
      ],
      "stateMutability": "view",
      "type": "function"
    },
    {
      "inputs": [
        {
          "internalType": "address",
          "name": "spender",
          "type": "address"
        },
        {
          "internalType": "uint256",
          "name": "addedValue",
          "type": "uint256"
        }
      ],
      "name": "increaseAllowance",
      "outputs": [
        {
          "internalType": "bool",
          "name": "",
          "type": "bool"
        }
      ],
      "stateMutability": "nonpayable",
      "type": "function"
    },
    {
      "inputs": [],
      "name": "name",
      "outputs": [
        {
          "internalType": "string",
          "name": "",
          "type": "string"
        }
      ],
      "stateMutability": "view",
      "type": "function"
    },
    {
      "inputs": [
        {
          "internalType": "bytes32",
          "name": "role",
          "type": "bytes32"
        },
        {
          "internalType": "address",
          "name": "account",
          "type": "address"
        }
      ],
      "name": "renounceRole",
      "outputs": [],
      "stateMutability": "nonpayable",
      "type": "function"
    },
    {
      "inputs": [
        {
          "internalType": "bytes32",
          "name": "role",
          "type": "bytes32"
        },
        {
          "internalType": "address",
          "name": "account",
          "type": "address"
        }
      ],
      "name": "revokeRole",
      "outputs": [],
      "stateMutability": "nonpayable",
      "type": "function"
    },
    {
      "inputs": [],
      "name": "rewardsToken",
      "outputs": [
        {
          "internalType": "contract IRewardsToken",
          "name": "",
          "type": "address"
        }
      ],
      "stateMutability": "view",
      "type": "function"
    },
    {
      "inputs": [],
      "name": "symbol",
      "outputs": [
        {
          "internalType": "string",
          "name": "",
          "type": "string"
        }
      ],
      "stateMutability": "view",
      "type": "function"
    },
    {
      "inputs": [],
      "name": "totalSupply",
      "outputs": [
        {
          "internalType": "uint256",
          "name": "",
          "type": "uint256"
        }
      ],
      "stateMutability": "view",
      "type": "function"
    },
    {
      "inputs": [
        {
          "internalType": "address",
          "name": "recipient",
          "type": "address"
        },
        {
          "internalType": "uint256",
          "name": "amount",
          "type": "uint256"
        }
      ],
      "name": "transfer",
      "outputs": [
        {
          "internalType": "bool",
          "name": "",
          "type": "bool"
        }
      ],
      "stateMutability": "nonpayable",
      "type": "function"
    },
    {
      "inputs": [
        {
          "internalType": "address",
          "name": "sender",
          "type": "address"
        },
        {
          "internalType": "address",
          "name": "recipient",
          "type": "address"
        },
        {
          "internalType": "uint256",
          "name": "amount",
          "type": "uint256"
        }
      ],
      "name": "transferFrom",
      "outputs": [
        {
          "internalType": "bool",
          "name": "",
          "type": "bool"
        }
      ],
      "stateMutability": "nonpayable",
      "type": "function"
    },
    {
      "inputs": [
        {
          "internalType": "address",
          "name": "hunter",
          "type": "address"
        },
        {
          "internalType": "address",
          "name": "wallet",
          "type": "address"
        },
        {
          "internalType": "uint256",
          "name": "reward",
          "type": "uint256"
        }
      ],
      "name": "submitRequest",
      "outputs": [
        {
          "internalType": "uint256",
          "name": "",
          "type": "uint256"
        }
      ],
      "stateMutability": "nonpayable",
      "type": "function"
    },
    {
      "inputs": [
        {
          "internalType": "address",
          "name": "sheriff",
          "type": "address"
        },
        {
          "internalType": "uint256",
          "name": "amount",
          "type": "uint256"
        }
      ],
      "name": "stake",
      "outputs": [],
      "stateMutability": "nonpayable",
      "type": "function"
    },
    {
      "inputs": [
        {
          "internalType": "address",
          "name": "sheriff",
          "type": "address"
        },
        {
          "internalType": "uint256",
          "name": "requestId",
          "type": "uint256"
        },
        {
          "internalType": "enum IWalletHunters.Vote",
          "name": "kind",
          "type": "uint8"
        }
      ],
      "name": "vote",
      "outputs": [],
      "stateMutability": "nonpayable",
      "type": "function"
    },
    {
      "inputs": [
        {
          "internalType": "address",
          "name": "mayor",
          "type": "address"
        },
        {
          "internalType": "uint256",
          "name": "requestId",
          "type": "uint256"
        }
      ],
      "name": "discardRequest",
      "outputs": [],
      "stateMutability": "nonpayable",
      "type": "function"
    },
    {
      "inputs": [
        {
          "internalType": "address",
          "name": "sheriff",
          "type": "address"
        },
        {
          "internalType": "uint256",
          "name": "amount",
          "type": "uint256"
        }
      ],
      "name": "withdraw",
      "outputs": [],
      "stateMutability": "nonpayable",
      "type": "function"
    },
    {
      "inputs": [
        {
          "internalType": "address",
          "name": "sheriff",
          "type": "address"
        }
      ],
      "name": "exit",
      "outputs": [],
      "stateMutability": "pure",
      "type": "function"
    },
    {
      "inputs": [
        {
          "internalType": "address",
          "name": "hunter",
          "type": "address"
        },
        {
          "internalType": "uint256",
          "name": "requestId",
          "type": "uint256"
        }
      ],
      "name": "getHunterReward",
      "outputs": [],
      "stateMutability": "nonpayable",
      "type": "function"
    },
    {
      "inputs": [
        {
          "internalType": "address",
          "name": "hunter",
          "type": "address"
        },
        {
          "internalType": "uint256[]",
          "name": "requestIds",
          "type": "uint256[]"
        }
      ],
      "name": "getHunterRewards",
      "outputs": [],
      "stateMutability": "nonpayable",
      "type": "function"
    },
    {
      "inputs": [
        {
          "internalType": "address",
          "name": "sheriff",
          "type": "address"
        },
        {
          "internalType": "uint256",
          "name": "requestId",
          "type": "uint256"
        }
      ],
      "name": "getSheriffReward",
      "outputs": [],
      "stateMutability": "nonpayable",
      "type": "function"
    },
    {
      "inputs": [
        {
          "internalType": "address",
          "name": "sheriff",
          "type": "address"
        },
        {
          "internalType": "uint256[]",
          "name": "requestIds",
          "type": "uint256[]"
        }
      ],
      "name": "getSheriffRewards",
      "outputs": [],
      "stateMutability": "nonpayable",
      "type": "function"
    },
    {
      "inputs": [
        {
          "internalType": "uint256",
          "name": "requestId",
          "type": "uint256"
        }
      ],
      "name": "hunterReward",
      "outputs": [
        {
          "internalType": "uint256",
          "name": "",
          "type": "uint256"
        }
      ],
      "stateMutability": "view",
      "type": "function"
    },
    {
      "inputs": [
        {
          "internalType": "address",
          "name": "sheriff",
          "type": "address"
        },
        {
          "internalType": "uint256",
          "name": "requestId",
          "type": "uint256"
        }
      ],
      "name": "sheriffReward",
      "outputs": [
        {
          "internalType": "uint256",
          "name": "",
          "type": "uint256"
        }
      ],
      "stateMutability": "view",
      "type": "function"
    },
    {
      "inputs": [
        {
          "internalType": "uint256",
          "name": "requestId",
          "type": "uint256"
        }
      ],
      "name": "request",
      "outputs": [
        {
          "internalType": "address",
          "name": "wallet",
          "type": "address"
        },
        {
          "internalType": "address",
          "name": "hunter",
          "type": "address"
        },
        {
          "internalType": "uint256",
          "name": "reward",
          "type": "uint256"
        },
        {
          "internalType": "uint256",
          "name": "requestTime",
          "type": "uint256"
        },
        {
          "internalType": "bool",
          "name": "votingState",
          "type": "bool"
        },
        {
          "internalType": "bool",
          "name": "rewardPaid",
          "type": "bool"
        },
        {
          "internalType": "bool",
          "name": "discarded",
          "type": "bool"
        }
      ],
      "stateMutability": "view",
      "type": "function"
    },
    {
      "inputs": [
        {
          "internalType": "uint256",
          "name": "requestId",
          "type": "uint256"
        }
      ],
      "name": "countVotes",
      "outputs": [
        {
          "internalType": "uint256",
          "name": "votesFor",
          "type": "uint256"
        },
        {
          "internalType": "uint256",
          "name": "votesAgainst",
          "type": "uint256"
        }
      ],
      "stateMutability": "view",
      "type": "function"
    },
    {
      "inputs": [
        {
          "internalType": "address",
          "name": "sheriff",
          "type": "address"
        }
      ],
      "name": "isSheriff",
      "outputs": [
        {
          "internalType": "bool",
          "name": "",
          "type": "bool"
        }
      ],
      "stateMutability": "view",
      "type": "function"
    },
    {
      "inputs": [],
      "name": "votingDuration",
      "outputs": [
        {
          "internalType": "uint256",
          "name": "",
          "type": "uint256"
        }
      ],
      "stateMutability": "view",
      "type": "function"
    },
    {
      "inputs": [
        {
          "internalType": "address",
          "name": "sheriff",
          "type": "address"
        }
      ],
      "name": "lockedBalance",
      "outputs": [
        {
          "internalType": "uint256",
          "name": "locked",
          "type": "uint256"
        }
      ],
      "stateMutability": "view",
      "type": "function"
    }
  ],
  "bytecode": "0x60c06040523480156200001157600080fd5b506040516200345938038062003459833981810160405260408110156200003757600080fd5b508051602091820151604080518082018252601d81527f57616c6c65742048756e746572732c205368657269666620546f6b656e000000818601908152825180840190935260048084526315d214d560e21b96840196909652815194959394919384928492620000a8929162000244565b508051620000be90600590602084019062000244565b50506006805460ff1916601217905550620000e8915060009050620000e262000130565b62000134565b620001177f8eec8b020504d98b9b8aade6b3c37e791120efe8c9a621b6a5abccbe3ec5d7f9620000e262000130565b60805260601b6001600160601b03191660a052620002f0565b3390565b62000140828262000144565b5050565b6000828152602081815260409091206200016991839062002365620001bd821b17901c565b1562000140576200017962000130565b6001600160a01b0316816001600160a01b0316837f2f8788117e7eff1d82e926ec794901d17c78024a50270940304540a733656f0d60405160405180910390a45050565b6000620001d4836001600160a01b038416620001dd565b90505b92915050565b6000620001eb83836200022c565b6200022357508154600181810184556000848152602080822090930184905584548482528286019093526040902091909155620001d7565b506000620001d7565b60009081526001919091016020526040902054151590565b828054600181600116156101000203166002900490600052602060002090601f0160209004810192826200027c5760008555620002c7565b82601f106200029757805160ff1916838001178555620002c7565b82800160010185558215620002c7579182015b82811115620002c7578251825591602001919060010190620002aa565b50620002d5929150620002d9565b5090565b5b80821115620002d55760008155600101620002da565b60805160a05160601c61311f6200033a60003980610ded5280610f0752806119e95280611b945280611c8052806122fa525080610fdc5280611dfc5280612b22525061311f6000f3fe608060405234801561001057600080fd5b50600436106102695760003560e01c806395d89b4111610151578063ca15c873116100c3578063dcec7d3211610087578063dcec7d321461080c578063dd62ed3e1461088c578063dea65e9d146108ba578063e19abba7146108f0578063ed1699b71461090d578063f3fef3a31461093357610269565b8063ca15c8731461074c578063d1af0c7d14610769578063d547741f14610771578063d845a4b31461079d578063dbaafdc91461080457610269565b8063a797e98f11610115578063a797e98f146106be578063a9059cbb14610319578063adc9772e146106c6578063b42652e9146106f2578063b85c229214610718578063c74bf0cd1461072057610269565b806395d89b41146106305780639ae697bf14610638578063a217fddf1461065e578063a42176b614610666578063a457c2d71461069257610269565b8063248a9ca3116101ea57806346f1537c116101ae57806346f1537c1461055a5780636a348b7b146105625780636ffa48331461059757806370a082311461059f5780639010d07c146105c557806391d148541461060457610269565b8063248a9ca31461049b5780632f2ff15d146104b8578063313ce567146104e457806336568abe14610502578063395093511461052e57610269565b8063132002fc11610231578063132002fc1461040557806318160ddd1461041f5780631840f0ca1461042757806320af96c51461045d57806323b872dd1461046557610269565b80630302b8731461026e57806306fdde031461029c578063095ea7b3146103195780630fe471c91461035957806310bd7e70146103d9575b600080fd5b61029a6004803603604081101561028457600080fd5b506001600160a01b03813516906020013561095f565b005b6102a4610bb0565b6040805160208082528351818301528351919283929083019185019080838360005b838110156102de5781810151838201526020016102c6565b50505050905090810190601f16801561030b5780820380516001836020036101000a031916815260200191505b509250505060405180910390f35b6103456004803603604081101561032f57600080fd5b506001600160a01b038135169060200135610c46565b604080519115158252519081900360200190f35b61029a6004803603604081101561036f57600080fd5b6001600160a01b03823516919081019060408101602082013564010000000081111561039a57600080fd5b8201836020820111156103ac57600080fd5b803590602001918460208302840111640100000000831117156103ce57600080fd5b509092509050610c64565b61029a600480360360408110156103ef57600080fd5b506001600160a01b038135169060200135610e81565b61040d610fda565b60408051918252519081900360200190f35b61040d610ffe565b6104446004803603602081101561043d57600080fd5b5035611004565b6040805192835260208301919091528051918290030190f35b61040d61101e565b6103456004803603606081101561047b57600080fd5b506001600160a01b0381358116916020810135909116906040013561102b565b61040d600480360360208110156104b157600080fd5b50356110b3565b61029a600480360360408110156104ce57600080fd5b50803590602001356001600160a01b03166110cb565b6104ec611132565b6040805160ff9092168252519081900360200190f35b61029a6004803603604081101561051857600080fd5b50803590602001356001600160a01b031661113b565b6103456004803603604081101561054457600080fd5b506001600160a01b03813516906020013561119c565b61040d6111ea565b61029a6004803603606081101561057857600080fd5b5080356001600160a01b0316906020810135906040013560ff166111f8565b61040d611588565b61040d600480360360208110156105b557600080fd5b50356001600160a01b03166115ac565b6105e8600480360360408110156105db57600080fd5b50803590602001356115c7565b604080516001600160a01b039092168252519081900360200190f35b6103456004803603604081101561061a57600080fd5b50803590602001356001600160a01b03166115df565b6102a46115f7565b61040d6004803603602081101561064e57600080fd5b50356001600160a01b0316611658565b61040d611731565b61040d6004803603604081101561067c57600080fd5b506001600160a01b038135169060200135611736565b610345600480360360408110156106a857600080fd5b506001600160a01b0381351690602001356118af565b61040d611917565b61029a600480360360408110156106dc57600080fd5b506001600160a01b038135169060200135611924565b61029a6004803603602081101561070857600080fd5b50356001600160a01b0316611a54565b61040d611a93565b61029a6004803603604081101561073657600080fd5b506001600160a01b038135169060200135611a98565b61040d6004803603602081101561076257600080fd5b5035611c67565b6105e8611c7e565b61029a6004803603604081101561078757600080fd5b50803590602001356001600160a01b0316611ca2565b6107ba600480360360208110156107b357600080fd5b5035611cfb565b604080516001600160a01b03988916815296909716602087015285870194909452606085019290925215156080840152151560a0830152151560c082015290519081900360e00190f35b61040d611e56565b61029a6004803603604081101561082257600080fd5b6001600160a01b03823516919081019060408101602082013564010000000081111561084d57600080fd5b82018360208201111561085f57600080fd5b8035906020019184602083028401116401000000008311171561088157600080fd5b509092509050611e5b565b61040d600480360360408110156108a257600080fd5b506001600160a01b0381358116916020013516611f5d565b61040d600480360360608110156108d057600080fd5b506001600160a01b03813581169160208101359091169060400135611f88565b61040d6004803603602081101561090657600080fd5b5035612034565b6103456004803603602081101561092357600080fd5b50356001600160a01b03166121a3565b61029a6004803603604081101561094957600080fd5b506001600160a01b0381351690602001356121c0565b6109907f8eec8b020504d98b9b8aade6b3c37e791120efe8c9a621b6a5abccbe3ec5d7f961098b61237a565b6115df565b6109e1576040805162461bcd60e51b815260206004820152601f60248201527f4d7573742068617665206d61796f7220726f6c6520746f206469736361726400604482015290519081900360640190fd5b806109ec600761237e565b811115610a38576040805162461bcd60e51b815260206004820152601560248201527414995c5d595cdd08191bd95cdb89dd08195e1a5cdd605a1b604482015290519081900360640190fd5b600081815260086020526040902060040154610100900460ff1615610a9b576040805162461bcd60e51b815260206004820152601460248201527314995c5d595cdd081a5cc8191a5cd8d85c99195960621b604482015290519081900360640190fd5b610aa361237a565b6001600160a01b0316836001600160a01b031614610aff576040805162461bcd60e51b815260206004820152601460248201527329b2b73232b91036bab9ba1031329036b0bcb7b960611b604482015290519081900360640190fd5b610b0882612382565b610b4e576040805162461bcd60e51b8152602060048201526012602482015271159bdd1a5b99c81a5cc8199a5b9a5cda195960721b604482015290519081900360640190fd5b600082815260086020908152604091829020600401805461ff00191661010017905581516001600160a01b0386168152915184927fde14ed5ba810d34511fd04a7d70bd53b7b75991c5d8cc5d20dbbc0f30bc48a0792908290030190a2505050565b60048054604080516020601f6002600019610100600188161502019095169490940493840181900481028201810190925282815260609390929091830182828015610c3c5780601f10610c1157610100808354040283529160200191610c3c565b820191906000526020600020905b815481529060010190602001808311610c1f57829003601f168201915b5050505050905090565b6000610c5a610c5361237a565b8484612396565b5060015b92915050565b610c6c61237a565b6001600160a01b0316836001600160a01b031614610cc9576040805162461bcd60e51b815260206004820152601560248201527429b2b73232b91036bab9ba10313290343ab73a32b960591b604482015290519081900360640190fd5b6000805b82811015610de4576000848483818110610ce357fe5b6020908102929092013560008181526008909352604090922060010154919250506001600160a01b03878116911614610d58576040805162461bcd60e51b8152602060048201526012602482015271121d5b9d195c881a5cdb89dd081d985b1a5960721b604482015290519081900360640190fd5b6000610d6382612034565b9050610d6f84826123cf565b600083815260086020908152604091829020600401805460ff191660011790558151848152915192965084926001600160a01b038b16927f79584049d8f206bf7b762ccd36e6400e18a37f49122d9e323329b2359b0d446992908290030190a350610ddd90508160016123cf565b9050610ccd565b508015610e7b577f00000000000000000000000000000000000000000000000000000000000000006001600160a01b03166340c10f1985836040518363ffffffff1660e01b815260040180836001600160a01b0316815260200182815260200192505050600060405180830381600087803b158015610e6257600080fd5b505af1158015610e76573d6000803e3d6000fd5b505050505b50505050565b610e8961237a565b6001600160a01b0316826001600160a01b031614610ee7576040805162461bcd60e51b815260206004820152601660248201527529b2b73232b91036bab9ba1031329039b432b934b33360511b604482015290519081900360640190fd5b6000610ef38383611736565b9050610eff8383612429565b8015610f95577f00000000000000000000000000000000000000000000000000000000000000006001600160a01b03166340c10f1984836040518363ffffffff1660e01b815260040180836001600160a01b0316815260200182815260200192505050600060405180830381600087803b158015610f7c57600080fd5b505af1158015610f90573d6000803e3d6000fd5b505050505b60408051828152905183916001600160a01b038616917feb19fd1d512bb090737c60013d5d2d78cf7728bb39b4e904f47a5123a74a8d849181900360200190a3505050565b7f000000000000000000000000000000000000000000000000000000000000000090565b60035490565b600090815260096020526040902080546001909101549091565b686c6b935b8bbd40000081565b6000611038848484612396565b6110a88461104461237a565b6110a385604051806060016040528060288152602001613023602891396001600160a01b038a1660009081526002602052604081209061108261237a565b6001600160a01b031681526020810191909152604001600020549190612485565b612396565b5060015b9392505050565b6000818152602081905260409020600201545b919050565b6000828152602081905260409020600201546110e99061098b61237a565b6111245760405162461bcd60e51b815260040180806020018281038252602f815260200180612f5b602f913960400191505060405180910390fd5b61112e828261251c565b5050565b60065460ff1690565b61114361237a565b6001600160a01b0316816001600160a01b0316146111925760405162461bcd60e51b815260040180806020018281038252602f8152602001806130bb602f913960400191505060405180910390fd5b61112e8282612585565b6000610c5a6111a961237a565b846110a385600260006111ba61237a565b6001600160a01b03908116825260208083019390935260409182016000908120918c1681529252902054906123cf565b69021e19e0c9bab240000081565b81611203600761237e565b81111561124f576040805162461bcd60e51b815260206004820152601560248201527414995c5d595cdd08191bd95cdb89dd08195e1a5cdd605a1b604482015290519081900360640190fd5b600081815260086020526040902060040154610100900460ff16156112b2576040805162461bcd60e51b815260206004820152601460248201527314995c5d595cdd081a5cc8191a5cd8d85c99195960621b604482015290519081900360640190fd5b6112ba61237a565b6001600160a01b0316846001600160a01b031614611318576040805162461bcd60e51b815260206004820152601660248201527529b2b73232b91036bab9ba1031329039b432b934b33360511b604482015290519081900360640190fd5b611321846121a3565b61136a576040805162461bcd60e51b815260206004820152601560248201527429b2b73232b91034b9903737ba1039b432b934b33360591b604482015290519081900360640190fd5b61137383612382565b6113b9576040805162461bcd60e51b8152602060048201526012602482015271159bdd1a5b99c81a5cc8199a5b9a5cda195960721b604482015290519081900360640190fd5b60006113c4856115ac565b6001600160a01b0386166000908152600a602052604090209091506113e990856125ee565b61143a576040805162461bcd60e51b815260206004820152601860248201527f5368657269666620697320616c726561647920766f7465640000000000000000604482015290519081900360640190fd5b6001600160a01b0385166000908152600a602090815260408083208784526002019091529020819055600183600181111561147157fe5b14156114d3576001600160a01b0385166000908152600a6020908152604080832087845260020182528083206001908101805460ff1916909117905560099091529020546114bf90826123cf565b60008581526009602052604090205561152d565b6001600160a01b0385166000908152600a6020908152604080832087845260020182528083206001908101805460ff191690556009909252909120015461151a90826123cf565b6000858152600960205260409020600101555b846001600160a01b03167fcc66c27f993ef125e1b985d84a52726edc66dcc64e94d172f80253e37d52637282856040518083815260200182600181111561157057fe5b81526020019250505060405180910390a25050505050565b7f8eec8b020504d98b9b8aade6b3c37e791120efe8c9a621b6a5abccbe3ec5d7f981565b6001600160a01b031660009081526001602052604090205490565b60008281526020819052604081206110ac90836125fa565b60008281526020819052604081206110ac9083612606565b60058054604080516020601f6002600019610100600188161502019095169490940493840181900481028201810190925282815260609390929091830182828015610c3c5780601f10610c1157610100808354040283529160200191610c3c565b6000805b6001600160a01b0383166000908152600a6020526040902061167d9061261b565b81101561172b576001600160a01b0383166000908152600a602052604081206116a690836125fa565b90506116b181612382565b6116bb5750611719565b600081815260086020526040902060040154610100900460ff16156116e05750611719565b6001600160a01b0384166000908152600a60209081526040808320848452600201909152902054808410611715575050611719565b9250505b6117248160016123cf565b905061165c565b50919050565b600081565b6000611742600761237e565b82111561178e576040805162461bcd60e51b815260206004820152601560248201527414995c5d595cdd08191bd95cdb89dd08195e1a5cdd605a1b604482015290519081900360640190fd5b61179782612382565b156117e2576040805162461bcd60e51b8152602060048201526016602482015275159bdd1a5b99c81a5cc81b9bdd08199a5b9a5cda195960521b604482015290519081900360640190fd5b6001600160a01b0383166000908152600a602052604090206118049083612626565b15806118265750600082815260086020526040902060040154610100900460ff165b1561183357506000610c5e565b61183c82612632565b1561189e57600082815260086020526040812060020154906118608585600161268e565b6000858152600960205260409020549091506118946064611888601461188e858389896126fb565b90612754565b906126fb565b9350505050610c5e565b5069021e19e0c9bab2400000610c5e565b6000610c5a6118bc61237a565b846110a38560405180606001604052806025815260200161309660259139600260006118e661237a565b6001600160a01b03908116825260208083019390935260409182016000908120918d16815292529020549190612485565b683635c9adc5dea0000081565b61192c61237a565b6001600160a01b0316826001600160a01b03161461198a576040805162461bcd60e51b815260206004820152601660248201527529b2b73232b91036bab9ba1031329039b432b934b33360511b604482015290519081900360640190fd5b600081116119d2576040805162461bcd60e51b815260206004820152601060248201526f043616e6e6f74206465706f73697420360841b604482015290519081900360640190fd5b6119dc82826127bb565b611a116001600160a01b037f0000000000000000000000000000000000000000000000000000000000000000168330846128ad565b6040805182815290516001600160a01b038416917f9e71bc8eea02a63969f509818f2dafb9254532904319f9dbda79b67bd34a5f3d919081900360200190a25050565b6040805162461bcd60e51b815260206004820152600f60248201526e139bdd081a5b5c1b195b595b9d1959608a1b604482015290519081900360640190fd5b604381565b611aa061237a565b6001600160a01b0316826001600160a01b031614611afd576040805162461bcd60e51b815260206004820152601560248201527429b2b73232b91036bab9ba10313290343ab73a32b960591b604482015290519081900360640190fd5b6000818152600860205260409020600101546001600160a01b03838116911614611b63576040805162461bcd60e51b8152602060048201526012602482015271121d5b9d195c881a5cdb89dd081d985b1a5960721b604482015290519081900360640190fd5b6000611b6e82612034565b6000838152600860205260409020600401805460ff1916600117905590508015611c22577f00000000000000000000000000000000000000000000000000000000000000006001600160a01b03166340c10f1984836040518363ffffffff1660e01b815260040180836001600160a01b0316815260200182815260200192505050600060405180830381600087803b158015611c0957600080fd5b505af1158015611c1d573d6000803e3d6000fd5b505050505b60408051828152905183916001600160a01b038616917f79584049d8f206bf7b762ccd36e6400e18a37f49122d9e323329b2359b0d44699181900360200190a3505050565b6000818152602081905260408120610c5e9061261b565b7f000000000000000000000000000000000000000000000000000000000000000081565b600082815260208190526040902060020154611cc09061098b61237a565b6111925760405162461bcd60e51b8152600401808060200182810382526030815260200180612fd26030913960400191505060405180910390fd5b600080600080600080600087611d11600761237e565b811115611d5d576040805162461bcd60e51b815260206004820152601560248201527414995c5d595cdd08191bd95cdb89dd08195e1a5cdd605a1b604482015290519081900360640190fd5b600081815260086020526040902060040154610100900460ff1615611dc0576040805162461bcd60e51b815260206004820152601460248201527314995c5d595cdd081a5cc8191a5cd8d85c99195960621b604482015290519081900360640190fd5b60008981526008602052604090208054600182015460028301546003909301546001600160a01b039283169b50911698509096509450611e20857f00000000000000000000000000000000000000000000000000000000000000006123cf565b6000998a52600860205260409099206004015497999698959794964296909611159560ff80871696610100900416945092505050565b601481565b611e6361237a565b6001600160a01b0316836001600160a01b031614611ec1576040805162461bcd60e51b815260206004820152601660248201527529b2b73232b91036bab9ba1031329039b432b934b33360511b604482015290519081900360640190fd5b6000805b82811015610de4576000848483818110611edb57fe5b9050602002013590506000611ef08783611736565b9050611efc84826123cf565b9350611f088783612429565b60408051828152905183916001600160a01b038a16917feb19fd1d512bb090737c60013d5d2d78cf7728bb39b4e904f47a5123a74a8d849181900360200190a350611f5690508160016123cf565b9050611ec5565b6001600160a01b03918216600090815260026020908152604080832093909416825291909152205490565b6000611f946007612907565b6000611fa0600761237e565b60008181526008602090815260409182902080546001600160a01b03808a166001600160a01b031992831681178455600184018054928d16929093168217909255600283018990554260038401558451898152945195965091949093919286927fa93f0d837947ab1ad20a404e9448d316cba5768454273c97f16cd4850eb1df67929081900390910190a450949350505050565b600081612041600761237e565b81111561208d576040805162461bcd60e51b815260206004820152601560248201527414995c5d595cdd08191bd95cdb89dd08195e1a5cdd605a1b604482015290519081900360640190fd5b600081815260086020526040902060040154610100900460ff16156120f0576040805162461bcd60e51b815260206004820152601460248201527314995c5d595cdd081a5cc8191a5cd8d85c99195960621b604482015290519081900360640190fd5b6120f983612382565b15612144576040805162461bcd60e51b8152602060048201526016602482015275159bdd1a5b99c81a5cc81b9bdd08199a5b9a5cda195960521b604482015290519081900360640190fd5b60008381526008602052604090206004015460ff1615801561216a575061216a83612632565b1561219a57600083815260086020526040902060020154612193906064906118889060506126fb565b915061172b565b6000915061172b565b6000683635c9adc5dea000006121b8836115ac565b101592915050565b6121c861237a565b6001600160a01b0316826001600160a01b031614612226576040805162461bcd60e51b815260206004820152601660248201527529b2b73232b91036bab9ba1031329039b432b934b33360511b604482015290519081900360640190fd5b6000811161226f576040805162461bcd60e51b8152602060048201526011602482015270043616e6e6f74207769746864726177203607c1b604482015290519081900360640190fd5b600061228c61227d84611658565b612286856115ac565b90612910565b9050808211156122e3576040805162461bcd60e51b815260206004820152601860248201527f576974686472617720657863656564732062616c616e63650000000000000000604482015290519081900360640190fd5b6122ed838361296d565b6123216001600160a01b037f0000000000000000000000000000000000000000000000000000000000000000168484612a69565b6040805183815290516001600160a01b038516917f7084f5476618d8e60b11ef0d7d3f06914655adb8793e28ff7f018d4c76d505d5919081900360200190a2505050565b60006110ac836001600160a01b038416612ac0565b3390565b5490565b600061238d82612b0a565b42111592915050565b6040805162461bcd60e51b81526020600482015260096024820152682337b93134b23232b760b91b604482015290519081900360640190fd5b6000828201838110156110ac576040805162461bcd60e51b815260206004820152601b60248201527f536166654d6174683a206164646974696f6e206f766572666c6f770000000000604482015290519081900360640190fd5b6001600160a01b0382166000908152600a6020526040902061244b9082612b46565b506001600160a01b039091166000908152600a6020908152604080832093835260029093019052908120908155600101805460ff19169055565b600081848411156125145760405162461bcd60e51b81526004018080602001828103825283818151815260200191508051906020019080838360005b838110156124d95781810151838201526020016124c1565b50505050905090810190601f1680156125065780820380516001836020036101000a031916815260200191505b509250505060405180910390fd5b505050900390565b60008281526020819052604090206125349082612365565b1561112e5761254161237a565b6001600160a01b0316816001600160a01b0316837f2f8788117e7eff1d82e926ec794901d17c78024a50270940304540a733656f0d60405160405180910390a45050565b600082815260208190526040902061259d9082612b52565b1561112e576125aa61237a565b6001600160a01b0316816001600160a01b0316837ff6391f5c32d9c69d2a47ea670b442974b53935d1edc7fd64eb21e047a839171b60405160405180910390a45050565b60006110ac8383612ac0565b60006110ac8383612b67565b60006110ac836001600160a01b038416612bcb565b6000610c5e8261237e565b60006110ac8383612bcb565b60008181526009602052604081206001810154905401686c6b935b8bbd4000008110156126635760009150506110c6565b6000838152600960205260409020546043906126869083906118889060646126fb565b119392505050565b6001600160a01b0383166000908152600a6020908152604080832085845260020190915281206001015460ff16151582151514156126f357506001600160a01b0383166000908152600a602090815260408083208584526002019091529020546110ac565b5060006110ac565b60008261270a57506000610c5e565b8282028284828161271757fe5b04146110ac5760405162461bcd60e51b81526004018080602001828103825260218152602001806130026021913960400191505060405180910390fd5b60008082116127aa576040805162461bcd60e51b815260206004820152601a60248201527f536166654d6174683a206469766973696f6e206279207a65726f000000000000604482015290519081900360640190fd5b8183816127b357fe5b049392505050565b6001600160a01b038216612816576040805162461bcd60e51b815260206004820152601f60248201527f45524332303a206d696e7420746f20746865207a65726f206164647265737300604482015290519081900360640190fd5b61282260008383612abb565b60035461282f90826123cf565b6003556001600160a01b03821660009081526001602052604090205461285590826123cf565b6001600160a01b03831660008181526001602090815260408083209490945583518581529351929391927fddf252ad1be2c89b69c2b068fc378daa952ba7f163c4a11628f55a4df523b3ef9281900390910190a35050565b604080516001600160a01b0380861660248301528416604482015260648082018490528251808303909101815260849091019091526020810180516001600160e01b03166323b872dd60e01b179052610e7b908590612be3565b80546001019055565b600082821115612967576040805162461bcd60e51b815260206004820152601e60248201527f536166654d6174683a207375627472616374696f6e206f766572666c6f770000604482015290519081900360640190fd5b50900390565b6001600160a01b0382166129b25760405162461bcd60e51b815260040180806020018281038252602181526020018061304b6021913960400191505060405180910390fd5b6129be82600083612abb565b6129fb81604051806060016040528060228152602001612f8a602291396001600160a01b0385166000908152600160205260409020549190612485565b6001600160a01b038316600090815260016020526040902055600354612a219082612910565b6003556040805182815290516000916001600160a01b038516917fddf252ad1be2c89b69c2b068fc378daa952ba7f163c4a11628f55a4df523b3ef9181900360200190a35050565b604080516001600160a01b038416602482015260448082018490528251808303909101815260649091019091526020810180516001600160e01b031663a9059cbb60e01b179052612abb908490612be3565b505050565b6000612acc8383612bcb565b612b0257508154600181810184556000848152602080822090930184905584548482528286019093526040902091909155610c5e565b506000610c5e565b600081815260086020526040812060030154610c5e907f00000000000000000000000000000000000000000000000000000000000000006123cf565b60006110ac8383612c94565b60006110ac836001600160a01b038416612c94565b81546000908210612ba95760405162461bcd60e51b8152600401808060200182810382526022815260200180612f396022913960400191505060405180910390fd5b826000018281548110612bb857fe5b9060005260206000200154905092915050565b60009081526001919091016020526040902054151590565b6000612c38826040518060400160405280602081526020017f5361666545524332303a206c6f772d6c6576656c2063616c6c206661696c6564815250856001600160a01b0316612d5a9092919063ffffffff16565b805190915015612abb57808060200190516020811015612c5757600080fd5b5051612abb5760405162461bcd60e51b815260040180806020018281038252602a81526020018061306c602a913960400191505060405180910390fd5b60008181526001830160205260408120548015612d505783546000198083019190810190600090879083908110612cc757fe5b9060005260206000200154905080876000018481548110612ce457fe5b600091825260208083209091019290925582815260018981019092526040902090840190558654879080612d1457fe5b60019003818190600052602060002001600090559055866001016000878152602001908152602001600020600090556001945050505050610c5e565b6000915050610c5e565b6060612d698484600085612d71565b949350505050565b606082471015612db25760405162461bcd60e51b8152600401808060200182810382526026815260200180612fac6026913960400191505060405180910390fd5b612dbb85612ecc565b612e0c576040805162461bcd60e51b815260206004820152601d60248201527f416464726573733a2063616c6c20746f206e6f6e2d636f6e7472616374000000604482015290519081900360640190fd5b600080866001600160a01b031685876040518082805190602001908083835b60208310612e4a5780518252601f199092019160209182019101612e2b565b6001836020036101000a03801982511681845116808217855250505050505090500191505060006040518083038185875af1925050503d8060008114612eac576040519150601f19603f3d011682016040523d82523d6000602084013e612eb1565b606091505b5091509150612ec1828286612ed2565b979650505050505050565b3b151590565b60608315612ee15750816110ac565b825115612ef15782518084602001fd5b60405162461bcd60e51b81526020600482018181528451602484015284518593919283926044019190850190808383600083156124d95781810151838201526020016124c156fe456e756d657261626c655365743a20696e646578206f7574206f6620626f756e6473416363657373436f6e74726f6c3a2073656e646572206d75737420626520616e2061646d696e20746f206772616e7445524332303a206275726e20616d6f756e7420657863656564732062616c616e6365416464726573733a20696e73756666696369656e742062616c616e636520666f722063616c6c416363657373436f6e74726f6c3a2073656e646572206d75737420626520616e2061646d696e20746f207265766f6b65536166654d6174683a206d756c7469706c69636174696f6e206f766572666c6f7745524332303a207472616e7366657220616d6f756e74206578636565647320616c6c6f77616e636545524332303a206275726e2066726f6d20746865207a65726f20616464726573735361666545524332303a204552433230206f7065726174696f6e20646964206e6f74207375636365656445524332303a2064656372656173656420616c6c6f77616e63652062656c6f77207a65726f416363657373436f6e74726f6c3a2063616e206f6e6c792072656e6f756e636520726f6c657320666f722073656c66a2646970667358221220f9f5b30471d3ba82296f8097af9037847427a28c683a0ae37c03805f6b77ca1864736f6c63430007060033",
  "immutableReferences": {
    "546": [
      {
        "length": 32,
        "start": 4060
      },
      {
        "length": 32,
        "start": 7676
      },
      {
        "length": 32,
        "start": 11042
      }
    ],
    "548": [
      {
        "length": 32,
        "start": 3565
      },
      {
        "length": 32,
        "start": 3847
      },
      {
        "length": 32,
        "start": 6633
      },
      {
        "length": 32,
        "start": 7060
      },
      {
        "length": 32,
        "start": 7296
      },
      {
        "length": 32,
        "start": 8954
      }
    ]
  },
  "source": "// SPDX-License-Identifier: MIT\n// solhint-disable-next-line compiler-version\npragma solidity >=0.6.0 <0.8.0;\n\nimport \"@openzeppelin/contracts/token/ERC20/SafeERC20.sol\";\nimport \"@openzeppelin/contracts/token/ERC20/IERC20.sol\";\nimport \"@openzeppelin/contracts/access/AccessControl.sol\";\nimport \"@openzeppelin/contracts/utils/Counters.sol\";\nimport \"@openzeppelin/contracts/utils/Context.sol\";\n\nimport \"../interfaces/IWalletHunters.sol\";\nimport \"../interfaces/IRewardsToken.sol\";\nimport \"../utils/AccountingToken.sol\";\n\ncontract WalletHunters is\n    IWalletHunters,\n    Context,\n    AccessControl,\n    AccountingToken\n{\n    using Counters for Counters.Counter;\n    using SafeMath for uint256;\n    using SafeERC20 for IRewardsToken;\n    using EnumerableSet for EnumerableSet.UintSet;\n\n    uint256 public constant SUPER_MAJORITY = 67;\n    uint256 public constant SHERIFFS_REWARD_SHARE = 20;\n    uint256 public constant FIXED_SHERIFF_REWARD = 10000 ether;\n    uint256 public constant MINIMAL_VOTES_FOR_REQUEST = 2000 ether;\n    uint256 public constant MINIMAL_DEPOSIT_FOR_SHERIFF = 1000 ether;\n\n    bytes32 public constant MAYOR_ROLE = keccak256(\"MAYOR_ROLE\");\n\n    uint256 private immutable _votingDuration;\n    IRewardsToken public immutable rewardsToken;\n\n    Counters.Counter private _requestCounter;\n    mapping(uint256 => IWalletHunters.WalletRequest) private walletRequests;\n    mapping(uint256 => IWalletHunters.RequestVoting) private requestVotings;\n    mapping(address => IWalletHunters.SheriffVotes) private sheriffVotes;\n\n    modifier onlyMayor() {\n        require(\n            hasRole(MAYOR_ROLE, _msgSender()),\n            \"Must have mayor role to discard\"\n        );\n        _;\n    }\n\n    modifier validateRequestId(uint256 requestId) {\n        require(\n            requestId <= _requestCounter.current(),\n            \"Request doesn't exist\"\n        );\n        require(!walletRequests[requestId].discarded, \"Request is discarded\");\n        _;\n    }\n\n    constructor(address rewardsToken_, uint256 votingDuration_)\n        AccountingToken(\"Wallet Hunters, Sheriff Token\", \"WHST\")\n    {\n        _setupRole(DEFAULT_ADMIN_ROLE, _msgSender());\n\n        _setupRole(MAYOR_ROLE, _msgSender());\n\n        _votingDuration = votingDuration_;\n        rewardsToken = IRewardsToken(rewardsToken_);\n    }\n\n    function submitRequest(\n        address hunter,\n        address wallet,\n        uint256 reward\n    ) external override returns (uint256) {\n        _requestCounter.increment();\n        uint256 id = _requestCounter.current();\n\n        IWalletHunters.WalletRequest storage _request = walletRequests[id];\n\n        _request.wallet = wallet;\n        _request.hunter = hunter;\n        _request.reward = reward;\n        // solhint-disable-next-line not-rely-on-time\n        _request.requestTime = block.timestamp;\n\n        emit NewWalletRequest(id, hunter, wallet, reward);\n\n        return id;\n    }\n\n    function stake(address sheriff, uint256 amount) external override {\n        require(sheriff == _msgSender(), \"Sender must be sheriff\");\n        require(amount > 0, \"Cannot deposit 0\");\n        _mint(sheriff, amount);\n        rewardsToken.safeTransferFrom(sheriff, address(this), amount);\n        emit Staked(sheriff, amount);\n    }\n\n    function vote(\n        address sheriff,\n        uint256 requestId,\n        Vote kind\n    ) external override validateRequestId(requestId) {\n        require(sheriff == _msgSender(), \"Sender must be sheriff\");\n        require(isSheriff(sheriff), \"Sender is not sheriff\");\n        require(_votingState(requestId), \"Voting is finished\");\n\n        uint256 amount = balanceOf(sheriff);\n\n        require(\n            sheriffVotes[sheriff].requests.add(requestId),\n            \"Sheriff is already voted\"\n        );\n        sheriffVotes[sheriff].votes[requestId].amount = amount;\n\n        if (kind == Vote.FOR) {\n            sheriffVotes[sheriff].votes[requestId].voteFor = true;\n            requestVotings[requestId].votesFor = requestVotings[requestId]\n                .votesFor\n                .add(amount);\n        } else {\n            sheriffVotes[sheriff].votes[requestId].voteFor = false;\n            requestVotings[requestId].votesAgainst = requestVotings[requestId]\n                .votesAgainst\n                .add(amount);\n        }\n\n        emit Voted(sheriff, amount, kind);\n    }\n\n    function discardRequest(address mayor, uint256 requestId)\n        external\n        override\n        onlyMayor\n        validateRequestId(requestId)\n    {\n        require(mayor == _msgSender(), \"Sender must be mayor\");\n        require(_votingState(requestId), \"Voting is finished\");\n\n        walletRequests[requestId].discarded = true;\n\n        emit RequestDiscarded(requestId, mayor);\n    }\n\n    function withdraw(address sheriff, uint256 amount) external override {\n        require(sheriff == _msgSender(), \"Sender must be sheriff\");\n        require(amount > 0, \"Cannot withdraw 0\");\n        uint256 available = balanceOf(sheriff).sub(lockedBalance(sheriff));\n        require(amount <= available, \"Withdraw exceeds balance\");\n        _burn(sheriff, amount);\n        rewardsToken.safeTransfer(sheriff, amount);\n        emit Withdrawn(sheriff, amount);\n    }\n\n    function exit(address sheriff) external pure override {\n        revert(\"Not implemented\");\n        // TODO implement\n    }\n\n    function getHunterReward(address hunter, uint256 requestId)\n        external\n        override\n    {\n        require(hunter == _msgSender(), \"Sender must be hunter\");\n        require(\n            hunter == walletRequests[requestId].hunter,\n            \"Hunter isn't valid\"\n        );\n\n        uint256 reward = hunterReward(requestId);\n        walletRequests[requestId].rewardPaid = true;\n\n        if (reward > 0) {\n            rewardsToken.mint(hunter, reward);\n        }\n\n        emit HunterRewardPaid(hunter, requestId, reward);\n    }\n\n    function getHunterRewards(address hunter, uint256[] calldata requestIds)\n        external\n        override\n    {\n        require(hunter == _msgSender(), \"Sender must be hunter\");\n\n        uint256 totalReward = 0;\n\n        for (uint256 i = 0; i < requestIds.length; i = i.add(1)) {\n            uint256 requestId = requestIds[i];\n            require(\n                hunter == walletRequests[requestId].hunter,\n                \"Hunter isn't valid\"\n            );\n            uint256 reward = hunterReward(requestId);\n            totalReward = totalReward.add(reward);\n\n            walletRequests[requestId].rewardPaid = true;\n\n            emit HunterRewardPaid(hunter, requestId, reward);\n        }\n\n        if (totalReward > 0) {\n            rewardsToken.mint(hunter, totalReward);\n        }\n    }\n\n    function getSheriffReward(address sheriff, uint256 requestId)\n        external\n        override\n    {\n        require(sheriff == _msgSender(), \"Sender must be sheriff\");\n        uint256 reward = sheriffReward(sheriff, requestId);\n\n        _removeVote(sheriff, requestId);\n\n        if (reward > 0) {\n            rewardsToken.mint(sheriff, reward);\n        }\n\n        emit SheriffRewardPaid(sheriff, requestId, reward);\n    }\n\n    function getSheriffRewards(address sheriff, uint256[] calldata requestIds)\n        external\n        override\n    {\n        require(sheriff == _msgSender(), \"Sender must be sheriff\");\n        uint256 totalReward = 0;\n\n        for (uint256 i = 0; i < requestIds.length; i = i.add(1)) {\n            uint256 requestId = requestIds[i];\n            uint256 reward = sheriffReward(sheriff, requestId);\n            totalReward = totalReward.add(reward);\n\n            _removeVote(sheriff, requestId);\n\n            emit SheriffRewardPaid(sheriff, requestId, reward);\n        }\n\n        if (totalReward > 0) {\n            rewardsToken.mint(sheriff, totalReward);\n        }\n    }\n\n    function hunterReward(uint256 requestId)\n        public\n        view\n        override\n        validateRequestId(requestId)\n        returns (uint256)\n    {\n        require(!_votingState(requestId), \"Voting is not finished\");\n\n        if (\n            !walletRequests[requestId].rewardPaid && _walletApproved(requestId)\n        ) {\n            return\n                walletRequests[requestId]\n                    .reward\n                    .mul(100 - SHERIFFS_REWARD_SHARE)\n                    .div(100);\n        } else {\n            return 0;\n        }\n    }\n\n    function sheriffReward(address sheriff, uint256 requestId)\n        public\n        view\n        override\n        returns (uint256)\n    {\n        require(\n            requestId <= _requestCounter.current(),\n            \"Request doesn't exist\"\n        );\n        require(!_votingState(requestId), \"Voting is not finished\");\n\n        if (\n            !sheriffVotes[sheriff].requests.contains(requestId) ||\n            walletRequests[requestId].discarded\n        ) {\n            return 0;\n        }\n\n        if (_walletApproved(requestId)) {\n            uint256 reward = walletRequests[requestId].reward;\n            uint256 votes = _getSheriffVotes(sheriff, requestId, true);\n            uint256 totalVotes = requestVotings[requestId].votesFor;\n            return\n                reward\n                    .mul(votes)\n                    .div(totalVotes)\n                    .mul(SHERIFFS_REWARD_SHARE)\n                    .div(100);\n        } else {\n            return FIXED_SHERIFF_REWARD;\n        }\n    }\n\n    function request(uint256 requestId)\n        external\n        view\n        override\n        validateRequestId(requestId)\n        returns (\n            address wallet,\n            address hunter,\n            uint256 reward,\n            uint256 requestTime,\n            bool votingState,\n            bool rewardPaid,\n            bool discarded\n        )\n    {\n        wallet = walletRequests[requestId].wallet;\n        hunter = walletRequests[requestId].hunter;\n        reward = walletRequests[requestId].reward;\n        requestTime = walletRequests[requestId].requestTime;\n        // solhint-disable-next-line not-rely-on-time\n        votingState = block.timestamp <= requestTime.add(_votingDuration);\n        rewardPaid = walletRequests[requestId].rewardPaid;\n        discarded = walletRequests[requestId].discarded;\n    }\n\n    function countVotes(uint256 requestId)\n        external\n        view\n        override\n        returns (uint256 votesFor, uint256 votesAgainst)\n    {\n        votesFor = requestVotings[requestId].votesFor;\n        votesAgainst = requestVotings[requestId].votesAgainst;\n    }\n\n    function isSheriff(address sheriff) public view override returns (bool) {\n        return balanceOf(sheriff) >= MINIMAL_DEPOSIT_FOR_SHERIFF;\n    }\n\n    function votingDuration() external view override returns (uint256) {\n        return _votingDuration;\n    }\n\n    function lockedBalance(address sheriff)\n        public\n        view\n        override\n        returns (uint256 locked)\n    {\n        locked = 0;\n\n        for (\n            uint256 i = 0;\n            i < sheriffVotes[sheriff].requests.length();\n            i = i.add(1)\n        ) {\n            uint256 requestId = sheriffVotes[sheriff].requests.at(i);\n            if (!_votingState(requestId)) {\n                continue;\n            }\n            if (walletRequests[requestId].discarded) {\n                continue;\n            }\n            uint256 votes = sheriffVotes[sheriff].votes[requestId].amount;\n            if (locked >= votes) {\n                continue;\n            }\n            locked = votes;\n        }\n    }\n\n    function _removeVote(address sheriff, uint256 requestId) internal {\n        sheriffVotes[sheriff].requests.remove(requestId);\n        delete sheriffVotes[sheriff].votes[requestId];\n    }\n\n    function _walletApproved(uint256 requestId) internal view returns (bool) {\n        uint256 totalVotes =\n            requestVotings[requestId].votesFor +\n                requestVotings[requestId].votesAgainst;\n        if (totalVotes < MINIMAL_VOTES_FOR_REQUEST) {\n            return false;\n        }\n        return\n            requestVotings[requestId].votesFor.mul(100).div(totalVotes) >\n            SUPER_MAJORITY;\n    }\n\n    function _finishTime(uint256 requestId) internal view returns (uint256) {\n        return walletRequests[requestId].requestTime.add(_votingDuration);\n    }\n\n    function _votingState(uint256 requestId) internal view returns (bool) {\n        // solhint-disable-next-line not-rely-on-time\n        return block.timestamp <= _finishTime(requestId);\n    }\n\n    function _getSheriffVotes(\n        address sheriff,\n        uint256 requestId,\n        bool voteFor\n    ) internal view returns (uint256) {\n        if (sheriffVotes[sheriff].votes[requestId].voteFor == voteFor) {\n            return sheriffVotes[sheriff].votes[requestId].amount;\n        } else {\n            return 0;\n        }\n    }\n}\n",
  "sourcePath": "/home/nailkhaf/Projects/san-games/contracts/hunters/WalletHunters.sol",
  "compiler": {
    "name": "solc",
    "version": "0.7.6+commit.7338295f.Emscripten.clang"
  },
  "schemaVersion": "3.3.3",
  "updatedAt": "2021-02-16T10:30:05.194Z",
  "devdoc": {
    "kind": "dev",
    "methods": {
      "allowance(address,address)": {
        "details": "See {IERC20-allowance}."
      },
      "approve(address,uint256)": {
        "details": "See {IERC20-approve}. Requirements: - `spender` cannot be the zero address."
      },
      "balanceOf(address)": {
        "details": "See {IERC20-balanceOf}."
      },
      "decimals()": {
        "details": "Returns the number of decimals used to get its user representation. For example, if `decimals` equals `2`, a balance of `505` tokens should be displayed to a user as `5,05` (`505 / 10 ** 2`). Tokens usually opt for a value of 18, imitating the relationship between Ether and Wei. This is the value {ERC20} uses, unless {_setupDecimals} is called. NOTE: This information is only used for _display_ purposes: it in no way affects any of the arithmetic of the contract, including {IERC20-balanceOf} and {IERC20-transfer}."
      },
      "decreaseAllowance(address,uint256)": {
        "details": "Atomically decreases the allowance granted to `spender` by the caller. This is an alternative to {approve} that can be used as a mitigation for problems described in {IERC20-approve}. Emits an {Approval} event indicating the updated allowance. Requirements: - `spender` cannot be the zero address. - `spender` must have allowance for the caller of at least `subtractedValue`."
      },
      "getRoleAdmin(bytes32)": {
        "details": "Returns the admin role that controls `role`. See {grantRole} and {revokeRole}. To change a role's admin, use {_setRoleAdmin}."
      },
      "getRoleMember(bytes32,uint256)": {
        "details": "Returns one of the accounts that have `role`. `index` must be a value between 0 and {getRoleMemberCount}, non-inclusive. Role bearers are not sorted in any particular way, and their ordering may change at any point. WARNING: When using {getRoleMember} and {getRoleMemberCount}, make sure you perform all queries on the same block. See the following https://forum.openzeppelin.com/t/iterating-over-elements-on-enumerableset-in-openzeppelin-contracts/2296[forum post] for more information."
      },
      "getRoleMemberCount(bytes32)": {
        "details": "Returns the number of accounts that have `role`. Can be used together with {getRoleMember} to enumerate all bearers of a role."
      },
      "grantRole(bytes32,address)": {
        "details": "Grants `role` to `account`. If `account` had not been already granted `role`, emits a {RoleGranted} event. Requirements: - the caller must have ``role``'s admin role."
      },
      "hasRole(bytes32,address)": {
        "details": "Returns `true` if `account` has been granted `role`."
      },
      "increaseAllowance(address,uint256)": {
        "details": "Atomically increases the allowance granted to `spender` by the caller. This is an alternative to {approve} that can be used as a mitigation for problems described in {IERC20-approve}. Emits an {Approval} event indicating the updated allowance. Requirements: - `spender` cannot be the zero address."
      },
      "name()": {
        "details": "Returns the name of the token."
      },
      "renounceRole(bytes32,address)": {
        "details": "Revokes `role` from the calling account. Roles are often managed via {grantRole} and {revokeRole}: this function's purpose is to provide a mechanism for accounts to lose their privileges if they are compromised (such as when a trusted device is misplaced). If the calling account had been granted `role`, emits a {RoleRevoked} event. Requirements: - the caller must be `account`."
      },
      "revokeRole(bytes32,address)": {
        "details": "Revokes `role` from `account`. If `account` had been granted `role`, emits a {RoleRevoked} event. Requirements: - the caller must have ``role``'s admin role."
      },
      "symbol()": {
        "details": "Returns the symbol of the token, usually a shorter version of the name."
      },
      "totalSupply()": {
        "details": "See {IERC20-totalSupply}."
      },
      "transfer(address,uint256)": {
        "details": "See {IERC20-transfer}. Requirements: - `recipient` cannot be the zero address. - the caller must have a balance of at least `amount`."
      },
      "transferFrom(address,address,uint256)": {
        "details": "See {IERC20-transferFrom}. Emits an {Approval} event indicating the updated allowance. This is not required by the EIP. See the note at the beginning of {ERC20}. Requirements: - `sender` and `recipient` cannot be the zero address. - `sender` must have a balance of at least `amount`. - the caller must have allowance for ``sender``'s tokens of at least `amount`."
      }
    },
    "version": 1
  },
  "userdoc": {
    "kind": "user",
    "methods": {},
    "version": 1
  }
}