{
  "contractName": "WalletHunters",
  "abi": [
    {
      "inputs": [
        {
          "internalType": "address",
          "name": "stakingToken_",
          "type": "address"
        },
        {
          "internalType": "address",
          "name": "rewardsToken_",
          "type": "address"
        },
        {
          "internalType": "uint256",
          "name": "votingDuration_",
          "type": "uint256"
        },
        {
          "internalType": "uint256",
          "name": "sheriffsRewardShare_",
          "type": "uint256"
        },
        {
          "internalType": "uint256",
          "name": "fixedSheriffReward_",
          "type": "uint256"
        },
        {
          "internalType": "uint256",
          "name": "minimalVotesForRequest_",
          "type": "uint256"
        },
        {
          "internalType": "uint256",
          "name": "minimalDepositForSheriff_",
          "type": "uint256"
        }
      ],
      "stateMutability": "nonpayable",
      "type": "constructor"
    },
    {
      "anonymous": false,
      "inputs": [
        {
          "indexed": true,
          "internalType": "address",
          "name": "owner",
          "type": "address"
        },
        {
          "indexed": true,
          "internalType": "address",
          "name": "spender",
          "type": "address"
        },
        {
          "indexed": false,
          "internalType": "uint256",
          "name": "value",
          "type": "uint256"
        }
      ],
      "name": "Approval",
      "type": "event"
    },
    {
      "anonymous": false,
      "inputs": [
        {
          "indexed": false,
          "internalType": "uint256",
          "name": "votingDuration",
          "type": "uint256"
        },
        {
          "indexed": false,
          "internalType": "uint256",
          "name": "sheriffsRewardShare",
          "type": "uint256"
        },
        {
          "indexed": false,
          "internalType": "uint256",
          "name": "fixedSheriffReward",
          "type": "uint256"
        },
        {
          "indexed": false,
          "internalType": "uint256",
          "name": "minimalVotesForRequest",
          "type": "uint256"
        },
        {
          "indexed": false,
          "internalType": "uint256",
          "name": "minimalDepositForSheriff",
          "type": "uint256"
        }
      ],
      "name": "ConfigurationChanged",
      "type": "event"
    },
    {
      "anonymous": false,
      "inputs": [
        {
          "indexed": true,
          "internalType": "address",
          "name": "hunter",
          "type": "address"
        },
        {
          "indexed": true,
          "internalType": "uint256",
          "name": "requestId",
          "type": "uint256"
        },
        {
          "indexed": false,
          "internalType": "uint256",
          "name": "reward",
          "type": "uint256"
        }
      ],
      "name": "HunterRewardPaid",
      "type": "event"
    },
    {
      "anonymous": false,
      "inputs": [
        {
          "indexed": true,
          "internalType": "uint256",
          "name": "requestId",
          "type": "uint256"
        },
        {
          "indexed": true,
          "internalType": "address",
          "name": "hunter",
          "type": "address"
        },
        {
          "indexed": false,
          "internalType": "uint256",
          "name": "reward",
          "type": "uint256"
        }
      ],
      "name": "NewWalletRequest",
      "type": "event"
    },
    {
      "anonymous": false,
      "inputs": [
        {
          "indexed": true,
          "internalType": "uint256",
          "name": "requestId",
          "type": "uint256"
        },
        {
          "indexed": false,
          "internalType": "address",
          "name": "mayor",
          "type": "address"
        }
      ],
      "name": "RequestDiscarded",
      "type": "event"
    },
    {
      "anonymous": false,
      "inputs": [
        {
          "indexed": true,
          "internalType": "bytes32",
          "name": "role",
          "type": "bytes32"
        },
        {
          "indexed": true,
          "internalType": "bytes32",
          "name": "previousAdminRole",
          "type": "bytes32"
        },
        {
          "indexed": true,
          "internalType": "bytes32",
          "name": "newAdminRole",
          "type": "bytes32"
        }
      ],
      "name": "RoleAdminChanged",
      "type": "event"
    },
    {
      "anonymous": false,
      "inputs": [
        {
          "indexed": true,
          "internalType": "bytes32",
          "name": "role",
          "type": "bytes32"
        },
        {
          "indexed": true,
          "internalType": "address",
          "name": "account",
          "type": "address"
        },
        {
          "indexed": true,
          "internalType": "address",
          "name": "sender",
          "type": "address"
        }
      ],
      "name": "RoleGranted",
      "type": "event"
    },
    {
      "anonymous": false,
      "inputs": [
        {
          "indexed": true,
          "internalType": "bytes32",
          "name": "role",
          "type": "bytes32"
        },
        {
          "indexed": true,
          "internalType": "address",
          "name": "account",
          "type": "address"
        },
        {
          "indexed": true,
          "internalType": "address",
          "name": "sender",
          "type": "address"
        }
      ],
      "name": "RoleRevoked",
      "type": "event"
    },
    {
      "anonymous": false,
      "inputs": [
        {
          "indexed": true,
          "internalType": "address",
          "name": "sheriff",
          "type": "address"
        },
        {
          "indexed": true,
          "internalType": "uint256",
          "name": "requestId",
          "type": "uint256"
        },
        {
          "indexed": false,
          "internalType": "uint256",
          "name": "reward",
          "type": "uint256"
        }
      ],
      "name": "SheriffRewardPaid",
      "type": "event"
    },
    {
      "anonymous": false,
      "inputs": [
        {
          "indexed": true,
          "internalType": "address",
          "name": "sheriff",
          "type": "address"
        },
        {
          "indexed": false,
          "internalType": "uint256",
          "name": "amount",
          "type": "uint256"
        }
      ],
      "name": "Staked",
      "type": "event"
    },
    {
      "anonymous": false,
      "inputs": [
        {
          "indexed": true,
          "internalType": "address",
          "name": "from",
          "type": "address"
        },
        {
          "indexed": true,
          "internalType": "address",
          "name": "to",
          "type": "address"
        },
        {
          "indexed": false,
          "internalType": "uint256",
          "name": "value",
          "type": "uint256"
        }
      ],
      "name": "Transfer",
      "type": "event"
    },
    {
      "anonymous": false,
      "inputs": [
        {
          "indexed": false,
          "internalType": "address",
          "name": "previous",
          "type": "address"
        },
        {
          "indexed": false,
          "internalType": "address",
          "name": "current",
          "type": "address"
        }
      ],
      "name": "TrustedForwarderChanged",
      "type": "event"
    },
    {
      "anonymous": false,
      "inputs": [
        {
          "indexed": true,
          "internalType": "address",
          "name": "sheriff",
          "type": "address"
        },
        {
          "indexed": false,
          "internalType": "uint256",
          "name": "amount",
          "type": "uint256"
        },
        {
          "indexed": false,
          "internalType": "enum IWalletHunters.Vote",
          "name": "kind",
          "type": "uint8"
        }
      ],
      "name": "Voted",
      "type": "event"
    },
    {
      "anonymous": false,
      "inputs": [
        {
          "indexed": true,
          "internalType": "address",
          "name": "sheriff",
          "type": "address"
        },
        {
          "indexed": false,
          "internalType": "uint256",
          "name": "amount",
          "type": "uint256"
        }
      ],
      "name": "Withdrawn",
      "type": "event"
    },
    {
      "inputs": [],
      "name": "DEFAULT_ADMIN_ROLE",
      "outputs": [
        {
          "internalType": "bytes32",
          "name": "",
          "type": "bytes32"
        }
      ],
      "stateMutability": "view",
      "type": "function"
    },
    {
      "inputs": [],
      "name": "MAYOR_ROLE",
      "outputs": [
        {
          "internalType": "bytes32",
          "name": "",
          "type": "bytes32"
        }
      ],
      "stateMutability": "view",
      "type": "function"
    },
    {
      "inputs": [],
      "name": "SUPER_MAJORITY",
      "outputs": [
        {
          "internalType": "uint256",
          "name": "",
          "type": "uint256"
        }
      ],
      "stateMutability": "view",
      "type": "function"
    },
    {
      "inputs": [
        {
          "internalType": "address",
          "name": "owner",
          "type": "address"
        },
        {
          "internalType": "address",
          "name": "spender",
          "type": "address"
        }
      ],
      "name": "allowance",
      "outputs": [
        {
          "internalType": "uint256",
          "name": "",
          "type": "uint256"
        }
      ],
      "stateMutability": "view",
      "type": "function"
    },
    {
      "inputs": [
        {
          "internalType": "address",
          "name": "spender",
          "type": "address"
        },
        {
          "internalType": "uint256",
          "name": "amount",
          "type": "uint256"
        }
      ],
      "name": "approve",
      "outputs": [
        {
          "internalType": "bool",
          "name": "",
          "type": "bool"
        }
      ],
      "stateMutability": "nonpayable",
      "type": "function"
    },
    {
      "inputs": [
        {
          "internalType": "address",
          "name": "account",
          "type": "address"
        }
      ],
      "name": "balanceOf",
      "outputs": [
        {
          "internalType": "uint256",
          "name": "",
          "type": "uint256"
        }
      ],
      "stateMutability": "view",
      "type": "function"
    },
    {
      "inputs": [],
      "name": "configuration",
      "outputs": [
        {
          "internalType": "uint256",
          "name": "votingDuration",
          "type": "uint256"
        },
        {
          "internalType": "uint256",
          "name": "sheriffsRewardShare",
          "type": "uint256"
        },
        {
          "internalType": "uint256",
          "name": "fixedSheriffReward",
          "type": "uint256"
        },
        {
          "internalType": "uint256",
          "name": "minimalVotesForRequest",
          "type": "uint256"
        },
        {
          "internalType": "uint256",
          "name": "minimalDepositForSheriff",
          "type": "uint256"
        }
      ],
      "stateMutability": "view",
      "type": "function"
    },
    {
      "inputs": [],
      "name": "decimals",
      "outputs": [
        {
          "internalType": "uint8",
          "name": "",
          "type": "uint8"
        }
      ],
      "stateMutability": "view",
      "type": "function"
    },
    {
      "inputs": [
        {
          "internalType": "address",
          "name": "spender",
          "type": "address"
        },
        {
          "internalType": "uint256",
          "name": "subtractedValue",
          "type": "uint256"
        }
      ],
      "name": "decreaseAllowance",
      "outputs": [
        {
          "internalType": "bool",
          "name": "",
          "type": "bool"
        }
      ],
      "stateMutability": "nonpayable",
      "type": "function"
    },
    {
      "inputs": [
        {
          "internalType": "bytes32",
          "name": "role",
          "type": "bytes32"
        }
      ],
      "name": "getRoleAdmin",
      "outputs": [
        {
          "internalType": "bytes32",
          "name": "",
          "type": "bytes32"
        }
      ],
      "stateMutability": "view",
      "type": "function"
    },
    {
      "inputs": [
        {
          "internalType": "bytes32",
          "name": "role",
          "type": "bytes32"
        },
        {
          "internalType": "uint256",
          "name": "index",
          "type": "uint256"
        }
      ],
      "name": "getRoleMember",
      "outputs": [
        {
          "internalType": "address",
          "name": "",
          "type": "address"
        }
      ],
      "stateMutability": "view",
      "type": "function"
    },
    {
      "inputs": [
        {
          "internalType": "bytes32",
          "name": "role",
          "type": "bytes32"
        }
      ],
      "name": "getRoleMemberCount",
      "outputs": [
        {
          "internalType": "uint256",
          "name": "",
          "type": "uint256"
        }
      ],
      "stateMutability": "view",
      "type": "function"
    },
    {
      "inputs": [
        {
          "internalType": "bytes32",
          "name": "role",
          "type": "bytes32"
        },
        {
          "internalType": "address",
          "name": "account",
          "type": "address"
        }
      ],
      "name": "grantRole",
      "outputs": [],
      "stateMutability": "nonpayable",
      "type": "function"
    },
    {
      "inputs": [
        {
          "internalType": "bytes32",
          "name": "role",
          "type": "bytes32"
        },
        {
          "internalType": "address",
          "name": "account",
          "type": "address"
        }
      ],
      "name": "hasRole",
      "outputs": [
        {
          "internalType": "bool",
          "name": "",
          "type": "bool"
        }
      ],
      "stateMutability": "view",
      "type": "function"
    },
    {
      "inputs": [
        {
          "internalType": "address",
          "name": "spender",
          "type": "address"
        },
        {
          "internalType": "uint256",
          "name": "addedValue",
          "type": "uint256"
        }
      ],
      "name": "increaseAllowance",
      "outputs": [
        {
          "internalType": "bool",
          "name": "",
          "type": "bool"
        }
      ],
      "stateMutability": "nonpayable",
      "type": "function"
    },
    {
      "inputs": [
        {
          "internalType": "address",
          "name": "forwarder",
          "type": "address"
        }
      ],
      "name": "isTrustedForwarder",
      "outputs": [
        {
          "internalType": "bool",
          "name": "",
          "type": "bool"
        }
      ],
      "stateMutability": "view",
      "type": "function"
    },
    {
      "inputs": [],
      "name": "name",
      "outputs": [
        {
          "internalType": "string",
          "name": "",
          "type": "string"
        }
      ],
      "stateMutability": "view",
      "type": "function"
    },
    {
      "inputs": [
        {
          "internalType": "bytes32",
          "name": "role",
          "type": "bytes32"
        },
        {
          "internalType": "address",
          "name": "account",
          "type": "address"
        }
      ],
      "name": "renounceRole",
      "outputs": [],
      "stateMutability": "nonpayable",
      "type": "function"
    },
    {
      "inputs": [],
      "name": "requestCounter",
      "outputs": [
        {
          "internalType": "uint256",
          "name": "_value",
          "type": "uint256"
        }
      ],
      "stateMutability": "view",
      "type": "function"
    },
    {
      "inputs": [
        {
          "internalType": "bytes32",
          "name": "role",
          "type": "bytes32"
        },
        {
          "internalType": "address",
          "name": "account",
          "type": "address"
        }
      ],
      "name": "revokeRole",
      "outputs": [],
      "stateMutability": "nonpayable",
      "type": "function"
    },
    {
      "inputs": [],
      "name": "rewardsToken",
      "outputs": [
        {
          "internalType": "contract IERC20Mintable",
          "name": "",
          "type": "address"
        }
      ],
      "stateMutability": "view",
      "type": "function"
    },
    {
      "inputs": [],
      "name": "stakingToken",
      "outputs": [
        {
          "internalType": "contract IERC20",
          "name": "",
          "type": "address"
        }
      ],
      "stateMutability": "view",
      "type": "function"
    },
    {
      "inputs": [],
      "name": "symbol",
      "outputs": [
        {
          "internalType": "string",
          "name": "",
          "type": "string"
        }
      ],
      "stateMutability": "view",
      "type": "function"
    },
    {
      "inputs": [],
      "name": "totalSupply",
      "outputs": [
        {
          "internalType": "uint256",
          "name": "",
          "type": "uint256"
        }
      ],
      "stateMutability": "view",
      "type": "function"
    },
    {
      "inputs": [
        {
          "internalType": "address",
          "name": "recipient",
          "type": "address"
        },
        {
          "internalType": "uint256",
          "name": "amount",
          "type": "uint256"
        }
      ],
      "name": "transfer",
      "outputs": [
        {
          "internalType": "bool",
          "name": "",
          "type": "bool"
        }
      ],
      "stateMutability": "nonpayable",
      "type": "function"
    },
    {
      "inputs": [
        {
          "internalType": "address",
          "name": "sender",
          "type": "address"
        },
        {
          "internalType": "address",
          "name": "recipient",
          "type": "address"
        },
        {
          "internalType": "uint256",
          "name": "amount",
          "type": "uint256"
        }
      ],
      "name": "transferFrom",
      "outputs": [
        {
          "internalType": "bool",
          "name": "",
          "type": "bool"
        }
      ],
      "stateMutability": "nonpayable",
      "type": "function"
    },
    {
      "inputs": [],
      "name": "trustedForwarder",
      "outputs": [
        {
          "internalType": "address",
          "name": "",
          "type": "address"
        }
      ],
      "stateMutability": "view",
      "type": "function"
    },
    {
      "inputs": [
        {
          "internalType": "address",
          "name": "hunter",
          "type": "address"
        },
        {
          "internalType": "uint256",
          "name": "reward",
          "type": "uint256"
        }
      ],
      "name": "submitRequest",
      "outputs": [
        {
          "internalType": "uint256",
          "name": "",
          "type": "uint256"
        }
      ],
      "stateMutability": "nonpayable",
      "type": "function"
    },
    {
      "inputs": [
        {
          "internalType": "address",
          "name": "sheriff",
          "type": "address"
        },
        {
          "internalType": "uint256",
          "name": "amount",
          "type": "uint256"
        }
      ],
      "name": "stake",
      "outputs": [],
      "stateMutability": "nonpayable",
      "type": "function"
    },
    {
      "inputs": [
        {
          "internalType": "address",
          "name": "sheriff",
          "type": "address"
        },
        {
          "internalType": "uint256",
          "name": "requestId",
          "type": "uint256"
        },
        {
          "internalType": "enum IWalletHunters.Vote",
          "name": "kind",
          "type": "uint8"
        }
      ],
      "name": "vote",
      "outputs": [],
      "stateMutability": "nonpayable",
      "type": "function"
    },
    {
      "inputs": [
        {
          "internalType": "address",
          "name": "mayor",
          "type": "address"
        },
        {
          "internalType": "uint256",
          "name": "requestId",
          "type": "uint256"
        }
      ],
      "name": "discardRequest",
      "outputs": [],
      "stateMutability": "nonpayable",
      "type": "function"
    },
    {
      "inputs": [
        {
          "internalType": "address",
          "name": "sheriff",
          "type": "address"
        },
        {
          "internalType": "uint256",
          "name": "amount",
          "type": "uint256"
        }
      ],
      "name": "withdraw",
      "outputs": [],
      "stateMutability": "nonpayable",
      "type": "function"
    },
    {
      "inputs": [
        {
          "internalType": "address",
          "name": "sheriff",
          "type": "address"
        }
      ],
      "name": "exit",
      "outputs": [],
      "stateMutability": "nonpayable",
      "type": "function"
    },
    {
      "inputs": [
        {
          "internalType": "address",
          "name": "hunter",
          "type": "address"
        },
        {
          "internalType": "uint256",
          "name": "requestId",
          "type": "uint256"
        }
      ],
      "name": "getHunterReward",
      "outputs": [],
      "stateMutability": "nonpayable",
      "type": "function"
    },
    {
      "inputs": [
        {
          "internalType": "address",
          "name": "sheriff",
          "type": "address"
        }
      ],
      "name": "getSheriffRewards",
      "outputs": [],
      "stateMutability": "nonpayable",
      "type": "function"
    },
    {
      "inputs": [
        {
          "internalType": "uint256",
          "name": "_votingDuration",
          "type": "uint256"
        },
        {
          "internalType": "uint256",
          "name": "_sheriffsRewardShare",
          "type": "uint256"
        },
        {
          "internalType": "uint256",
          "name": "_fixedSheriffReward",
          "type": "uint256"
        },
        {
          "internalType": "uint256",
          "name": "_minimalVotesForRequest",
          "type": "uint256"
        },
        {
          "internalType": "uint256",
          "name": "_minimalDepositForSheriff",
          "type": "uint256"
        }
      ],
      "name": "updateConfiguration",
      "outputs": [],
      "stateMutability": "nonpayable",
      "type": "function"
    },
    {
      "inputs": [
        {
          "internalType": "uint256",
          "name": "requestId",
          "type": "uint256"
        }
      ],
      "name": "hunterReward",
      "outputs": [
        {
          "internalType": "uint256",
          "name": "",
          "type": "uint256"
        }
      ],
      "stateMutability": "view",
      "type": "function"
    },
    {
      "inputs": [
        {
          "internalType": "address",
          "name": "sheriff",
          "type": "address"
        },
        {
          "internalType": "uint256",
          "name": "requestId",
          "type": "uint256"
        }
      ],
      "name": "sheriffReward",
      "outputs": [
        {
          "internalType": "uint256",
          "name": "",
          "type": "uint256"
        }
      ],
      "stateMutability": "view",
      "type": "function"
    },
    {
      "inputs": [
        {
          "internalType": "address",
          "name": "trustedForwarder",
          "type": "address"
        }
      ],
      "name": "setTrustedForwarder",
      "outputs": [],
      "stateMutability": "nonpayable",
      "type": "function"
    },
    {
      "inputs": [
        {
          "internalType": "uint256",
          "name": "requestId",
          "type": "uint256"
        }
      ],
      "name": "countVotes",
      "outputs": [
        {
          "internalType": "uint256",
          "name": "votesFor",
          "type": "uint256"
        },
        {
          "internalType": "uint256",
          "name": "votesAgainst",
          "type": "uint256"
        }
      ],
      "stateMutability": "view",
      "type": "function"
    },
    {
      "inputs": [
        {
          "internalType": "address",
          "name": "sheriff",
          "type": "address"
        }
      ],
      "name": "isSheriff",
      "outputs": [
        {
          "internalType": "bool",
          "name": "",
          "type": "bool"
        }
      ],
      "stateMutability": "view",
      "type": "function"
    },
    {
      "inputs": [
        {
          "internalType": "address",
          "name": "sheriff",
          "type": "address"
        }
      ],
      "name": "lockedBalance",
      "outputs": [
        {
          "internalType": "uint256",
          "name": "locked",
          "type": "uint256"
        }
      ],
      "stateMutability": "view",
      "type": "function"
    },
    {
      "inputs": [],
      "name": "versionRecipient",
      "outputs": [
        {
          "internalType": "string",
          "name": "",
          "type": "string"
        }
      ],
      "stateMutability": "pure",
      "type": "function"
    }
  ],
  "bytecode": "0x60c06040523480156200001157600080fd5b506040516200351438038062003514833981810160405260e08110156200003757600080fd5b5080516020808301516040808501516060860151608087015160a088015160c09098015184518086018652601d81527f57616c6c65742048756e746572732c205368657269666620546f6b656e0000008189019081528651808801909752600487526315d214d560e21b988701989098528051989996989497939692959294919390929183918391620000cd916003916200042b565b508051620000e39060049060208401906200042b565b50506005805460ff19166012179055506200010d9150600090506200010762000172565b6200018f565b6200013c7f8eec8b020504d98b9b8aade6b3c37e791120efe8c9a621b6a5abccbe3ec5d7f96200010762000172565b6001600160601b0319606088811b821660805287901b1660a0526200016585858585856200019f565b50505050505050620004d7565b600062000189620002d860201b620021111760201c565b90505b90565b6200019b828262000310565b5050565b610e108510158015620001b5575062093a808511155b62000207576040805162461bcd60e51b815260206004820152601860248201527f566f74696e67206475726174696f6e20746f6f206c6f6e670000000000000000604482015290519081900360640190fd5b600084118015620002185750606484105b6200026a576040805162461bcd60e51b815260206004820152601860248201527f566f74696e67206475726174696f6e20746f6f206c6f6e670000000000000000604482015290519081900360640190fd5b600785905560088490556009839055600a829055600b8190556040805186815260208101869052808201859052606081018490526080810183905290517fda4281c14b22d30368ef10494e51dffececd1b7d8e9fcffd1da22890398d42609181900360a00190a15050505050565b600060183610801590620002f25750620002f2336200038b565b1562000308575060131936013560601c6200018c565b50336200018c565b60008281526006602090815260409091206200033791839062002143620003a4821b17901c565b156200019b576200034762000172565b6001600160a01b0316816001600160a01b0316837f2f8788117e7eff1d82e926ec794901d17c78024a50270940304540a733656f0d60405160405180910390a45050565b60055461010090046001600160a01b0390811691161490565b6000620003bb836001600160a01b038416620003c4565b90505b92915050565b6000620003d2838362000413565b6200040a57508154600181810184556000848152602080822090930184905584548482528286019093526040902091909155620003be565b506000620003be565b60009081526001919091016020526040902054151590565b828054600181600116156101000203166002900490600052602060002090601f016020900481019282620004635760008555620004ae565b82601f106200047e57805160ff1916838001178555620004ae565b82800160010185558215620004ae579182015b82811115620004ae57825182559160200191906001019062000491565b50620004bc929150620004c0565b5090565b5b80821115620004bc5760008155600101620004c1565b60805160601c60a05160601c612fff6200051560003980610f295280611b7f5280611c6b5250806113b2528061199252806120a65250612fff6000f3fe608060405234801561001057600080fd5b50600436106102695760003560e01c80639010d07c11610151578063b85c2292116100c3578063da74222811610087578063da7422281461079c578063dd62ed3e146107c2578063e19abba7146107f0578063e59375f11461080d578063ed1699b714610842578063f3fef3a31461086857610269565b8063b85c229214610717578063c74bf0cd1461071f578063ca15c8731461074b578063d1af0c7d14610768578063d547741f1461077057610269565b8063a217fddf11610115578063a217fddf14610665578063a42176b61461066d578063a457c2d714610699578063a9059cbb14610319578063adc9772e146106c5578063b42652e9146106f157610269565b80639010d07c146105e057806391d148541461060357806395d89b411461062f578063973a814e146106375780639ae697bf1461063f57610269565b806339509351116101ea5780636c70bee9116101ae5780636c70bee9146105275780636ffa48331461055a57806370a082311461056257806372f702f3146105885780637da0a877146105ac5780638c3cbe3a146105b457610269565b80633950935114610472578063486ff0cd1461049e5780634e11a97b146104a6578063572b6c05146104cc5780636a348b7b146104f257610269565b806323b872dd1161023157806323b872dd146103a9578063248a9ca3146103df5780632f2ff15d146103fc578063313ce5671461042857806336568abe1461044657610269565b80630302b8731461026e57806306fdde031461029c578063095ea7b31461031957806318160ddd146103595780631840f0ca14610373575b600080fd5b61029a6004803603604081101561028457600080fd5b506001600160a01b038135169060200135610894565b005b6102a4610ae4565b6040805160208082528351818301528351919283929083019185019080838360005b838110156102de5781810151838201526020016102c6565b50505050905090810190601f16801561030b5780820380516001836020036101000a031916815260200191505b509250505060405180910390f35b6103456004803603604081101561032f57600080fd5b506001600160a01b038135169060200135610b7b565b604080519115158252519081900360200190f35b610361610b99565b60408051918252519081900360200190f35b6103906004803603602081101561038957600080fd5b5035610b9f565b6040805192835260208301919091528051918290030190f35b610345600480360360608110156103bf57600080fd5b506001600160a01b03813581169160208101359091169060400135610bb9565b610361600480360360208110156103f557600080fd5b5035610c41565b61029a6004803603604081101561041257600080fd5b50803590602001356001600160a01b0316610c59565b610430610cc0565b6040805160ff9092168252519081900360200190f35b61029a6004803603604081101561045c57600080fd5b50803590602001356001600160a01b0316610cc9565b6103456004803603604081101561048857600080fd5b506001600160a01b038135169060200135610d2a565b6102a4610d78565b61029a600480360360208110156104bc57600080fd5b50356001600160a01b0316610d98565b610345600480360360208110156104e257600080fd5b50356001600160a01b0316610fba565b61029a6004803603606081101561050857600080fd5b5080356001600160a01b0316906020810135906040013560ff16610fd3565b61052f61135f565b6040805195865260208601949094528484019290925260608401526080830152519081900360a00190f35b610361611371565b6103616004803603602081101561057857600080fd5b50356001600160a01b0316611395565b6105906113b0565b604080516001600160a01b039092168252519081900360200190f35b6105906113d4565b610361600480360360408110156105ca57600080fd5b506001600160a01b0381351690602001356113e8565b610590600480360360408110156105f657600080fd5b50803590602001356114aa565b6103456004803603604081101561061957600080fd5b50803590602001356001600160a01b03166114c2565b6102a46114da565b61036161153b565b6103616004803603602081101561065557600080fd5b50356001600160a01b0316611541565b610361611616565b6103616004803603604081101561068357600080fd5b506001600160a01b03813516906020013561161b565b610345600480360360408110156106af57600080fd5b506001600160a01b038135169060200135611865565b61029a600480360360408110156106db57600080fd5b506001600160a01b0381351690602001356118cd565b61029a6004803603602081101561070757600080fd5b50356001600160a01b03166119fd565b610361611a81565b61029a6004803603604081101561073557600080fd5b506001600160a01b038135169060200135611a86565b6103616004803603602081101561076157600080fd5b5035611c52565b610590611c69565b61029a6004803603604081101561078657600080fd5b50803590602001356001600160a01b0316611c8d565b61029a600480360360208110156107b257600080fd5b50356001600160a01b0316611ce6565b610361600480360360408110156107d857600080fd5b506001600160a01b0381358116916020013516611d4b565b6103616004803603602081101561080657600080fd5b5035611d76565b61029a600480360360a081101561082357600080fd5b5080359060208101359060408101359060608101359060800135611eec565b6103456004803603602081101561085857600080fd5b50356001600160a01b0316611f55565b61029a6004803603604081101561087e57600080fd5b506001600160a01b038135169060200135611f6c565b7f8eec8b020504d98b9b8aade6b3c37e791120efe8c9a621b6a5abccbe3ec5d7f96108c6816108c1612158565b6114c2565b610914576040805162461bcd60e51b815260206004820152601a6024820152794d757374206861766520617070726f70726961746520726f6c6560301b604482015290519081900360640190fd5b8161091f600c612167565b81111561096b576040805162461bcd60e51b815260206004820152601560248201527414995c5d595cdd08191bd95cdb89dd08195e1a5cdd605a1b604482015290519081900360640190fd5b6000818152600d6020526040902060030154610100900460ff16156109ce576040805162461bcd60e51b815260206004820152601460248201527314995c5d595cdd081a5cc8191a5cd8d85c99195960621b604482015290519081900360640190fd5b6109d6612158565b6001600160a01b0316846001600160a01b031614610a32576040805162461bcd60e51b815260206004820152601460248201527329b2b73232b91036bab9ba1031329036b0bcb7b960611b604482015290519081900360640190fd5b610a3b8361216b565b610a81576040805162461bcd60e51b8152602060048201526012602482015271159bdd1a5b99c81a5cc8199a5b9a5cda195960721b604482015290519081900360640190fd5b6000838152600d6020908152604091829020600301805461ff00191661010017905581516001600160a01b0387168152915185927fde14ed5ba810d34511fd04a7d70bd53b7b75991c5d8cc5d20dbbc0f30bc48a0792908290030190a250505050565b60038054604080516020601f6002600019610100600188161502019095169490940493840181900481028201810190925282815260609390929091830182828015610b705780601f10610b4557610100808354040283529160200191610b70565b820191906000526020600020905b815481529060010190602001808311610b5357829003601f168201915b505050505090505b90565b6000610b8f610b88612158565b8484612183565b5060015b92915050565b60025490565b6000908152600e6020526040902080546001909101549091565b6000610bc6848484612183565b610c3684610bd2612158565b610c3185604051806060016040528060288152602001612f03602891396001600160a01b038a16600090815260016020526040812090610c10612158565b6001600160a01b0316815260208101919091526040016000205491906121bc565b612183565b5060015b9392505050565b6000818152600660205260409020600201545b919050565b600082815260066020526040902060020154610c77906108c1612158565b610cb25760405162461bcd60e51b815260040180806020018281038252602f815260200180612e3b602f913960400191505060405180910390fd5b610cbc8282612253565b5050565b60055460ff1690565b610cd1612158565b6001600160a01b0316816001600160a01b031614610d205760405162461bcd60e51b815260040180806020018281038252602f815260200180612f9b602f913960400191505060405180910390fd5b610cbc82826122bc565b6000610b8f610d37612158565b84610c318560016000610d48612158565b6001600160a01b03908116825260208083019390935260409182016000908120918c168152925290205490612325565b604080518082019091526006815265322e302e302b60d01b602082015290565b610da0612158565b6001600160a01b0316816001600160a01b031614610dfe576040805162461bcd60e51b815260206004820152601660248201527529b2b73232b91036bab9ba1031329039b432b934b33360511b604482015290519081900360640190fd5b6000805b6001600160a01b0383166000908152600f60205260409020610e239061237f565b811015610f20576001600160a01b0383166000908152600f60205260408120610e4c908361238a565b9050610e578161216b565b15610e6f57610e67826001612325565b915050610f1b565b6000610e7b858361161b565b9050610e878482612325565b6001600160a01b0386166000908152600f60205260409020909450610eac9083612396565b506000828152600e602090815260408083206001600160a01b0389168085526002909101835292819020600101805461ff001916610100179055805184815290518593927feb19fd1d512bb090737c60013d5d2d78cf7728bb39b4e904f47a5123a74a8d84928290030190a350505b610e02565b508015610cbc577f00000000000000000000000000000000000000000000000000000000000000006001600160a01b03166340c10f1983836040518363ffffffff1660e01b815260040180836001600160a01b0316815260200182815260200192505050600060405180830381600087803b158015610f9e57600080fd5b505af1158015610fb2573d6000803e3d6000fd5b505050505050565b60055461010090046001600160a01b0390811691161490565b81610fde600c612167565b81111561102a576040805162461bcd60e51b815260206004820152601560248201527414995c5d595cdd08191bd95cdb89dd08195e1a5cdd605a1b604482015290519081900360640190fd5b6000818152600d6020526040902060030154610100900460ff161561108d576040805162461bcd60e51b815260206004820152601460248201527314995c5d595cdd081a5cc8191a5cd8d85c99195960621b604482015290519081900360640190fd5b611095612158565b6001600160a01b0316846001600160a01b0316146110f3576040805162461bcd60e51b815260206004820152601660248201527529b2b73232b91036bab9ba1031329039b432b934b33360511b604482015290519081900360640190fd5b6110fc84611f55565b611145576040805162461bcd60e51b815260206004820152601560248201527429b2b73232b91034b9903737ba1039b432b934b33360591b604482015290519081900360640190fd5b61114e8361216b565b611194576040805162461bcd60e51b8152602060048201526012602482015271159bdd1a5b99c81a5cc8199a5b9a5cda195960721b604482015290519081900360640190fd5b600061119f85611395565b6001600160a01b0386166000908152600f602052604090209091506111c490856123a2565b611215576040805162461bcd60e51b815260206004820152601860248201527f5368657269666620697320616c726561647920766f7465640000000000000000604482015290519081900360640190fd5b6000848152600e602090815260408083206001600160a01b03891684526002019091529020819055600183600181111561124b57fe5b14156112ab576000848152600e602081815260408084206001600160a01b038a1685526002810183529084206001908101805460ff191690911790559287905252546112979082612325565b6000858152600e6020526040902055611304565b6000848152600e602081815260408084206001600160a01b038a1685526002810183529084206001908101805460ff191690559388905291905201546112f19082612325565b6000858152600e60205260409020600101555b846001600160a01b03167fcc66c27f993ef125e1b985d84a52726edc66dcc64e94d172f80253e37d52637282856040518083815260200182600181111561134757fe5b81526020019250505060405180910390a25050505050565b600754600854600954600a54600b5485565b7f8eec8b020504d98b9b8aade6b3c37e791120efe8c9a621b6a5abccbe3ec5d7f981565b6001600160a01b031660009081526020819052604090205490565b7f000000000000000000000000000000000000000000000000000000000000000081565b60055461010090046001600160a01b031681565b60006113f4600c6123ae565b6000611400600c612167565b6000818152600d6020526040902080546001600160a01b0319166001600160a01b0387161781556001810185905560038101805461ffff19169055600854600482015560095460058201556007549192509061145d904290612325565b60028201556040805185815290516001600160a01b0387169184917f76664a8bf74c8214a2779a595bbec0820521931eb7ffac23a597467fcbd83f2e9181900360200190a3509392505050565b6000828152600660205260408120610c3a908361238a565b6000828152600660205260408120610c3a90836123b7565b60048054604080516020601f6002600019610100600188161502019095169490940493840181900481028201810190925282815260609390929091830182828015610b705780601f10610b4557610100808354040283529160200191610b70565b600c5481565b6000805b6001600160a01b0383166000908152600f602052604090206115669061237f565b811015611610576001600160a01b0383166000908152600f6020526040812061158f908361238a565b905061159a8161216b565b6115a457506115fe565b6000818152600d6020526040902060030154610100900460ff16156115c957506115fe565b6000818152600e602090815260408083206001600160a01b0388168452600201909152902054808410156115fb578093505b50505b611609816001612325565b9050611545565b50919050565b600081565b6000611627600c612167565b821115611673576040805162461bcd60e51b815260206004820152601560248201527414995c5d595cdd08191bd95cdb89dd08195e1a5cdd605a1b604482015290519081900360640190fd5b61167c8261216b565b156116c7576040805162461bcd60e51b8152602060048201526016602482015275159bdd1a5b99c81a5cc81b9bdd08199a5b9a5cda195960521b604482015290519081900360640190fd5b6000828152600e602090815260408083206001600160a01b0387168452600201909152902054611735576040805162461bcd60e51b81526020600482015260146024820152735368657269666620646f65736e277420766f746560601b604482015290519081900360640190fd5b6000828152600e602090815260408083206001600160a01b0387168452600201909152902060010154610100900460ff16156117a6576040805162461bcd60e51b815260206004820152600b60248201526a14995dd85c99081c185a5960aa1b604482015290519081900360640190fd5b6000828152600d6020526040902060030154610100900460ff16156117cd57506000610b93565b6117d6826123cc565b1561184d576000828152600d6020526040812060019081015491906117fe9086908690612423565b6000858152600e6020908152604080832054600d9092529091206004015491925090611843906064906118379061183d8583898961248e565b906124e7565b9061248e565b9350505050610b93565b506000818152600d6020526040902060050154610b93565b6000610b8f611872612158565b84610c3185604051806060016040528060258152602001612f76602591396001600061189c612158565b6001600160a01b03908116825260208083019390935260409182016000908120918d168152925290205491906121bc565b6118d5612158565b6001600160a01b0316826001600160a01b031614611933576040805162461bcd60e51b815260206004820152601660248201527529b2b73232b91036bab9ba1031329039b432b934b33360511b604482015290519081900360640190fd5b6000811161197b576040805162461bcd60e51b815260206004820152601060248201526f043616e6e6f74206465706f73697420360841b604482015290519081900360640190fd5b611985828261254e565b6119ba6001600160a01b037f00000000000000000000000000000000000000000000000000000000000000001683308461263e565b6040805182815290516001600160a01b038416917f9e71bc8eea02a63969f509818f2dafb9254532904319f9dbda79b67bd34a5f3d919081900360200190a25050565b806001600160a01b0316611a0f612158565b6001600160a01b031614611a63576040805162461bcd60e51b815260206004820152601660248201527529b2b73232b91036bab9ba1031329039b432b934b33360511b604482015290519081900360640190fd5b611a7581611a7083611395565b611f6c565b611a7e81610d98565b50565b604381565b611a8e612158565b6001600160a01b0316826001600160a01b031614611aeb576040805162461bcd60e51b815260206004820152601560248201527429b2b73232b91036bab9ba10313290343ab73a32b960591b604482015290519081900360640190fd5b6000818152600d60205260409020546001600160a01b03838116911614611b4e576040805162461bcd60e51b8152602060048201526012602482015271121d5b9d195c881a5cdb89dd081d985b1a5960721b604482015290519081900360640190fd5b6000611b5982611d76565b6000838152600d60205260409020600301805460ff1916600117905590508015611c0d577f00000000000000000000000000000000000000000000000000000000000000006001600160a01b03166340c10f1984836040518363ffffffff1660e01b815260040180836001600160a01b0316815260200182815260200192505050600060405180830381600087803b158015611bf457600080fd5b505af1158015611c08573d6000803e3d6000fd5b505050505b60408051828152905183916001600160a01b038616917f79584049d8f206bf7b762ccd36e6400e18a37f49122d9e323329b2359b0d44699181900360200190a3505050565b6000818152600660205260408120610b939061237f565b7f000000000000000000000000000000000000000000000000000000000000000081565b600082815260066020526040902060020154611cab906108c1612158565b610d205760405162461bcd60e51b8152600401808060200182810382526030815260200180612eb26030913960400191505060405180910390fd5b6000611cf4816108c1612158565b611d42576040805162461bcd60e51b815260206004820152601a6024820152794d757374206861766520617070726f70726961746520726f6c6560301b604482015290519081900360640190fd5b610cbc8261269e565b6001600160a01b03918216600090815260016020908152604080832093909416825291909152205490565b600081611d83600c612167565b811115611dcf576040805162461bcd60e51b815260206004820152601560248201527414995c5d595cdd08191bd95cdb89dd08195e1a5cdd605a1b604482015290519081900360640190fd5b6000818152600d6020526040902060030154610100900460ff1615611e32576040805162461bcd60e51b815260206004820152601460248201527314995c5d595cdd081a5cc8191a5cd8d85c99195960621b604482015290519081900360640190fd5b611e3b8361216b565b15611e86576040805162461bcd60e51b8152602060048201526016602482015275159bdd1a5b99c81a5cc81b9bdd08199a5b9a5cda195960521b604482015290519081900360640190fd5b6000838152600d602052604090206003015460ff16158015611eac5750611eac836123cc565b15611ee3576000838152600d602052604090206004810154600190910154611edc9160649161183791830361248e565b9150611610565b60009150611610565b6000611efa816108c1612158565b611f48576040805162461bcd60e51b815260206004820152601a6024820152794d757374206861766520617070726f70726961746520726f6c6560301b604482015290519081900360640190fd5b610fb2868686868661270d565b600b54600090611f6483611395565b101592915050565b611f74612158565b6001600160a01b0316826001600160a01b031614611fd2576040805162461bcd60e51b815260206004820152601660248201527529b2b73232b91036bab9ba1031329039b432b934b33360511b604482015290519081900360640190fd5b6000811161201b576040805162461bcd60e51b8152602060048201526011602482015270043616e6e6f74207769746864726177203607c1b604482015290519081900360640190fd5b600061203861202984611541565b61203285611395565b90612838565b90508082111561208f576040805162461bcd60e51b815260206004820152601860248201527f576974686472617720657863656564732062616c616e63650000000000000000604482015290519081900360640190fd5b6120998383612895565b6120cd6001600160a01b037f0000000000000000000000000000000000000000000000000000000000000000168484612991565b6040805183815290516001600160a01b038516917f7084f5476618d8e60b11ef0d7d3f06914655adb8793e28ff7f018d4c76d505d5919081900360200190a2505050565b600060183610801590612128575061212833610fba565b1561213c575060131936013560601c610b78565b5033610b78565b6000610c3a836001600160a01b0384166129e8565b6000612162612111565b905090565b5490565b6000908152600d602052604090206002015442111590565b6040805162461bcd60e51b81526020600482015260096024820152682337b93134b23232b760b91b604482015290519081900360640190fd5b6000818484111561224b5760405162461bcd60e51b81526004018080602001828103825283818151815260200191508051906020019080838360005b838110156122105781810151838201526020016121f8565b50505050905090810190601f16801561223d5780820380516001836020036101000a031916815260200191505b509250505060405180910390fd5b505050900390565b600082815260066020526040902061226b9082612143565b15610cbc57612278612158565b6001600160a01b0316816001600160a01b0316837f2f8788117e7eff1d82e926ec794901d17c78024a50270940304540a733656f0d60405160405180910390a45050565b60008281526006602052604090206122d49082612a32565b15610cbc576122e1612158565b6001600160a01b0316816001600160a01b0316837ff6391f5c32d9c69d2a47ea670b442974b53935d1edc7fd64eb21e047a839171b60405160405180910390a45050565b600082820183811015610c3a576040805162461bcd60e51b815260206004820152601b60248201527f536166654d6174683a206164646974696f6e206f766572666c6f770000000000604482015290519081900360640190fd5b6000610b9382612167565b6000610c3a8383612a47565b6000610c3a8383612aab565b6000610c3a83836129e8565b80546001019055565b6000610c3a836001600160a01b038416612b71565b6000818152600e6020526040812060018101549054600a549101908110156123f8576000915050610c54565b6000838152600e602052604090205460439061241b90839061183790606461248e565b119392505050565b6000828152600e602090815260408083206001600160a01b038716845260020190915281206001015460ff161515821515141561248657506000828152600e602090815260408083206001600160a01b0387168452600201909152902054610c3a565b506000610c3a565b60008261249d57506000610b93565b828202828482816124aa57fe5b0414610c3a5760405162461bcd60e51b8152600401808060200182810382526021815260200180612ee26021913960400191505060405180910390fd5b600080821161253d576040805162461bcd60e51b815260206004820152601a60248201527f536166654d6174683a206469766973696f6e206279207a65726f000000000000604482015290519081900360640190fd5b81838161254657fe5b049392505050565b6001600160a01b0382166125a9576040805162461bcd60e51b815260206004820152601f60248201527f45524332303a206d696e7420746f20746865207a65726f206164647265737300604482015290519081900360640190fd5b6125b5600083836129e3565b6002546125c29082612325565b6002556001600160a01b0382166000908152602081905260409020546125e89082612325565b6001600160a01b0383166000818152602081815260408083209490945583518581529351929391927fddf252ad1be2c89b69c2b068fc378daa952ba7f163c4a11628f55a4df523b3ef9281900390910190a35050565b604080516001600160a01b0380861660248301528416604482015260648082018490528251808303909101815260849091019091526020810180516001600160e01b03166323b872dd60e01b179052612698908590612b89565b50505050565b600580546001600160a01b03838116610100908102610100600160a81b03198416179384905560408051938290048316808552919094049091166020830152825190927f06dff7401eb7fb04d241246ade7f817c7ad512b1bed61c18aedd9bc51eec0475928290030190a15050565b610e108510158015612722575062093a808511155b61276e576040805162461bcd60e51b8152602060048201526018602482015277566f74696e67206475726174696f6e20746f6f206c6f6e6760401b604482015290519081900360640190fd5b60008411801561277e5750606484105b6127ca576040805162461bcd60e51b8152602060048201526018602482015277566f74696e67206475726174696f6e20746f6f206c6f6e6760401b604482015290519081900360640190fd5b600785905560088490556009839055600a829055600b8190556040805186815260208101869052808201859052606081018490526080810183905290517fda4281c14b22d30368ef10494e51dffececd1b7d8e9fcffd1da22890398d42609181900360a00190a15050505050565b60008282111561288f576040805162461bcd60e51b815260206004820152601e60248201527f536166654d6174683a207375627472616374696f6e206f766572666c6f770000604482015290519081900360640190fd5b50900390565b6001600160a01b0382166128da5760405162461bcd60e51b8152600401808060200182810382526021815260200180612f2b6021913960400191505060405180910390fd5b6128e6826000836129e3565b61292381604051806060016040528060228152602001612e6a602291396001600160a01b03851660009081526020819052604090205491906121bc565b6001600160a01b0383166000908152602081905260409020556002546129499082612838565b6002556040805182815290516000916001600160a01b038516917fddf252ad1be2c89b69c2b068fc378daa952ba7f163c4a11628f55a4df523b3ef9181900360200190a35050565b604080516001600160a01b038416602482015260448082018490528251808303909101815260649091019091526020810180516001600160e01b031663a9059cbb60e01b1790526129e3908490612b89565b505050565b60006129f48383612b71565b612a2a57508154600181810184556000848152602080822090930184905584548482528286019093526040902091909155610b93565b506000610b93565b6000610c3a836001600160a01b038416612aab565b81546000908210612a895760405162461bcd60e51b8152600401808060200182810382526022815260200180612e196022913960400191505060405180910390fd5b826000018281548110612a9857fe5b9060005260206000200154905092915050565b60008181526001830160205260408120548015612b675783546000198083019190810190600090879083908110612ade57fe5b9060005260206000200154905080876000018481548110612afb57fe5b600091825260208083209091019290925582815260018981019092526040902090840190558654879080612b2b57fe5b60019003818190600052602060002001600090559055866001016000878152602001908152602001600020600090556001945050505050610b93565b6000915050610b93565b60009081526001919091016020526040902054151590565b6000612bde826040518060400160405280602081526020017f5361666545524332303a206c6f772d6c6576656c2063616c6c206661696c6564815250856001600160a01b0316612c3a9092919063ffffffff16565b8051909150156129e357808060200190516020811015612bfd57600080fd5b50516129e35760405162461bcd60e51b815260040180806020018281038252602a815260200180612f4c602a913960400191505060405180910390fd5b6060612c498484600085612c51565b949350505050565b606082471015612c925760405162461bcd60e51b8152600401808060200182810382526026815260200180612e8c6026913960400191505060405180910390fd5b612c9b85612dac565b612cec576040805162461bcd60e51b815260206004820152601d60248201527f416464726573733a2063616c6c20746f206e6f6e2d636f6e7472616374000000604482015290519081900360640190fd5b600080866001600160a01b031685876040518082805190602001908083835b60208310612d2a5780518252601f199092019160209182019101612d0b565b6001836020036101000a03801982511681845116808217855250505050505090500191505060006040518083038185875af1925050503d8060008114612d8c576040519150601f19603f3d011682016040523d82523d6000602084013e612d91565b606091505b5091509150612da1828286612db2565b979650505050505050565b3b151590565b60608315612dc1575081610c3a565b825115612dd15782518084602001fd5b60405162461bcd60e51b81526020600482018181528451602484015284518593919283926044019190850190808383600083156122105781810151838201526020016121f856fe456e756d657261626c655365743a20696e646578206f7574206f6620626f756e6473416363657373436f6e74726f6c3a2073656e646572206d75737420626520616e2061646d696e20746f206772616e7445524332303a206275726e20616d6f756e7420657863656564732062616c616e6365416464726573733a20696e73756666696369656e742062616c616e636520666f722063616c6c416363657373436f6e74726f6c3a2073656e646572206d75737420626520616e2061646d696e20746f207265766f6b65536166654d6174683a206d756c7469706c69636174696f6e206f766572666c6f7745524332303a207472616e7366657220616d6f756e74206578636565647320616c6c6f77616e636545524332303a206275726e2066726f6d20746865207a65726f20616464726573735361666545524332303a204552433230206f7065726174696f6e20646964206e6f74207375636365656445524332303a2064656372656173656420616c6c6f77616e63652062656c6f77207a65726f416363657373436f6e74726f6c3a2063616e206f6e6c792072656e6f756e636520726f6c657320666f722073656c66a2646970667358221220257a7ae68521f4f21d43ffd3c62279e86e45e002ef0cbacb7f1365cbca291ee364736f6c63430007060033",
  "immutableReferences": {
    "1225": [
      {
        "length": 32,
        "start": 5042
      },
      {
        "length": 32,
        "start": 6546
      },
      {
        "length": 32,
        "start": 8358
      }
    ],
    "1227": [
      {
        "length": 32,
        "start": 3881
      },
      {
        "length": 32,
        "start": 7039
      },
      {
        "length": 32,
        "start": 7275
      }
    ]
  },
  "source": "// SPDX-License-Identifier: MIT\n// solhint-disable-next-line compiler-version\npragma solidity ^0.7.6;\n\nimport \"@openzeppelin/contracts/token/ERC20/SafeERC20.sol\";\nimport \"@openzeppelin/contracts/token/ERC20/IERC20.sol\";\nimport \"@openzeppelin/contracts/access/AccessControl.sol\";\nimport \"@openzeppelin/contracts/utils/Counters.sol\";\nimport \"@openzeppelin/contracts/utils/Context.sol\";\n\nimport \"../interfaces/IWalletHunters.sol\";\nimport \"../utils/AccountingToken.sol\";\nimport \"../gsn/RelayRecipient.sol\";\nimport \"../interfaces/IERC20Mintable.sol\";\n\ncontract WalletHunters is\n    IWalletHunters,\n    AccountingToken,\n    RelayRecipient,\n    AccessControl\n{\n    using Counters for Counters.Counter;\n    using SafeMath for uint256;\n    using SafeERC20 for IERC20Mintable;\n    using SafeERC20 for IERC20;\n    using EnumerableSet for EnumerableSet.UintSet;\n\n    uint256 public constant SUPER_MAJORITY = 67;\n\n    bytes32 public constant MAYOR_ROLE = keccak256(\"MAYOR_ROLE\");\n\n    IERC20 public immutable stakingToken;\n    IERC20Mintable public immutable rewardsToken;\n\n    Configuration public configuration;\n    Counters.Counter public requestCounter;\n    mapping(uint256 => WalletRequest) private walletRequests;\n    mapping(uint256 => RequestVoting) private requestVotings;\n    mapping(address => EnumerableSet.UintSet) private activeRequests;\n\n    modifier onlyRole(bytes32 role) {\n        require(hasRole(role, _msgSender()), \"Must have appropriate role\");\n        _;\n    }\n\n    modifier validateRequestId(uint256 requestId) {\n        require(requestId <= requestCounter.current(), \"Request doesn't exist\");\n        require(!walletRequests[requestId].discarded, \"Request is discarded\");\n        _;\n    }\n\n    constructor(\n        address stakingToken_,\n        address rewardsToken_,\n        uint256 votingDuration_,\n        uint256 sheriffsRewardShare_,\n        uint256 fixedSheriffReward_,\n        uint256 minimalVotesForRequest_,\n        uint256 minimalDepositForSheriff_\n    ) AccountingToken(\"Wallet Hunters, Sheriff Token\", \"WHST\") {\n        _setupRole(DEFAULT_ADMIN_ROLE, _msgSender());\n        _setupRole(MAYOR_ROLE, _msgSender());\n\n        stakingToken = IERC20(stakingToken_);\n        rewardsToken = IERC20Mintable(rewardsToken_);\n\n        _updateConfiguration(\n            votingDuration_,\n            sheriffsRewardShare_,\n            fixedSheriffReward_,\n            minimalVotesForRequest_,\n            minimalDepositForSheriff_\n        );\n    }\n\n    function submitRequest(address hunter, uint256 reward)\n        external\n        override\n        returns (uint256)\n    {\n        requestCounter.increment();\n        uint256 id = requestCounter.current();\n\n        IWalletHunters.WalletRequest storage _request = walletRequests[id];\n\n        _request.hunter = hunter;\n        _request.reward = reward;\n        _request.rewardPaid = false;\n        _request.discarded = false;\n        _request.sheriffsRewardShare = configuration.sheriffsRewardShare;\n        _request.fixedSheriffReward = configuration.fixedSheriffReward;\n        // solhint-disable-next-line not-rely-on-time\n        _request.finishTime = block.timestamp.add(configuration.votingDuration);\n\n        emit NewWalletRequest(id, hunter, reward);\n\n        return id;\n    }\n\n    function stake(address sheriff, uint256 amount) external override {\n        require(sheriff == _msgSender(), \"Sender must be sheriff\");\n        require(amount > 0, \"Cannot deposit 0\");\n        _mint(sheriff, amount);\n        stakingToken.safeTransferFrom(sheriff, address(this), amount);\n        emit Staked(sheriff, amount);\n    }\n\n    function vote(\n        address sheriff,\n        uint256 requestId,\n        Vote kind\n    ) external override validateRequestId(requestId) {\n        require(sheriff == _msgSender(), \"Sender must be sheriff\");\n        require(isSheriff(sheriff), \"Sender is not sheriff\");\n        require(_votingState(requestId), \"Voting is finished\");\n\n        uint256 amount = balanceOf(sheriff);\n\n        require(\n            activeRequests[sheriff].add(requestId),\n            \"Sheriff is already voted\"\n        );\n        requestVotings[requestId].votes[sheriff].amount = amount;\n\n        if (kind == Vote.FOR) {\n            requestVotings[requestId].votes[sheriff].voteFor = true;\n            requestVotings[requestId].votesFor = requestVotings[requestId]\n                .votesFor\n                .add(amount);\n        } else {\n            requestVotings[requestId].votes[sheriff].voteFor = false;\n            requestVotings[requestId].votesAgainst = requestVotings[requestId]\n                .votesAgainst\n                .add(amount);\n        }\n\n        emit Voted(sheriff, amount, kind);\n    }\n\n    function discardRequest(address mayor, uint256 requestId)\n        external\n        override\n        onlyRole(MAYOR_ROLE)\n        validateRequestId(requestId)\n    {\n        require(mayor == _msgSender(), \"Sender must be mayor\");\n        require(_votingState(requestId), \"Voting is finished\");\n\n        walletRequests[requestId].discarded = true;\n\n        emit RequestDiscarded(requestId, mayor);\n    }\n\n    function withdraw(address sheriff, uint256 amount) public override {\n        require(sheriff == _msgSender(), \"Sender must be sheriff\");\n        require(amount > 0, \"Cannot withdraw 0\");\n        uint256 available = balanceOf(sheriff).sub(lockedBalance(sheriff));\n        require(amount <= available, \"Withdraw exceeds balance\");\n        _burn(sheriff, amount);\n        stakingToken.safeTransfer(sheriff, amount);\n        emit Withdrawn(sheriff, amount);\n    }\n\n    function exit(address sheriff) external override {\n        require(_msgSender() == sheriff, \"Sender must be sheriff\");\n        withdraw(sheriff, balanceOf(sheriff));\n        getSheriffRewards(sheriff);\n    }\n\n    function getHunterReward(address hunter, uint256 requestId)\n        external\n        override\n    {\n        require(hunter == _msgSender(), \"Sender must be hunter\");\n        require(\n            hunter == walletRequests[requestId].hunter,\n            \"Hunter isn't valid\"\n        );\n\n        uint256 reward = hunterReward(requestId);\n        walletRequests[requestId].rewardPaid = true;\n\n        if (reward > 0) {\n            rewardsToken.mint(hunter, reward);\n        }\n\n        emit HunterRewardPaid(hunter, requestId, reward);\n    }\n\n    function getSheriffRewards(address sheriff) public override {\n        require(sheriff == _msgSender(), \"Sender must be sheriff\");\n        uint256 totalReward = 0;\n\n        for (uint256 i = 0; i < activeRequests[sheriff].length(); ) {\n            uint256 requestId = activeRequests[sheriff].at(i);\n\n            if (_votingState(requestId)) {\n                i = i.add(1);\n                continue;\n            }\n\n            uint256 reward = sheriffReward(sheriff, requestId);\n            totalReward = totalReward.add(reward);\n\n            activeRequests[sheriff].remove(requestId);\n            requestVotings[requestId].votes[sheriff].rewardPaid = true;\n            emit SheriffRewardPaid(sheriff, requestId, reward);\n        }\n\n        if (totalReward > 0) {\n            rewardsToken.mint(sheriff, totalReward);\n        }\n    }\n\n    function updateConfiguration(\n        uint256 _votingDuration,\n        uint256 _sheriffsRewardShare,\n        uint256 _fixedSheriffReward,\n        uint256 _minimalVotesForRequest,\n        uint256 _minimalDepositForSheriff\n    ) external override onlyRole(DEFAULT_ADMIN_ROLE) {\n        _updateConfiguration(\n            _votingDuration,\n            _sheriffsRewardShare,\n            _fixedSheriffReward,\n            _minimalVotesForRequest,\n            _minimalDepositForSheriff\n        );\n    }\n\n    function _updateConfiguration(\n        uint256 _votingDuration,\n        uint256 _sheriffsRewardShare,\n        uint256 _fixedSheriffReward,\n        uint256 _minimalVotesForRequest,\n        uint256 _minimalDepositForSheriff\n    ) internal {\n        require(\n            _votingDuration >= 1 hours && _votingDuration <= 1 weeks,\n            \"Voting duration too long\"\n        );\n        require(\n            _sheriffsRewardShare > 0 && _sheriffsRewardShare < 100,\n            \"Voting duration too long\"\n        );\n\n        configuration.votingDuration = _votingDuration;\n        configuration.sheriffsRewardShare = _sheriffsRewardShare;\n        configuration.fixedSheriffReward = _fixedSheriffReward;\n        configuration.minimalVotesForRequest = _minimalVotesForRequest;\n        configuration.minimalDepositForSheriff = _minimalDepositForSheriff;\n\n        emit ConfigurationChanged(\n            _votingDuration,\n            _sheriffsRewardShare,\n            _fixedSheriffReward,\n            _minimalVotesForRequest,\n            _minimalDepositForSheriff\n        );\n    }\n\n    function hunterReward(uint256 requestId)\n        public\n        view\n        override\n        validateRequestId(requestId)\n        returns (uint256)\n    {\n        require(!_votingState(requestId), \"Voting is not finished\");\n\n        if (\n            !walletRequests[requestId].rewardPaid && _walletApproved(requestId)\n        ) {\n            return\n                walletRequests[requestId]\n                    .reward\n                    .mul(100 - walletRequests[requestId].sheriffsRewardShare)\n                    .div(100);\n        } else {\n            return 0;\n        }\n    }\n\n    function sheriffReward(address sheriff, uint256 requestId)\n        public\n        view\n        override\n        returns (uint256)\n    {\n        require(requestId <= requestCounter.current(), \"Request doesn't exist\");\n        require(!_votingState(requestId), \"Voting is not finished\");\n        require(\n            requestVotings[requestId].votes[sheriff].amount > 0,\n            \"Sheriff doesn't vote\"\n        );\n        require(\n            !requestVotings[requestId].votes[sheriff].rewardPaid,\n            \"Reward paid\"\n        );\n\n        if (walletRequests[requestId].discarded) {\n            return 0;\n        }\n\n        if (_walletApproved(requestId)) {\n            uint256 reward = walletRequests[requestId].reward;\n            uint256 votes = _getSheriffVotes(sheriff, requestId, true);\n            uint256 totalVotes = requestVotings[requestId].votesFor;\n            return\n                reward\n                    .mul(votes)\n                    .div(totalVotes)\n                    .mul(walletRequests[requestId].sheriffsRewardShare)\n                    .div(100);\n        } else {\n            return walletRequests[requestId].fixedSheriffReward;\n        }\n    }\n\n    function setTrustedForwarder(address trustedForwarder)\n        external\n        override\n        onlyRole(DEFAULT_ADMIN_ROLE)\n    {\n        super._setTrustedForwarder(trustedForwarder);\n    }\n\n    //    function request(uint256 requestId)\n    //        external\n    //        view\n    //        override\n    //        validateRequestId(requestId)\n    //        returns (\n    //            address hunter,\n    //            uint256 reward,\n    //            uint256 finishTime,\n    //            bool votingState,\n    //            bool rewardPaid,\n    //            bool discarded\n    //        )\n    //    {\n    //        hunter = walletRequests[requestId].hunter;\n    //        reward = walletRequests[requestId].reward;\n    //        finishTime = walletRequests[requestId].finishTime;\n    //        // solhint-disable-next-line not-rely-on-time\n    //        votingState = block.timestamp <= finishTime;\n    //        rewardPaid = walletRequests[requestId].rewardPaid;\n    //        discarded = walletRequests[requestId].discarded;\n    //    }\n\n    function countVotes(uint256 requestId)\n        external\n        view\n        override\n        returns (uint256 votesFor, uint256 votesAgainst)\n    {\n        votesFor = requestVotings[requestId].votesFor;\n        votesAgainst = requestVotings[requestId].votesAgainst;\n    }\n\n    function isSheriff(address sheriff) public view override returns (bool) {\n        return balanceOf(sheriff) >= configuration.minimalDepositForSheriff;\n    }\n\n    function lockedBalance(address sheriff)\n        public\n        view\n        override\n        returns (uint256 locked)\n    {\n        locked = 0;\n\n        for (\n            uint256 i = 0;\n            i < activeRequests[sheriff].length();\n            i = i.add(1)\n        ) {\n            uint256 requestId = activeRequests[sheriff].at(i);\n            if (!_votingState(requestId)) {\n                continue;\n            }\n            if (walletRequests[requestId].discarded) {\n                continue;\n            }\n\n            uint256 votes = requestVotings[requestId].votes[sheriff].amount;\n            if (locked < votes) {\n                locked = votes;\n            }\n        }\n    }\n\n    function _walletApproved(uint256 requestId) internal view returns (bool) {\n        uint256 totalVotes =\n            requestVotings[requestId].votesFor +\n                requestVotings[requestId].votesAgainst;\n        if (totalVotes < configuration.minimalVotesForRequest) {\n            return false;\n        }\n        return\n            requestVotings[requestId].votesFor.mul(100).div(totalVotes) >\n            SUPER_MAJORITY;\n    }\n\n    function _votingState(uint256 requestId) internal view returns (bool) {\n        // solhint-disable-next-line not-rely-on-time\n        return block.timestamp <= walletRequests[requestId].finishTime;\n    }\n\n    function _msgSender()\n        internal\n        view\n        override(Context, BaseRelayRecipient)\n        returns (address payable)\n    {\n        return BaseRelayRecipient._msgSender();\n    }\n\n    function _msgData()\n        internal\n        view\n        override(Context, BaseRelayRecipient)\n        returns (bytes memory)\n    {\n        return BaseRelayRecipient._msgData();\n    }\n\n    function versionRecipient() external pure override returns (string memory) {\n        return \"2.0.0+\";\n    }\n\n    function _getSheriffVotes(\n        address sheriff,\n        uint256 requestId,\n        bool voteFor\n    ) internal view returns (uint256) {\n        if (requestVotings[requestId].votes[sheriff].voteFor == voteFor) {\n            return requestVotings[requestId].votes[sheriff].amount;\n        } else {\n            return 0;\n        }\n    }\n}\n",
  "sourcePath": "/home/nailkhaf/Projects/san-games/contracts/hunters/WalletHunters.sol",
  "compiler": {
    "name": "solc",
    "version": "0.7.6+commit.7338295f.Emscripten.clang"
  },
  "schemaVersion": "3.3.3",
  "updatedAt": "2021-02-22T12:24:27.831Z",
  "devdoc": {
    "kind": "dev",
    "methods": {
      "allowance(address,address)": {
        "details": "See {IERC20-allowance}."
      },
      "approve(address,uint256)": {
        "details": "See {IERC20-approve}. Requirements: - `spender` cannot be the zero address."
      },
      "balanceOf(address)": {
        "details": "See {IERC20-balanceOf}."
      },
      "decimals()": {
        "details": "Returns the number of decimals used to get its user representation. For example, if `decimals` equals `2`, a balance of `505` tokens should be displayed to a user as `5,05` (`505 / 10 ** 2`). Tokens usually opt for a value of 18, imitating the relationship between Ether and Wei. This is the value {ERC20} uses, unless {_setupDecimals} is called. NOTE: This information is only used for _display_ purposes: it in no way affects any of the arithmetic of the contract, including {IERC20-balanceOf} and {IERC20-transfer}."
      },
      "decreaseAllowance(address,uint256)": {
        "details": "Atomically decreases the allowance granted to `spender` by the caller. This is an alternative to {approve} that can be used as a mitigation for problems described in {IERC20-approve}. Emits an {Approval} event indicating the updated allowance. Requirements: - `spender` cannot be the zero address. - `spender` must have allowance for the caller of at least `subtractedValue`."
      },
      "getRoleAdmin(bytes32)": {
        "details": "Returns the admin role that controls `role`. See {grantRole} and {revokeRole}. To change a role's admin, use {_setRoleAdmin}."
      },
      "getRoleMember(bytes32,uint256)": {
        "details": "Returns one of the accounts that have `role`. `index` must be a value between 0 and {getRoleMemberCount}, non-inclusive. Role bearers are not sorted in any particular way, and their ordering may change at any point. WARNING: When using {getRoleMember} and {getRoleMemberCount}, make sure you perform all queries on the same block. See the following https://forum.openzeppelin.com/t/iterating-over-elements-on-enumerableset-in-openzeppelin-contracts/2296[forum post] for more information."
      },
      "getRoleMemberCount(bytes32)": {
        "details": "Returns the number of accounts that have `role`. Can be used together with {getRoleMember} to enumerate all bearers of a role."
      },
      "grantRole(bytes32,address)": {
        "details": "Grants `role` to `account`. If `account` had not been already granted `role`, emits a {RoleGranted} event. Requirements: - the caller must have ``role``'s admin role."
      },
      "hasRole(bytes32,address)": {
        "details": "Returns `true` if `account` has been granted `role`."
      },
      "increaseAllowance(address,uint256)": {
        "details": "Atomically increases the allowance granted to `spender` by the caller. This is an alternative to {approve} that can be used as a mitigation for problems described in {IERC20-approve}. Emits an {Approval} event indicating the updated allowance. Requirements: - `spender` cannot be the zero address."
      },
      "name()": {
        "details": "Returns the name of the token."
      },
      "renounceRole(bytes32,address)": {
        "details": "Revokes `role` from the calling account. Roles are often managed via {grantRole} and {revokeRole}: this function's purpose is to provide a mechanism for accounts to lose their privileges if they are compromised (such as when a trusted device is misplaced). If the calling account had been granted `role`, emits a {RoleRevoked} event. Requirements: - the caller must be `account`."
      },
      "revokeRole(bytes32,address)": {
        "details": "Revokes `role` from `account`. If `account` had been granted `role`, emits a {RoleRevoked} event. Requirements: - the caller must have ``role``'s admin role."
      },
      "symbol()": {
        "details": "Returns the symbol of the token, usually a shorter version of the name."
      },
      "totalSupply()": {
        "details": "See {IERC20-totalSupply}."
      },
      "transfer(address,uint256)": {
        "details": "See {IERC20-transfer}. Requirements: - `recipient` cannot be the zero address. - the caller must have a balance of at least `amount`."
      },
      "transferFrom(address,address,uint256)": {
        "details": "See {IERC20-transferFrom}. Emits an {Approval} event indicating the updated allowance. This is not required by the EIP. See the note at the beginning of {ERC20}. Requirements: - `sender` and `recipient` cannot be the zero address. - `sender` must have a balance of at least `amount`. - the caller must have allowance for ``sender``'s tokens of at least `amount`."
      }
    },
    "version": 1
  },
  "userdoc": {
    "kind": "user",
    "methods": {
      "isTrustedForwarder(address)": {
        "notice": "return if the forwarder is trusted to forward relayed transactions to us. the forwarder is required to verify the sender's signature, and verify the call is not a replay."
      }
    },
    "version": 1
  }
}