{
  "contractName": "WalletHunters",
  "abi": [
    {
      "inputs": [
        {
          "internalType": "address",
          "name": "rewardsToken_",
          "type": "address"
        },
        {
          "internalType": "uint256",
          "name": "votingDuration_",
          "type": "uint256"
        }
      ],
      "stateMutability": "nonpayable",
      "type": "constructor"
    },
    {
      "anonymous": false,
      "inputs": [
        {
          "indexed": true,
          "internalType": "address",
          "name": "owner",
          "type": "address"
        },
        {
          "indexed": true,
          "internalType": "address",
          "name": "spender",
          "type": "address"
        },
        {
          "indexed": false,
          "internalType": "uint256",
          "name": "value",
          "type": "uint256"
        }
      ],
      "name": "Approval",
      "type": "event"
    },
    {
      "anonymous": false,
      "inputs": [
        {
          "indexed": true,
          "internalType": "address",
          "name": "hunter",
          "type": "address"
        },
        {
          "indexed": true,
          "internalType": "uint256",
          "name": "requestId",
          "type": "uint256"
        },
        {
          "indexed": false,
          "internalType": "uint256",
          "name": "reward",
          "type": "uint256"
        }
      ],
      "name": "HunterRewardPaid",
      "type": "event"
    },
    {
      "anonymous": false,
      "inputs": [
        {
          "indexed": true,
          "internalType": "uint256",
          "name": "requestId",
          "type": "uint256"
        },
        {
          "indexed": true,
          "internalType": "address",
          "name": "hunter",
          "type": "address"
        },
        {
          "indexed": false,
          "internalType": "uint256",
          "name": "reward",
          "type": "uint256"
        }
      ],
      "name": "NewWalletRequest",
      "type": "event"
    },
    {
      "anonymous": false,
      "inputs": [
        {
          "indexed": true,
          "internalType": "uint256",
          "name": "requestId",
          "type": "uint256"
        },
        {
          "indexed": false,
          "internalType": "address",
          "name": "mayor",
          "type": "address"
        }
      ],
      "name": "RequestDiscarded",
      "type": "event"
    },
    {
      "anonymous": false,
      "inputs": [
        {
          "indexed": true,
          "internalType": "bytes32",
          "name": "role",
          "type": "bytes32"
        },
        {
          "indexed": true,
          "internalType": "bytes32",
          "name": "previousAdminRole",
          "type": "bytes32"
        },
        {
          "indexed": true,
          "internalType": "bytes32",
          "name": "newAdminRole",
          "type": "bytes32"
        }
      ],
      "name": "RoleAdminChanged",
      "type": "event"
    },
    {
      "anonymous": false,
      "inputs": [
        {
          "indexed": true,
          "internalType": "bytes32",
          "name": "role",
          "type": "bytes32"
        },
        {
          "indexed": true,
          "internalType": "address",
          "name": "account",
          "type": "address"
        },
        {
          "indexed": true,
          "internalType": "address",
          "name": "sender",
          "type": "address"
        }
      ],
      "name": "RoleGranted",
      "type": "event"
    },
    {
      "anonymous": false,
      "inputs": [
        {
          "indexed": true,
          "internalType": "bytes32",
          "name": "role",
          "type": "bytes32"
        },
        {
          "indexed": true,
          "internalType": "address",
          "name": "account",
          "type": "address"
        },
        {
          "indexed": true,
          "internalType": "address",
          "name": "sender",
          "type": "address"
        }
      ],
      "name": "RoleRevoked",
      "type": "event"
    },
    {
      "anonymous": false,
      "inputs": [
        {
          "indexed": true,
          "internalType": "address",
          "name": "sheriff",
          "type": "address"
        },
        {
          "indexed": true,
          "internalType": "uint256",
          "name": "requestId",
          "type": "uint256"
        },
        {
          "indexed": false,
          "internalType": "uint256",
          "name": "reward",
          "type": "uint256"
        }
      ],
      "name": "SheriffRewardPaid",
      "type": "event"
    },
    {
      "anonymous": false,
      "inputs": [
        {
          "indexed": true,
          "internalType": "address",
          "name": "sheriff",
          "type": "address"
        },
        {
          "indexed": false,
          "internalType": "uint256",
          "name": "amount",
          "type": "uint256"
        }
      ],
      "name": "Staked",
      "type": "event"
    },
    {
      "anonymous": false,
      "inputs": [
        {
          "indexed": true,
          "internalType": "address",
          "name": "from",
          "type": "address"
        },
        {
          "indexed": true,
          "internalType": "address",
          "name": "to",
          "type": "address"
        },
        {
          "indexed": false,
          "internalType": "uint256",
          "name": "value",
          "type": "uint256"
        }
      ],
      "name": "Transfer",
      "type": "event"
    },
    {
      "anonymous": false,
      "inputs": [
        {
          "indexed": false,
          "internalType": "address",
          "name": "previous",
          "type": "address"
        },
        {
          "indexed": false,
          "internalType": "address",
          "name": "current",
          "type": "address"
        }
      ],
      "name": "TrustedForwarderChanged",
      "type": "event"
    },
    {
      "anonymous": false,
      "inputs": [
        {
          "indexed": true,
          "internalType": "address",
          "name": "sheriff",
          "type": "address"
        },
        {
          "indexed": false,
          "internalType": "uint256",
          "name": "amount",
          "type": "uint256"
        },
        {
          "indexed": false,
          "internalType": "enum IWalletHunters.Vote",
          "name": "kind",
          "type": "uint8"
        }
      ],
      "name": "Voted",
      "type": "event"
    },
    {
      "anonymous": false,
      "inputs": [
        {
          "indexed": true,
          "internalType": "address",
          "name": "sheriff",
          "type": "address"
        },
        {
          "indexed": false,
          "internalType": "uint256",
          "name": "amount",
          "type": "uint256"
        }
      ],
      "name": "Withdrawn",
      "type": "event"
    },
    {
      "inputs": [],
      "name": "DEFAULT_ADMIN_ROLE",
      "outputs": [
        {
          "internalType": "bytes32",
          "name": "",
          "type": "bytes32"
        }
      ],
      "stateMutability": "view",
      "type": "function"
    },
    {
      "inputs": [],
      "name": "FIXED_SHERIFF_REWARD",
      "outputs": [
        {
          "internalType": "uint256",
          "name": "",
          "type": "uint256"
        }
      ],
      "stateMutability": "view",
      "type": "function"
    },
    {
      "inputs": [],
      "name": "MAYOR_ROLE",
      "outputs": [
        {
          "internalType": "bytes32",
          "name": "",
          "type": "bytes32"
        }
      ],
      "stateMutability": "view",
      "type": "function"
    },
    {
      "inputs": [],
      "name": "MINIMAL_DEPOSIT_FOR_SHERIFF",
      "outputs": [
        {
          "internalType": "uint256",
          "name": "",
          "type": "uint256"
        }
      ],
      "stateMutability": "view",
      "type": "function"
    },
    {
      "inputs": [],
      "name": "MINIMAL_VOTES_FOR_REQUEST",
      "outputs": [
        {
          "internalType": "uint256",
          "name": "",
          "type": "uint256"
        }
      ],
      "stateMutability": "view",
      "type": "function"
    },
    {
      "inputs": [],
      "name": "SHERIFFS_REWARD_SHARE",
      "outputs": [
        {
          "internalType": "uint256",
          "name": "",
          "type": "uint256"
        }
      ],
      "stateMutability": "view",
      "type": "function"
    },
    {
      "inputs": [],
      "name": "SUPER_MAJORITY",
      "outputs": [
        {
          "internalType": "uint256",
          "name": "",
          "type": "uint256"
        }
      ],
      "stateMutability": "view",
      "type": "function"
    },
    {
      "inputs": [
        {
          "internalType": "address",
          "name": "owner",
          "type": "address"
        },
        {
          "internalType": "address",
          "name": "spender",
          "type": "address"
        }
      ],
      "name": "allowance",
      "outputs": [
        {
          "internalType": "uint256",
          "name": "",
          "type": "uint256"
        }
      ],
      "stateMutability": "view",
      "type": "function"
    },
    {
      "inputs": [
        {
          "internalType": "address",
          "name": "spender",
          "type": "address"
        },
        {
          "internalType": "uint256",
          "name": "amount",
          "type": "uint256"
        }
      ],
      "name": "approve",
      "outputs": [
        {
          "internalType": "bool",
          "name": "",
          "type": "bool"
        }
      ],
      "stateMutability": "nonpayable",
      "type": "function"
    },
    {
      "inputs": [
        {
          "internalType": "address",
          "name": "account",
          "type": "address"
        }
      ],
      "name": "balanceOf",
      "outputs": [
        {
          "internalType": "uint256",
          "name": "",
          "type": "uint256"
        }
      ],
      "stateMutability": "view",
      "type": "function"
    },
    {
      "inputs": [],
      "name": "decimals",
      "outputs": [
        {
          "internalType": "uint8",
          "name": "",
          "type": "uint8"
        }
      ],
      "stateMutability": "view",
      "type": "function"
    },
    {
      "inputs": [
        {
          "internalType": "address",
          "name": "spender",
          "type": "address"
        },
        {
          "internalType": "uint256",
          "name": "subtractedValue",
          "type": "uint256"
        }
      ],
      "name": "decreaseAllowance",
      "outputs": [
        {
          "internalType": "bool",
          "name": "",
          "type": "bool"
        }
      ],
      "stateMutability": "nonpayable",
      "type": "function"
    },
    {
      "inputs": [
        {
          "internalType": "bytes32",
          "name": "role",
          "type": "bytes32"
        }
      ],
      "name": "getRoleAdmin",
      "outputs": [
        {
          "internalType": "bytes32",
          "name": "",
          "type": "bytes32"
        }
      ],
      "stateMutability": "view",
      "type": "function"
    },
    {
      "inputs": [
        {
          "internalType": "bytes32",
          "name": "role",
          "type": "bytes32"
        },
        {
          "internalType": "uint256",
          "name": "index",
          "type": "uint256"
        }
      ],
      "name": "getRoleMember",
      "outputs": [
        {
          "internalType": "address",
          "name": "",
          "type": "address"
        }
      ],
      "stateMutability": "view",
      "type": "function"
    },
    {
      "inputs": [
        {
          "internalType": "bytes32",
          "name": "role",
          "type": "bytes32"
        }
      ],
      "name": "getRoleMemberCount",
      "outputs": [
        {
          "internalType": "uint256",
          "name": "",
          "type": "uint256"
        }
      ],
      "stateMutability": "view",
      "type": "function"
    },
    {
      "inputs": [
        {
          "internalType": "bytes32",
          "name": "role",
          "type": "bytes32"
        },
        {
          "internalType": "address",
          "name": "account",
          "type": "address"
        }
      ],
      "name": "grantRole",
      "outputs": [],
      "stateMutability": "nonpayable",
      "type": "function"
    },
    {
      "inputs": [
        {
          "internalType": "bytes32",
          "name": "role",
          "type": "bytes32"
        },
        {
          "internalType": "address",
          "name": "account",
          "type": "address"
        }
      ],
      "name": "hasRole",
      "outputs": [
        {
          "internalType": "bool",
          "name": "",
          "type": "bool"
        }
      ],
      "stateMutability": "view",
      "type": "function"
    },
    {
      "inputs": [
        {
          "internalType": "address",
          "name": "spender",
          "type": "address"
        },
        {
          "internalType": "uint256",
          "name": "addedValue",
          "type": "uint256"
        }
      ],
      "name": "increaseAllowance",
      "outputs": [
        {
          "internalType": "bool",
          "name": "",
          "type": "bool"
        }
      ],
      "stateMutability": "nonpayable",
      "type": "function"
    },
    {
      "inputs": [
        {
          "internalType": "address",
          "name": "forwarder",
          "type": "address"
        }
      ],
      "name": "isTrustedForwarder",
      "outputs": [
        {
          "internalType": "bool",
          "name": "",
          "type": "bool"
        }
      ],
      "stateMutability": "view",
      "type": "function"
    },
    {
      "inputs": [],
      "name": "name",
      "outputs": [
        {
          "internalType": "string",
          "name": "",
          "type": "string"
        }
      ],
      "stateMutability": "view",
      "type": "function"
    },
    {
      "inputs": [
        {
          "internalType": "bytes32",
          "name": "role",
          "type": "bytes32"
        },
        {
          "internalType": "address",
          "name": "account",
          "type": "address"
        }
      ],
      "name": "renounceRole",
      "outputs": [],
      "stateMutability": "nonpayable",
      "type": "function"
    },
    {
      "inputs": [
        {
          "internalType": "bytes32",
          "name": "role",
          "type": "bytes32"
        },
        {
          "internalType": "address",
          "name": "account",
          "type": "address"
        }
      ],
      "name": "revokeRole",
      "outputs": [],
      "stateMutability": "nonpayable",
      "type": "function"
    },
    {
      "inputs": [],
      "name": "rewardsToken",
      "outputs": [
        {
          "internalType": "contract IRewardsToken",
          "name": "",
          "type": "address"
        }
      ],
      "stateMutability": "view",
      "type": "function"
    },
    {
      "inputs": [],
      "name": "symbol",
      "outputs": [
        {
          "internalType": "string",
          "name": "",
          "type": "string"
        }
      ],
      "stateMutability": "view",
      "type": "function"
    },
    {
      "inputs": [],
      "name": "totalSupply",
      "outputs": [
        {
          "internalType": "uint256",
          "name": "",
          "type": "uint256"
        }
      ],
      "stateMutability": "view",
      "type": "function"
    },
    {
      "inputs": [
        {
          "internalType": "address",
          "name": "recipient",
          "type": "address"
        },
        {
          "internalType": "uint256",
          "name": "amount",
          "type": "uint256"
        }
      ],
      "name": "transfer",
      "outputs": [
        {
          "internalType": "bool",
          "name": "",
          "type": "bool"
        }
      ],
      "stateMutability": "nonpayable",
      "type": "function"
    },
    {
      "inputs": [
        {
          "internalType": "address",
          "name": "sender",
          "type": "address"
        },
        {
          "internalType": "address",
          "name": "recipient",
          "type": "address"
        },
        {
          "internalType": "uint256",
          "name": "amount",
          "type": "uint256"
        }
      ],
      "name": "transferFrom",
      "outputs": [
        {
          "internalType": "bool",
          "name": "",
          "type": "bool"
        }
      ],
      "stateMutability": "nonpayable",
      "type": "function"
    },
    {
      "inputs": [],
      "name": "trustedForwarder",
      "outputs": [
        {
          "internalType": "address",
          "name": "",
          "type": "address"
        }
      ],
      "stateMutability": "view",
      "type": "function"
    },
    {
      "inputs": [
        {
          "internalType": "address",
          "name": "hunter",
          "type": "address"
        },
        {
          "internalType": "uint256",
          "name": "reward",
          "type": "uint256"
        }
      ],
      "name": "submitRequest",
      "outputs": [
        {
          "internalType": "uint256",
          "name": "",
          "type": "uint256"
        }
      ],
      "stateMutability": "nonpayable",
      "type": "function"
    },
    {
      "inputs": [
        {
          "internalType": "address",
          "name": "sheriff",
          "type": "address"
        },
        {
          "internalType": "uint256",
          "name": "amount",
          "type": "uint256"
        }
      ],
      "name": "stake",
      "outputs": [],
      "stateMutability": "nonpayable",
      "type": "function"
    },
    {
      "inputs": [
        {
          "internalType": "address",
          "name": "sheriff",
          "type": "address"
        },
        {
          "internalType": "uint256",
          "name": "amount",
          "type": "uint256"
        },
        {
          "internalType": "uint256",
          "name": "deadline",
          "type": "uint256"
        },
        {
          "internalType": "uint8",
          "name": "v",
          "type": "uint8"
        },
        {
          "internalType": "bytes32",
          "name": "r",
          "type": "bytes32"
        },
        {
          "internalType": "bytes32",
          "name": "s",
          "type": "bytes32"
        }
      ],
      "name": "stakeWithPermit",
      "outputs": [],
      "stateMutability": "nonpayable",
      "type": "function"
    },
    {
      "inputs": [
        {
          "internalType": "address",
          "name": "sheriff",
          "type": "address"
        },
        {
          "internalType": "uint256",
          "name": "requestId",
          "type": "uint256"
        },
        {
          "internalType": "enum IWalletHunters.Vote",
          "name": "kind",
          "type": "uint8"
        }
      ],
      "name": "vote",
      "outputs": [],
      "stateMutability": "nonpayable",
      "type": "function"
    },
    {
      "inputs": [
        {
          "internalType": "address",
          "name": "mayor",
          "type": "address"
        },
        {
          "internalType": "uint256",
          "name": "requestId",
          "type": "uint256"
        }
      ],
      "name": "discardRequest",
      "outputs": [],
      "stateMutability": "nonpayable",
      "type": "function"
    },
    {
      "inputs": [
        {
          "internalType": "address",
          "name": "sheriff",
          "type": "address"
        },
        {
          "internalType": "uint256",
          "name": "amount",
          "type": "uint256"
        }
      ],
      "name": "withdraw",
      "outputs": [],
      "stateMutability": "nonpayable",
      "type": "function"
    },
    {
      "inputs": [
        {
          "internalType": "address",
          "name": "sheriff",
          "type": "address"
        }
      ],
      "name": "exit",
      "outputs": [],
      "stateMutability": "nonpayable",
      "type": "function"
    },
    {
      "inputs": [
        {
          "internalType": "address",
          "name": "trustedForwarder",
          "type": "address"
        }
      ],
      "name": "setTrustedForwarder",
      "outputs": [],
      "stateMutability": "nonpayable",
      "type": "function"
    },
    {
      "inputs": [
        {
          "internalType": "address",
          "name": "hunter",
          "type": "address"
        },
        {
          "internalType": "uint256",
          "name": "requestId",
          "type": "uint256"
        }
      ],
      "name": "getHunterReward",
      "outputs": [],
      "stateMutability": "nonpayable",
      "type": "function"
    },
    {
      "inputs": [
        {
          "internalType": "address",
          "name": "hunter",
          "type": "address"
        },
        {
          "internalType": "uint256[]",
          "name": "requestIds",
          "type": "uint256[]"
        }
      ],
      "name": "getHunterRewardsByIds",
      "outputs": [],
      "stateMutability": "nonpayable",
      "type": "function"
    },
    {
      "inputs": [
        {
          "internalType": "address",
          "name": "sheriff",
          "type": "address"
        },
        {
          "internalType": "uint256",
          "name": "requestId",
          "type": "uint256"
        }
      ],
      "name": "getSheriffReward",
      "outputs": [],
      "stateMutability": "nonpayable",
      "type": "function"
    },
    {
      "inputs": [
        {
          "internalType": "address",
          "name": "sheriff",
          "type": "address"
        }
      ],
      "name": "getSheriffRewards",
      "outputs": [],
      "stateMutability": "nonpayable",
      "type": "function"
    },
    {
      "inputs": [
        {
          "internalType": "address",
          "name": "sheriff",
          "type": "address"
        },
        {
          "internalType": "uint256[]",
          "name": "requestIds",
          "type": "uint256[]"
        }
      ],
      "name": "getSheriffRewardsByIds",
      "outputs": [],
      "stateMutability": "nonpayable",
      "type": "function"
    },
    {
      "inputs": [
        {
          "internalType": "uint256",
          "name": "requestId",
          "type": "uint256"
        }
      ],
      "name": "hunterReward",
      "outputs": [
        {
          "internalType": "uint256",
          "name": "",
          "type": "uint256"
        }
      ],
      "stateMutability": "view",
      "type": "function"
    },
    {
      "inputs": [
        {
          "internalType": "address",
          "name": "sheriff",
          "type": "address"
        },
        {
          "internalType": "uint256",
          "name": "requestId",
          "type": "uint256"
        }
      ],
      "name": "sheriffReward",
      "outputs": [
        {
          "internalType": "uint256",
          "name": "",
          "type": "uint256"
        }
      ],
      "stateMutability": "view",
      "type": "function"
    },
    {
      "inputs": [
        {
          "internalType": "uint256",
          "name": "requestId",
          "type": "uint256"
        }
      ],
      "name": "request",
      "outputs": [
        {
          "internalType": "address",
          "name": "hunter",
          "type": "address"
        },
        {
          "internalType": "uint256",
          "name": "reward",
          "type": "uint256"
        },
        {
          "internalType": "uint256",
          "name": "requestTime",
          "type": "uint256"
        },
        {
          "internalType": "bool",
          "name": "votingState",
          "type": "bool"
        },
        {
          "internalType": "bool",
          "name": "rewardPaid",
          "type": "bool"
        },
        {
          "internalType": "bool",
          "name": "discarded",
          "type": "bool"
        }
      ],
      "stateMutability": "view",
      "type": "function"
    },
    {
      "inputs": [
        {
          "internalType": "uint256",
          "name": "requestId",
          "type": "uint256"
        }
      ],
      "name": "countVotes",
      "outputs": [
        {
          "internalType": "uint256",
          "name": "votesFor",
          "type": "uint256"
        },
        {
          "internalType": "uint256",
          "name": "votesAgainst",
          "type": "uint256"
        }
      ],
      "stateMutability": "view",
      "type": "function"
    },
    {
      "inputs": [
        {
          "internalType": "address",
          "name": "sheriff",
          "type": "address"
        }
      ],
      "name": "isSheriff",
      "outputs": [
        {
          "internalType": "bool",
          "name": "",
          "type": "bool"
        }
      ],
      "stateMutability": "view",
      "type": "function"
    },
    {
      "inputs": [],
      "name": "votingDuration",
      "outputs": [
        {
          "internalType": "uint256",
          "name": "",
          "type": "uint256"
        }
      ],
      "stateMutability": "view",
      "type": "function"
    },
    {
      "inputs": [
        {
          "internalType": "address",
          "name": "sheriff",
          "type": "address"
        }
      ],
      "name": "lockedBalance",
      "outputs": [
        {
          "internalType": "uint256",
          "name": "locked",
          "type": "uint256"
        }
      ],
      "stateMutability": "view",
      "type": "function"
    },
    {
      "inputs": [],
      "name": "versionRecipient",
      "outputs": [
        {
          "internalType": "string",
          "name": "",
          "type": "string"
        }
      ],
      "stateMutability": "pure",
      "type": "function"
    }
  ],
  "bytecode": "0x60c06040523480156200001157600080fd5b5060405162003b2f38038062003b2f833981810160405260408110156200003757600080fd5b508051602091820151604080518082018252601d81527f57616c6c65742048756e746572732c205368657269666620546f6b656e000000818601908152825180840190935260048084526315d214d560e21b96840196909652815194959394919384928492620000a89291620002ae565b508051620000be906005906020840190620002ae565b50506006805460ff1916601217905550620000e8915060009050620000e262000130565b6200014d565b620001177f8eec8b020504d98b9b8aade6b3c37e791120efe8c9a621b6a5abccbe3ec5d7f9620000e262000130565b60805260601b6001600160601b03191660a0526200035a565b6000620001476200015d60201b620028d31760201c565b90505b90565b62000159828262000195565b5050565b60006018361080159062000177575062000177336200020e565b156200018d575060131936013560601c6200014a565b50336200014a565b600082815260208181526040909120620001ba9183906200290562000227821b17901c565b156200015957620001ca62000130565b6001600160a01b0316816001600160a01b0316837f2f8788117e7eff1d82e926ec794901d17c78024a50270940304540a733656f0d60405160405180910390a45050565b60065461010090046001600160a01b0390811691161490565b60006200023e836001600160a01b03841662000247565b90505b92915050565b600062000255838362000296565b6200028d5750815460018181018455600084815260208082209093018490558454848252828601909352604090209190915562000241565b50600062000241565b60009081526001919091016020526040902054151590565b828054600181600116156101000203166002900490600052602060002090601f016020900481019282620002e6576000855562000331565b82601f106200030157805160ff191683800117855562000331565b8280016001018555821562000331579182015b828111156200033157825182559160200191906001019062000314565b506200033f92915062000343565b5090565b5b808211156200033f576000815560010162000344565b60805160a05160601c61377c620003b360003980610de8528061123a52806117a252806118115280611ac75280611f9e528061227752806123635280612868525080610ebd52806124d4528061313c525061377c6000f3fe608060405234801561001057600080fd5b50600436106102bb5760003560e01c80639010d07c11610182578063b42652e9116100e9578063d845a4b3116100a2578063dd62ed3e1161007c578063dd62ed3e146109ca578063e19abba7146109f8578063ed1699b714610a15578063f3fef3a314610a3b576102bb565b8063d845a4b31461093e578063da7422281461099c578063dbaafdc9146109c2576102bb565b8063b42652e914610893578063b85c2292146108b9578063c74bf0cd146108c1578063ca15c873146108ed578063d1af0c7d1461090a578063d547741f14610912576102bb565b8063a42176b61161013b578063a42176b614610787578063a457c2d7146107b3578063a797e98f146107df578063a9059cbb1461036b578063adc9772e146107e7578063ae4dd3d414610813576102bb565b80639010d07c14610682578063916a5935146106a557806391d148541461072557806395d89b41146107515780639ae697bf14610759578063a217fddf1461077f576102bb565b806336568abe116102265780636a348b7b116101df5780636a348b7b146105885780636ffa4833146105bd57806370a08231146105c557806373d6a889146105eb5780637da0a877146106325780638c3cbe3a14610656576102bb565b806336568abe146104d4578063395093511461050057806346f1537c1461052c578063486ff0cd146105345780634e11a97b1461053c578063572b6c0514610562576102bb565b80631840f0ca116102785780631840f0ca146103f957806320af96c51461042f57806323b872dd14610437578063248a9ca31461046d5780632f2ff15d1461048a578063313ce567146104b6576102bb565b80630302b873146102c057806306fdde03146102ee578063095ea7b31461036b57806310bd7e70146103ab578063132002fc146103d757806318160ddd146103f1575b600080fd5b6102ec600480360360408110156102d657600080fd5b506001600160a01b038135169060200135610a67565b005b6102f6610cb8565b6040805160208082528351818301528351919283929083019185019080838360005b83811015610330578181015183820152602001610318565b50505050905090810190601f16801561035d5780820380516001836020036101000a031916815260200191505b509250505060405180910390f35b6103976004803603604081101561038157600080fd5b506001600160a01b038135169060200135610d4f565b604080519115158252519081900360200190f35b6102ec600480360360408110156103c157600080fd5b506001600160a01b038135169060200135610d6d565b6103df610ebb565b60408051918252519081900360200190f35b6103df610edf565b6104166004803603602081101561040f57600080fd5b5035610ee5565b6040805192835260208301919091528051918290030190f35b6103df610eff565b6103976004803603606081101561044d57600080fd5b506001600160a01b03813581169160208101359091169060400135610f0c565b6103df6004803603602081101561048357600080fd5b5035610f94565b6102ec600480360360408110156104a057600080fd5b50803590602001356001600160a01b0316610fac565b6104be611013565b6040805160ff9092168252519081900360200190f35b6102ec600480360360408110156104ea57600080fd5b50803590602001356001600160a01b031661101c565b6103976004803603604081101561051657600080fd5b506001600160a01b03813516906020013561107d565b6103df6110cb565b6102f66110d9565b6102ec6004803603602081101561055257600080fd5b50356001600160a01b03166110f9565b6103976004803603602081101561057857600080fd5b50356001600160a01b03166112cb565b6102ec6004803603606081101561059e57600080fd5b5080356001600160a01b0316906020810135906040013560ff166112e4565b6103df611669565b6103df600480360360208110156105db57600080fd5b50356001600160a01b031661168d565b6102ec600480360360c081101561060157600080fd5b506001600160a01b038135169060208101359060408101359060ff6060820135169060808101359060a001356116a8565b61063a611882565b604080516001600160a01b039092168252519081900360200190f35b6103df6004803603604081101561066c57600080fd5b506001600160a01b038135169060200135611896565b61063a6004803603604081101561069857600080fd5b5080359060200135611929565b6102ec600480360360408110156106bb57600080fd5b6001600160a01b0382351691908101906040810160208201356401000000008111156106e657600080fd5b8201836020820111156106f857600080fd5b8035906020019184602083028401116401000000008311171561071a57600080fd5b509092509050611941565b6103976004803603604081101561073b57600080fd5b50803590602001356001600160a01b0316611b5b565b6102f6611b73565b6103df6004803603602081101561076f57600080fd5b50356001600160a01b0316611bd4565b6103df611cad565b6103df6004803603604081101561079d57600080fd5b506001600160a01b038135169060200135611cb2565b610397600480360360408110156107c957600080fd5b506001600160a01b038135169060200135611e6f565b6103df611ed7565b6102ec600480360360408110156107fd57600080fd5b506001600160a01b038135169060200135611ee4565b6102ec6004803603604081101561082957600080fd5b6001600160a01b03823516919081019060408101602082013564010000000081111561085457600080fd5b82018360208201111561086657600080fd5b8035906020019184602083028401116401000000008311171561088857600080fd5b509092509050612009565b6102ec600480360360208110156108a957600080fd5b50356001600160a01b0316612100565b6103df612179565b6102ec600480360360408110156108d757600080fd5b506001600160a01b03813516906020013561217e565b6103df6004803603602081101561090357600080fd5b503561234a565b61063a612361565b6102ec6004803603604081101561092857600080fd5b50803590602001356001600160a01b0316612385565b61095b6004803603602081101561095457600080fd5b50356123de565b604080516001600160a01b039097168752602087019590955285850193909352901515606085015215156080840152151560a0830152519081900360c00190f35b6102ec600480360360208110156109b257600080fd5b50356001600160a01b031661252c565b6103df61257d565b6103df600480360360408110156109e057600080fd5b506001600160a01b0381358116916020013516612582565b6103df60048036036020811015610a0e57600080fd5b50356125ad565b61039760048036036020811015610a2b57600080fd5b50356001600160a01b031661271c565b6102ec60048036036040811015610a5157600080fd5b506001600160a01b038135169060200135612739565b610a987f8eec8b020504d98b9b8aade6b3c37e791120efe8c9a621b6a5abccbe3ec5d7f9610a9361291a565b611b5b565b610ae9576040805162461bcd60e51b815260206004820152601f60248201527f4d7573742068617665206d61796f7220726f6c6520746f206469736361726400604482015290519081900360640190fd5b80610af46007612929565b811115610b40576040805162461bcd60e51b815260206004820152601560248201527414995c5d595cdd08191bd95cdb89dd08195e1a5cdd605a1b604482015290519081900360640190fd5b600081815260086020526040902060030154610100900460ff1615610ba3576040805162461bcd60e51b815260206004820152601460248201527314995c5d595cdd081a5cc8191a5cd8d85c99195960621b604482015290519081900360640190fd5b610bab61291a565b6001600160a01b0316836001600160a01b031614610c07576040805162461bcd60e51b815260206004820152601460248201527329b2b73232b91036bab9ba1031329036b0bcb7b960611b604482015290519081900360640190fd5b610c108261292d565b610c56576040805162461bcd60e51b8152602060048201526012602482015271159bdd1a5b99c81a5cc8199a5b9a5cda195960721b604482015290519081900360640190fd5b600082815260086020908152604091829020600301805461ff00191661010017905581516001600160a01b0386168152915184927fde14ed5ba810d34511fd04a7d70bd53b7b75991c5d8cc5d20dbbc0f30bc48a0792908290030190a2505050565b60048054604080516020601f6002600019610100600188161502019095169490940493840181900481028201810190925282815260609390929091830182828015610d445780601f10610d1957610100808354040283529160200191610d44565b820191906000526020600020905b815481529060010190602001808311610d2757829003601f168201915b505050505090505b90565b6000610d63610d5c61291a565b8484612941565b5060015b92915050565b610d7561291a565b6001600160a01b0316826001600160a01b031614610dc8576040805162461bcd60e51b8152602060048201526016602482015260008051602061363f833981519152604482015290519081900360640190fd5b6000610dd48383611cb2565b9050610de0838361297a565b8015610e76577f00000000000000000000000000000000000000000000000000000000000000006001600160a01b03166340c10f1984836040518363ffffffff1660e01b815260040180836001600160a01b0316815260200182815260200192505050600060405180830381600087803b158015610e5d57600080fd5b505af1158015610e71573d6000803e3d6000fd5b505050505b60408051828152905183916001600160a01b038616917feb19fd1d512bb090737c60013d5d2d78cf7728bb39b4e904f47a5123a74a8d849181900360200190a3505050565b7f000000000000000000000000000000000000000000000000000000000000000090565b60035490565b600090815260096020526040902080546001909101549091565b686c6b935b8bbd40000081565b6000610f19848484612941565b610f8984610f2561291a565b610f8485604051806060016040528060288152602001613680602891396001600160a01b038a16600090815260026020526040812090610f6361291a565b6001600160a01b0316815260208101919091526040016000205491906129d6565b612941565b5060015b9392505050565b6000818152602081905260409020600201545b919050565b600082815260208190526040902060020154610fca90610a9361291a565b6110055760405162461bcd60e51b815260040180806020018281038252602f815260200180613598602f913960400191505060405180910390fd5b61100f8282612a6d565b5050565b60065460ff1690565b61102461291a565b6001600160a01b0316816001600160a01b0316146110735760405162461bcd60e51b815260040180806020018281038252602f815260200180613718602f913960400191505060405180910390fd5b61100f8282612ad6565b6000610d6361108a61291a565b84610f84856002600061109b61291a565b6001600160a01b03908116825260208083019390935260409182016000908120918c168152925290205490612b3f565b69021e19e0c9bab240000081565b604080518082019091526006815265322e302e302b60d01b602082015290565b61110161291a565b6001600160a01b0316816001600160a01b031614611154576040805162461bcd60e51b8152602060048201526016602482015260008051602061363f833981519152604482015290519081900360640190fd5b6000805b6001600160a01b0383166000908152600a6020526040902061117990612b99565b811015611231576001600160a01b0383166000908152600a602052604081206111a29083612ba4565b90506111ad8161292d565b156111c5576111bd826001612b3f565b91505061122c565b60006111d18583611cb2565b90506111dd8482612b3f565b93506111e9858361297a565b60408051828152905183916001600160a01b038816917feb19fd1d512bb090737c60013d5d2d78cf7728bb39b4e904f47a5123a74a8d849181900360200190a350505b611158565b50801561100f577f00000000000000000000000000000000000000000000000000000000000000006001600160a01b03166340c10f1983836040518363ffffffff1660e01b815260040180836001600160a01b0316815260200182815260200192505050600060405180830381600087803b1580156112af57600080fd5b505af11580156112c3573d6000803e3d6000fd5b505050505050565b60065461010090046001600160a01b0390811691161490565b816112ef6007612929565b81111561133b576040805162461bcd60e51b815260206004820152601560248201527414995c5d595cdd08191bd95cdb89dd08195e1a5cdd605a1b604482015290519081900360640190fd5b600081815260086020526040902060030154610100900460ff161561139e576040805162461bcd60e51b815260206004820152601460248201527314995c5d595cdd081a5cc8191a5cd8d85c99195960621b604482015290519081900360640190fd5b6113a661291a565b6001600160a01b0316846001600160a01b0316146113f9576040805162461bcd60e51b8152602060048201526016602482015260008051602061363f833981519152604482015290519081900360640190fd5b6114028461271c565b61144b576040805162461bcd60e51b815260206004820152601560248201527429b2b73232b91034b9903737ba1039b432b934b33360591b604482015290519081900360640190fd5b6114548361292d565b61149a576040805162461bcd60e51b8152602060048201526012602482015271159bdd1a5b99c81a5cc8199a5b9a5cda195960721b604482015290519081900360640190fd5b60006114a58561168d565b6001600160a01b0386166000908152600a602052604090209091506114ca9085612bb0565b61151b576040805162461bcd60e51b815260206004820152601860248201527f5368657269666620697320616c726561647920766f7465640000000000000000604482015290519081900360640190fd5b6001600160a01b0385166000908152600a602090815260408083208784526002019091529020819055600183600181111561155257fe5b14156115b4576001600160a01b0385166000908152600a6020908152604080832087845260020182528083206001908101805460ff1916909117905560099091529020546115a09082612b3f565b60008581526009602052604090205561160e565b6001600160a01b0385166000908152600a6020908152604080832087845260020182528083206001908101805460ff19169055600990925290912001546115fb9082612b3f565b6000858152600960205260409020600101555b846001600160a01b03167fcc66c27f993ef125e1b985d84a52726edc66dcc64e94d172f80253e37d52637282856040518083815260200182600181111561165157fe5b81526020019250505060405180910390a25050505050565b7f8eec8b020504d98b9b8aade6b3c37e791120efe8c9a621b6a5abccbe3ec5d7f981565b6001600160a01b031660009081526001602052604090205490565b6116b061291a565b6001600160a01b0316866001600160a01b031614611703576040805162461bcd60e51b8152602060048201526016602482015260008051602061363f833981519152604482015290519081900360640190fd5b6000851161174b576040805162461bcd60e51b815260206004820152601060248201526f043616e6e6f74206465706f73697420360841b604482015290519081900360640190fd5b6117558686612bbc565b6040805163d505accf60e01b81526001600160a01b038881166004830152306024830152604482018890526064820187905260ff8616608483015260a4820185905260c4820184905291517f00000000000000000000000000000000000000000000000000000000000000009092169163d505accf9160e48082019260009290919082900301818387803b1580156117ec57600080fd5b505af1158015611800573d6000803e3d6000fd5b5061183b9250506001600160a01b037f0000000000000000000000000000000000000000000000000000000000000000169050873088612cae565b6040805186815290516001600160a01b038816917f9e71bc8eea02a63969f509818f2dafb9254532904319f9dbda79b67bd34a5f3d919081900360200190a2505050505050565b60065461010090046001600160a01b031681565b60006118a26007612d08565b60006118ae6007612929565b60008181526008602090815260409182902080546001600160a01b0319166001600160a01b038916908117825560018201889055426002830155835188815293519495509093909285927f76664a8bf74c8214a2779a595bbec0820521931eb7ffac23a597467fcbd83f2e92918290030190a3509392505050565b6000828152602081905260408120610f8d9083612ba4565b61194961291a565b6001600160a01b0316836001600160a01b0316146119a6576040805162461bcd60e51b815260206004820152601560248201527429b2b73232b91036bab9ba10313290343ab73a32b960591b604482015290519081900360640190fd5b6000805b82811015611abe5760008484838181106119c057fe5b6020908102929092013560008181526008909352604090922054919250506001600160a01b03878116911614611a32576040805162461bcd60e51b8152602060048201526012602482015271121d5b9d195c881a5cdb89dd081d985b1a5960721b604482015290519081900360640190fd5b6000611a3d826125ad565b9050611a498482612b3f565b600083815260086020908152604091829020600301805460ff191660011790558151848152915192965084926001600160a01b038b16927f79584049d8f206bf7b762ccd36e6400e18a37f49122d9e323329b2359b0d446992908290030190a350611ab79050816001612b3f565b90506119aa565b508015611b55577f00000000000000000000000000000000000000000000000000000000000000006001600160a01b03166340c10f1985836040518363ffffffff1660e01b815260040180836001600160a01b0316815260200182815260200192505050600060405180830381600087803b158015611b3c57600080fd5b505af1158015611b50573d6000803e3d6000fd5b505050505b50505050565b6000828152602081905260408120610f8d9083612d11565b60058054604080516020601f6002600019610100600188161502019095169490940493840181900481028201810190925282815260609390929091830182828015610d445780601f10610d1957610100808354040283529160200191610d44565b6000805b6001600160a01b0383166000908152600a60205260409020611bf990612b99565b811015611ca7576001600160a01b0383166000908152600a60205260408120611c229083612ba4565b9050611c2d8161292d565b611c375750611c95565b600081815260086020526040902060030154610100900460ff1615611c5c5750611c95565b6001600160a01b0384166000908152600a60209081526040808320848452600201909152902054808410611c91575050611c95565b9250505b611ca0816001612b3f565b9050611bd8565b50919050565b600081565b6000611cbe6007612929565b821115611d0a576040805162461bcd60e51b815260206004820152601560248201527414995c5d595cdd08191bd95cdb89dd08195e1a5cdd605a1b604482015290519081900360640190fd5b6001600160a01b0383166000908152600a60205260409020611d2c9083612d26565b611d74576040805162461bcd60e51b81526020600482015260146024820152735368657269666620646f65736e277420766f746560601b604482015290519081900360640190fd5b611d7d8261292d565b15611dc8576040805162461bcd60e51b8152602060048201526016602482015275159bdd1a5b99c81a5cc81b9bdd08199a5b9a5cda195960521b604482015290519081900360640190fd5b600082815260086020526040902060030154610100900460ff1615611def57506000610d67565b611df882612d32565b15611e5e5760008281526008602052604081206001908101549190611e209086908690612d8e565b600085815260096020526040902054909150611e546064611e486014611e4e85838989612dfb565b90612e54565b90612dfb565b9350505050610d67565b5069021e19e0c9bab2400000610d67565b6000610d63611e7c61291a565b84610f84856040518060600160405280602581526020016136f36025913960026000611ea661291a565b6001600160a01b03908116825260208083019390935260409182016000908120918d168152925290205491906129d6565b683635c9adc5dea0000081565b611eec61291a565b6001600160a01b0316826001600160a01b031614611f3f576040805162461bcd60e51b8152602060048201526016602482015260008051602061363f833981519152604482015290519081900360640190fd5b60008111611f87576040805162461bcd60e51b815260206004820152601060248201526f043616e6e6f74206465706f73697420360841b604482015290519081900360640190fd5b611f918282612bbc565b611fc66001600160a01b037f000000000000000000000000000000000000000000000000000000000000000016833084612cae565b6040805182815290516001600160a01b038416917f9e71bc8eea02a63969f509818f2dafb9254532904319f9dbda79b67bd34a5f3d919081900360200190a25050565b61201161291a565b6001600160a01b0316836001600160a01b031614612064576040805162461bcd60e51b8152602060048201526016602482015260008051602061363f833981519152604482015290519081900360640190fd5b6000805b82811015611abe57600084848381811061207e57fe5b90506020020135905060006120938783611cb2565b905061209f8482612b3f565b93506120ab878361297a565b60408051828152905183916001600160a01b038a16917feb19fd1d512bb090737c60013d5d2d78cf7728bb39b4e904f47a5123a74a8d849181900360200190a3506120f99050816001612b3f565b9050612068565b806001600160a01b031661211261291a565b6001600160a01b03161461215b576040805162461bcd60e51b8152602060048201526016602482015260008051602061363f833981519152604482015290519081900360640190fd5b61216d816121688361168d565b612739565b612176816110f9565b50565b604381565b61218661291a565b6001600160a01b0316826001600160a01b0316146121e3576040805162461bcd60e51b815260206004820152601560248201527429b2b73232b91036bab9ba10313290343ab73a32b960591b604482015290519081900360640190fd5b6000818152600860205260409020546001600160a01b03838116911614612246576040805162461bcd60e51b8152602060048201526012602482015271121d5b9d195c881a5cdb89dd081d985b1a5960721b604482015290519081900360640190fd5b6000612251826125ad565b6000838152600860205260409020600301805460ff1916600117905590508015612305577f00000000000000000000000000000000000000000000000000000000000000006001600160a01b03166340c10f1984836040518363ffffffff1660e01b815260040180836001600160a01b0316815260200182815260200192505050600060405180830381600087803b1580156122ec57600080fd5b505af1158015612300573d6000803e3d6000fd5b505050505b60408051828152905183916001600160a01b038616917f79584049d8f206bf7b762ccd36e6400e18a37f49122d9e323329b2359b0d44699181900360200190a3505050565b6000818152602081905260408120610d6790612b99565b7f000000000000000000000000000000000000000000000000000000000000000081565b6000828152602081905260409020600201546123a390610a9361291a565b6110735760405162461bcd60e51b815260040180806020018281038252603081526020018061360f6030913960400191505060405180910390fd5b600080600080600080866123f26007612929565b81111561243e576040805162461bcd60e51b815260206004820152601560248201527414995c5d595cdd08191bd95cdb89dd08195e1a5cdd605a1b604482015290519081900360640190fd5b600081815260086020526040902060030154610100900460ff16156124a1576040805162461bcd60e51b815260206004820152601460248201527314995c5d595cdd081a5cc8191a5cd8d85c99195960621b604482015290519081900360640190fd5b6000888152600860205260409020805460018201546002909201546001600160a01b03909116985090965094506124f8857f0000000000000000000000000000000000000000000000000000000000000000612b3f565b600098895260086020526040909820600301549698959794964295909511159560ff80871696610100900416945092505050565b6125396000610a9361291a565b6125745760405162461bcd60e51b81526004018080602001828103825260238152602001806135756023913960400191505060405180910390fd5b61217681612ebb565b601481565b6001600160a01b03918216600090815260026020908152604080832093909416825291909152205490565b6000816125ba6007612929565b811115612606576040805162461bcd60e51b815260206004820152601560248201527414995c5d595cdd08191bd95cdb89dd08195e1a5cdd605a1b604482015290519081900360640190fd5b600081815260086020526040902060030154610100900460ff1615612669576040805162461bcd60e51b815260206004820152601460248201527314995c5d595cdd081a5cc8191a5cd8d85c99195960621b604482015290519081900360640190fd5b6126728361292d565b156126bd576040805162461bcd60e51b8152602060048201526016602482015275159bdd1a5b99c81a5cc81b9bdd08199a5b9a5cda195960521b604482015290519081900360640190fd5b60008381526008602052604090206003015460ff161580156126e357506126e383612d32565b156127135760008381526008602052604090206001015461270c90606490611e48906050612dfb565b9150611ca7565b60009150611ca7565b6000683635c9adc5dea000006127318361168d565b101592915050565b61274161291a565b6001600160a01b0316826001600160a01b031614612794576040805162461bcd60e51b8152602060048201526016602482015260008051602061363f833981519152604482015290519081900360640190fd5b600081116127dd576040805162461bcd60e51b8152602060048201526011602482015270043616e6e6f74207769746864726177203607c1b604482015290519081900360640190fd5b60006127fa6127eb84611bd4565b6127f48561168d565b90612f2a565b905080821115612851576040805162461bcd60e51b815260206004820152601860248201527f576974686472617720657863656564732062616c616e63650000000000000000604482015290519081900360640190fd5b61285b8383612f87565b61288f6001600160a01b037f0000000000000000000000000000000000000000000000000000000000000000168484613083565b6040805183815290516001600160a01b038516917f7084f5476618d8e60b11ef0d7d3f06914655adb8793e28ff7f018d4c76d505d5919081900360200190a2505050565b6000601836108015906128ea57506128ea336112cb565b156128fe575060131936013560601c610d4c565b5033610d4c565b6000610f8d836001600160a01b0384166130da565b60006129246128d3565b905090565b5490565b600061293882613124565b42111592915050565b6040805162461bcd60e51b81526020600482015260096024820152682337b93134b23232b760b91b604482015290519081900360640190fd5b6001600160a01b0382166000908152600a6020526040902061299c9082613160565b506001600160a01b039091166000908152600a6020908152604080832093835260029093019052908120908155600101805460ff19169055565b60008184841115612a655760405162461bcd60e51b81526004018080602001828103825283818151815260200191508051906020019080838360005b83811015612a2a578181015183820152602001612a12565b50505050905090810190601f168015612a575780820380516001836020036101000a031916815260200191505b509250505060405180910390fd5b505050900390565b6000828152602081905260409020612a859082612905565b1561100f57612a9261291a565b6001600160a01b0316816001600160a01b0316837f2f8788117e7eff1d82e926ec794901d17c78024a50270940304540a733656f0d60405160405180910390a45050565b6000828152602081905260409020612aee908261316c565b1561100f57612afb61291a565b6001600160a01b0316816001600160a01b0316837ff6391f5c32d9c69d2a47ea670b442974b53935d1edc7fd64eb21e047a839171b60405160405180910390a45050565b600082820183811015610f8d576040805162461bcd60e51b815260206004820152601b60248201527f536166654d6174683a206164646974696f6e206f766572666c6f770000000000604482015290519081900360640190fd5b6000610d6782612929565b6000610f8d8383613181565b6000610f8d83836130da565b6001600160a01b038216612c17576040805162461bcd60e51b815260206004820152601f60248201527f45524332303a206d696e7420746f20746865207a65726f206164647265737300604482015290519081900360640190fd5b612c23600083836130d5565b600354612c309082612b3f565b6003556001600160a01b038216600090815260016020526040902054612c569082612b3f565b6001600160a01b03831660008181526001602090815260408083209490945583518581529351929391927fddf252ad1be2c89b69c2b068fc378daa952ba7f163c4a11628f55a4df523b3ef9281900390910190a35050565b604080516001600160a01b0380861660248301528416604482015260648082018490528251808303909101815260849091019091526020810180516001600160e01b03166323b872dd60e01b179052611b559085906131e5565b80546001019055565b6000610f8d836001600160a01b038416613296565b6000610f8d8383613296565b60008181526009602052604081206001810154905401686c6b935b8bbd400000811015612d63576000915050610fa7565b600083815260096020526040902054604390612d86908390611e48906064612dfb565b119392505050565b6001600160a01b0383166000908152600a6020908152604080832085845260020190915281206001015460ff1615158215151415612df357506001600160a01b0383166000908152600a60209081526040808320858452600201909152902054610f8d565b506000610f8d565b600082612e0a57506000610d67565b82820282848281612e1757fe5b0414610f8d5760405162461bcd60e51b815260040180806020018281038252602181526020018061365f6021913960400191505060405180910390fd5b6000808211612eaa576040805162461bcd60e51b815260206004820152601a60248201527f536166654d6174683a206469766973696f6e206279207a65726f000000000000604482015290519081900360640190fd5b818381612eb357fe5b049392505050565b600680546001600160a01b03838116610100908102610100600160a81b03198416179384905560408051938290048316808552919094049091166020830152825190927f06dff7401eb7fb04d241246ade7f817c7ad512b1bed61c18aedd9bc51eec0475928290030190a15050565b600082821115612f81576040805162461bcd60e51b815260206004820152601e60248201527f536166654d6174683a207375627472616374696f6e206f766572666c6f770000604482015290519081900360640190fd5b50900390565b6001600160a01b038216612fcc5760405162461bcd60e51b81526004018080602001828103825260218152602001806136a86021913960400191505060405180910390fd5b612fd8826000836130d5565b613015816040518060600160405280602281526020016135c7602291396001600160a01b03851660009081526001602052604090205491906129d6565b6001600160a01b03831660009081526001602052604090205560035461303b9082612f2a565b6003556040805182815290516000916001600160a01b038516917fddf252ad1be2c89b69c2b068fc378daa952ba7f163c4a11628f55a4df523b3ef9181900360200190a35050565b604080516001600160a01b038416602482015260448082018490528251808303909101815260649091019091526020810180516001600160e01b031663a9059cbb60e01b1790526130d59084906131e5565b505050565b60006130e68383613296565b61311c57508154600181810184556000848152602080822090930184905584548482528286019093526040902091909155610d67565b506000610d67565b600081815260086020526040812060020154610d67907f0000000000000000000000000000000000000000000000000000000000000000612b3f565b6000610f8d83836132ae565b6000610f8d836001600160a01b0384166132ae565b815460009082106131c35760405162461bcd60e51b81526004018080602001828103825260228152602001806135536022913960400191505060405180910390fd5b8260000182815481106131d257fe5b9060005260206000200154905092915050565b600061323a826040518060400160405280602081526020017f5361666545524332303a206c6f772d6c6576656c2063616c6c206661696c6564815250856001600160a01b03166133749092919063ffffffff16565b8051909150156130d55780806020019051602081101561325957600080fd5b50516130d55760405162461bcd60e51b815260040180806020018281038252602a8152602001806136c9602a913960400191505060405180910390fd5b60009081526001919091016020526040902054151590565b6000818152600183016020526040812054801561336a57835460001980830191908101906000908790839081106132e157fe5b90600052602060002001549050808760000184815481106132fe57fe5b60009182526020808320909101929092558281526001898101909252604090209084019055865487908061332e57fe5b60019003818190600052602060002001600090559055866001016000878152602001908152602001600020600090556001945050505050610d67565b6000915050610d67565b6060613383848460008561338b565b949350505050565b6060824710156133cc5760405162461bcd60e51b81526004018080602001828103825260268152602001806135e96026913960400191505060405180910390fd5b6133d5856134e6565b613426576040805162461bcd60e51b815260206004820152601d60248201527f416464726573733a2063616c6c20746f206e6f6e2d636f6e7472616374000000604482015290519081900360640190fd5b600080866001600160a01b031685876040518082805190602001908083835b602083106134645780518252601f199092019160209182019101613445565b6001836020036101000a03801982511681845116808217855250505050505090500191505060006040518083038185875af1925050503d80600081146134c6576040519150601f19603f3d011682016040523d82523d6000602084013e6134cb565b606091505b50915091506134db8282866134ec565b979650505050505050565b3b151590565b606083156134fb575081610f8d565b82511561350b5782518084602001fd5b60405162461bcd60e51b8152602060048201818152845160248401528451859391928392604401919085019080838360008315612a2a578181015183820152602001612a1256fe456e756d657261626c655365743a20696e646578206f7574206f6620626f756e647357616c6c657448756e746572733a206d75737420686176652061646d696e20726f6c65416363657373436f6e74726f6c3a2073656e646572206d75737420626520616e2061646d696e20746f206772616e7445524332303a206275726e20616d6f756e7420657863656564732062616c616e6365416464726573733a20696e73756666696369656e742062616c616e636520666f722063616c6c416363657373436f6e74726f6c3a2073656e646572206d75737420626520616e2061646d696e20746f207265766f6b6553656e646572206d757374206265207368657269666600000000000000000000536166654d6174683a206d756c7469706c69636174696f6e206f766572666c6f7745524332303a207472616e7366657220616d6f756e74206578636565647320616c6c6f77616e636545524332303a206275726e2066726f6d20746865207a65726f20616464726573735361666545524332303a204552433230206f7065726174696f6e20646964206e6f74207375636365656445524332303a2064656372656173656420616c6c6f77616e63652062656c6f77207a65726f416363657373436f6e74726f6c3a2063616e206f6e6c792072656e6f756e636520726f6c657320666f722073656c66a26469706673582212208965a06a60b68d5180981599b1058661dc1ab692dde6c455aefcd2f3baeef80664736f6c63430007060033",
  "immutableReferences": {
    "1255": [
      {
        "length": 32,
        "start": 3773
      },
      {
        "length": 32,
        "start": 9428
      },
      {
        "length": 32,
        "start": 12604
      }
    ],
    "1257": [
      {
        "length": 32,
        "start": 3560
      },
      {
        "length": 32,
        "start": 4666
      },
      {
        "length": 32,
        "start": 6050
      },
      {
        "length": 32,
        "start": 6161
      },
      {
        "length": 32,
        "start": 6855
      },
      {
        "length": 32,
        "start": 8094
      },
      {
        "length": 32,
        "start": 8823
      },
      {
        "length": 32,
        "start": 9059
      },
      {
        "length": 32,
        "start": 10344
      }
    ]
  },
  "source": "// SPDX-License-Identifier: MIT\n// solhint-disable-next-line compiler-version\npragma solidity >=0.6.0 <0.8.0;\n\nimport \"@openzeppelin/contracts/token/ERC20/SafeERC20.sol\";\nimport \"@openzeppelin/contracts/token/ERC20/IERC20.sol\";\nimport \"@openzeppelin/contracts/access/AccessControl.sol\";\nimport \"@openzeppelin/contracts/utils/Counters.sol\";\nimport \"@openzeppelin/contracts/utils/Context.sol\";\n\nimport \"../interfaces/IWalletHunters.sol\";\nimport \"../interfaces/IRewardsToken.sol\";\nimport \"../utils/AccountingToken.sol\";\nimport \"../gsn/RelayRecipient.sol\";\n\ncontract WalletHunters is\n    IWalletHunters,\n    Context,\n    AccessControl,\n    AccountingToken,\n    RelayRecipient\n{\n    using Counters for Counters.Counter;\n    using SafeMath for uint256;\n    using SafeERC20 for IRewardsToken;\n    using EnumerableSet for EnumerableSet.UintSet;\n\n    uint256 public constant SUPER_MAJORITY = 67;\n    uint256 public constant SHERIFFS_REWARD_SHARE = 20;\n    uint256 public constant FIXED_SHERIFF_REWARD = 10000 ether;\n    uint256 public constant MINIMAL_VOTES_FOR_REQUEST = 2000 ether;\n    uint256 public constant MINIMAL_DEPOSIT_FOR_SHERIFF = 1000 ether;\n\n    bytes32 public constant MAYOR_ROLE = keccak256(\"MAYOR_ROLE\");\n\n    uint256 private immutable _votingDuration;\n    IRewardsToken public immutable rewardsToken;\n\n    Counters.Counter private _requestCounter;\n    mapping(uint256 => IWalletHunters.WalletRequest) private walletRequests;\n    mapping(uint256 => IWalletHunters.RequestVoting) private requestVotings;\n    mapping(address => IWalletHunters.SheriffVotes) private sheriffVotes;\n\n    modifier onlyMayor() {\n        require(\n            hasRole(MAYOR_ROLE, _msgSender()),\n            \"Must have mayor role to discard\"\n        );\n        _;\n    }\n\n    modifier validateRequestId(uint256 requestId) {\n        require(\n            requestId <= _requestCounter.current(),\n            \"Request doesn't exist\"\n        );\n        require(!walletRequests[requestId].discarded, \"Request is discarded\");\n        _;\n    }\n\n    constructor(address rewardsToken_, uint256 votingDuration_)\n        AccountingToken(\"Wallet Hunters, Sheriff Token\", \"WHST\")\n    {\n        _setupRole(DEFAULT_ADMIN_ROLE, _msgSender());\n\n        _setupRole(MAYOR_ROLE, _msgSender());\n\n        _votingDuration = votingDuration_;\n        rewardsToken = IRewardsToken(rewardsToken_);\n    }\n\n    function submitRequest(\n        address hunter,\n        uint256 reward\n    ) external override returns (uint256) {\n        _requestCounter.increment();\n        uint256 id = _requestCounter.current();\n\n        IWalletHunters.WalletRequest storage _request = walletRequests[id];\n\n        _request.hunter = hunter;\n        _request.reward = reward;\n        // solhint-disable-next-line not-rely-on-time\n        _request.requestTime = block.timestamp;\n\n        emit NewWalletRequest(id, hunter, reward);\n\n        return id;\n    }\n\n    function stake(address sheriff, uint256 amount) external override {\n        require(sheriff == _msgSender(), \"Sender must be sheriff\");\n        require(amount > 0, \"Cannot deposit 0\");\n        _mint(sheriff, amount);\n        rewardsToken.safeTransferFrom(sheriff, address(this), amount);\n        emit Staked(sheriff, amount);\n    }\n\n    function stakeWithPermit(address sheriff, uint256 amount, uint256 deadline, uint8 v, bytes32 r, bytes32 s) external override {\n        require(sheriff == _msgSender(), \"Sender must be sheriff\");\n        require(amount > 0, \"Cannot deposit 0\");\n        _mint(sheriff, amount);\n        rewardsToken.permit(sheriff, address(this), amount, deadline, v, r, s);\n        rewardsToken.safeTransferFrom(sheriff, address(this), amount);\n        emit Staked(sheriff, amount);\n    }\n\n    function vote(\n        address sheriff,\n        uint256 requestId,\n        Vote kind\n    ) external override validateRequestId(requestId) {\n        require(sheriff == _msgSender(), \"Sender must be sheriff\");\n        require(isSheriff(sheriff), \"Sender is not sheriff\");\n        require(_votingState(requestId), \"Voting is finished\");\n\n        uint256 amount = balanceOf(sheriff);\n\n        require(\n            sheriffVotes[sheriff].requests.add(requestId),\n            \"Sheriff is already voted\"\n        );\n        sheriffVotes[sheriff].votes[requestId].amount = amount;\n\n        if (kind == Vote.FOR) {\n            sheriffVotes[sheriff].votes[requestId].voteFor = true;\n            requestVotings[requestId].votesFor = requestVotings[requestId]\n                .votesFor\n                .add(amount);\n        } else {\n            sheriffVotes[sheriff].votes[requestId].voteFor = false;\n            requestVotings[requestId].votesAgainst = requestVotings[requestId]\n                .votesAgainst\n                .add(amount);\n        }\n\n        emit Voted(sheriff, amount, kind);\n    }\n\n    function discardRequest(address mayor, uint256 requestId)\n        external\n        override\n        onlyMayor\n        validateRequestId(requestId)\n    {\n        require(mayor == _msgSender(), \"Sender must be mayor\");\n        require(_votingState(requestId), \"Voting is finished\");\n\n        walletRequests[requestId].discarded = true;\n\n        emit RequestDiscarded(requestId, mayor);\n    }\n\n    function withdraw(address sheriff, uint256 amount) public override {\n        require(sheriff == _msgSender(), \"Sender must be sheriff\");\n        require(amount > 0, \"Cannot withdraw 0\");\n        uint256 available = balanceOf(sheriff).sub(lockedBalance(sheriff));\n        require(amount <= available, \"Withdraw exceeds balance\");\n        _burn(sheriff, amount);\n        rewardsToken.safeTransfer(sheriff, amount);\n        emit Withdrawn(sheriff, amount);\n    }\n\n    function exit(address sheriff) external override {\n        require(_msgSender() == sheriff, \"Sender must be sheriff\");\n        withdraw(sheriff, balanceOf(sheriff));\n        getSheriffRewards(sheriff);\n    }\n\n    function setTrustedForwarder(address trustedForwarder) external override {\n        require(\n            hasRole(DEFAULT_ADMIN_ROLE, _msgSender()),\n            \"WalletHunters: must have admin role\"\n        );\n        super._setTrustedForwarder(trustedForwarder);\n    }\n\n    function getHunterReward(address hunter, uint256 requestId)\n        external\n        override\n    {\n        require(hunter == _msgSender(), \"Sender must be hunter\");\n        require(\n            hunter == walletRequests[requestId].hunter,\n            \"Hunter isn't valid\"\n        );\n\n        uint256 reward = hunterReward(requestId);\n        walletRequests[requestId].rewardPaid = true;\n\n        if (reward > 0) {\n            rewardsToken.mint(hunter, reward);\n        }\n\n        emit HunterRewardPaid(hunter, requestId, reward);\n    }\n\n    function getHunterRewardsByIds(address hunter, uint256[] calldata requestIds)\n        external\n        override\n    {\n        require(hunter == _msgSender(), \"Sender must be hunter\");\n\n        uint256 totalReward = 0;\n\n        for (uint256 i = 0; i < requestIds.length; i = i.add(1)) {\n            uint256 requestId = requestIds[i];\n            require(\n                hunter == walletRequests[requestId].hunter,\n                \"Hunter isn't valid\"\n            );\n            uint256 reward = hunterReward(requestId);\n            totalReward = totalReward.add(reward);\n\n            walletRequests[requestId].rewardPaid = true;\n\n            emit HunterRewardPaid(hunter, requestId, reward);\n        }\n\n        if (totalReward > 0) {\n            rewardsToken.mint(hunter, totalReward);\n        }\n    }\n\n    function getSheriffReward(address sheriff, uint256 requestId)\n        external\n        override\n    {\n        require(sheriff == _msgSender(), \"Sender must be sheriff\");\n        uint256 reward = sheriffReward(sheriff, requestId);\n\n        _removeVote(sheriff, requestId);\n\n        if (reward > 0) {\n            rewardsToken.mint(sheriff, reward);\n        }\n\n        emit SheriffRewardPaid(sheriff, requestId, reward);\n    }\n\n    function getSheriffRewards(address sheriff) public override {\n        require(sheriff == _msgSender(), \"Sender must be sheriff\");\n        uint256 totalReward = 0;\n\n        for (uint256 i = 0; i < sheriffVotes[sheriff].requests.length();) {\n            uint256 requestId = sheriffVotes[sheriff].requests.at(i);\n\n            if(_votingState(requestId)) {\n                i = i.add(1);\n                continue;\n            }\n\n            uint256 reward = sheriffReward(sheriff, requestId);\n            totalReward = totalReward.add(reward);\n\n            _removeVote(sheriff, requestId);\n\n            emit SheriffRewardPaid(sheriff, requestId, reward);\n        }\n\n        if (totalReward > 0) {\n            rewardsToken.mint(sheriff, totalReward);\n        }\n    }\n\n    function getSheriffRewardsByIds(address sheriff, uint256[] calldata requestIds)\n        external\n        override\n    {\n        require(sheriff == _msgSender(), \"Sender must be sheriff\");\n        uint256 totalReward = 0;\n\n        for (uint256 i = 0; i < requestIds.length; i = i.add(1)) {\n            uint256 requestId = requestIds[i];\n            uint256 reward = sheriffReward(sheriff, requestId);\n            totalReward = totalReward.add(reward);\n\n            _removeVote(sheriff, requestId);\n\n            emit SheriffRewardPaid(sheriff, requestId, reward);\n        }\n\n        if (totalReward > 0) {\n            rewardsToken.mint(sheriff, totalReward);\n        }\n    }\n\n    function hunterReward(uint256 requestId)\n        public\n        view\n        override\n        validateRequestId(requestId)\n        returns (uint256)\n    {\n        require(!_votingState(requestId), \"Voting is not finished\");\n\n        if (\n            !walletRequests[requestId].rewardPaid && _walletApproved(requestId)\n        ) {\n            return\n                walletRequests[requestId]\n                    .reward\n                    .mul(100 - SHERIFFS_REWARD_SHARE)\n                    .div(100);\n        } else {\n            return 0;\n        }\n    }\n\n    function sheriffReward(address sheriff, uint256 requestId)\n        public\n        view\n        override\n        returns (uint256)\n    {\n        require(\n            requestId <= _requestCounter.current(),\n            \"Request doesn't exist\"\n        );\n        require(sheriffVotes[sheriff].requests.contains(requestId), \"Sheriff doesn't vote\");\n        require(!_votingState(requestId), \"Voting is not finished\");\n\n        if (walletRequests[requestId].discarded) {\n            return 0;\n        }\n\n        if (_walletApproved(requestId)) {\n            uint256 reward = walletRequests[requestId].reward;\n            uint256 votes = _getSheriffVotes(sheriff, requestId, true);\n            uint256 totalVotes = requestVotings[requestId].votesFor;\n            return\n                reward\n                    .mul(votes)\n                    .div(totalVotes)\n                    .mul(SHERIFFS_REWARD_SHARE)\n                    .div(100);\n        } else {\n            return FIXED_SHERIFF_REWARD;\n        }\n    }\n\n    function request(uint256 requestId)\n        external\n        view\n        override\n        validateRequestId(requestId)\n        returns (\n            address hunter,\n            uint256 reward,\n            uint256 requestTime,\n            bool votingState,\n            bool rewardPaid,\n            bool discarded\n        )\n    {\n        hunter = walletRequests[requestId].hunter;\n        reward = walletRequests[requestId].reward;\n        requestTime = walletRequests[requestId].requestTime;\n        // solhint-disable-next-line not-rely-on-time\n        votingState = block.timestamp <= requestTime.add(_votingDuration);\n        rewardPaid = walletRequests[requestId].rewardPaid;\n        discarded = walletRequests[requestId].discarded;\n    }\n\n    function countVotes(uint256 requestId)\n        external\n        view\n        override\n        returns (uint256 votesFor, uint256 votesAgainst)\n    {\n        votesFor = requestVotings[requestId].votesFor;\n        votesAgainst = requestVotings[requestId].votesAgainst;\n    }\n\n    function isSheriff(address sheriff) public view override returns (bool) {\n        return balanceOf(sheriff) >= MINIMAL_DEPOSIT_FOR_SHERIFF;\n    }\n\n    function votingDuration() external view override returns (uint256) {\n        return _votingDuration;\n    }\n\n    function lockedBalance(address sheriff)\n        public\n        view\n        override\n        returns (uint256 locked)\n    {\n        locked = 0;\n\n        for (\n            uint256 i = 0;\n            i < sheriffVotes[sheriff].requests.length();\n            i = i.add(1)\n        ) {\n            uint256 requestId = sheriffVotes[sheriff].requests.at(i);\n            if (!_votingState(requestId)) {\n                continue;\n            }\n            if (walletRequests[requestId].discarded) {\n                continue;\n            }\n            uint256 votes = sheriffVotes[sheriff].votes[requestId].amount;\n            if (locked >= votes) {\n                continue;\n            }\n            locked = votes;\n        }\n    }\n\n    function _removeVote(address sheriff, uint256 requestId) internal {\n        sheriffVotes[sheriff].requests.remove(requestId);\n        delete sheriffVotes[sheriff].votes[requestId];\n    }\n\n    function _walletApproved(uint256 requestId) internal view returns (bool) {\n        uint256 totalVotes =\n            requestVotings[requestId].votesFor +\n                requestVotings[requestId].votesAgainst;\n        if (totalVotes < MINIMAL_VOTES_FOR_REQUEST) {\n            return false;\n        }\n        return\n            requestVotings[requestId].votesFor.mul(100).div(totalVotes) >\n            SUPER_MAJORITY;\n    }\n\n    function _finishTime(uint256 requestId) internal view returns (uint256) {\n        return walletRequests[requestId].requestTime.add(_votingDuration);\n    }\n\n    function _votingState(uint256 requestId) internal view returns (bool) {\n        // solhint-disable-next-line not-rely-on-time\n        return block.timestamp <= _finishTime(requestId);\n    }\n\n    function _msgSender() internal view override(Context, BaseRelayRecipient) returns (address payable) {\n        return BaseRelayRecipient._msgSender();\n    }\n\n    function _msgData() internal view override(Context, BaseRelayRecipient) returns (bytes memory) {\n        return BaseRelayRecipient._msgData();\n    }\n\n    function versionRecipient() external override pure returns (string memory) {\n        return \"2.0.0+\";\n    }\n\n    function _getSheriffVotes(\n        address sheriff,\n        uint256 requestId,\n        bool voteFor\n    ) internal view returns (uint256) {\n        if (sheriffVotes[sheriff].votes[requestId].voteFor == voteFor) {\n            return sheriffVotes[sheriff].votes[requestId].amount;\n        } else {\n            return 0;\n        }\n    }\n}\n",
  "sourcePath": "/home/nailkhaf/Projects/san-games/contracts/hunters/WalletHunters.sol",
  "compiler": {
    "name": "solc",
    "version": "0.7.6+commit.7338295f.Emscripten.clang"
  },
  "schemaVersion": "3.3.3",
  "updatedAt": "2021-02-18T13:18:33.363Z",
  "devdoc": {
    "kind": "dev",
    "methods": {
      "allowance(address,address)": {
        "details": "See {IERC20-allowance}."
      },
      "approve(address,uint256)": {
        "details": "See {IERC20-approve}. Requirements: - `spender` cannot be the zero address."
      },
      "balanceOf(address)": {
        "details": "See {IERC20-balanceOf}."
      },
      "decimals()": {
        "details": "Returns the number of decimals used to get its user representation. For example, if `decimals` equals `2`, a balance of `505` tokens should be displayed to a user as `5,05` (`505 / 10 ** 2`). Tokens usually opt for a value of 18, imitating the relationship between Ether and Wei. This is the value {ERC20} uses, unless {_setupDecimals} is called. NOTE: This information is only used for _display_ purposes: it in no way affects any of the arithmetic of the contract, including {IERC20-balanceOf} and {IERC20-transfer}."
      },
      "decreaseAllowance(address,uint256)": {
        "details": "Atomically decreases the allowance granted to `spender` by the caller. This is an alternative to {approve} that can be used as a mitigation for problems described in {IERC20-approve}. Emits an {Approval} event indicating the updated allowance. Requirements: - `spender` cannot be the zero address. - `spender` must have allowance for the caller of at least `subtractedValue`."
      },
      "getRoleAdmin(bytes32)": {
        "details": "Returns the admin role that controls `role`. See {grantRole} and {revokeRole}. To change a role's admin, use {_setRoleAdmin}."
      },
      "getRoleMember(bytes32,uint256)": {
        "details": "Returns one of the accounts that have `role`. `index` must be a value between 0 and {getRoleMemberCount}, non-inclusive. Role bearers are not sorted in any particular way, and their ordering may change at any point. WARNING: When using {getRoleMember} and {getRoleMemberCount}, make sure you perform all queries on the same block. See the following https://forum.openzeppelin.com/t/iterating-over-elements-on-enumerableset-in-openzeppelin-contracts/2296[forum post] for more information."
      },
      "getRoleMemberCount(bytes32)": {
        "details": "Returns the number of accounts that have `role`. Can be used together with {getRoleMember} to enumerate all bearers of a role."
      },
      "grantRole(bytes32,address)": {
        "details": "Grants `role` to `account`. If `account` had not been already granted `role`, emits a {RoleGranted} event. Requirements: - the caller must have ``role``'s admin role."
      },
      "hasRole(bytes32,address)": {
        "details": "Returns `true` if `account` has been granted `role`."
      },
      "increaseAllowance(address,uint256)": {
        "details": "Atomically increases the allowance granted to `spender` by the caller. This is an alternative to {approve} that can be used as a mitigation for problems described in {IERC20-approve}. Emits an {Approval} event indicating the updated allowance. Requirements: - `spender` cannot be the zero address."
      },
      "name()": {
        "details": "Returns the name of the token."
      },
      "renounceRole(bytes32,address)": {
        "details": "Revokes `role` from the calling account. Roles are often managed via {grantRole} and {revokeRole}: this function's purpose is to provide a mechanism for accounts to lose their privileges if they are compromised (such as when a trusted device is misplaced). If the calling account had been granted `role`, emits a {RoleRevoked} event. Requirements: - the caller must be `account`."
      },
      "revokeRole(bytes32,address)": {
        "details": "Revokes `role` from `account`. If `account` had been granted `role`, emits a {RoleRevoked} event. Requirements: - the caller must have ``role``'s admin role."
      },
      "symbol()": {
        "details": "Returns the symbol of the token, usually a shorter version of the name."
      },
      "totalSupply()": {
        "details": "See {IERC20-totalSupply}."
      },
      "transfer(address,uint256)": {
        "details": "See {IERC20-transfer}. Requirements: - `recipient` cannot be the zero address. - the caller must have a balance of at least `amount`."
      },
      "transferFrom(address,address,uint256)": {
        "details": "See {IERC20-transferFrom}. Emits an {Approval} event indicating the updated allowance. This is not required by the EIP. See the note at the beginning of {ERC20}. Requirements: - `sender` and `recipient` cannot be the zero address. - `sender` must have a balance of at least `amount`. - the caller must have allowance for ``sender``'s tokens of at least `amount`."
      }
    },
    "version": 1
  },
  "userdoc": {
    "kind": "user",
    "methods": {
      "isTrustedForwarder(address)": {
        "notice": "return if the forwarder is trusted to forward relayed transactions to us. the forwarder is required to verify the sender's signature, and verify the call is not a replay."
      }
    },
    "version": 1
  }
}