{
  "contractName": "WalletHunters",
  "abi": [
    {
      "inputs": [
        {
          "internalType": "address",
          "name": "rewardsToken_",
          "type": "address"
        },
        {
          "internalType": "uint256",
          "name": "votingDuration_",
          "type": "uint256"
        }
      ],
      "stateMutability": "nonpayable",
      "type": "constructor"
    },
    {
      "anonymous": false,
      "inputs": [
        {
          "indexed": true,
          "internalType": "address",
          "name": "owner",
          "type": "address"
        },
        {
          "indexed": true,
          "internalType": "address",
          "name": "spender",
          "type": "address"
        },
        {
          "indexed": false,
          "internalType": "uint256",
          "name": "value",
          "type": "uint256"
        }
      ],
      "name": "Approval",
      "type": "event"
    },
    {
      "anonymous": false,
      "inputs": [
        {
          "indexed": true,
          "internalType": "address",
          "name": "hunter",
          "type": "address"
        },
        {
          "indexed": true,
          "internalType": "uint256",
          "name": "requestId",
          "type": "uint256"
        },
        {
          "indexed": false,
          "internalType": "uint256",
          "name": "reward",
          "type": "uint256"
        }
      ],
      "name": "HunterRewardPaid",
      "type": "event"
    },
    {
      "anonymous": false,
      "inputs": [
        {
          "indexed": true,
          "internalType": "uint256",
          "name": "requestId",
          "type": "uint256"
        },
        {
          "indexed": true,
          "internalType": "address",
          "name": "hunter",
          "type": "address"
        },
        {
          "indexed": false,
          "internalType": "uint256",
          "name": "reward",
          "type": "uint256"
        }
      ],
      "name": "NewWalletRequest",
      "type": "event"
    },
    {
      "anonymous": false,
      "inputs": [
        {
          "indexed": true,
          "internalType": "uint256",
          "name": "requestId",
          "type": "uint256"
        },
        {
          "indexed": false,
          "internalType": "address",
          "name": "mayor",
          "type": "address"
        }
      ],
      "name": "RequestDiscarded",
      "type": "event"
    },
    {
      "anonymous": false,
      "inputs": [
        {
          "indexed": true,
          "internalType": "bytes32",
          "name": "role",
          "type": "bytes32"
        },
        {
          "indexed": true,
          "internalType": "bytes32",
          "name": "previousAdminRole",
          "type": "bytes32"
        },
        {
          "indexed": true,
          "internalType": "bytes32",
          "name": "newAdminRole",
          "type": "bytes32"
        }
      ],
      "name": "RoleAdminChanged",
      "type": "event"
    },
    {
      "anonymous": false,
      "inputs": [
        {
          "indexed": true,
          "internalType": "bytes32",
          "name": "role",
          "type": "bytes32"
        },
        {
          "indexed": true,
          "internalType": "address",
          "name": "account",
          "type": "address"
        },
        {
          "indexed": true,
          "internalType": "address",
          "name": "sender",
          "type": "address"
        }
      ],
      "name": "RoleGranted",
      "type": "event"
    },
    {
      "anonymous": false,
      "inputs": [
        {
          "indexed": true,
          "internalType": "bytes32",
          "name": "role",
          "type": "bytes32"
        },
        {
          "indexed": true,
          "internalType": "address",
          "name": "account",
          "type": "address"
        },
        {
          "indexed": true,
          "internalType": "address",
          "name": "sender",
          "type": "address"
        }
      ],
      "name": "RoleRevoked",
      "type": "event"
    },
    {
      "anonymous": false,
      "inputs": [
        {
          "indexed": true,
          "internalType": "address",
          "name": "sheriff",
          "type": "address"
        },
        {
          "indexed": true,
          "internalType": "uint256",
          "name": "requestId",
          "type": "uint256"
        },
        {
          "indexed": false,
          "internalType": "uint256",
          "name": "reward",
          "type": "uint256"
        }
      ],
      "name": "SheriffRewardPaid",
      "type": "event"
    },
    {
      "anonymous": false,
      "inputs": [
        {
          "indexed": true,
          "internalType": "address",
          "name": "sheriff",
          "type": "address"
        },
        {
          "indexed": false,
          "internalType": "uint256",
          "name": "amount",
          "type": "uint256"
        }
      ],
      "name": "Staked",
      "type": "event"
    },
    {
      "anonymous": false,
      "inputs": [
        {
          "indexed": true,
          "internalType": "address",
          "name": "from",
          "type": "address"
        },
        {
          "indexed": true,
          "internalType": "address",
          "name": "to",
          "type": "address"
        },
        {
          "indexed": false,
          "internalType": "uint256",
          "name": "value",
          "type": "uint256"
        }
      ],
      "name": "Transfer",
      "type": "event"
    },
    {
      "anonymous": false,
      "inputs": [
        {
          "indexed": true,
          "internalType": "address",
          "name": "sheriff",
          "type": "address"
        },
        {
          "indexed": false,
          "internalType": "uint256",
          "name": "amount",
          "type": "uint256"
        },
        {
          "indexed": false,
          "internalType": "enum IWalletHunters.Vote",
          "name": "kind",
          "type": "uint8"
        }
      ],
      "name": "Voted",
      "type": "event"
    },
    {
      "anonymous": false,
      "inputs": [
        {
          "indexed": true,
          "internalType": "address",
          "name": "sheriff",
          "type": "address"
        },
        {
          "indexed": false,
          "internalType": "uint256",
          "name": "amount",
          "type": "uint256"
        }
      ],
      "name": "Withdrawn",
      "type": "event"
    },
    {
      "inputs": [],
      "name": "DEFAULT_ADMIN_ROLE",
      "outputs": [
        {
          "internalType": "bytes32",
          "name": "",
          "type": "bytes32"
        }
      ],
      "stateMutability": "view",
      "type": "function"
    },
    {
      "inputs": [],
      "name": "FIXED_SHERIFF_REWARD",
      "outputs": [
        {
          "internalType": "uint256",
          "name": "",
          "type": "uint256"
        }
      ],
      "stateMutability": "view",
      "type": "function"
    },
    {
      "inputs": [],
      "name": "MAYOR_ROLE",
      "outputs": [
        {
          "internalType": "bytes32",
          "name": "",
          "type": "bytes32"
        }
      ],
      "stateMutability": "view",
      "type": "function"
    },
    {
      "inputs": [],
      "name": "MINIMAL_DEPOSIT_FOR_SHERIFF",
      "outputs": [
        {
          "internalType": "uint256",
          "name": "",
          "type": "uint256"
        }
      ],
      "stateMutability": "view",
      "type": "function"
    },
    {
      "inputs": [],
      "name": "MINIMAL_VOTES_FOR_REQUEST",
      "outputs": [
        {
          "internalType": "uint256",
          "name": "",
          "type": "uint256"
        }
      ],
      "stateMutability": "view",
      "type": "function"
    },
    {
      "inputs": [],
      "name": "SHERIFFS_REWARD_SHARE",
      "outputs": [
        {
          "internalType": "uint256",
          "name": "",
          "type": "uint256"
        }
      ],
      "stateMutability": "view",
      "type": "function"
    },
    {
      "inputs": [],
      "name": "SUPER_MAJORITY",
      "outputs": [
        {
          "internalType": "uint256",
          "name": "",
          "type": "uint256"
        }
      ],
      "stateMutability": "view",
      "type": "function"
    },
    {
      "inputs": [
        {
          "internalType": "address",
          "name": "owner",
          "type": "address"
        },
        {
          "internalType": "address",
          "name": "spender",
          "type": "address"
        }
      ],
      "name": "allowance",
      "outputs": [
        {
          "internalType": "uint256",
          "name": "",
          "type": "uint256"
        }
      ],
      "stateMutability": "view",
      "type": "function"
    },
    {
      "inputs": [
        {
          "internalType": "address",
          "name": "spender",
          "type": "address"
        },
        {
          "internalType": "uint256",
          "name": "amount",
          "type": "uint256"
        }
      ],
      "name": "approve",
      "outputs": [
        {
          "internalType": "bool",
          "name": "",
          "type": "bool"
        }
      ],
      "stateMutability": "nonpayable",
      "type": "function"
    },
    {
      "inputs": [
        {
          "internalType": "address",
          "name": "account",
          "type": "address"
        }
      ],
      "name": "balanceOf",
      "outputs": [
        {
          "internalType": "uint256",
          "name": "",
          "type": "uint256"
        }
      ],
      "stateMutability": "view",
      "type": "function"
    },
    {
      "inputs": [],
      "name": "decimals",
      "outputs": [
        {
          "internalType": "uint8",
          "name": "",
          "type": "uint8"
        }
      ],
      "stateMutability": "view",
      "type": "function"
    },
    {
      "inputs": [
        {
          "internalType": "address",
          "name": "spender",
          "type": "address"
        },
        {
          "internalType": "uint256",
          "name": "subtractedValue",
          "type": "uint256"
        }
      ],
      "name": "decreaseAllowance",
      "outputs": [
        {
          "internalType": "bool",
          "name": "",
          "type": "bool"
        }
      ],
      "stateMutability": "nonpayable",
      "type": "function"
    },
    {
      "inputs": [
        {
          "internalType": "bytes32",
          "name": "role",
          "type": "bytes32"
        }
      ],
      "name": "getRoleAdmin",
      "outputs": [
        {
          "internalType": "bytes32",
          "name": "",
          "type": "bytes32"
        }
      ],
      "stateMutability": "view",
      "type": "function"
    },
    {
      "inputs": [
        {
          "internalType": "bytes32",
          "name": "role",
          "type": "bytes32"
        },
        {
          "internalType": "uint256",
          "name": "index",
          "type": "uint256"
        }
      ],
      "name": "getRoleMember",
      "outputs": [
        {
          "internalType": "address",
          "name": "",
          "type": "address"
        }
      ],
      "stateMutability": "view",
      "type": "function"
    },
    {
      "inputs": [
        {
          "internalType": "bytes32",
          "name": "role",
          "type": "bytes32"
        }
      ],
      "name": "getRoleMemberCount",
      "outputs": [
        {
          "internalType": "uint256",
          "name": "",
          "type": "uint256"
        }
      ],
      "stateMutability": "view",
      "type": "function"
    },
    {
      "inputs": [
        {
          "internalType": "bytes32",
          "name": "role",
          "type": "bytes32"
        },
        {
          "internalType": "address",
          "name": "account",
          "type": "address"
        }
      ],
      "name": "grantRole",
      "outputs": [],
      "stateMutability": "nonpayable",
      "type": "function"
    },
    {
      "inputs": [
        {
          "internalType": "bytes32",
          "name": "role",
          "type": "bytes32"
        },
        {
          "internalType": "address",
          "name": "account",
          "type": "address"
        }
      ],
      "name": "hasRole",
      "outputs": [
        {
          "internalType": "bool",
          "name": "",
          "type": "bool"
        }
      ],
      "stateMutability": "view",
      "type": "function"
    },
    {
      "inputs": [
        {
          "internalType": "address",
          "name": "spender",
          "type": "address"
        },
        {
          "internalType": "uint256",
          "name": "addedValue",
          "type": "uint256"
        }
      ],
      "name": "increaseAllowance",
      "outputs": [
        {
          "internalType": "bool",
          "name": "",
          "type": "bool"
        }
      ],
      "stateMutability": "nonpayable",
      "type": "function"
    },
    {
      "inputs": [],
      "name": "name",
      "outputs": [
        {
          "internalType": "string",
          "name": "",
          "type": "string"
        }
      ],
      "stateMutability": "view",
      "type": "function"
    },
    {
      "inputs": [
        {
          "internalType": "bytes32",
          "name": "role",
          "type": "bytes32"
        },
        {
          "internalType": "address",
          "name": "account",
          "type": "address"
        }
      ],
      "name": "renounceRole",
      "outputs": [],
      "stateMutability": "nonpayable",
      "type": "function"
    },
    {
      "inputs": [
        {
          "internalType": "bytes32",
          "name": "role",
          "type": "bytes32"
        },
        {
          "internalType": "address",
          "name": "account",
          "type": "address"
        }
      ],
      "name": "revokeRole",
      "outputs": [],
      "stateMutability": "nonpayable",
      "type": "function"
    },
    {
      "inputs": [],
      "name": "rewardsToken",
      "outputs": [
        {
          "internalType": "contract IRewardsToken",
          "name": "",
          "type": "address"
        }
      ],
      "stateMutability": "view",
      "type": "function"
    },
    {
      "inputs": [],
      "name": "symbol",
      "outputs": [
        {
          "internalType": "string",
          "name": "",
          "type": "string"
        }
      ],
      "stateMutability": "view",
      "type": "function"
    },
    {
      "inputs": [],
      "name": "totalSupply",
      "outputs": [
        {
          "internalType": "uint256",
          "name": "",
          "type": "uint256"
        }
      ],
      "stateMutability": "view",
      "type": "function"
    },
    {
      "inputs": [
        {
          "internalType": "address",
          "name": "recipient",
          "type": "address"
        },
        {
          "internalType": "uint256",
          "name": "amount",
          "type": "uint256"
        }
      ],
      "name": "transfer",
      "outputs": [
        {
          "internalType": "bool",
          "name": "",
          "type": "bool"
        }
      ],
      "stateMutability": "nonpayable",
      "type": "function"
    },
    {
      "inputs": [
        {
          "internalType": "address",
          "name": "sender",
          "type": "address"
        },
        {
          "internalType": "address",
          "name": "recipient",
          "type": "address"
        },
        {
          "internalType": "uint256",
          "name": "amount",
          "type": "uint256"
        }
      ],
      "name": "transferFrom",
      "outputs": [
        {
          "internalType": "bool",
          "name": "",
          "type": "bool"
        }
      ],
      "stateMutability": "nonpayable",
      "type": "function"
    },
    {
      "inputs": [
        {
          "internalType": "address",
          "name": "hunter",
          "type": "address"
        },
        {
          "internalType": "uint256",
          "name": "reward",
          "type": "uint256"
        }
      ],
      "name": "submitRequest",
      "outputs": [
        {
          "internalType": "uint256",
          "name": "",
          "type": "uint256"
        }
      ],
      "stateMutability": "nonpayable",
      "type": "function"
    },
    {
      "inputs": [
        {
          "internalType": "address",
          "name": "sheriff",
          "type": "address"
        },
        {
          "internalType": "uint256",
          "name": "amount",
          "type": "uint256"
        }
      ],
      "name": "stake",
      "outputs": [],
      "stateMutability": "nonpayable",
      "type": "function"
    },
    {
      "inputs": [
        {
          "internalType": "address",
          "name": "sheriff",
          "type": "address"
        },
        {
          "internalType": "uint256",
          "name": "amount",
          "type": "uint256"
        },
        {
          "internalType": "uint256",
          "name": "deadline",
          "type": "uint256"
        },
        {
          "internalType": "uint8",
          "name": "v",
          "type": "uint8"
        },
        {
          "internalType": "bytes32",
          "name": "r",
          "type": "bytes32"
        },
        {
          "internalType": "bytes32",
          "name": "s",
          "type": "bytes32"
        }
      ],
      "name": "stakeWithPermit",
      "outputs": [],
      "stateMutability": "nonpayable",
      "type": "function"
    },
    {
      "inputs": [
        {
          "internalType": "address",
          "name": "sheriff",
          "type": "address"
        },
        {
          "internalType": "uint256",
          "name": "requestId",
          "type": "uint256"
        },
        {
          "internalType": "enum IWalletHunters.Vote",
          "name": "kind",
          "type": "uint8"
        }
      ],
      "name": "vote",
      "outputs": [],
      "stateMutability": "nonpayable",
      "type": "function"
    },
    {
      "inputs": [
        {
          "internalType": "address",
          "name": "mayor",
          "type": "address"
        },
        {
          "internalType": "uint256",
          "name": "requestId",
          "type": "uint256"
        }
      ],
      "name": "discardRequest",
      "outputs": [],
      "stateMutability": "nonpayable",
      "type": "function"
    },
    {
      "inputs": [
        {
          "internalType": "address",
          "name": "sheriff",
          "type": "address"
        },
        {
          "internalType": "uint256",
          "name": "amount",
          "type": "uint256"
        }
      ],
      "name": "withdraw",
      "outputs": [],
      "stateMutability": "nonpayable",
      "type": "function"
    },
    {
      "inputs": [
        {
          "internalType": "address",
          "name": "sheriff",
          "type": "address"
        }
      ],
      "name": "exit",
      "outputs": [],
      "stateMutability": "nonpayable",
      "type": "function"
    },
    {
      "inputs": [
        {
          "internalType": "address",
          "name": "hunter",
          "type": "address"
        },
        {
          "internalType": "uint256",
          "name": "requestId",
          "type": "uint256"
        }
      ],
      "name": "getHunterReward",
      "outputs": [],
      "stateMutability": "nonpayable",
      "type": "function"
    },
    {
      "inputs": [
        {
          "internalType": "address",
          "name": "hunter",
          "type": "address"
        },
        {
          "internalType": "uint256[]",
          "name": "requestIds",
          "type": "uint256[]"
        }
      ],
      "name": "getHunterRewardsByIds",
      "outputs": [],
      "stateMutability": "nonpayable",
      "type": "function"
    },
    {
      "inputs": [
        {
          "internalType": "address",
          "name": "sheriff",
          "type": "address"
        },
        {
          "internalType": "uint256",
          "name": "requestId",
          "type": "uint256"
        }
      ],
      "name": "getSheriffReward",
      "outputs": [],
      "stateMutability": "nonpayable",
      "type": "function"
    },
    {
      "inputs": [
        {
          "internalType": "address",
          "name": "sheriff",
          "type": "address"
        }
      ],
      "name": "getSheriffRewards",
      "outputs": [],
      "stateMutability": "nonpayable",
      "type": "function"
    },
    {
      "inputs": [
        {
          "internalType": "address",
          "name": "sheriff",
          "type": "address"
        },
        {
          "internalType": "uint256[]",
          "name": "requestIds",
          "type": "uint256[]"
        }
      ],
      "name": "getSheriffRewardsByIds",
      "outputs": [],
      "stateMutability": "nonpayable",
      "type": "function"
    },
    {
      "inputs": [
        {
          "internalType": "uint256",
          "name": "requestId",
          "type": "uint256"
        }
      ],
      "name": "hunterReward",
      "outputs": [
        {
          "internalType": "uint256",
          "name": "",
          "type": "uint256"
        }
      ],
      "stateMutability": "view",
      "type": "function"
    },
    {
      "inputs": [
        {
          "internalType": "address",
          "name": "sheriff",
          "type": "address"
        },
        {
          "internalType": "uint256",
          "name": "requestId",
          "type": "uint256"
        }
      ],
      "name": "sheriffReward",
      "outputs": [
        {
          "internalType": "uint256",
          "name": "",
          "type": "uint256"
        }
      ],
      "stateMutability": "view",
      "type": "function"
    },
    {
      "inputs": [
        {
          "internalType": "uint256",
          "name": "requestId",
          "type": "uint256"
        }
      ],
      "name": "request",
      "outputs": [
        {
          "internalType": "address",
          "name": "hunter",
          "type": "address"
        },
        {
          "internalType": "uint256",
          "name": "reward",
          "type": "uint256"
        },
        {
          "internalType": "uint256",
          "name": "requestTime",
          "type": "uint256"
        },
        {
          "internalType": "bool",
          "name": "votingState",
          "type": "bool"
        },
        {
          "internalType": "bool",
          "name": "rewardPaid",
          "type": "bool"
        },
        {
          "internalType": "bool",
          "name": "discarded",
          "type": "bool"
        }
      ],
      "stateMutability": "view",
      "type": "function"
    },
    {
      "inputs": [
        {
          "internalType": "uint256",
          "name": "requestId",
          "type": "uint256"
        }
      ],
      "name": "countVotes",
      "outputs": [
        {
          "internalType": "uint256",
          "name": "votesFor",
          "type": "uint256"
        },
        {
          "internalType": "uint256",
          "name": "votesAgainst",
          "type": "uint256"
        }
      ],
      "stateMutability": "view",
      "type": "function"
    },
    {
      "inputs": [
        {
          "internalType": "address",
          "name": "sheriff",
          "type": "address"
        }
      ],
      "name": "isSheriff",
      "outputs": [
        {
          "internalType": "bool",
          "name": "",
          "type": "bool"
        }
      ],
      "stateMutability": "view",
      "type": "function"
    },
    {
      "inputs": [],
      "name": "votingDuration",
      "outputs": [
        {
          "internalType": "uint256",
          "name": "",
          "type": "uint256"
        }
      ],
      "stateMutability": "view",
      "type": "function"
    },
    {
      "inputs": [
        {
          "internalType": "address",
          "name": "sheriff",
          "type": "address"
        }
      ],
      "name": "lockedBalance",
      "outputs": [
        {
          "internalType": "uint256",
          "name": "locked",
          "type": "uint256"
        }
      ],
      "stateMutability": "view",
      "type": "function"
    }
  ],
  "bytecode": "0x60c06040523480156200001157600080fd5b50604051620038bf380380620038bf833981810160405260408110156200003757600080fd5b508051602091820151604080518082018252601d81527f57616c6c65742048756e746572732c205368657269666620546f6b656e000000818601908152825180840190935260048084526315d214d560e21b96840196909652815194959394919384928492620000a8929162000244565b508051620000be90600590602084019062000244565b50506006805460ff1916601217905550620000e8915060009050620000e262000130565b62000134565b620001177f8eec8b020504d98b9b8aade6b3c37e791120efe8c9a621b6a5abccbe3ec5d7f9620000e262000130565b60805260601b6001600160601b03191660a052620002f0565b3390565b62000140828262000144565b5050565b600082815260208181526040909120620001699183906200279c620001bd821b17901c565b1562000140576200017962000130565b6001600160a01b0316816001600160a01b0316837f2f8788117e7eff1d82e926ec794901d17c78024a50270940304540a733656f0d60405160405180910390a45050565b6000620001d4836001600160a01b038416620001dd565b90505b92915050565b6000620001eb83836200022c565b6200022357508154600181810184556000848152602080822090930184905584548482528286019093526040902091909155620001d7565b506000620001d7565b60009081526001919091016020526040902054151590565b828054600181600116156101000203166002900490600052602060002090601f0160209004810192826200027c5760008555620002c7565b82601f106200029757805160ff1916838001178555620002c7565b82800160010185558215620002c7579182015b82811115620002c7578251825591602001919060010190620002aa565b50620002d5929150620002d9565b5090565b5b80821115620002d55760008155600101620002da565b60805160a05160601c6135766200034960003980610d4f528061118152806116d0528061173f52806119e15280611eb85280612191528061227d5280612731525080610e2452806123ee5280612f5952506135766000f3fe608060405234801561001057600080fd5b506004361061027f5760003560e01c8063916a59351161015c578063b42652e9116100ce578063d845a4b311610087578063d845a4b3146108cc578063dbaafdc91461092a578063dd62ed3e14610932578063e19abba714610960578063ed1699b71461097d578063f3fef3a3146109a35761027f565b8063b42652e914610821578063b85c229214610847578063c74bf0cd1461084f578063ca15c8731461087b578063d1af0c7d14610898578063d547741f146108a05761027f565b8063a42176b611610120578063a42176b614610715578063a457c2d714610741578063a797e98f1461076d578063a9059cbb1461032f578063adc9772e14610775578063ae4dd3d4146107a15761027f565b8063916a59351461063357806391d14854146106b357806395d89b41146106df5780639ae697bf146106e7578063a217fddf1461070d5761027f565b8063313ce567116101f55780636a348b7b116101b95780636a348b7b1461051e5780636ffa48331461055357806370a082311461055b57806373d6a889146105815780638c3cbe3a146105c85780639010d07c146105f45761027f565b8063313ce5671461047a57806336568abe1461049857806339509351146104c457806346f1537c146104f05780634e11a97b146104f85761027f565b806318160ddd1161024757806318160ddd146103b55780631840f0ca146103bd57806320af96c5146103f357806323b872dd146103fb578063248a9ca3146104315780632f2ff15d1461044e5761027f565b80630302b8731461028457806306fdde03146102b2578063095ea7b31461032f57806310bd7e701461036f578063132002fc1461039b575b600080fd5b6102b06004803603604081101561029a57600080fd5b506001600160a01b0381351690602001356109cf565b005b6102ba610c20565b6040805160208082528351818301528351919283929083019185019080838360005b838110156102f45781810151838201526020016102dc565b50505050905090810190601f1680156103215780820380516001836020036101000a031916815260200191505b509250505060405180910390f35b61035b6004803603604081101561034557600080fd5b506001600160a01b038135169060200135610cb6565b604080519115158252519081900360200190f35b6102b06004803603604081101561038557600080fd5b506001600160a01b038135169060200135610cd4565b6103a3610e22565b60408051918252519081900360200190f35b6103a3610e46565b6103da600480360360208110156103d357600080fd5b5035610e4c565b6040805192835260208301919091528051918290030190f35b6103a3610e66565b61035b6004803603606081101561041157600080fd5b506001600160a01b03813581169160208101359091169060400135610e73565b6103a36004803603602081101561044757600080fd5b5035610efb565b6102b06004803603604081101561046457600080fd5b50803590602001356001600160a01b0316610f13565b610482610f7a565b6040805160ff9092168252519081900360200190f35b6102b0600480360360408110156104ae57600080fd5b50803590602001356001600160a01b0316610f83565b61035b600480360360408110156104da57600080fd5b506001600160a01b038135169060200135610fe4565b6103a3611032565b6102b06004803603602081101561050e57600080fd5b50356001600160a01b0316611040565b6102b06004803603606081101561053457600080fd5b5080356001600160a01b0316906020810135906040013560ff16611212565b6103a3611597565b6103a36004803603602081101561057157600080fd5b50356001600160a01b03166115bb565b6102b0600480360360c081101561059757600080fd5b506001600160a01b038135169060208101359060408101359060ff6060820135169060808101359060a001356115d6565b6103a3600480360360408110156105de57600080fd5b506001600160a01b0381351690602001356117b0565b6106176004803603604081101561060a57600080fd5b5080359060200135611843565b604080516001600160a01b039092168252519081900360200190f35b6102b06004803603604081101561064957600080fd5b6001600160a01b03823516919081019060408101602082013564010000000081111561067457600080fd5b82018360208201111561068657600080fd5b803590602001918460208302840111640100000000831117156106a857600080fd5b50909250905061185b565b61035b600480360360408110156106c957600080fd5b50803590602001356001600160a01b0316611a75565b6102ba611a8d565b6103a3600480360360208110156106fd57600080fd5b50356001600160a01b0316611aee565b6103a3611bc7565b6103a36004803603604081101561072b57600080fd5b506001600160a01b038135169060200135611bcc565b61035b6004803603604081101561075757600080fd5b506001600160a01b038135169060200135611d89565b6103a3611df1565b6102b06004803603604081101561078b57600080fd5b506001600160a01b038135169060200135611dfe565b6102b0600480360360408110156107b757600080fd5b6001600160a01b0382351691908101906040810160208201356401000000008111156107e257600080fd5b8201836020820111156107f457600080fd5b8035906020019184602083028401116401000000008311171561081657600080fd5b509092509050611f23565b6102b06004803603602081101561083757600080fd5b50356001600160a01b031661201a565b6103a3612093565b6102b06004803603604081101561086557600080fd5b506001600160a01b038135169060200135612098565b6103a36004803603602081101561089157600080fd5b5035612264565b61061761227b565b6102b0600480360360408110156108b657600080fd5b50803590602001356001600160a01b031661229f565b6108e9600480360360208110156108e257600080fd5b50356122f8565b604080516001600160a01b039097168752602087019590955285850193909352901515606085015215156080840152151560a0830152519081900360c00190f35b6103a3612446565b6103a36004803603604081101561094857600080fd5b506001600160a01b038135811691602001351661244b565b6103a36004803603602081101561097657600080fd5b5035612476565b61035b6004803603602081101561099357600080fd5b50356001600160a01b03166125e5565b6102b0600480360360408110156109b957600080fd5b506001600160a01b038135169060200135612602565b610a007f8eec8b020504d98b9b8aade6b3c37e791120efe8c9a621b6a5abccbe3ec5d7f96109fb6127b1565b611a75565b610a51576040805162461bcd60e51b815260206004820152601f60248201527f4d7573742068617665206d61796f7220726f6c6520746f206469736361726400604482015290519081900360640190fd5b80610a5c60076127b5565b811115610aa8576040805162461bcd60e51b815260206004820152601560248201527414995c5d595cdd08191bd95cdb89dd08195e1a5cdd605a1b604482015290519081900360640190fd5b600081815260086020526040902060030154610100900460ff1615610b0b576040805162461bcd60e51b815260206004820152601460248201527314995c5d595cdd081a5cc8191a5cd8d85c99195960621b604482015290519081900360640190fd5b610b136127b1565b6001600160a01b0316836001600160a01b031614610b6f576040805162461bcd60e51b815260206004820152601460248201527329b2b73232b91036bab9ba1031329036b0bcb7b960611b604482015290519081900360640190fd5b610b78826127b9565b610bbe576040805162461bcd60e51b8152602060048201526012602482015271159bdd1a5b99c81a5cc8199a5b9a5cda195960721b604482015290519081900360640190fd5b600082815260086020908152604091829020600301805461ff00191661010017905581516001600160a01b0386168152915184927fde14ed5ba810d34511fd04a7d70bd53b7b75991c5d8cc5d20dbbc0f30bc48a0792908290030190a2505050565b60048054604080516020601f6002600019610100600188161502019095169490940493840181900481028201810190925282815260609390929091830182828015610cac5780601f10610c8157610100808354040283529160200191610cac565b820191906000526020600020905b815481529060010190602001808311610c8f57829003601f168201915b5050505050905090565b6000610cca610cc36127b1565b84846127cd565b5060015b92915050565b610cdc6127b1565b6001600160a01b0316826001600160a01b031614610d2f576040805162461bcd60e51b81526020600482015260166024820152600080516020613439833981519152604482015290519081900360640190fd5b6000610d3b8383611bcc565b9050610d478383612806565b8015610ddd577f00000000000000000000000000000000000000000000000000000000000000006001600160a01b03166340c10f1984836040518363ffffffff1660e01b815260040180836001600160a01b0316815260200182815260200192505050600060405180830381600087803b158015610dc457600080fd5b505af1158015610dd8573d6000803e3d6000fd5b505050505b60408051828152905183916001600160a01b038616917feb19fd1d512bb090737c60013d5d2d78cf7728bb39b4e904f47a5123a74a8d849181900360200190a3505050565b7f000000000000000000000000000000000000000000000000000000000000000090565b60035490565b600090815260096020526040902080546001909101549091565b686c6b935b8bbd40000081565b6000610e808484846127cd565b610ef084610e8c6127b1565b610eeb8560405180606001604052806028815260200161347a602891396001600160a01b038a16600090815260026020526040812090610eca6127b1565b6001600160a01b031681526020810191909152604001600020549190612862565b6127cd565b5060015b9392505050565b6000818152602081905260409020600201545b919050565b600082815260208190526040902060020154610f31906109fb6127b1565b610f6c5760405162461bcd60e51b815260040180806020018281038252602f815260200180613392602f913960400191505060405180910390fd5b610f7682826128f9565b5050565b60065460ff1690565b610f8b6127b1565b6001600160a01b0316816001600160a01b031614610fda5760405162461bcd60e51b815260040180806020018281038252602f815260200180613512602f913960400191505060405180910390fd5b610f768282612962565b6000610cca610ff16127b1565b84610eeb85600260006110026127b1565b6001600160a01b03908116825260208083019390935260409182016000908120918c1681529252902054906129cb565b69021e19e0c9bab240000081565b6110486127b1565b6001600160a01b0316816001600160a01b03161461109b576040805162461bcd60e51b81526020600482015260166024820152600080516020613439833981519152604482015290519081900360640190fd5b6000805b6001600160a01b0383166000908152600a602052604090206110c090612a25565b811015611178576001600160a01b0383166000908152600a602052604081206110e99083612a30565b90506110f4816127b9565b1561110c576111048260016129cb565b915050611173565b60006111188583611bcc565b905061112484826129cb565b93506111308583612806565b60408051828152905183916001600160a01b038816917feb19fd1d512bb090737c60013d5d2d78cf7728bb39b4e904f47a5123a74a8d849181900360200190a350505b61109f565b508015610f76577f00000000000000000000000000000000000000000000000000000000000000006001600160a01b03166340c10f1983836040518363ffffffff1660e01b815260040180836001600160a01b0316815260200182815260200192505050600060405180830381600087803b1580156111f657600080fd5b505af115801561120a573d6000803e3d6000fd5b505050505050565b8161121d60076127b5565b811115611269576040805162461bcd60e51b815260206004820152601560248201527414995c5d595cdd08191bd95cdb89dd08195e1a5cdd605a1b604482015290519081900360640190fd5b600081815260086020526040902060030154610100900460ff16156112cc576040805162461bcd60e51b815260206004820152601460248201527314995c5d595cdd081a5cc8191a5cd8d85c99195960621b604482015290519081900360640190fd5b6112d46127b1565b6001600160a01b0316846001600160a01b031614611327576040805162461bcd60e51b81526020600482015260166024820152600080516020613439833981519152604482015290519081900360640190fd5b611330846125e5565b611379576040805162461bcd60e51b815260206004820152601560248201527429b2b73232b91034b9903737ba1039b432b934b33360591b604482015290519081900360640190fd5b611382836127b9565b6113c8576040805162461bcd60e51b8152602060048201526012602482015271159bdd1a5b99c81a5cc8199a5b9a5cda195960721b604482015290519081900360640190fd5b60006113d3856115bb565b6001600160a01b0386166000908152600a602052604090209091506113f89085612a3c565b611449576040805162461bcd60e51b815260206004820152601860248201527f5368657269666620697320616c726561647920766f7465640000000000000000604482015290519081900360640190fd5b6001600160a01b0385166000908152600a602090815260408083208784526002019091529020819055600183600181111561148057fe5b14156114e2576001600160a01b0385166000908152600a6020908152604080832087845260020182528083206001908101805460ff1916909117905560099091529020546114ce90826129cb565b60008581526009602052604090205561153c565b6001600160a01b0385166000908152600a6020908152604080832087845260020182528083206001908101805460ff191690556009909252909120015461152990826129cb565b6000858152600960205260409020600101555b846001600160a01b03167fcc66c27f993ef125e1b985d84a52726edc66dcc64e94d172f80253e37d52637282856040518083815260200182600181111561157f57fe5b81526020019250505060405180910390a25050505050565b7f8eec8b020504d98b9b8aade6b3c37e791120efe8c9a621b6a5abccbe3ec5d7f981565b6001600160a01b031660009081526001602052604090205490565b6115de6127b1565b6001600160a01b0316866001600160a01b031614611631576040805162461bcd60e51b81526020600482015260166024820152600080516020613439833981519152604482015290519081900360640190fd5b60008511611679576040805162461bcd60e51b815260206004820152601060248201526f043616e6e6f74206465706f73697420360841b604482015290519081900360640190fd5b6116838686612a48565b6040805163d505accf60e01b81526001600160a01b038881166004830152306024830152604482018890526064820187905260ff8616608483015260a4820185905260c4820184905291517f00000000000000000000000000000000000000000000000000000000000000009092169163d505accf9160e48082019260009290919082900301818387803b15801561171a57600080fd5b505af115801561172e573d6000803e3d6000fd5b506117699250506001600160a01b037f0000000000000000000000000000000000000000000000000000000000000000169050873088612b3a565b6040805186815290516001600160a01b038816917f9e71bc8eea02a63969f509818f2dafb9254532904319f9dbda79b67bd34a5f3d919081900360200190a2505050505050565b60006117bc6007612b94565b60006117c860076127b5565b60008181526008602090815260409182902080546001600160a01b0319166001600160a01b038916908117825560018201889055426002830155835188815293519495509093909285927f76664a8bf74c8214a2779a595bbec0820521931eb7ffac23a597467fcbd83f2e92918290030190a3509392505050565b6000828152602081905260408120610ef49083612a30565b6118636127b1565b6001600160a01b0316836001600160a01b0316146118c0576040805162461bcd60e51b815260206004820152601560248201527429b2b73232b91036bab9ba10313290343ab73a32b960591b604482015290519081900360640190fd5b6000805b828110156119d85760008484838181106118da57fe5b6020908102929092013560008181526008909352604090922054919250506001600160a01b0387811691161461194c576040805162461bcd60e51b8152602060048201526012602482015271121d5b9d195c881a5cdb89dd081d985b1a5960721b604482015290519081900360640190fd5b600061195782612476565b905061196384826129cb565b600083815260086020908152604091829020600301805460ff191660011790558151848152915192965084926001600160a01b038b16927f79584049d8f206bf7b762ccd36e6400e18a37f49122d9e323329b2359b0d446992908290030190a3506119d190508160016129cb565b90506118c4565b508015611a6f577f00000000000000000000000000000000000000000000000000000000000000006001600160a01b03166340c10f1985836040518363ffffffff1660e01b815260040180836001600160a01b0316815260200182815260200192505050600060405180830381600087803b158015611a5657600080fd5b505af1158015611a6a573d6000803e3d6000fd5b505050505b50505050565b6000828152602081905260408120610ef49083612b9d565b60058054604080516020601f6002600019610100600188161502019095169490940493840181900481028201810190925282815260609390929091830182828015610cac5780601f10610c8157610100808354040283529160200191610cac565b6000805b6001600160a01b0383166000908152600a60205260409020611b1390612a25565b811015611bc1576001600160a01b0383166000908152600a60205260408120611b3c9083612a30565b9050611b47816127b9565b611b515750611baf565b600081815260086020526040902060030154610100900460ff1615611b765750611baf565b6001600160a01b0384166000908152600a60209081526040808320848452600201909152902054808410611bab575050611baf565b9250505b611bba8160016129cb565b9050611af2565b50919050565b600081565b6000611bd860076127b5565b821115611c24576040805162461bcd60e51b815260206004820152601560248201527414995c5d595cdd08191bd95cdb89dd08195e1a5cdd605a1b604482015290519081900360640190fd5b6001600160a01b0383166000908152600a60205260409020611c469083612bb2565b611c8e576040805162461bcd60e51b81526020600482015260146024820152735368657269666620646f65736e277420766f746560601b604482015290519081900360640190fd5b611c97826127b9565b15611ce2576040805162461bcd60e51b8152602060048201526016602482015275159bdd1a5b99c81a5cc81b9bdd08199a5b9a5cda195960521b604482015290519081900360640190fd5b600082815260086020526040902060030154610100900460ff1615611d0957506000610cce565b611d1282612bbe565b15611d785760008281526008602052604081206001908101549190611d3a9086908690612c1a565b600085815260096020526040902054909150611d6e6064611d626014611d6885838989612c87565b90612ce0565b90612c87565b9350505050610cce565b5069021e19e0c9bab2400000610cce565b6000610cca611d966127b1565b84610eeb856040518060600160405280602581526020016134ed6025913960026000611dc06127b1565b6001600160a01b03908116825260208083019390935260409182016000908120918d16815292529020549190612862565b683635c9adc5dea0000081565b611e066127b1565b6001600160a01b0316826001600160a01b031614611e59576040805162461bcd60e51b81526020600482015260166024820152600080516020613439833981519152604482015290519081900360640190fd5b60008111611ea1576040805162461bcd60e51b815260206004820152601060248201526f043616e6e6f74206465706f73697420360841b604482015290519081900360640190fd5b611eab8282612a48565b611ee06001600160a01b037f000000000000000000000000000000000000000000000000000000000000000016833084612b3a565b6040805182815290516001600160a01b038416917f9e71bc8eea02a63969f509818f2dafb9254532904319f9dbda79b67bd34a5f3d919081900360200190a25050565b611f2b6127b1565b6001600160a01b0316836001600160a01b031614611f7e576040805162461bcd60e51b81526020600482015260166024820152600080516020613439833981519152604482015290519081900360640190fd5b6000805b828110156119d8576000848483818110611f9857fe5b9050602002013590506000611fad8783611bcc565b9050611fb984826129cb565b9350611fc58783612806565b60408051828152905183916001600160a01b038a16917feb19fd1d512bb090737c60013d5d2d78cf7728bb39b4e904f47a5123a74a8d849181900360200190a35061201390508160016129cb565b9050611f82565b806001600160a01b031661202c6127b1565b6001600160a01b031614612075576040805162461bcd60e51b81526020600482015260166024820152600080516020613439833981519152604482015290519081900360640190fd5b61208781612082836115bb565b612602565b61209081611040565b50565b604381565b6120a06127b1565b6001600160a01b0316826001600160a01b0316146120fd576040805162461bcd60e51b815260206004820152601560248201527429b2b73232b91036bab9ba10313290343ab73a32b960591b604482015290519081900360640190fd5b6000818152600860205260409020546001600160a01b03838116911614612160576040805162461bcd60e51b8152602060048201526012602482015271121d5b9d195c881a5cdb89dd081d985b1a5960721b604482015290519081900360640190fd5b600061216b82612476565b6000838152600860205260409020600301805460ff191660011790559050801561221f577f00000000000000000000000000000000000000000000000000000000000000006001600160a01b03166340c10f1984836040518363ffffffff1660e01b815260040180836001600160a01b0316815260200182815260200192505050600060405180830381600087803b15801561220657600080fd5b505af115801561221a573d6000803e3d6000fd5b505050505b60408051828152905183916001600160a01b038616917f79584049d8f206bf7b762ccd36e6400e18a37f49122d9e323329b2359b0d44699181900360200190a3505050565b6000818152602081905260408120610cce90612a25565b7f000000000000000000000000000000000000000000000000000000000000000081565b6000828152602081905260409020600201546122bd906109fb6127b1565b610fda5760405162461bcd60e51b81526004018080602001828103825260308152602001806134096030913960400191505060405180910390fd5b6000806000806000808661230c60076127b5565b811115612358576040805162461bcd60e51b815260206004820152601560248201527414995c5d595cdd08191bd95cdb89dd08195e1a5cdd605a1b604482015290519081900360640190fd5b600081815260086020526040902060030154610100900460ff16156123bb576040805162461bcd60e51b815260206004820152601460248201527314995c5d595cdd081a5cc8191a5cd8d85c99195960621b604482015290519081900360640190fd5b6000888152600860205260409020805460018201546002909201546001600160a01b0390911698509096509450612412857f00000000000000000000000000000000000000000000000000000000000000006129cb565b600098895260086020526040909820600301549698959794964295909511159560ff80871696610100900416945092505050565b601481565b6001600160a01b03918216600090815260026020908152604080832093909416825291909152205490565b60008161248360076127b5565b8111156124cf576040805162461bcd60e51b815260206004820152601560248201527414995c5d595cdd08191bd95cdb89dd08195e1a5cdd605a1b604482015290519081900360640190fd5b600081815260086020526040902060030154610100900460ff1615612532576040805162461bcd60e51b815260206004820152601460248201527314995c5d595cdd081a5cc8191a5cd8d85c99195960621b604482015290519081900360640190fd5b61253b836127b9565b15612586576040805162461bcd60e51b8152602060048201526016602482015275159bdd1a5b99c81a5cc81b9bdd08199a5b9a5cda195960521b604482015290519081900360640190fd5b60008381526008602052604090206003015460ff161580156125ac57506125ac83612bbe565b156125dc576000838152600860205260409020600101546125d590606490611d62906050612c87565b9150611bc1565b60009150611bc1565b6000683635c9adc5dea000006125fa836115bb565b101592915050565b61260a6127b1565b6001600160a01b0316826001600160a01b03161461265d576040805162461bcd60e51b81526020600482015260166024820152600080516020613439833981519152604482015290519081900360640190fd5b600081116126a6576040805162461bcd60e51b8152602060048201526011602482015270043616e6e6f74207769746864726177203607c1b604482015290519081900360640190fd5b60006126c36126b484611aee565b6126bd856115bb565b90612d47565b90508082111561271a576040805162461bcd60e51b815260206004820152601860248201527f576974686472617720657863656564732062616c616e63650000000000000000604482015290519081900360640190fd5b6127248383612da4565b6127586001600160a01b037f0000000000000000000000000000000000000000000000000000000000000000168484612ea0565b6040805183815290516001600160a01b038516917f7084f5476618d8e60b11ef0d7d3f06914655adb8793e28ff7f018d4c76d505d5919081900360200190a2505050565b6000610ef4836001600160a01b038416612ef7565b3390565b5490565b60006127c482612f41565b42111592915050565b6040805162461bcd60e51b81526020600482015260096024820152682337b93134b23232b760b91b604482015290519081900360640190fd5b6001600160a01b0382166000908152600a602052604090206128289082612f7d565b506001600160a01b039091166000908152600a6020908152604080832093835260029093019052908120908155600101805460ff19169055565b600081848411156128f15760405162461bcd60e51b81526004018080602001828103825283818151815260200191508051906020019080838360005b838110156128b657818101518382015260200161289e565b50505050905090810190601f1680156128e35780820380516001836020036101000a031916815260200191505b509250505060405180910390fd5b505050900390565b6000828152602081905260409020612911908261279c565b15610f765761291e6127b1565b6001600160a01b0316816001600160a01b0316837f2f8788117e7eff1d82e926ec794901d17c78024a50270940304540a733656f0d60405160405180910390a45050565b600082815260208190526040902061297a9082612f89565b15610f76576129876127b1565b6001600160a01b0316816001600160a01b0316837ff6391f5c32d9c69d2a47ea670b442974b53935d1edc7fd64eb21e047a839171b60405160405180910390a45050565b600082820183811015610ef4576040805162461bcd60e51b815260206004820152601b60248201527f536166654d6174683a206164646974696f6e206f766572666c6f770000000000604482015290519081900360640190fd5b6000610cce826127b5565b6000610ef48383612f9e565b6000610ef48383612ef7565b6001600160a01b038216612aa3576040805162461bcd60e51b815260206004820152601f60248201527f45524332303a206d696e7420746f20746865207a65726f206164647265737300604482015290519081900360640190fd5b612aaf60008383612ef2565b600354612abc90826129cb565b6003556001600160a01b038216600090815260016020526040902054612ae290826129cb565b6001600160a01b03831660008181526001602090815260408083209490945583518581529351929391927fddf252ad1be2c89b69c2b068fc378daa952ba7f163c4a11628f55a4df523b3ef9281900390910190a35050565b604080516001600160a01b0380861660248301528416604482015260648082018490528251808303909101815260849091019091526020810180516001600160e01b03166323b872dd60e01b179052611a6f908590613002565b80546001019055565b6000610ef4836001600160a01b0384166130b3565b6000610ef483836130b3565b60008181526009602052604081206001810154905401686c6b935b8bbd400000811015612bef576000915050610f0e565b600083815260096020526040902054604390612c12908390611d62906064612c87565b119392505050565b6001600160a01b0383166000908152600a6020908152604080832085845260020190915281206001015460ff1615158215151415612c7f57506001600160a01b0383166000908152600a60209081526040808320858452600201909152902054610ef4565b506000610ef4565b600082612c9657506000610cce565b82820282848281612ca357fe5b0414610ef45760405162461bcd60e51b81526004018080602001828103825260218152602001806134596021913960400191505060405180910390fd5b6000808211612d36576040805162461bcd60e51b815260206004820152601a60248201527f536166654d6174683a206469766973696f6e206279207a65726f000000000000604482015290519081900360640190fd5b818381612d3f57fe5b049392505050565b600082821115612d9e576040805162461bcd60e51b815260206004820152601e60248201527f536166654d6174683a207375627472616374696f6e206f766572666c6f770000604482015290519081900360640190fd5b50900390565b6001600160a01b038216612de95760405162461bcd60e51b81526004018080602001828103825260218152602001806134a26021913960400191505060405180910390fd5b612df582600083612ef2565b612e32816040518060600160405280602281526020016133c1602291396001600160a01b0385166000908152600160205260409020549190612862565b6001600160a01b038316600090815260016020526040902055600354612e589082612d47565b6003556040805182815290516000916001600160a01b038516917fddf252ad1be2c89b69c2b068fc378daa952ba7f163c4a11628f55a4df523b3ef9181900360200190a35050565b604080516001600160a01b038416602482015260448082018490528251808303909101815260649091019091526020810180516001600160e01b031663a9059cbb60e01b179052612ef2908490613002565b505050565b6000612f0383836130b3565b612f3957508154600181810184556000848152602080822090930184905584548482528286019093526040902091909155610cce565b506000610cce565b600081815260086020526040812060020154610cce907f00000000000000000000000000000000000000000000000000000000000000006129cb565b6000610ef483836130cb565b6000610ef4836001600160a01b0384166130cb565b81546000908210612fe05760405162461bcd60e51b81526004018080602001828103825260228152602001806133706022913960400191505060405180910390fd5b826000018281548110612fef57fe5b9060005260206000200154905092915050565b6000613057826040518060400160405280602081526020017f5361666545524332303a206c6f772d6c6576656c2063616c6c206661696c6564815250856001600160a01b03166131919092919063ffffffff16565b805190915015612ef25780806020019051602081101561307657600080fd5b5051612ef25760405162461bcd60e51b815260040180806020018281038252602a8152602001806134c3602a913960400191505060405180910390fd5b60009081526001919091016020526040902054151590565b6000818152600183016020526040812054801561318757835460001980830191908101906000908790839081106130fe57fe5b906000526020600020015490508087600001848154811061311b57fe5b60009182526020808320909101929092558281526001898101909252604090209084019055865487908061314b57fe5b60019003818190600052602060002001600090559055866001016000878152602001908152602001600020600090556001945050505050610cce565b6000915050610cce565b60606131a084846000856131a8565b949350505050565b6060824710156131e95760405162461bcd60e51b81526004018080602001828103825260268152602001806133e36026913960400191505060405180910390fd5b6131f285613303565b613243576040805162461bcd60e51b815260206004820152601d60248201527f416464726573733a2063616c6c20746f206e6f6e2d636f6e7472616374000000604482015290519081900360640190fd5b600080866001600160a01b031685876040518082805190602001908083835b602083106132815780518252601f199092019160209182019101613262565b6001836020036101000a03801982511681845116808217855250505050505090500191505060006040518083038185875af1925050503d80600081146132e3576040519150601f19603f3d011682016040523d82523d6000602084013e6132e8565b606091505b50915091506132f8828286613309565b979650505050505050565b3b151590565b60608315613318575081610ef4565b8251156133285782518084602001fd5b60405162461bcd60e51b81526020600482018181528451602484015284518593919283926044019190850190808383600083156128b657818101518382015260200161289e56fe456e756d657261626c655365743a20696e646578206f7574206f6620626f756e6473416363657373436f6e74726f6c3a2073656e646572206d75737420626520616e2061646d696e20746f206772616e7445524332303a206275726e20616d6f756e7420657863656564732062616c616e6365416464726573733a20696e73756666696369656e742062616c616e636520666f722063616c6c416363657373436f6e74726f6c3a2073656e646572206d75737420626520616e2061646d696e20746f207265766f6b6553656e646572206d757374206265207368657269666600000000000000000000536166654d6174683a206d756c7469706c69636174696f6e206f766572666c6f7745524332303a207472616e7366657220616d6f756e74206578636565647320616c6c6f77616e636545524332303a206275726e2066726f6d20746865207a65726f20616464726573735361666545524332303a204552433230206f7065726174696f6e20646964206e6f74207375636365656445524332303a2064656372656173656420616c6c6f77616e63652062656c6f77207a65726f416363657373436f6e74726f6c3a2063616e206f6e6c792072656e6f756e636520726f6c657320666f722073656c66a2646970667358221220cc0cf3c7913e972b08a693fd0af8ed608b1851c3ac10c133953200119e94392f64736f6c63430007060033",
  "immutableReferences": {
    "51": [
      {
        "length": 32,
        "start": 3620
      },
      {
        "length": 32,
        "start": 9198
      },
      {
        "length": 32,
        "start": 12121
      }
    ],
    "53": [
      {
        "length": 32,
        "start": 3407
      },
      {
        "length": 32,
        "start": 4481
      },
      {
        "length": 32,
        "start": 5840
      },
      {
        "length": 32,
        "start": 5951
      },
      {
        "length": 32,
        "start": 6625
      },
      {
        "length": 32,
        "start": 7864
      },
      {
        "length": 32,
        "start": 8593
      },
      {
        "length": 32,
        "start": 8829
      },
      {
        "length": 32,
        "start": 10033
      }
    ]
  },
  "source": "// SPDX-License-Identifier: MIT\n// solhint-disable-next-line compiler-version\npragma solidity >=0.6.0 <0.8.0;\n\nimport \"@openzeppelin/contracts/token/ERC20/SafeERC20.sol\";\nimport \"@openzeppelin/contracts/token/ERC20/IERC20.sol\";\nimport \"@openzeppelin/contracts/access/AccessControl.sol\";\nimport \"@openzeppelin/contracts/utils/Counters.sol\";\nimport \"@openzeppelin/contracts/utils/Context.sol\";\n\nimport \"../interfaces/IWalletHunters.sol\";\nimport \"../interfaces/IRewardsToken.sol\";\nimport \"../utils/AccountingToken.sol\";\n\ncontract WalletHunters is\n    IWalletHunters,\n    Context,\n    AccessControl,\n    AccountingToken\n{\n    using Counters for Counters.Counter;\n    using SafeMath for uint256;\n    using SafeERC20 for IRewardsToken;\n    using EnumerableSet for EnumerableSet.UintSet;\n\n    uint256 public constant SUPER_MAJORITY = 67;\n    uint256 public constant SHERIFFS_REWARD_SHARE = 20;\n    uint256 public constant FIXED_SHERIFF_REWARD = 10000 ether;\n    uint256 public constant MINIMAL_VOTES_FOR_REQUEST = 2000 ether;\n    uint256 public constant MINIMAL_DEPOSIT_FOR_SHERIFF = 1000 ether;\n\n    bytes32 public constant MAYOR_ROLE = keccak256(\"MAYOR_ROLE\");\n\n    uint256 private immutable _votingDuration;\n    IRewardsToken public immutable rewardsToken;\n\n    Counters.Counter private _requestCounter;\n    mapping(uint256 => IWalletHunters.WalletRequest) private walletRequests;\n    mapping(uint256 => IWalletHunters.RequestVoting) private requestVotings;\n    mapping(address => IWalletHunters.SheriffVotes) private sheriffVotes;\n\n    modifier onlyMayor() {\n        require(\n            hasRole(MAYOR_ROLE, _msgSender()),\n            \"Must have mayor role to discard\"\n        );\n        _;\n    }\n\n    modifier validateRequestId(uint256 requestId) {\n        require(\n            requestId <= _requestCounter.current(),\n            \"Request doesn't exist\"\n        );\n        require(!walletRequests[requestId].discarded, \"Request is discarded\");\n        _;\n    }\n\n    constructor(address rewardsToken_, uint256 votingDuration_)\n        AccountingToken(\"Wallet Hunters, Sheriff Token\", \"WHST\")\n    {\n        _setupRole(DEFAULT_ADMIN_ROLE, _msgSender());\n\n        _setupRole(MAYOR_ROLE, _msgSender());\n\n        _votingDuration = votingDuration_;\n        rewardsToken = IRewardsToken(rewardsToken_);\n    }\n\n    function submitRequest(\n        address hunter,\n        uint256 reward\n    ) external override returns (uint256) {\n        _requestCounter.increment();\n        uint256 id = _requestCounter.current();\n\n        IWalletHunters.WalletRequest storage _request = walletRequests[id];\n\n        _request.hunter = hunter;\n        _request.reward = reward;\n        // solhint-disable-next-line not-rely-on-time\n        _request.requestTime = block.timestamp;\n\n        emit NewWalletRequest(id, hunter, reward);\n\n        return id;\n    }\n\n    function stake(address sheriff, uint256 amount) external override {\n        require(sheriff == _msgSender(), \"Sender must be sheriff\");\n        require(amount > 0, \"Cannot deposit 0\");\n        _mint(sheriff, amount);\n        rewardsToken.safeTransferFrom(sheriff, address(this), amount);\n        emit Staked(sheriff, amount);\n    }\n\n    function stakeWithPermit(address sheriff, uint256 amount, uint256 deadline, uint8 v, bytes32 r, bytes32 s) external override {\n        require(sheriff == _msgSender(), \"Sender must be sheriff\");\n        require(amount > 0, \"Cannot deposit 0\");\n        _mint(sheriff, amount);\n        rewardsToken.permit(sheriff, address(this), amount, deadline, v, r, s);\n        rewardsToken.safeTransferFrom(sheriff, address(this), amount);\n        emit Staked(sheriff, amount);\n    }\n\n    function vote(\n        address sheriff,\n        uint256 requestId,\n        Vote kind\n    ) external override validateRequestId(requestId) {\n        require(sheriff == _msgSender(), \"Sender must be sheriff\");\n        require(isSheriff(sheriff), \"Sender is not sheriff\");\n        require(_votingState(requestId), \"Voting is finished\");\n\n        uint256 amount = balanceOf(sheriff);\n\n        require(\n            sheriffVotes[sheriff].requests.add(requestId),\n            \"Sheriff is already voted\"\n        );\n        sheriffVotes[sheriff].votes[requestId].amount = amount;\n\n        if (kind == Vote.FOR) {\n            sheriffVotes[sheriff].votes[requestId].voteFor = true;\n            requestVotings[requestId].votesFor = requestVotings[requestId]\n                .votesFor\n                .add(amount);\n        } else {\n            sheriffVotes[sheriff].votes[requestId].voteFor = false;\n            requestVotings[requestId].votesAgainst = requestVotings[requestId]\n                .votesAgainst\n                .add(amount);\n        }\n\n        emit Voted(sheriff, amount, kind);\n    }\n\n    function discardRequest(address mayor, uint256 requestId)\n        external\n        override\n        onlyMayor\n        validateRequestId(requestId)\n    {\n        require(mayor == _msgSender(), \"Sender must be mayor\");\n        require(_votingState(requestId), \"Voting is finished\");\n\n        walletRequests[requestId].discarded = true;\n\n        emit RequestDiscarded(requestId, mayor);\n    }\n\n    function withdraw(address sheriff, uint256 amount) public override {\n        require(sheriff == _msgSender(), \"Sender must be sheriff\");\n        require(amount > 0, \"Cannot withdraw 0\");\n        uint256 available = balanceOf(sheriff).sub(lockedBalance(sheriff));\n        require(amount <= available, \"Withdraw exceeds balance\");\n        _burn(sheriff, amount);\n        rewardsToken.safeTransfer(sheriff, amount);\n        emit Withdrawn(sheriff, amount);\n    }\n\n    function exit(address sheriff) external override {\n        require(_msgSender() == sheriff, \"Sender must be sheriff\");\n        withdraw(sheriff, balanceOf(sheriff));\n        getSheriffRewards(sheriff);\n    }\n\n    function getHunterReward(address hunter, uint256 requestId)\n        external\n        override\n    {\n        require(hunter == _msgSender(), \"Sender must be hunter\");\n        require(\n            hunter == walletRequests[requestId].hunter,\n            \"Hunter isn't valid\"\n        );\n\n        uint256 reward = hunterReward(requestId);\n        walletRequests[requestId].rewardPaid = true;\n\n        if (reward > 0) {\n            rewardsToken.mint(hunter, reward);\n        }\n\n        emit HunterRewardPaid(hunter, requestId, reward);\n    }\n\n    function getHunterRewardsByIds(address hunter, uint256[] calldata requestIds)\n        external\n        override\n    {\n        require(hunter == _msgSender(), \"Sender must be hunter\");\n\n        uint256 totalReward = 0;\n\n        for (uint256 i = 0; i < requestIds.length; i = i.add(1)) {\n            uint256 requestId = requestIds[i];\n            require(\n                hunter == walletRequests[requestId].hunter,\n                \"Hunter isn't valid\"\n            );\n            uint256 reward = hunterReward(requestId);\n            totalReward = totalReward.add(reward);\n\n            walletRequests[requestId].rewardPaid = true;\n\n            emit HunterRewardPaid(hunter, requestId, reward);\n        }\n\n        if (totalReward > 0) {\n            rewardsToken.mint(hunter, totalReward);\n        }\n    }\n\n    function getSheriffReward(address sheriff, uint256 requestId)\n        external\n        override\n    {\n        require(sheriff == _msgSender(), \"Sender must be sheriff\");\n        uint256 reward = sheriffReward(sheriff, requestId);\n\n        _removeVote(sheriff, requestId);\n\n        if (reward > 0) {\n            rewardsToken.mint(sheriff, reward);\n        }\n\n        emit SheriffRewardPaid(sheriff, requestId, reward);\n    }\n\n    function getSheriffRewards(address sheriff) public override {\n        require(sheriff == _msgSender(), \"Sender must be sheriff\");\n        uint256 totalReward = 0;\n\n        for (uint256 i = 0; i < sheriffVotes[sheriff].requests.length();) {\n            uint256 requestId = sheriffVotes[sheriff].requests.at(i);\n\n            if(_votingState(requestId)) {\n                i = i.add(1);\n                continue;\n            }\n\n            uint256 reward = sheriffReward(sheriff, requestId);\n            totalReward = totalReward.add(reward);\n\n            _removeVote(sheriff, requestId);\n\n            emit SheriffRewardPaid(sheriff, requestId, reward);\n        }\n\n        if (totalReward > 0) {\n            rewardsToken.mint(sheriff, totalReward);\n        }\n    }\n\n    function getSheriffRewardsByIds(address sheriff, uint256[] calldata requestIds)\n        external\n        override\n    {\n        require(sheriff == _msgSender(), \"Sender must be sheriff\");\n        uint256 totalReward = 0;\n\n        for (uint256 i = 0; i < requestIds.length; i = i.add(1)) {\n            uint256 requestId = requestIds[i];\n            uint256 reward = sheriffReward(sheriff, requestId);\n            totalReward = totalReward.add(reward);\n\n            _removeVote(sheriff, requestId);\n\n            emit SheriffRewardPaid(sheriff, requestId, reward);\n        }\n\n        if (totalReward > 0) {\n            rewardsToken.mint(sheriff, totalReward);\n        }\n    }\n\n    function hunterReward(uint256 requestId)\n        public\n        view\n        override\n        validateRequestId(requestId)\n        returns (uint256)\n    {\n        require(!_votingState(requestId), \"Voting is not finished\");\n\n        if (\n            !walletRequests[requestId].rewardPaid && _walletApproved(requestId)\n        ) {\n            return\n                walletRequests[requestId]\n                    .reward\n                    .mul(100 - SHERIFFS_REWARD_SHARE)\n                    .div(100);\n        } else {\n            return 0;\n        }\n    }\n\n    function sheriffReward(address sheriff, uint256 requestId)\n        public\n        view\n        override\n        returns (uint256)\n    {\n        require(\n            requestId <= _requestCounter.current(),\n            \"Request doesn't exist\"\n        );\n        require(sheriffVotes[sheriff].requests.contains(requestId), \"Sheriff doesn't vote\");\n        require(!_votingState(requestId), \"Voting is not finished\");\n\n        if (walletRequests[requestId].discarded) {\n            return 0;\n        }\n\n        if (_walletApproved(requestId)) {\n            uint256 reward = walletRequests[requestId].reward;\n            uint256 votes = _getSheriffVotes(sheriff, requestId, true);\n            uint256 totalVotes = requestVotings[requestId].votesFor;\n            return\n                reward\n                    .mul(votes)\n                    .div(totalVotes)\n                    .mul(SHERIFFS_REWARD_SHARE)\n                    .div(100);\n        } else {\n            return FIXED_SHERIFF_REWARD;\n        }\n    }\n\n    function request(uint256 requestId)\n        external\n        view\n        override\n        validateRequestId(requestId)\n        returns (\n            address hunter,\n            uint256 reward,\n            uint256 requestTime,\n            bool votingState,\n            bool rewardPaid,\n            bool discarded\n        )\n    {\n        hunter = walletRequests[requestId].hunter;\n        reward = walletRequests[requestId].reward;\n        requestTime = walletRequests[requestId].requestTime;\n        // solhint-disable-next-line not-rely-on-time\n        votingState = block.timestamp <= requestTime.add(_votingDuration);\n        rewardPaid = walletRequests[requestId].rewardPaid;\n        discarded = walletRequests[requestId].discarded;\n    }\n\n    function countVotes(uint256 requestId)\n        external\n        view\n        override\n        returns (uint256 votesFor, uint256 votesAgainst)\n    {\n        votesFor = requestVotings[requestId].votesFor;\n        votesAgainst = requestVotings[requestId].votesAgainst;\n    }\n\n    function isSheriff(address sheriff) public view override returns (bool) {\n        return balanceOf(sheriff) >= MINIMAL_DEPOSIT_FOR_SHERIFF;\n    }\n\n    function votingDuration() external view override returns (uint256) {\n        return _votingDuration;\n    }\n\n    function lockedBalance(address sheriff)\n        public\n        view\n        override\n        returns (uint256 locked)\n    {\n        locked = 0;\n\n        for (\n            uint256 i = 0;\n            i < sheriffVotes[sheriff].requests.length();\n            i = i.add(1)\n        ) {\n            uint256 requestId = sheriffVotes[sheriff].requests.at(i);\n            if (!_votingState(requestId)) {\n                continue;\n            }\n            if (walletRequests[requestId].discarded) {\n                continue;\n            }\n            uint256 votes = sheriffVotes[sheriff].votes[requestId].amount;\n            if (locked >= votes) {\n                continue;\n            }\n            locked = votes;\n        }\n    }\n\n    function _removeVote(address sheriff, uint256 requestId) internal {\n        sheriffVotes[sheriff].requests.remove(requestId);\n        delete sheriffVotes[sheriff].votes[requestId];\n    }\n\n    function _walletApproved(uint256 requestId) internal view returns (bool) {\n        uint256 totalVotes =\n            requestVotings[requestId].votesFor +\n                requestVotings[requestId].votesAgainst;\n        if (totalVotes < MINIMAL_VOTES_FOR_REQUEST) {\n            return false;\n        }\n        return\n            requestVotings[requestId].votesFor.mul(100).div(totalVotes) >\n            SUPER_MAJORITY;\n    }\n\n    function _finishTime(uint256 requestId) internal view returns (uint256) {\n        return walletRequests[requestId].requestTime.add(_votingDuration);\n    }\n\n    function _votingState(uint256 requestId) internal view returns (bool) {\n        // solhint-disable-next-line not-rely-on-time\n        return block.timestamp <= _finishTime(requestId);\n    }\n\n    function _getSheriffVotes(\n        address sheriff,\n        uint256 requestId,\n        bool voteFor\n    ) internal view returns (uint256) {\n        if (sheriffVotes[sheriff].votes[requestId].voteFor == voteFor) {\n            return sheriffVotes[sheriff].votes[requestId].amount;\n        } else {\n            return 0;\n        }\n    }\n}\n",
  "sourcePath": "/home/nailkhaf/Projects/san-games/contracts/hunters/WalletHunters.sol",
  "compiler": {
    "name": "solc",
    "version": "0.7.6+commit.7338295f.Emscripten.clang"
  },
  "schemaVersion": "3.3.3",
  "updatedAt": "2021-02-18T09:31:11.918Z",
  "devdoc": {
    "kind": "dev",
    "methods": {
      "allowance(address,address)": {
        "details": "See {IERC20-allowance}."
      },
      "approve(address,uint256)": {
        "details": "See {IERC20-approve}. Requirements: - `spender` cannot be the zero address."
      },
      "balanceOf(address)": {
        "details": "See {IERC20-balanceOf}."
      },
      "decimals()": {
        "details": "Returns the number of decimals used to get its user representation. For example, if `decimals` equals `2`, a balance of `505` tokens should be displayed to a user as `5,05` (`505 / 10 ** 2`). Tokens usually opt for a value of 18, imitating the relationship between Ether and Wei. This is the value {ERC20} uses, unless {_setupDecimals} is called. NOTE: This information is only used for _display_ purposes: it in no way affects any of the arithmetic of the contract, including {IERC20-balanceOf} and {IERC20-transfer}."
      },
      "decreaseAllowance(address,uint256)": {
        "details": "Atomically decreases the allowance granted to `spender` by the caller. This is an alternative to {approve} that can be used as a mitigation for problems described in {IERC20-approve}. Emits an {Approval} event indicating the updated allowance. Requirements: - `spender` cannot be the zero address. - `spender` must have allowance for the caller of at least `subtractedValue`."
      },
      "getRoleAdmin(bytes32)": {
        "details": "Returns the admin role that controls `role`. See {grantRole} and {revokeRole}. To change a role's admin, use {_setRoleAdmin}."
      },
      "getRoleMember(bytes32,uint256)": {
        "details": "Returns one of the accounts that have `role`. `index` must be a value between 0 and {getRoleMemberCount}, non-inclusive. Role bearers are not sorted in any particular way, and their ordering may change at any point. WARNING: When using {getRoleMember} and {getRoleMemberCount}, make sure you perform all queries on the same block. See the following https://forum.openzeppelin.com/t/iterating-over-elements-on-enumerableset-in-openzeppelin-contracts/2296[forum post] for more information."
      },
      "getRoleMemberCount(bytes32)": {
        "details": "Returns the number of accounts that have `role`. Can be used together with {getRoleMember} to enumerate all bearers of a role."
      },
      "grantRole(bytes32,address)": {
        "details": "Grants `role` to `account`. If `account` had not been already granted `role`, emits a {RoleGranted} event. Requirements: - the caller must have ``role``'s admin role."
      },
      "hasRole(bytes32,address)": {
        "details": "Returns `true` if `account` has been granted `role`."
      },
      "increaseAllowance(address,uint256)": {
        "details": "Atomically increases the allowance granted to `spender` by the caller. This is an alternative to {approve} that can be used as a mitigation for problems described in {IERC20-approve}. Emits an {Approval} event indicating the updated allowance. Requirements: - `spender` cannot be the zero address."
      },
      "name()": {
        "details": "Returns the name of the token."
      },
      "renounceRole(bytes32,address)": {
        "details": "Revokes `role` from the calling account. Roles are often managed via {grantRole} and {revokeRole}: this function's purpose is to provide a mechanism for accounts to lose their privileges if they are compromised (such as when a trusted device is misplaced). If the calling account had been granted `role`, emits a {RoleRevoked} event. Requirements: - the caller must be `account`."
      },
      "revokeRole(bytes32,address)": {
        "details": "Revokes `role` from `account`. If `account` had been granted `role`, emits a {RoleRevoked} event. Requirements: - the caller must have ``role``'s admin role."
      },
      "symbol()": {
        "details": "Returns the symbol of the token, usually a shorter version of the name."
      },
      "totalSupply()": {
        "details": "See {IERC20-totalSupply}."
      },
      "transfer(address,uint256)": {
        "details": "See {IERC20-transfer}. Requirements: - `recipient` cannot be the zero address. - the caller must have a balance of at least `amount`."
      },
      "transferFrom(address,address,uint256)": {
        "details": "See {IERC20-transferFrom}. Emits an {Approval} event indicating the updated allowance. This is not required by the EIP. See the note at the beginning of {ERC20}. Requirements: - `sender` and `recipient` cannot be the zero address. - `sender` must have a balance of at least `amount`. - the caller must have allowance for ``sender``'s tokens of at least `amount`."
      }
    },
    "version": 1
  },
  "userdoc": {
    "kind": "user",
    "methods": {},
    "version": 1
  }
}